:100000000C947A030C94A2030C94A2030C94A20304
:100010000C94A2030C94A2030C94A2030C94F1661A
:100020000C9418670C943F670C9466670C94A203B9
:100030000C94A2030C94A2030C94A2030C94A203AC
:100040000C94A2030C948D670C94AC650C94DC6545
:100050000C94766B0C94A2030C94A2030C94A20350
:100060000C94A2030C94A2030C94A2030C94A2037C
:100070000C94A2030C94A2030C94A203D506D506FB
:10008000D506D506D506E0063607360713089607C7
:10009000D5062715271508170817481177110412D8
:1000A0006212CE1252138A133D154A14DD143D1507
:1000B0000E2BFC2A022B052B0B2B082BFF2A242DA1
:1000C0002A2E6E2E6E2EF72D802D6E2E6E2E6E2EFB
:1000D0006E2E6E2E6E2E6E2E6E2E4D2DD22D6E2EFF
:1000E000672ED33FD33FD33FD83FDF3FE63FE63FC6
:1000F000E63FED3FD33F31413141884188413141B5
:1001000078408A408A408A408A40AE40AE403141C1
:10011000AE408A4008000000BE922449123EABAABD
:10012000AA2ABECDCCCC4C3E00000080BEABAAAA11
:10013000AA3E00000000BF000000803F0000000059
:1001400000084178D3BB4387D1133D190E3CC3BD92
:100150004282AD2B3E68EC8276BED98FE1A93E4C3F
:1001600080EFFFBE01C4FF7F3F000000000044425B
:10017000473B2C25642E253033642C202C25642C01
:1001800025642C202C25642C202C25642C25642C03
:1001900025642C25642C25642C202C25642C2564B6
:1001A0002C2025632C25732C25732C202C25642CC6
:1001B00025642C25642C25732C202C25642C256487
:1001C0002C20202C25642C25642C25642C25730DD3
:1001D0000A009A996141009749010F000000000050
:1001E00000000000000066665641FFFF00000000AE
:1001F000F6FF0000CDCC4C410000000000000000E4
:100200000000000000000000000000000000A69BAD
:10021000C43CF7FFD3FF3400CDCC6C4180CBA400AD
:100220000500000000000000000000000000584130
:10023000FFFF00000000F6FF0000CDCC4C410000A5
:1002400000000000000000000000000000000000AE
:10025000000000008FC2F53CF7FFD3FF34009A99ED
:1002600069414031F7000500000000000000000077
:10027000000066665641FFFF00000000F6FF000028
:10028000CDCC4C4100000000000000000000CDCCAF
:100290007441000020BF020000008FC2F53CF7FF50
:1002A000D3FF340033336B414031F70003000000CB
:1002B000000000000000000066665641FFFF0000DD
:1002C0000000F6FF0000CDCC4C4100000000000013
:1002D000000000000000000000000000000000001E
:1002E000A69BC43CF7FFD3FF34009A996141009765
:1002F00049010500000000000000000000000000AF
:100300005841FFFF00000000F6FF0000CDCC4C413B
:1003100000000000000000000000000000000000DD
:100320000000000000008FC2F53CF7FFD3FF34004F
:100330000000604180EE36000F0000000000000069
:10034000000000009A995141FFFF000000000000EA
:10035000000000000000000000000000000000009D
:10036000000000000000000000000000000000008D
:10037000F7FFD3FF340066666641009749010F001E
:100380000F00CDCC744180CBA4009A995141FFFF5E
:1003900000000000F6FF0000CDCC4C410000000042
:1003A000000000000000CDCC7441000020BF02001E
:1003B00000008FC2F53CF7FFD3FF340066665E4154
:1003C00080EE36000F00000000000000000000007A
:1003D0008FC255410000000000000000CEFFCDCCD0
:1003E0005441000000000000000000000000000078
:1003F00000000000000000000000000000000000FD
:100400002D00000000006410B71DC8206E3BAC300A
:10041000D9269041DC76F4516B6B5861B24D3C713A
:1004200005502083B8ED44930FF0E8A3D6D68CB3E3
:1004300061CBB0C2649BD4D2D38678E20AA01CF20E
:10044000BDBD2A2A2A2A005353543B2C25732C2045
:100450002C2531752C2531752C202C25642C2573E9
:100460002C25732C202C25642C25642C202C256411
:100470002C25642C202C2531750D0A005343563B46
:100480002C2531752C2C2531752C25732C25732C9E
:100490002531752C202C25642C25732C25732C25B7
:1004A000732C25642C202C25642C25642C202C25D1
:1004B000642C25732C25642C202C25642C25640D9C
:1004C0000A004E50433B2C2531752C25732C257387
:1004D0000D0A004353543B2C25642C25642C2564C1
:1004E0002C25642C20202C2531752C2531752C20B1
:1004F000202C2531752C2531752C2531752C202C7F
:1005000025642C2531752C2531752C20202C256453
:100510002C202C25640D0A004350453B2C25642CCF
:1005200025732C25642C25642C25642C202C256413
:100530002C25642C25732C25642C202C25732C252C
:10054000642C25642C25642C25642C25732C202CEC
:1005500025642C25732C25642C202C25732C2564D4
:100560002C25642C25642C202C25732C25642C250B
:10057000642C25640D0A004153543B2C25642E2520
:100580003032642C202C25732C25732C25732C25BC
:10059000642C202C25732C25642C25642C25642C9C
:1005A000202C25642C25642C202C25642C202C2523
:1005B000732C25642C25642C25640D0A0000000290
:1005C000000A002A00AA00AA02AA0AAA2AAAAA467F
:1005D0004C543B25640D0A00464C543B2C25642C9E
:1005E000202C25642C25640D0A00610310031003E0
:1005F00014F0010016F0010012F2010000000000EA
:1006000010F0010000F2010014F2010019F20100E3
:100610000000000000ED01000000000000E8000004
:1006200000EA000000EE000000000000120C370E8F
:100630000C37080C37060C370604130204130203A8
:100640000508090A0607040B0C0E0F100001040030
:100650000000000000000000000003000000000097
:100660000000000010080204080102800810800148
:1006700001020420400410204020408004040303B1
:100680000302020402020304030404040402030339
:1006900003020202000000002300260029000000DF
:1006A0000000250028002B00000000002400270087
:1006B0002A004E414E494E495459494E46CDCCCC64
:1006C0003D0AD7233C17B7D13877CC2B329595E626
:1006D000241FB14F0A000020410000C84200401C06
:1006E0004620BCBE4CCA1B0E5AAEC59D7400DA2B08
:1006F000F165D86B11241FBECFEFD0E1DEBFCDBFB7
:1007000013E0A0E0B1E0E2ECFBEE02C005900D9238
:10071000A23CB107D9F729E0A2ECB3E001C01D92D9
:10072000AC3BB207E1F716E0C4EFD6E004C0229775
:10073000FE010E94456FCE3ED107C9F70E94466C6C
:100740000C94DF750C940000809143049091440454
:100750000196909344048093430481E08093420483
:1007600008958F929F92AF92BF92CF92DF92EF92B5
:10077000FF920E94D767C090AF05D090B005E0907F
:10078000B105F090B2056C197D098E099F09693E8B
:1007900073408105910548F48091B3059091B405AB
:1007A000909341048093400498C00E94E3676B01DA
:1007B0007C01A0904304B090440480914504909142
:1007C0004604A0914704B0914804A7019601281B54
:1007D000390B4A0B5B0BDA01C90180549244AF40DC
:1007E000B109B7FD11C0C0924504D0924604E09211
:1007F0004704F0924804109244041092430410926B
:1008000041041092400469C084E6A816B1040CF4B7
:1008100064C060E077E883E993E00E94216FD5012E
:100820000E945B6F0E945C6D4B015C01609129012D
:1008300070E080E090E00E945E6D20912A0130918E
:100840002B0140912C0150912D010E94576E20E008
:1008500030E040E05FE30E94576E9B01AC01C501B0
:10086000B4010E94C36C0E942B6D16161706ACF5DE
:100870007093410460934004809130019091310164
:10088000019691F480915F049091600420915D0441
:1008900030915E04821793071CF02F3F3F4F21F4E5
:1008A00090935E0480935D0480915D0490915E045A
:1008B0008C34910534F08BE490E090935E04809347
:1008C0005D04C0924504D0924604E0924704F09241
:1008D00048041092440410924304FF90EF90DF907C
:1008E000CF90BF90AF909F908F900895CF92DF925E
:1008F000EF92FF92CF93DF9320910B0130910C0187
:1009000040910D0150910E010E94576E6093350485
:100910007093360480933704909338048091B80222
:100920009091B90260913D0470913E048C399F4FC3
:1009300049F4C0901D01D0901E01E0901F01F0907D
:10094000200115C080912E04882349F0C090190120
:10095000D0901A01E0901B01F0901C0108C0C090DB
:100960001501D0901601E0901701F090180188272A
:1009700077FD8095982F0E945E6D9B01AC01C701A9
:10098000B6010E94576E60933104709332048093D5
:1009900033049093340420E030E04EE753E4C70181
:1009A000B6010E94576E0E942B6D70936E0160938A
:1009B0006D01E0905D04F0905E04C0904004D09022
:1009C00041041E141F042CF5C114D10411F58091AB
:1009D0002101909122010196E1F4C0916D01D09125
:1009E0006E01BE01882777FD8095982F0E945E6D6D
:1009F0002DEC3CEC41E353E40E94BF6C87FD03C047
:100A000091EB80E002C09C2F8D2F90936D0180931D
:100A10006E01C114D10489F160912101709122010C
:100A20001616170654F58091230190912401C81AD7
:100A3000D90AC601880F991F8C0D9D1D0E940D6F4C
:100A4000643C8FEF78076CF080916D0190916E019E
:100A50009B01255C3F4F2817390734F4645C7F4FB6
:100A600004C060E070E001C0BC016E157F050CF4AD
:100A7000B70170936E0160936D0120E030E0A90131
:100A80006091310470913204809133049091340468
:100A90000E94BF6CC0912F04D0913004882319F0BC
:100AA000C630D10561F480E090E0AAE7B4E4809319
:100AB000310490933204A0933304B0933404C630CD
:100AC000D10531F48EEF90E090936E0180936D012B
:100AD00080912701909128018F3F2FEF9207C9F451
:100AE0002091310430913204409133045091340408
:100AF00060913504709136048091370490913804E8
:100B00000E94576E0E942B6D70933A0460933904D3
:100B100004C090933A0480933904809139049091F1
:100B20003A04892B11F0269731F488E99AE39093DF
:100B30003A0480933904DF91CF91FF90EF90DF90DA
:100B4000CF90089520912F04309130042817390751
:100B500011F19093300480932F040E94D767609323
:100B60005504709356048093570490935804109240
:100B70001E07109203078091DE069091DF06A09178
:100B8000E006B091E1068093490490934A04A09353
:100B90004B04B0934C040895CF93DF93EC010E9473
:100BA000D7676093590470935A0480935B049093C1
:100BB0005C04D0936004C0935F0480912F049091F3
:100BC0003004039720F41092600410925F04BE0179
:100BD00082E0DF91CF910C94C06861E082E00E94D6
:100BE000326980E090E00E94CC05E1E8F0E080818D
:100BF000887F8460808343E050E064EA73E083E0B0
:100C00000E94B36680E090E00E94A20581E0089512
:100C1000CF92DF92EF92FF92CF93DF93C0913D048A
:100C2000D0913E041C161D0624F5809103078823ED
:100C300001F120E030E048EC52E460910C07709143
:100C40000D0780910E0790910F070E94576E6B0160
:100C50007C01BE01882777FD8095982F0E945E6DEC
:100C60009B01AC01C701B6010E94C36C0E94306DAC
:100C700047C0E0905D04F0905E04F7FE02C0E12CF6
:100C8000F12C8091B8029091B9028C399F4F69F490
:100C900020E030E04EE753E460911D0170911E01A9
:100CA00080911F019091200119C080912E0420E0B5
:100CB00030E04EE753E4882349F0609119017091C8
:100CC0001A0180911B0190911C0108C060911501CF
:100CD0007091160180911701909118010E94576E32
:100CE0000E942B6D20915F04309160042E193F0902
:100CF00044E6429FC001439F900D11240E940D6F56
:100D0000862F653608F084E6DF91CF91FF90EF9053
:100D1000DF90CF9008954F925F926F927F928F9263
:100D20009F92AF92BF92CF92DF92EF92FF9280910B
:100D3000E203883060F082E090E09093300480938A
:100D40002F0481E290E09093240780932307809101
:100D5000B4029091B5028D392FEF9207C9F020911E
:100D60002F04309130042E30310591F0209127046A
:100D700030912804821793073CF420912504309188
:100D800026042817390724F08AE090E00E94A20583
:100D9000E0912F04F09130043497EB30F10508F026
:100DA00042C1E25CFF4F0C94436F6091E30370918A
:100DB000E4038091E5039091E6030E94760447C125
:100DC0006091EF037091F0038091F1039091F20331
:100DD0000E947604C0903104D0903204E090330435
:100DE000F09034046091ED037091EE03882777FD55
:100DF0008095982F0E945E6D20910F013091100117
:100E000040911101509112010E94576E4B01B82E72
:100E1000A92E9B01482F592FB601C7010E94BF6C14
:100E200087FF03C0BE2CAF2C01C06401A6016B2D4F
:100E30007A2D4093310450933204609333047093BD
:100E40003404E0903904F0903A0420910B01309181
:100E50000C0140910D0150910E016091EF037091D2
:100E6000F0038091F1039091F203B9C06091F70310
:100E70007091F8038091F9039091FA030E9476042F
:100E80006091FB037091FC036F3F8FEF780709F4CB
:100E9000DEC080910307882309F4D9C0C0903104D3
:100EA000D0903204E0903304F0903404882777FD2A
:100EB0008095982F0E945E6D20910F013091100156
:100EC00040911101509112010E94576E4B01B82EB2
:100ED000A92E9B01482F592FB601C7010E94BF6C54
:100EE00087FF03C0BE2CAF2C01C06401A6016B2D8F
:100EF0007A2D4093310450933204609333047093FD
:100F00003404E0903904F0903A0420910B013091C0
:100F10000C0140910D0150910E016091F703709109
:100F2000F8038091F9039091FA0359C0609113047A
:100F30007091140480911504909116040E94760417
:100F400060911704709118046115710509F47FC050
:100F5000C0903104D0903204E0903304F090340417
:100F6000882777FD8095982F0E945E6D20910F0154
:100F70003091100140911101509112010E94576E61
:100F80004B01B82EA92E9B01482F592FB601C7013E
:100F90000E94BF6C87FF03C0BE2CAF2C01C0640150
:100FA000A6016B2D7A2D4093310450933204609347
:100FB000330470933404E0903904F0903A042091A3
:100FC0000B0130910C0140910D0150910E01609187
:100FD00013047091140480911504909116040E94DA
:100FE000576E96014B2D5A2D0E94576E4B015C0196
:100FF000B701882777FD8095982F0E945E6DA50127
:1010000094010E94BF6C87FD07C0C501B4010E9416
:101010002B6D262F872F02C02E2D8F2D2093390464
:1010200080933A0414C01092350410923604109242
:1010300037041092380410923A0410923904109236
:1010400031041092320410923304109234048091CF
:10105000C605882309F44EC18091DB0581114AC180
:101060008091C7059091C805009709F443C18F3F4F
:10107000910509F43FC120910B0130910C01409181
:101080000D0150910E016091CD057091CE058091BA
:10109000CF059091D0050E94C36C0E9476040E94F7
:1010A000D767C090C005D090C105E090C205F09010
:1010B000C3056C197D098E099F096D347D41810539
:1010C000910508F4D6C0C090F605D090F705E090E1
:1010D000F805F090F9054090C9055090CA05609058
:1010E000CB057090CC05A3019201C701B6010E9407
:1010F0000E6E18160CF087C080910307882309F440
:1011000053C00E94D767C090BC05D090BD05E09049
:10111000BE05F090BF056C197D098E099F096D34DD
:101120007D4181059105C8F02091C9053091CA051E
:101130004091CB055091CC056091F6057091F70573
:101140008091F8059091F9050E945A6C20E030E0FA
:1011500040E05FE30E94576E12C02091C9053091B4
:10116000CA054091CB055091CC056091F605709170
:10117000F7058091F8059091F9050E945A6C9B0142
:10118000AC0160910C0770910D0780910E07909152
:101190000F070E945A6C609331047093320480935D
:1011A0003304909334042FC060916D0170916E01EF
:1011B00080915F0490916004681779072CF4882768
:1011C00077FD8095982F05C0BC01882777FD809515
:1011D000982F0E945E6D4B015C01A3019201C70133
:1011E000B6010E945A6CA70196010E94C36C9B0134
:1011F000AC01C501B4010E94576E0E942B6D709323
:101200006E0160936D018090F6059090F705A090B7
:10121000F805B090F905C090C905D090CA05E090D6
:10122000CB05F090CC05A7019601C501B4010E9441
:10123000BF6C87FF1EC0809103078823D1F0A501F2
:101240009401C701B6010E945A6C9B01AC016091E8
:101250000C0770910D0780910E0790910F070E9467
:101260005B6C6093310470933204809333049093E9
:1012700034040E94D767C090B805D090B905E090BB
:10128000BA05F090BB056C197D098E099F096D3474
:101290007D418105910588F480915F0490916004FF
:1012A00020916D0130916E010297281739070CF4D7
:1012B000C90190936E0180936D010E94D767C09021
:1012C000BC05D090BD05E090BE05F090BF056C193F
:1012D0007D098E099F096D347D418105910508F4D2
:1012E000BFC0A090B605B090B705A114B10409F035
:1012F00051C0B6C0C0903504D0903604E090370499
:10130000F090380420E030E0A901C701B6010E9446
:10131000BF6C882309F4A9C02091B4023091B502B2
:101320002D398FEF380709F4A0C0809123049091E4
:101330002404821793070CF4C90169E170E0681B6B
:10134000790B882777FD8095982F0E945E6D2091FC
:101350001F043091200440912104509122040E94E6
:10136000576E20910B0130910C0140910D0150916D
:101370000E010E94576E9B01AC01C701B6010E948D
:101380005B6C6093350470933604809337049093BC
:1013900038046BC00E940806682F70E080E090E07F
:1013A0000E945E6D6B017C01B501882777FD8095F9
:1013B000982F0E945E6D2AE939E949E95FE30E94AE
:1013C000576E9B01AC01C701B6010E940E6E181644
:1013D0008CF480915F049091600420916D013091B4
:1013E0006E010197281739070CF4C90190936E011B
:1013F00080936D0180916D0190916E0197FF04C003
:1014000010926E0110926D0180913F04882381F04B
:1014100020916D0130916E0180915D0490915E0488
:10142000821793070CF4C90190936E0180936D01AC
:1014300020E030E0A9016091310470913204809184
:101440003304909134040E94BF6C87FF0EC0109249
:10145000310410923204109233041092340405C007
:101460001092B7051092B605C5CFFF90EF90DF90B0
:10147000CF90BF90AF909F908F907F906F905F9034
:101480004F9008952F923F924F925F926F927F926A
:101490008F929F92AF92BF92CF92DF92EF92FF9284
:1014A0000F931F93CF93DF93CDB7DEB7C950D140D1
:1014B0000FB6F894DEBF0FBECDBF8091FF0681113D
:1014C0000C9408172091350430913604409137046C
:1014D00050913804609108077091090780910A07BC
:1014E00090910B070E945A6CCC52DF4F688379832E
:1014F0008A839B83C45DD04080900C0790900D0739
:10150000A0900E07B0900F07C0903104D090320425
:10151000E0903304F0903404C653DF4FC882D98280
:10152000EA82FB82CA5CD040009101071091020759
:101530002090390430903A04C0900701D0900801FF
:10154000E0900901F0900A01C253DF4FC882D982AE
:10155000EA82FB82CE5CD040E090B802F090B90203
:10156000C850DF4FF982E882C85FD040F090B602E1
:10157000CD5FDE4FF882C350D140C090B702CC5F40
:10158000DE4FC882C450D140D0901401C650DF4F06
:10159000D882CA5FD040C0900B01D0900C01E0907F
:1015A0000D01F0900E01C550DF4FC882D982EA824A
:1015B000FB82CB5FD0400E94D7672B013C01C090DB
:1015C0000B01D0900C01E0900D01F0900E012AE08B
:1015D00037ED43E25DE3C701B6010E94576E9B0100
:1015E000AC01CC52DF4F688179818A819B81C45DD7
:1015F000D0400E940E6E18160CF08EC08091E10350
:10160000811119C060915F0470916004882777FD93
:101610008095982F0E945E6D23E333E343E75FE3F9
:101620000E94576E0E942B6D7093600460935F045C
:1016300081E08093E1032AE037ED43EA5DE3C701EF
:10164000B6010E94576E9B01AC01CC52DF4F6881FE
:1016500079818A819B81C45DD0400E940E6E1816EC
:10166000ECF48091E003811119C060915F047091E6
:101670006004882777FD8095982F0E945E6D2AE789
:101680003DE045E65FE30E94576E0E942B6D70932C
:10169000600460935F0481E08093E0032DEC3CECF8
:1016A0004CEC5DE3C701B6010E94576E9B01AC0193
:1016B000CC52DF4F688179818A819B81C45DD040A3
:1016C0000E940E6E18166CF460E070E082E00E94DA
:1016D000C0680E94F0381092E1031092E0030C946D
:1016E000081780913F04882381F020915F04309196
:1016F000600480915D0490915E04821793070CF45E
:10170000C9019093600480935F0480915F0490917D
:1017100060040E94CC0504C01092E1031092E00323
:101720008091590490915A04A0915B04B0915C049B
:10173000A3019201281B390B4A0B5B0B253631059F
:101740004105510510F40C940817C653DF4F28814A
:1017500039814A815B81CA5CD040C501B4010E94D5
:101760005A6CCA51DF4F688379838A839B83C65E34
:10177000D040B801882777FD8095982F0E945E6D34
:101780006B017C01B101882777FD8095982F0E941D
:101790005E6DC253DF4F288139814A815B81CE5C07
:1017A000D0400E94576E9B01AC01C701B6010E9458
:1017B0005A6CC651DF4F688379838A839B83CA5EE4
:1017C000D040C0900807D0900907E0900A07F09039
:1017D0000B07C852DF4FC882D982EA82FB82C85DFC
:1017E000D0402091DC033091DD034091DE03509125
:1017F000DF03C701B6010E945A6CCC50DF4F6883EB
:1018000079838A839B83C45FD040C092DC03D092EB
:10181000DD03E092DE03F092DF0380900C079090EE
:101820000D07A0900E07B0900F072091D8033091BC
:10183000D9034091DA035091DB03C501B4010E9442
:101840005A6C6B017C018092D8039092D903A092CC
:10185000DA03B092DB030091010710910207809137
:10186000D6039091D703B801681B790B882777FDC1
:101870008095982F0E945E6DC150DF4F68837983F9
:101880008A839B83CF5FD0401093D7030093D60306
:101890000091B8021091B902C653DF4F1983088333
:1018A000CA5CD0400091B6021091B702C452DF4F1B
:1018B00019830883CC5DD040CE50DF4F1983088355
:1018C000C25FD040C653DF4F28813981CA5CD04007
:1018D0000217130734F4CE50DF4F39832883C25FD9
:1018E000D0408091D4039091D503CE50DF4F088132
:1018F0001981C25FD040081B190BC80105311105C1
:1019000014F084E190E0CC51DF4F99838883C45E6A
:10191000D04097FF06C0CC51DF4F19821882C45EB9
:10192000D04020910B0130910C0140910D0150915C
:101930000E01C253DF4F288339834A835B83CE5C19
:10194000D04020E030E040E251E4CC52DF4F6881EB
:1019500079818A819B81C45DD0400E94576EC253B9
:10196000DF4F288139814A815B81CE5CD0400E9463
:10197000C36C2091D0033091D1034091D203509198
:10198000D3030E945B6C162FB72EA82E992E2AE93E
:1019900039E949E95EE3CA51DF4F688179818A817B
:1019A0009B81C65ED0400E94576E2091CC0330913F
:1019B000CD034091CE035091CF030E945B6C862EE5
:1019C000072F382E292E20E030E0A901C651DF4F25
:1019D000688179818A819B81CA5ED0400E94576E5E
:1019E000C253DF4F288139814A815B81CE5CD04070
:1019F0000E94C36C2091C8033091C9034091CA036F
:101A00005091CB030E945B6CCE51DF4F6883C25E66
:101A1000D040CD51DF4F7883C35ED040C251DF4FFD
:101A20008883CE5ED040C051DF4F9883C05FD040E6
:101A300020E030E0A901612F7B2D8A2D992D0E9495
:101A4000BF6C87FD19C026E636E646E65FE3612FE8
:101A50007B2D8A2D992D0E940E6E1816B4F416E671
:101A6000CE52DF4F1883C25DD04066E6B62E76E6D2
:101A7000A72EEFE39E2E0EC0CE52DF4F1882C25D1E
:101A8000D040B12CA12C912C05C0CE52DF4F188331
:101A9000C25DD040CE52DF4F8881C25DD0409B2DC9
:101AA000AA2DB92D8093D0039093D103A093D20394
:101AB000B093D30320E030E0A901682D702F832D6F
:101AC000922D0E94BF6C87FD24C026E636E646E6CE
:101AD0005FE3682D702F832D922D0E940E6E1816D5
:101AE0006CF506E6C252DF4F0883CE5DD04016E6A5
:101AF000C152DF4F1883CF5DD040C052DF4F088303
:101B0000C05ED0401FE3CF51DF4F1883C15ED0408D
:101B100029C0C252DF4F1882CE5DD040C152DF4F84
:101B20001882CF5DD040C052DF4F1882C05ED040D7
:101B3000CF51DF4F1882C15ED04014C0C252DF4F78
:101B40008882CE5DD040C152DF4F0883CF5DD04048
:101B5000C052DF4F3882C05ED040CF51DF4F288265
:101B6000C15ED040C252DF4F8881CE5DD040C152AD
:101B7000DF4F9881CF5DD040C052DF4FA881C05E5B
:101B8000D040CF51DF4FB881C15ED0408093CC03AD
:101B90009093CD03A093CE03B093CF0320E030E029
:101BA000A901CE51DF4F6881C25ED040CD51DF4FD9
:101BB0007881C35ED040C251DF4F8881CE5ED04075
:101BC000C051DF4F9881C05FD0400E94BF6C87FD3D
:101BD00023C026E636E646E65FE3CE51DF4F688156
:101BE000C25ED040CD51DF4F7881C35ED040C2513C
:101BF000DF4F8881CE5ED040C051DF4F9881C05FFB
:101C0000D0400E940E6E181664F446E6242E56E666
:101C1000352E06E61FE319C0212C312C00E010E020
:101C200014C0CE51DF4F2880C25ED040CD51DF4F6F
:101C30003880C35ED040C251DF4F0881CE5ED040B5
:101C4000C051DF4F1881C05FD040C101D8018093DF
:101C5000C8039093C903A093CA03B093CB0320E0B9
:101C600030E040EA51ECCC52DF4F688179818A81C3
:101C70009B81C45DD0400E94576EC253DF4F2881C4
:101C800039814A815B81CE5CD0400E94C36CCE52C8
:101C9000DF4F2881C25DD0403B2D4A2D592D0E9437
:101CA0005A6C4B015C0120E030E048E452E4CC5037
:101CB000DF4F688179818A819B81C45FD0400E9417
:101CC000576EC253DF4F288139814A815B81CE5CD8
:101CD000D0400E94C36C9B01AC01C501B4010E94BD
:101CE0005A6C0E942B6DCE51DF4F6883C25ED0408C
:101CF000CD51DF4F7883C35ED040C251DF4F79832F
:101D00006883CE5ED0402AE939E949E15FEBCA51E8
:101D1000DF4F688179818A819B81C65ED0400E94B5
:101D2000576EC252DF4F2881CE5DD040C152DF4F87
:101D30003881CF5DD040C052DF4F4881C05ED04077
:101D4000CF51DF4F5881C15ED0400E945A6C4B0189
:101D50005C0123E333E343E35FE3C701B6010E9481
:101D6000576E9B01AC01C501B4010E945A6C0E94E0
:101D70002B6DC252DF4F6883CE5DD040C152DF4F22
:101D80007883CF5DD040C051DF4F79836883C05FD7
:101D9000D0402DEC3CEC4CE45DEBC651DF4F68814C
:101DA00079818A819B81CA5ED0400E94576EC2535E
:101DB000DF4F288139814A815B81CE5CD0400E940F
:101DC000C36C9101A8010E945A6C6B017C012AE04E
:101DD00037ED43EA5CE3C150DF4F688179818A8146
:101DE0009B81CF5FD0400E94576EC253DF4F288146
:101DF00039814A815B81CE5CD0400E94C36C9B01DB
:101E0000AC01C701B6010E945A6C0E942B6DC052F2
:101E1000DF4F6883C05ED040CF51DF4F7883C15E13
:101E2000D040CC50DF4F79836883C45FD04080912D
:101E3000C6039091C7031816190624F01092C70321
:101E40001092C603CD5FDE4F8881C350D140CC5F76
:101E5000DE4F9881C450D140C850DF4FC880D98030
:101E6000C85FD0408C159D050CF4C6017C01C6509E
:101E7000DF4F0881CA5FD040E01AF108CE52DF4F31
:101E8000F982E882C25DD040809106018150181627
:101E90001CF48093060127C084E680930601CE508F
:101EA000DF4FC880D980C25FD040D092D503C092A6
:101EB000D40326EFCC51DF4F08811981C45ED04096
:101EC0002003C001219F900D1124CE52DF4FC88006
:101ED000D980C25DD0408C199D09880F991F9093BD
:101EE000C7038093C603CE52DF4FE880F980C25DFE
:101EF000D0401E141F04B4F58091C503811134C075
:101F000023E333E343E75FE3609107017091080146
:101F10008091090190910A010E94576E162FF72EA9
:101F2000E82ED92E2AE939E949E15FE30E940E6ED5
:101F300018162CF01AE949E939E12FE303C04F2DB7
:101F40003E2D2D2D812F942FA32FB22F809307018B
:101F500090930801A0930901B0930A0181E0809356
:101F6000C50302C01092C503C653DF4F0881198113
:101F7000CA5CD0400E391F4F34F482E090E0909359
:101F8000C7038093C603C653DF4FC880D980CA5C9D
:101F9000D040C452DF4FE880F980CC5DD040EC14D3
:101FA000FD0434F4B601882777FD8095982F0BC087
:101FB000C452DF4F08811981CC5DD040B801882719
:101FC00077FD8095982F0E945E6D6B017C0160917A
:101FD000140170E080E090E00E945E6D4B015C01B6
:101FE0002AE037ED43E85FE30E94576E9B01AC01A6
:101FF000C701B6010E940E6E1816ECF48091C4035E
:10200000811119C081E08093C40360915F047091D5
:102010006004882777FD8095982F0E945E6D20E0F0
:1020200030E040E05FE30E94576E0E942B6D70939A
:10203000600460935F04C653DF4FC880D980CA5CD8
:10204000D040C452DF4FE880F980CC5DD040EC1422
:10205000FD0434F4B601882777FD8095982F0BC0D6
:10206000C452DF4F08811981CC5DD040B801882768
:1020700077FD8095982F0E945E6D6B017C0126E6AE
:1020800036E646E65FE3C501B4010E94576E9B0148
:10209000AC01C701B6010E94BF6C87FD1092C4035A
:1020A0008091C6039091C7038330910514F082E0BC
:1020B00090E0C251DF4FC880D980CE5ED040C816B4
:1020C000D90654F4CE51DF4F8881C25ED040CD5145
:1020D000DF4F9881C35ED040C051DF4FE880F98068
:1020E000C05FD040E816F90654F4C252DF4F888131
:1020F000CE5DD040C152DF4F9881CF5DD0401C01F2
:10210000CC50DF4F08811981C45FD04008171907F0
:102110005CF4C052DF4F8881C05ED040CF51DF4FAA
:102120009881C15ED0401C01809004079090050703
:10213000A0900607B0900707C0905104D0905204B9
:10214000E0905304F0905404A7019601C501B40136
:102150000E940E6E87FD09C0809251049092520435
:10216000A0925304B092540423C020E030E0A901AF
:10217000C501B4010E940E6E1816D4F420E030E8B8
:102180004FEF53E4C701B6010E94576EA5019401B9
:102190000E945B6C20E030E040E05BE30E94576E01
:1021A00060935104709352048093530490935404A9
:1021B000C0904D04D0904E04E0904F04F090500435
:1021C000A7019601C852DF4F688179818A819B817E
:1021D000C85DD0400E940E6E87FD11C0C852DF4F0F
:1021E000C880D980EA80FB80C85DD040C0924D0491
:1021F000D0924E04E0924F04F092500420C020E0B0
:1022000030E845E953E4C701B6010E94576EC85251
:10221000DF4F288139814A815B81C85DD0400E94AF
:102220005B6C20E030E046E953E40E94C36C6093AD
:102230004D0470934E0480934F04909350042AE011
:1022400037ED43EA5CEBC550DF4F688179818A81C5
:102250009B81CB5FD0400E94576E9B01AC0111E087
:10226000CC52DF4F688179818A819B81C45DD040E7
:102270000E940E6E87FD10E0E0912F04F091300473
:10228000EF30F10508F0EAC3E75BFF4F0C94436FB2
:1022900080913F04882361F0809130019091310159
:1022A000181619062CF49093600480935F0404C000
:1022B0001092600410925F0480915504909156042E
:1022C000A0915704B091580483017201E81AF90AE9
:1022D0000A0B1B0BD801C70181339547A105B10536
:1022E00008F4C9C385E090E00E94A205C4C38092AF
:1022F000510490925204A0925304B0925404C852D4
:10230000DF4FC880D980EA80FB80C85DD040C09292
:102310004D04D0924E04E0924F04F09250040E947B
:10232000CC3CE0902501F09026010FEFE016F0067E
:1023300029F0F0923E04E0923D0404C010923E0465
:1023400010923D0410923C0410923B0420915F04D3
:102350003091600480916D0190916E0128173907CA
:10236000ACF5111133C020E030E0A901CA51DF4FB4
:10237000688179818A819B81C65ED0400E940E6E01
:1023800087FF24C020E030E0A901C651DF4F6881FB
:1023900079818A819B81CA5ED0400E940E6E87FF40
:1023A00015C08091550490915604A0915704B091A6
:1023B0005804A3019201281B390B4A0B5B0BDA016D
:1023C000C9018037964CA105B10538F0EF20E094A3
:1023D00009F4E1C087E090E09AC18091590490919E
:1023E0005A04A0915B04B0915C0473016201C81AA5
:1023F000D90AEA0AFB0A01E9C01601E0D006E104A5
:10240000F10408F405C539C3809125019091260196
:10241000019641F580915F04909160048E3F910593
:1024200009F111111FC08091400490914104892B42
:10243000C9F0809103078823A9F0809155049091F9
:102440005604A0915704B091580473016201C81A50
:10245000D90AEA0AFB0A00E1C01607E2D006E10445
:10246000F10420F087E090E00E94A205C0900C07E4
:10247000D0900D07E0900E07F0900F0760913D049B
:1024800070913E04882777FD8095982F0E945E6D9D
:102490009B01AC01C701B6010E940E6E18160CF02C
:1024A000ECC2C701B6010E942B6D70933E0460938D
:1024B0003D04809140049091410490933C048093AA
:1024C0003B04DBC21123F1F0809155049091560436
:1024D000A0915704B0915804A3019201281B390B15
:1024E0004A0B5B0BA5E0B0E00E94506F609369015E
:1024F00070936A0180936B0190936C0188E090E087
:102500000E94A2058091250190912601019609F073
:10251000B4C28091550490915604A0915704B09193
:102520005804A3019201281B390B4A0B5B0BDA01FB
:10253000C90181339547A105B10508F49EC2809178
:102540003B0490913C0486509F4F20914004309171
:10255000410482179307FCF060913D0470913E04A2
:10256000882777FD8095982F0E945E6D26E636E6D7
:1025700046E85FE30E94576E9B01AC0160910C0737
:1025800070910D0780910E0790910F070E940E6EBB
:1025900018160CF072C286E090E0B9C08091E70393
:1025A0009091E803A091E903B091EA030097A10597
:1025B000B105A1F040915504509156046091570423
:1025C0007091580473016201C41AD50AE60AF70A29
:1025D000C816D906EA06FB0608F05BC02091EB039B
:1025E0003091EC032F3F0FEF300741F0809103074C
:1025F00081111FC080912D0481111BC08091550451
:1026000090915604A0915704B0915804B301A201CF
:10261000481B590B6A0B7B0B8091690190916A01F1
:10262000A0916B01B0916C01481759076A077B07AD
:1026300080F5121613060CF020C280910307811159
:1026400005C080912D04882309F417C2112309F4D1
:1026500014C2B901882777FD8095982F0E945E6D7E
:1026600020910F0130911001409111015091120100
:102670000E94576E9B01AC0160915104709152040D
:1026800080915304909154040E94BF6C18160CF46E
:10269000F4C18091ED039091EE03892BB1F189E0B3
:1026A00090E035C08091550490915604A091570454
:1026B000B0915804B301A201481B590B6A0B7B0B64
:1026C0008091F3039091F403A091F503B091F60388
:1026D000481759076A077B07C0F48091ED03909172
:1026E000EE03892B91F020E030E0A9016091EF0327
:1026F0007091F0038091F1039091F2030E94BF6CFE
:10270000882319F0112309F4B8C18AE090E00E94EF
:10271000A205B3C18091FD039091FE03A091FF0338
:10272000B09100040097A105B105E9F0409155046E
:1027300050915604609157047091580473016201DE
:10274000C41AD50AE60AF70AC816D906EA06FB062D
:1027500050F08CE090E00E94A2051092600410926C
:102760005F04212C312C60910104709102046115E9
:102770007105F9F0882777FD8095982F0E945E6D8E
:1027800020910F01309110014091110150911201DF
:102790000E94576E9B01AC016091510470915204EC
:1027A00080915304909154040E940E6E18160CF4FC
:1027B00001C1C0900504D0900604E0900704F09099
:1027C000080420E030E0A901C701B6010E94BF6CF7
:1027D0008823D1F020910B0130910C0140910D0123
:1027E00050910E01C701B6010E94576E9B01AC01CA
:1027F00060914D0470914E0480914F04909150046B
:102800000E94BF6C87FDD6C00091030410910404A0
:102810000115110509F431C16091DE067091DF06E2
:102820008091E0069091E106C0904904D0904A045E
:10283000E0904B04F0904C046C197D098E099F09BF
:1028400020E13EE040E050E00E94216FB90188277E
:1028500077FD8095982F0E945E6D6B017C01B80119
:10286000882777FD8095982F0E945E6D20910F013B
:102870003091100140911101509112010E94576E48
:102880009B01AC01C701B6010E94BF6C18160CF485
:10289000F4C090C08091090490910A04A0910B04A7
:1028A000B0910C040097A105B105A1F04091550429
:1028B000509156046091570470915804830172013D
:1028C000E41AF50A060B170BE816F9060A071B07A8
:1028D00008F01BCFC0900D04D0900E04E0900F04C0
:1028E000F090100420E030E0A901C701B6010E9479
:1028F000BF6C8823D1F0C253DF4F288139814A81D0
:102900005B81CE5CD040C701B6010E94576E9B012F
:10291000AC0160914D0470914E0480914F049091F0
:1029200050040E94BF6C87FD45C0009111041091B6
:1029300012040115110509F48CC06091DE06709136
:10294000DF068091E0069091E106C0904904D090A6
:102950004A04E0904B04F0904C046C197D098E09F8
:102960009F0920E13EE040E050E00E94216FB90164
:10297000882777FD8095982F0E945E6D6B017C0102
:10298000B801882777FD8095982F0E945E6D209171
:102990000F013091100140911101509112010E94DC
:1029A000576E9B01AC01C701B6010E94BF6C18169F
:1029B0000CF44FC085E090E0AACE80915504909130
:1029C0005604A0915704B0915804B301A201481BCA
:1029D000590B6A0B7B0B8091190490911A04A091FA
:1029E0001B04B0911C04481759076A077B0708F0BD
:1029F0008CCE60911D0470911E0461157105E9F182
:102A000080910307811104C080912D048823A9F1CE
:102A1000882777FD8095982F0E945E6D20910F0189
:102A20003091100140911101509112010E94576E96
:102A30009B01AC0160915104709152048091530448
:102A4000909154040E94BF6C1816BCF05ECE109298
:102A50001E071092600410925F040DC082E090E0A7
:102A60009093300480932F0480E290E090932407A9
:102A700080932307CDC1212C312C80915F0490914C
:102A80006004820D931D9093600480935F042091F5
:102A90003F04222361F020915D0430915E0482178F
:102AA00093070CF4C9019093600480935F04009134
:102AB0005F041091600417FD2AC060916D01709150
:102AC0006E01882777FD8095982F0E945E6D20917A
:102AD0000701309108014091090150910A010E94BB
:102AE000576E6B017C01B801882777FD8095982F80
:102AF0000E945E6DA70196010E940E6E181654F496
:102B0000C701B6010E942B6D262F972F05C020E02C
:102B100090E002C0202F912F20935F0490936004D7
:102B2000822F0E94CC0580911607882309F470C17A
:102B30008091BD0281508093BD0218160CF468C1CB
:102B40006091EA057091EB058091EC059091ED059F
:102B500043E00E94C131CC52DF4F8883C45DD04036
:102B6000C852DF4F9883C85DD0400E940806C65304
:102B7000DF4F8883CA5CD040F090C605C253DF4F58
:102B8000F882CE5CD0400E942C29882E0E94173DEE
:102B9000A82E992EC090B802B090B902609107019A
:102BA000709108018091090190910A0142E00E9410
:102BB000C131E82ED92E00916D01C452DF4F088338
:102BC000CC5DD04050916E0110915D04CA51DF4F31
:102BD0001883C65ED04020915E04C651DF4F288323
:102BE000CA5ED040F0902D046091040770910507F3
:102BF000809106079091070741E0C75FDE4F588339
:102C0000C950D1400E94C131182F092F6091080787
:102C10007091090780910A0790910B0743E00E9489
:102C2000C1319C014091C6036091C70389E0CB5F2D
:102C3000DE4F2883C550D140CA5FDE4F3883C6506F
:102C4000D140C95FDE4F4883C750D140C85FDE4FD7
:102C50006883C850D1400E942B6AC852DF4F7881E8
:102C6000C85DD0407F93CC52DF4FA881C45DD04077
:102C7000AF931F92C653DF4FB881CA5CD040BF9359
:102C80001F92C253DF4FE881CE5CD040EF931F927A
:102C90008F929F92AF92BF92CF92DF92EF92C75FD7
:102CA000DE4F5881C950D1405F93C452DF4FC88076
:102CB000CC5DD040CF92C651DF4FD880CA5ED040A5
:102CC000DF92CA51DF4FE880C65ED040EF921F927C
:102CD000FF920F931F93CA5FDE4F3881C650D140D9
:102CE0003F93CB5FDE4F2881C550D1402F931F9279
:102CF00022E42F93CB51DF4FF880C55ED040FF9286
:102D0000CC51DF4F0881C45ED0400F93CD52DF4FCE
:102D10001881C35DD0401F93CE52DF4F2881C25D22
:102D2000D0402F933F922F92C85FDE4F6881C850EA
:102D3000D1406F93C95FDE4F4881C750D1404F9358
:102D4000CF51DF4FC880C15ED040CF92C052DF4F1D
:102D5000D880C05ED040DF92C152DF4FE880CF5DA7
:102D6000D040EF92C252DF4FF880CE5DD040FF924C
:102D7000CD51DF4F0881C35ED0400F93CE51DF4F5E
:102D80001881C25ED0401F939F938F9380916004FF
:102D90008F9380915F048F93809130048F93809103
:102DA0002F048F93C301B20128EE33E040E050E0DE
:102DB0000E94216F7F936F933F932F938EE691E054
:102DC0009F938F931F9288EC8F938E010F5F1F4FFD
:102DD0001F930F930E945271D8010D900020E9F7C4
:102DE000AD0141505109401B510B0FB6F894DEBFA5
:102DF0000FBECDBFE0911909F0911A090280F3814D
:102E0000E02DB80189E199E009958AE08093BD023F
:102E1000C75FDE4F0FB6F894DEBF0FBECDBFDF91A8
:102E2000CF911F910F91FF90EF90DF90CF90BF90C7
:102E3000AF909F908F907F906F905F904F903F905A
:102E40002F9008950F931F93242F26272F7034E07F
:102E5000239FF0011124EE5FFB4F05911591259101
:102E60003491DC01CB0154E0B695A79597958795F1
:102E70005A95D1F780279127A227B327E42FE2950F
:102E8000EF70E827EF7024E0E29FF0011124EE5F7D
:102E9000FB4F0591159125913491BC01CD01E4E0E2
:102EA0009695879577956795EA95D1F7602771276D
:102EB000822793271F910F910895EF92FF920F930E
:102EC0001F93CF93DF938C017B01EC016FEF7FEFBA
:102ED000CB019E01201B310B2E153F0524F4499197
:102EE0000E942217F6CF6095709580959095DF919E
:102EF000CF911F910F91FF90EF900895CF92DF92A5
:102F0000EF92FF920F931F93CF93DF93CDB7DEB76E
:102F1000CA5AD1090FB6F894DEBF0FBECDBF8C01DF
:102F200048E550E060E070E0CE0101960E945473E5
:102F300089819A818A3C934F11F080E028C08B816F
:102F40009C81833D9946C9F742E550E065EB72E00C
:102F5000CE01875A9F4F0E94547362E570E0CE0104
:102F6000875A9F4F0E945D17C9A8DAA8EBA8FCA852
:102F70006C157D058E059F0501F782E5FE01E75A78
:102F8000FF4FD80101900D928A95E1F781E0C65577
:102F9000DF4F0FB6F894DEBF0FBECDBFDF91CF91EC
:102FA0001F910F91FF90EF90DF90CF9008950F93B6
:102FB0001F93CF93DF93CDB7DEB7C855D1090FB6B6
:102FC000F894DEBF0FBECDBF8C0148E550E060E055
:102FD00070E0CE0101960E9454730115110509F1AC
:102FE0008AEC93EF9A83898383ED99E69C838B83A4
:102FF00062E570E0C8010E945D1769AB7AAB8BABEC
:103000009CAB80915A018823E1F080916401811189
:1030100018C042E550E065EB72E0C8010E9464739D
:1030200008C01A8219821C821B8219AA1AAA1BAA1A
:103030001CAA48E550E060E070E0CE0101960E94D5
:103040006473C85ADF4F0FB6F894DEBF0FBECDBF12
:10305000DF91CF911F910F910895CF92DF92EF9260
:10306000FF920F931F93CF93DF93CDB7DEB7CE5967
:10307000D1090FB6F894DEBF0FBECDBFD82E8B019D
:1030800048E550E060E070E0CE0101960E94547384
:10309000ED2CF12CF7013296EE0FFF1F21E030E00E
:1030A0002C0F3D1FE20FF31F208131812C363B4650
:1030B00011F080E042C0D7011A96AA0FBB1F21E091
:1030C00030E02C0F3D1FA20FB31F2D913C912734F0
:1030D0003A4079F796E4D99EB00111246B577F4F9F
:1030E00046E450E0CE01875A9F4F0E94547366E435
:1030F00070E0CE01875A9F4F0E945D17F7013D9601
:10310000EE0FFF1FEE0FFF1F21E030E02C0F3D1FE1
:10311000E20FF31FC080D180E280F3806C157D0543
:103120008E059F0531F686E4FE01E75AFF4FD80170
:1031300001900D928A95E1F781E0C256DF4F0FB6FC
:10314000F894DEBF0FBECDBFDF91CF911F910F91DD
:10315000FF90EF90DF90CF900895DF92EF92FF9273
:103160000F931F93CF93DF93CDB7DEB7C855D10927
:103170000FB6F894DEBF0FBECDBFD82E7B0148E559
:1031800050E060E070E0CE0101960E9454730D2D76
:1031900010E0F8013296EE0FFF1FE114F104E9F19F
:1031A00021E030E02C0F3D1FE20FF31F8CE69BE681
:1031B00091838083F8013A96EE0FFF1FE20FF31F11
:1031C00087E49AE09183808366E470E0C7010E94FF
:1031D0005D17F8013D96EE0FFF1FEE0FFF1F21E078
:1031E00030E02C0F3D1FE20FF31F60837183828359
:1031F000938380915A018823A1F180916401811108
:1032000030C036E4D39EB00111246B577F4F46E4A3
:1032100050E0C7010E9464731CC081E090E08C0FF5
:103220009D1FE80FF91F11821082F8013A96EE0FE8
:10323000FF1FE80FF91F11821082F8013D96EE0F73
:10324000FF1FEE0FFF1FE80FF91F1082118212827D
:10325000138248E550E060E070E0CE0101960E94E4
:103260006473C85ADF4F0FB6F894DEBF0FBECDBFF0
:10327000DF91CF911F910F91FF90EF90DF90089514
:1032800026E4829FC00111248E529E4FDB0120E074
:1032900030E0FC01E20FF31FE491ED932F5F3F4F0D
:1032A00026343105B1F70895CF92DF92EF92FF9265
:1032B0000F931F93CF93DF93CDB7DEB7C556D109D8
:1032C0000FB6F894DEBF0FBECDBF8C0148E550E0CD
:1032D00060E070E0CE0101960E9454738DA19EA122
:1032E0008C3A904F11F080E02AC08FA198A58739C1
:1032F0009A40C9F74DE050E068E570E0CE01875A8A
:103300009F4F0E9454736DE070E0CE01875A9F4F2B
:103310000E945D176996CCACDDACEEACFFAC699752
:103320006C157D058E059F05F1F68DE0FE01E75ACF
:10333000FF4FD80101900D928A95E1F781E0CB59BA
:10334000DF4F0FB6F894DEBF0FBECDBFDF91CF9138
:103350001F910F91FF90EF90DF90CF9008950F9302
:103360001F93CF93DF93CDB7DEB7C855D1090FB602
:10337000F894DEBF0FBECDBF8C0148E550E060E0A1
:1033800070E0CE0101960E94547301151105D9F029
:103390008CEA90EF9EA38DA387E99AE098A78FA36C
:1033A0006DE070E0C8010E945D1769966CAF7DAF5B
:1033B0008EAF9FAF69974DE050E068E570E0C801BF
:1033C0000E9464730AC01EA21DA218A61FA26996BD
:1033D0001CAE1DAE1EAE1FAE699748E550E060E022
:1033E00070E0CE0101960E946473C85ADF4F0FB699
:1033F000F894DEBF0FBECDBFDF91CF911F910F912B
:103400000895CF92DF92EF92FF920F931F93CF9385
:10341000DF93CDB7DEB7C456D1090FB6F894DEBF3F
:103420000FBECDBF8C0148E550E060E070E0CE01FA
:1034300001960E94547389A59AA58A33944811F085
:1034400080E028C08BA59CA58A33904CC9F74CE03E
:1034500050E067E073E0CE01875A9F4F0E9454739B
:103460006CE070E0CE01875A9F4F0E945D17CDA49B
:10347000DEA4EFA4F8A86C157D058E059F0501F765
:103480008CE0FE01E75AFF4FD80101900D928A951A
:10349000E1F781E0CC59DF4F0FB6F894DEBF0FBEE5
:1034A000CDBFDF91CF911F910F91FF90EF90DF90F3
:1034B000CF9008950F931F93CF93DF93CDB7DEB7CF
:1034C000C855D1090FB6F894DEBF0FBECDBF8C0131
:1034D00048E550E060E070E0CE0101960E94547330
:1034E0000115110509F18AE394E89AA789A78AE3EF
:1034F00090EC9CA78BA76CE070E0C8010E945D1760
:103500006DA77EA78FA798AB80915A018823E1F021
:1035100080916401811118C04CE050E067E073E0D5
:10352000C8010E94647308C01AA619A61CA61BA68F
:103530001DA61EA61FA618AA48E550E060E070E090
:10354000CE0101960E946473C85ADF4F0FB6F894FB
:10355000DEBF0FBECDBFDF91CF911F910F910895B8
:10356000CF9380E090E00E94D7178091A50281114F
:1035700004C080E090E00E94AF19C0E060E070E01D
:103580008C2F0E94AD18CF5FC830C1F780E090E06B
:103590000E945A1ACF910C94604208950F931F9382
:1035A000CF93DF93EFE6F1E0A0E0B0E040815181FE
:1035B000628173814115510561057105C1F13B9629
:1035C000EC0109811A812B813C810417150726071C
:1035D000370711F01196EACF2BE02A9FE0012B9FCD
:1035E000D00D1124FE01E159FE4F0480F581E02D3C
:1035F0003097E9F0C758DE4F288121FF04C02091A1
:103600009F022223A1F02BE02A9FE0012B9FD00DE7
:103610001124C758DE4F288122FF04C02091A00248
:10362000222329F0DF91CF911F910F910994DF910F
:10363000CF911F910F9108955F926F927F928F9219
:103640009F92AF92BF92CF92DF92EF92FF920F9331
:103650001F93CF93DF933C0180919D0290919E0236
:103660008730910558F4FC01EF5FFC4FC081D0E03A
:10367000FC01E650FD4FE080F12C05C0EE24EA94F9
:10368000F12CCFEFD0E020E030E0A90160911304ED
:103690007091140480911504909116040E94BF6CDF
:1036A000882389F021E0512C8091190490911A040B
:1036B000A0911B04B0911C04892B8A2B8B2B09F43D
:1036C00020E0922E02C0912C512CA0900B01B090C2
:1036D0000C01C0900D01D0900E0120E030E040ECD4
:1036E0005FE3C601B5010E94BF6C87FD2BC020E0DF
:1036F00030E040E250E4C601B5010E94BF6C87FD96
:1037000024C023E333E343E350E4C601B5010E9440
:10371000BF6C87FD1DC026E636E646E650E4C601CE
:10372000B5010E94BF6C082F112707FD10950027D7
:10373000110F001F112786E090E09C01201B310B28
:10374000890108C001E010E005C002E010E002C0FD
:1037500003E010E060911F04709120048091210427
:10376000909122040E942B6D862E20E030E04AEFDB
:1037700053E460910F0170911001809111019091BB
:1037800012010E94576E20E030E041E655E40E94AD
:10379000576E1F921F921F921F921F925B016C0126
:1037A000292D352DAE016091FA05C3010E947C449C
:1037B0000F900F900F900F900F9081E0DF91CF91BD
:1037C0001F910F91FF90EF90DF90CF90BF90AF903F
:1037D0009F908F907F906F905F900895CF92EF921F
:1037E000FF920F931F93CF93DF93EC0160914004FE
:1037F0007091410416161706CCF4882777FD809542
:10380000982F0E945E6D9B01AC016FE7C62E18E2F7
:10381000E12E1BE6F12E0EE61EEC6091A202CE0117
:103820000E94C34288E0888381E001C080E0DF918C
:10383000CF911F910F91FF90EF90CF900895CF926D
:10384000DF92EF92FF920F931F93CF93DF93EC01E0
:10385000809103078823E9F080919C028823C9F0B6
:1038600020E030E04AE754E46091040770910507D6
:1038700080910607909107070E94576E0E94306D55
:103880006B017C018CE6D81A8AECE80A88E8F80A11
:1038900004C0CC24CA94DC2C760120E030E040EA5D
:1038A00051E4609108077091090780910A0790918F
:1038B0000B070E94576E0E94306D870176019B01B5
:1038C00040919A026091FA05CE010E94835881E0EE
:1038D000DF91CF911F910F91FF90EF90DF90CF90EC
:1038E0000895CF93DF93EC0120916501309166013B
:1038F000409167015091680160910407709105073C
:1039000080910607909107070E940E6E18162CF4FE
:10391000CE01DF91CF910C941F1C80E0DF91CF91FD
:103920000895EF92FF920F93CF93DF93EC01609194
:10393000B4027091B5026D398FEF780781F0882756
:1039400077FD8095982F0E945E6D20E030E040E08A
:103950005DE30E94576E0E942B6D9B0102C02FEF0A
:103960003FE7EE24EA94FE2C0FEF40919A0260911B
:10397000FA05CE010E94145981E0DF91CF910F9199
:10398000FF90EF900895AF92BF92CF92DF92EF92A7
:10399000FF920F931F93CF93DF935C0180912F04CD
:1039A0009091300405978A30910530F4FC01E05184
:1039B000FD4FC081D0E002C0C1E0D0E0C0909D02C8
:1039C000D0909E0220E030E040EA51E46091650131
:1039D0007091660180916701909168010E94576E15
:1039E0000E94306D7B0123E8F21A20E030E040EACB
:1039F00051E46091350470913604809137049091C0
:103A000038040E94576E0E94306D8B019E014091D8
:103A10009A026091FA05C5010E94A95981E0DF91DF
:103A2000CF911F910F91FF90EF90DF90CF90BF90BB
:103A3000AF900895EF92FF920F931F93CF93DF9370
:103A4000EC0120E030E04AE754E46091080770910F
:103A5000090780910A0790910B070E94576E0E94F8
:103A6000306D8B019C01EE24EA94FE2C40919A0269
:103A70006091FA05CE010E945F5A81E0DF91CF91FB
:103A80001F910F91FF90EF900895CF92DF92EF92E8
:103A9000FF920F931F93CF93DF93EC01C090080721
:103AA000D0900907E0900A07F0900B0720913504A9
:103AB000309136044091370450913804C701B60163
:103AC0000E940E6E1816D4F420E030E04AE754E469
:103AD000C701B6010E94576E0E94306D8B019C0198
:103AE000EE24EA94FE2C40919A026091FA05CE01F0
:103AF0000E945F5A82E0888381E001C080E0DF910C
:103B0000CF911F910F91FF90EF90DF90CF9008958C
:103B10006F927F928F92AF92CF92DF92EF920F933C
:103B20001F93CF93DF933C0180912F049091300439
:103B300005978A30910558F4FC01EA51FD4FC08089
:103B4000D12CFC01E452FD4FC081D0E005C0C0E0A3
:103B5000D0E0CC24C394D12C809101049091020434
:103B6000892BC9F4809103049091040488248394E0
:103B7000892B99F420E030E0A9016091050470914F
:103B8000060480910704909108040E94BF6C811183
:103B900004C0812C02C0882483940E940806E82E69
:103BA00020E030E040EA51E4609131047091320449
:103BB00080913304909134040E94576E0E942B6DC3
:103BC0008B01135820E030E040EA51E46091350465
:103BD0007091360480913704909138040E94576E9A
:103BE0000E94306DDF93CF93AA24A3949B01409150
:103BF000990263E070E0C3010E94F35B0F900F90A5
:103C000081E0DF91CF911F910F91EF90DF90CF90E6
:103C1000AF908F907F906F900895AF92CF92DF9288
:103C2000EF92FF920F931F93CF93DF93EC0180915C
:103C30002F049091300405970A9740F580915F0416
:103C400090916004009711F120915D0430915E0421
:103C50002817390724F080913F04811117C0809103
:103C600003078823B1F020E030E04AE754E4609194
:103C70000C0770910D0780910E0790910F070E941D
:103C8000576E0E94306D8B01135805C000E01DE790
:103C900002C00FEF1FEF20E030E040EA51E46091F6
:103CA00010077091110780911207909113070E94DD
:103CB000576E0E94306DA090BA0268017B0100919E
:103CC0009A022091FA054091990263E070E0CE01DA
:103CD0000E94EA5C81E0DF91CF911F910F91FF90EC
:103CE000EF90DF90CF90AF9008958F929F92AF9218
:103CF000CF92DF92EF92FF920F931F93CF93DF93B8
:103D0000EC018091C605882329F0A090DB0581E0B5
:103D1000A82601C0A12C80913D0490913E04181664
:103D200019063CF48B3F910514F08AEF90E0F82ED1
:103D300002C0FF24FA9420E030E04AEF53E460919F
:103D40000F017091100180911101909112010E9458
:103D5000576E0E94306DEE24E3942091B4023091AE
:103D6000B5022D393F4F09F4E12CAA2019F000E0EB
:103D700010E002C003E010E020912F0430913004E5
:103D80002E30310519F420E030E002C022E030E0AE
:103D9000FF927F936F938FE0882E912C93E0C92E32
:103DA000D12C4091990263E070E0CE010E94B45D95
:103DB0000F900F900F9081E0DF91CF911F910F91A5
:103DC000FF90EF90DF90CF90AF909F908F900895ED
:103DD000AF92BF92CF92EF920F93CF93DF93EC010C
:103DE00020910B0130910C0140910D0150910E0179
:103DF0006091050470910604809107049091080475
:103E00000E94576E20E030E040EA51E40E94576E75
:103E10000E94306D5B0129E1C22EEE24EA940FEF7F
:103E200024E64091990263E070E0CE010E940E5EAC
:103E300081E0DF91CF910F91EF90CF90BF90AF9045
:103E400008954F925F926F927F928F929F92AF925E
:103E5000BF92CF92EF92FF920F931F93CF93DF9376
:103E6000EC0140900B0150900C0160900D0170909E
:103E70000E012091E3033091E4034091E50350915A
:103E8000E603C301B2010E94576E20E030E040EA31
:103E900051E40E94576E0E94306D4B015C016091AD
:103EA0001F047091200480912104909122040E94AB
:103EB000306DC62E2091F7033091F8034091F9033D
:103EC0005091FA03C301B2010E94576E20E030E026
:103ED00040EA51E40E94576E0E94306D7B018401DC
:103EE00094014091990263E070E0CE010E94515E1E
:103EF00081E0DF91CF911F910F91FF90EF90CF90D4
:103F0000BF90AF909F908F907F906F905F904F90F9
:103F100008958F929F92AF92BF92CF92EF92FF92AD
:103F20000F931F93CF93DF93EC0160911F04709167
:103F3000200480912104909122040E94306DC62EAD
:103F40006091FD037091FE038091FF039091000446
:103F500038EE832E33E0932EA12CB12CA5019401D1
:103F60000E94216F79018A016091E7037091E80353
:103F70008091E9039091EA03A50194010E94216FC9
:103F800089012AEF3FEF4091990263E070E0CE0192
:103F90000E94515E81E0DF91CF911F910F91FF90C0
:103FA000EF90CF90BF90AF909F908F900895CF9259
:103FB000DF92EF92FF920F93CF93DF93EC0180910A
:103FC0002F049091300401E08D30910509F400E058
:103FD0000D97A9F40E94D767C0905504D09056045D
:103FE000E0905704F09058046C197D098E099F09E0
:103FF00028EE33E040E050E00E94216F02C020E054
:1040000030E04091990263E070E0CE010E94905E42
:1040100081E0DF91CF910F91FF90EF90DF90CF90F3
:104020000895CF92DF92EF92FF920F931F93CF9359
:10403000DF93EC016091190470911A0480911B04C4
:1040400090911C0428EE33E040E050E00E94216F84
:1040500069017A0120910B0130910C0140910D0111
:1040600050910E0160911304709114048091150415
:10407000909116040E94576E20E030E040EA51E42F
:104080000E94576E0E94306D86019B0140919902FB
:1040900063E070E0CE010E94C75E81E0DF91CF91C6
:1040A0001F910F91FF90EF90DF90CF900895AF9206
:1040B000BF92CF92DF92EF92FF920F931F93CF9315
:1040C000DF93CDB7DEB7C95CD1090FB6F894DEBF78
:1040D0000FBECDBF7C0182E494E09F938F931F922B
:1040E00088EC8F938E010F5F1F4F1F930F930E94D9
:1040F00052715C010F900F900F900F900F900F90E6
:1041000089E0A816B104D4F44BEE5EEF60E070E0F5
:10411000C7010E94294586E0F70180836801C60136
:10412000801B910B8A159B053CF4F60161916F0190
:10413000C7010E948F45F3CF81E001C080E0C753E3
:10414000DF4F0FB6F894DEBF0FBECDBFDF91CF912A
:104150001F910F91FF90EF90DF90CF90BF90AF90A5
:1041600008958F929F92AF92BF92CF92DF92EF927B
:10417000FF920F931F93CF93DF93CDB7DEB72897AE
:104180000FB6F894DEBF0FBECDBF5C01C0903F05F7
:10419000D0904005E0913D05F0913E05CE16DF063A
:1041A000A9F1CE0101967C0100E010E09C0142EDF6
:1041B000842E912CCE16DF0629F4D0923E05C092B3
:1041C0003D0517C00830110581F0DF01AE59BB4F26
:1041D0008C91D7018D937D010F5F1F4FCF01019609
:1041E000B4010E94F96EFC01E5CFF0933E05E09327
:1041F0003D05A8016091AE05C5010E94F85E40E052
:1042000050E0B5018BEF95E00E941A5280E02896AD
:104210000FB6F894DEBF0FBECDBFDF91CF911F91D7
:104220000F91FF90EF90DF90CF90BF90AF909F9055
:104230008F9008958F929F92AF92BF92CF92DF920C
:10424000EF920F9340912F045091300421E04230BF
:10425000510509F020E001E04330510509F000E08C
:10426000425051094230510550F4A0902307B090BC
:104270002407C12CD12C37E8C30ED11C03C0A12CBC
:10428000B12C65013FE03F933FEF3F933FE73F9302
:104290005BE0852E912CE12C40E060E00E94985F6D
:1042A0000F900F900F9081E00F91EF90DF90CF90E3
:1042B000BF90AF909F908F90089520912F043091E0
:1042C0003004225031092230310520F40E941A2195
:1042D00081E0089580E00895EF92FF920F931F937D
:1042E000CF93DF93CDB7DEB7C955D1090FB6F89498
:1042F000DEBF0FBECDBF7C016FE0CE0101960E94F4
:104300004245F70101811281238134814FEF61E041
:10431000CE0101960E949A50F70185818F8340E07B
:1043200050E0BE016F5F7F4F8BEF95E00E941A5205
:10433000C75ADF4F0FB6F894DEBF0FBECDBFDF9177
:10434000CF911F910F91FF90EF900895EF92FF9200
:104350000F931F93CF93DF93CDB7DEB72E970FB692
:10436000F894DEBF0FBECDBF9E01235F3F4F7901A2
:104370008E010F5F1F4F28503109AE01475F5F4F1D
:10438000BE01625F7F4F0E94F943882399F18091BB
:10439000C60581112FC08091A102882359F1909107
:1043A000FA058E85981326C00E94D7676093D705BB
:1043B0007093D8058093D9059093DA058D819E81FD
:1043C000AF81B8858093D3059093D405A093D5058C
:1043D000B093D60523E333E948E853E469817A8151
:1043E0008B819C810E945B6C0E942B6D7093D20527
:1043F0006093D1052E960FB6F894DEBF0FBECDBFE9
:10440000DF91CF911F910F91FF90EF9008956F92E0
:104410007F928F929F92AF92BF92CF92DF92EF9254
:10442000FF920F931F93CF93DF93CDB7DEB72E97F5
:104430000FB6F894DEBF0FBECDBF3C01CE01019692
:104440009F938F930A964C01DE011C965D0108979D
:104450006C0112967D018E01095F1F4F9E01275F3F
:104460003F4FAE01435F5F4FBE016B5F7F4FC301A4
:104470000E944B5C0F900F90882309F46DC09E85BD
:104480009F3F09F469C0D3011596EC918E2F877078
:1044900001E010E001C0000F8A95EAF7F0E0B3E018
:1044A000F595E795BA95E1F7ED57FA4F80818023AE
:1044B00061F0903550F40E94D7676093B80570930F
:1044C000B9058093BA059093BB05D3011596EC917D
:1044D000F0E0A3E0F595E795AA95E1F7ED59FA4FDD
:1044E00080818023F1F00E94D7676093BC057093B0
:1044F000BD058093BE059093BF058091B605909150
:10450000B7052E85009719F4822F90E006C0820F20
:10451000911D97FD0196959587959093B70580938A
:10452000B605D3011596EC91F0E063E0F595E795BB
:104530006A95E1F7ED5BFA4F8081802369F08E8503
:10454000853150F00E94D7676093C0057093C10514
:104550008093C2059093C3052E960FB6F894DEBFE4
:104560000FBECDBFDF91CF911F910F91FF90EF90C4
:10457000DF90CF90BF90AF909F908F907F906F9083
:1045800008958F929F92AF92BF92CF92DF92EF9257
:10459000FF920F931F93CF93DF93CDB7DEB72A9788
:1045A0000FB6F894DEBF0FBECDBF4C01CE0107960B
:1045B0005C01FE0131966F0104977C018E01085F5A
:1045C0001F4F9E01275F3F4FAE01465F5F4FBE0109
:1045D0006B5F7F4FC4010E94355D882309F44EC094
:1045E00099858091FA05F4012581981347C0322FEF
:1045F000377081E090E001C0880F3A95EAF758855E
:1046000040919A0230E0F90193E0F595E7959A958B
:10461000E1F7ED57FA4F451718F46081682B04C095
:10462000682F6095708167236083F90103E0F59539
:10463000E7950A95E1F7541306C0ED59FA4F40810A
:10464000482B40830AC0782F7095DF01AD59BA4FCF
:104650006C9167236C93451760F0F90113E0F595B1
:10466000E7951A95E1F7ED5BFA4F9081982B9083CF
:1046700005C0ED5BFA4F8081872380832A960FB6B1
:10468000F894DEBF0FBECDBFDF91CF911F910F9188
:10469000FF90EF90DF90CF90BF90AF909F908F9062
:1046A0000895CF93DF9300D0CDB7DEB710924105C8
:1046B00024E335E0AE014F5F5F4F65EB75E00E948C
:1046C000465F882321F089818093420502C01092C1
:1046D00042050F900F90DF91CF910895FF920F93B5
:1046E0001F93CF93DF9300D0CDB7DEB78C01FC01D1
:1046F00041815281638174814430504F610571055D
:1047000049F583E090E09A8389834FEF5FEFBE0124
:104710006F5F7F4FC8010E94CE4523E09695879535
:104720002A95E1F79093B4058093B305F090A20227
:10473000BE016F5F7F4FC8010E949B45F8120AC0FF
:104740000E94D7676093AF057093B0058093B10561
:104750009093B2050F900F90DF91CF911F910F9121
:10476000FF900895AF92BF92CF92DF92EF920F9396
:104770002091A102211124C06091A3056F5F609375
:10478000A3052EEC2F932EE62F932BE62F9328E2F2
:104790002F9338E2A32E3BE6B32E3EE6C32E3EEC2B
:1047A000D32EEE24EA940FEF21E030E04091FA0599
:1047B0000E941E430F900F900F900F9081E001C058
:1047C00080E00F91EF90DF90CF90BF90AF90089571
:1047D0008F92AF92BF92CF92DF92EF92FF920F93A0
:1047E0001F93CF93DF93EC018091A102811134C01C
:1047F0006091B4027091B5026D398FEF780769F05E
:10480000882777FD8095982F0E945E6D23E333E91A
:1048100048E853E40E945B6C04C068E27BE68EE6E5
:104820009EECE0900407F0900507009106071091B8
:104830000707209108073091090740910A07509116
:104840000B078090A3055B016C016091FA05CE0116
:104850000E94834381E001C080E0DF91CF911F91EE
:104860000F91FF90EF90DF90CF90BF90AF908F901F
:104870000895CF92DF92EF92FF920F931F93CF9301
:10488000DF9300D000D000D0CDB7DEB79E012F5F00
:104890003F4F69012F5F3F4F79018E010D5F1F4F21
:1048A0002E5F3F4FAE014B5F5F4FBE016A5F7F4F90
:1048B0000E94EF5A882301F18C81882351F0809166
:1048C0002F04909130040B9721F08BE090E00E9430
:1048D000A2058B81882381F080E090E00E94CC05C6
:1048E00082E090E09093300480932F0483E390E083
:1048F000909324078093230726960FB6F894DEBF83
:104900000FBECDBFDF91CF911F910F91FF90EF9020
:10491000DF90CF9008950F931F93CF93DF9300D034
:1049200000D0CDB7DEB78E010F5F1F4F9E012E5F07
:104930003F4FAE014D5F5F4FBE016C5F7F4F0E94E6
:104940005D5B8823D9F09C818091FA05981316C08D
:104950008B81882319F08A81882381F080E090E0A0
:104960000E94CC0582E090E09093300480932F0465
:1049700082E390E090932407809323070F900F9099
:104980000F900F90DF91CF911F910F910895CF93CA
:10499000DF9300D0CDB7DEB7AE014F5F5F4FBE01F2
:1049A0006E5F7F4F0E94B35B8823C1F09A81809134
:1049B000FA05981313C08981882381F080E090E084
:1049C0000E94CC0582E090E09093300480932F0405
:1049D00082E390E090932407809323070F900F9039
:1049E000DF91CF910895CF93DF93E3E8F5E0C3E63D
:1049F000D5E0A3E4B5E0119219921D9285E0E33A67
:104A0000F807C9F71092B7051092B605DF91CF915C
:104A10000895CF92DF92EF92FF920F931F93CF935F
:104A2000DF93CDB7DEB72B970FB6F894DEBF0FBE7E
:104A3000CDBF4F8358878B87EF81F8853097F9F08A
:104A4000982F81FF04C080919F028823D9F092FFA4
:104A500004C08091A0028823A9F093FF04C0809134
:104A6000C505882361F0C6010995882351F040E00F
:104A700050E0B6018BEF95E00E941A5202C080E030
:104A800001C081E02B960FB6F894DEBF0FBECDBFFC
:104A9000DF91CF911F910F91FF90EF90DF90CF901A
:104AA00008954F925F927F928F929F92AF92BF92A2
:104AB000CF92DF92EF92FF920F931F93CF93DF93EA
:104AC000CDB7DEB7C955D1090FB6F894DEBF0FBE1A
:104AD000CDBF6FE0CE0101960E9442458091C50591
:104AE000882341F12AE037ED43E25DE3609135042C
:104AF0007091360480913704909138040E945B6C69
:104B00009B01AC01609108077091090780910A0729
:104B100090910B070E940E6E181664F48091610448
:104B2000811108C0CE0101960E94451D81E080934D
:104B3000610460C0109261045FE6A52E51E0B52EBD
:104B4000812C912C6BE0762EF50180819181A281E0
:104B5000B381892B8A2B8B2B09F44CC0D501189675
:104B60008D919C911997892BF1F10E94D767F501DE
:104B700000851185980140E050E00E94216F169554
:104B8000079520E030E0789CF001799CF00D11242D
:104B9000061717072807390708F5CF0187589E4FD2
:104BA0002C01DC018C9180FD1EC0E159FE4FCE012D
:104BB00001966C01E080F1800281138124813581AE
:104BC000468157816085718582850E9409258823E9
:104BD00051F0D2018C9181608C930CC0E758FE4F4C
:104BE00080818E7F8083BFEF8B1A9B0AEBE0AE0E35
:104BF000B11CAACFC75ADF4F0FB6F894DEBF0FBE65
:104C0000CDBFDF91CF911F910F91FF90EF90DF907B
:104C1000CF90BF90AF909F908F907F905F904F907C
:104C20000895CF92DF92EF92FF920F931F93CF934D
:104C3000DF93CDB7DEB7C955D1090FB6F894DEBF03
:104C40000FBECDBF6B017C016FE0CE0101960E94CB
:104C50004245EFE6F1E020E030E080819181A281E1
:104C6000B3810097A105B10549F03B96C816D90656
:104C7000EA06FB0629F02F5F3F4FEFCF80E018C018
:104C80008BE0829FF001839FF00D1124E159FE4FCC
:104C9000CE0101966C01E080F180028113812481B4
:104CA0003581468157816085718582850E940925FD
:104CB000C75ADF4F0FB6F894DEBF0FBECDBFDF91EE
:104CC000CF911F910F91FF90EF90DF90CF900895BB
:104CD0002091B5052223C9F02093AE05FC0122EDF9
:104CE00030E04191442389F080913F059091400547
:104CF000DC01AE59BB4F4C930196B9010E94F96E8D
:104D00009093400580933F05ECCF089580913F0537
:104D1000909140058E529F4F20913D0530913E0568
:104D2000821B930B62ED70E00E94F96E08958BEF89
:104D300095E00C94FD57809141059091420598179C
:104D400071F090E0FC01EC5CFA4F2081019669E083
:104D500070E00E940D6F80934105822F089580E0DE
:104D600008958091420590E0099620914105821BAB
:104D7000910969E070E00E94F96E0895CF92DF9288
:104D8000EF92FF921092C5058091C60581112FC048
:104D90008091A50581112BC080919B02882339F158
:104DA0000E94D7676B017C0180919A024FEF50E01F
:104DB000481B51098091AA059091AB05A091AC05C3
:104DC000B091AD05C81AD90AEA0AFB0A22E330E01D
:104DD000DA010E94496F605E714B8F4F9F4F6C15D7
:104DE0007D058E059F0518F481E08093C505FF9031
:104DF000EF90DF90CF9008951092C6051092A50510
:104E00001092A4051092C8051092C7051092AA0529
:104E10001092AB051092AC051092AD051092A6054C
:104E20001092A7051092A8051092A9051092DB0513
:104E300080912F04909130040E9721F485E090E04A
:104E40000C94A20508958F92AF92BF92CF92EF92E9
:104E5000FF920F931F930E94FC26812C74E1A72ED2
:104E600075E0B72EC12CE7ECEE2EE2E0FE2E07E552
:104E700013E024E331E044E650E06AED72E08BEFAA
:104E800095E00E94E749F4E0CF2EA9E7EA2EA5E0DD
:104E9000FA2E02E32DE841E050E060E070E08BEF95
:104EA00095E00E94834A2091A30230E040E050E068
:104EB00061E070E08BEF95E00E94514B80912E06EF
:104EC00090912F06892B19F482E08093300680910F
:104ED000310690913206892B19F484E180933306D0
:104EE0006EEC7AE18BEF95E00E94925061E176E200
:104EF0008BEF95E00E9496508BEF95E00E946C51ED
:104F00000E94F32481E01F910F91FF90EF90CF90CA
:104F1000BF90AF908F9008954F925F926F927F9263
:104F20008F929F92AF92BF92CF92DF92EF92FF92B9
:104F30000F931F93CF93DF93EC018B015A010E94D3
:104F4000D7676B017C018091C605882309F431C1C4
:104F50008091DB0581112DC18091AA059091AB054F
:104F6000A091AC05B091AD05A7019601281B390BA6
:104F70004A0B5B0BDA01C9018E3E9240A105B105D7
:104F800018F00E94FC2655C18091F2059091F3051E
:104F9000A091F405B091F505A7019601281B390BE6
:104FA0004A0B5B0BDA01C9018E3E9240A105B105A7
:104FB00080F54090F6055090F7056090F8057090E8
:104FC000F90520E030E0A901C301B2010E940E6E94
:104FD00018165CF420E030E04AEF54E4C301B2015B
:104FE0000E94BF6C181694F00AC020E030E04AEF2F
:104FF00054ECC301B2010E940E6E87FD07C0F80198
:10500000408251826282738211E004C081E0809309
:10501000DB0510E08091DC059091DD05A091DE05B7
:10502000B091DF05A7019601281B390B4A0B5B0BDA
:10503000DA01C9018E3E9240A105B10568F4809164
:10504000E0059091E1059C01255C3F4F2737310534
:1050500018F4F501918380838091E2059091E30536
:10506000A091E405B091E505C81AD90AEA0AFB0A3D
:10507000FEEECF16F2E0DF06E104F10408F0DAC03C
:10508000C090EA05D090EB05E090EC05F090ED05BE
:1050900020E030E0A901C701B6010E940E6E18168B
:1050A0005CF420E030E040EC5FE3C701B6010E9411
:1050B000BF6C18165CF479C020E030E040EC5FEB88
:1050C000C701B6010E940E6E87FD6FC04090EE05CD
:1050D0005090EF056090F0057090F10580900B0105
:1050E00090900C01A0900D01B0900E0120E030E0F6
:1050F00040E951E4C501B4010E94576E9B01AC0127
:10510000C301B2010E94BF6C18160CF44EC020E01F
:1051100030E040E051E4C501B4010E94576E9B01AC
:10512000AC01C301B2010E940E6E87FD3EC06091CA
:105130005F04709160048090E8059090E90568151F
:10514000790534F5A0905D04B0905E046A197B097E
:10515000882777FD8095982F0E945E6D9B01AC019A
:10516000C701B6010E94576E6B017C01B4016A1938
:105170007B09882777FD8095982F0E945E6D9B01A3
:10518000AC01C701B6010E94C36C9B01AC0102C017
:10519000A7019601688179818A819B810E945B6C5D
:1051A000688379838A839B8345C081E08093DB0594
:1051B00041C08091D7059091D805A091D905B091B3
:1051C000DA05C81AD90AEA0AFB0A20EDC21627E056
:1051D000D206E104F10468F5C090D305D090D4055F
:1051E000E090D505F090D60520E030E0A901C70198
:1051F000B6010E940E6E18165CF420E030E04AEF13
:1052000054E4C701B6010E94BF6C181694F00AC09E
:1052100020E030E04AEF54ECC701B6010E940E6E68
:1052200087FD07C0F801C082D182E282F38211E0DB
:1052300001C010E0812FDF91CF911F910F91FF905E
:10524000EF90DF90CF90BF90AF909F908F907F9026
:105250006F905F904F900895CF9380911C0690912E
:105260001D06181619061CF4C09113060AC00197F2
:1052700021E1289FF001299FF00D1124E550FA4FFC
:10528000C08D8091A302C81731F0C093A30288E9B2
:1052900092E00E945A1A8C2FCF910895FF920F939B
:1052A0001F93CF93DF93C62FF42ED22F9091FA0540
:1052B000891325C080919B02882321F080919A0256
:1052C0006817E8F08091C605F81621F08091A505D1
:1052D000F81217C00E94D7670091AA051091AB057C
:1052E0002091AC053091AD05601B710B820B930BC7
:1052F0006E3E72408105910520F00E94FC2680E000
:1053000063C08091A4058C1730F0C8132DC0809124
:10531000C6058F1548F580919A028C1728F4809164
:10532000A505F8120DC020C0C81729F080919B0276
:1053300081111AC0F4CF0E942C298F1580F3F6CF6B
:10534000F092A505C093A4050E94D7676093A605B7
:105350007093A7058093A8059093A9051092C405A2
:105360001092C8051092C7050E94D7676093AA05DE
:105370007093AB058093AC059093AD058091C40507
:105380008D2B8093C4050E94D7670091A6051091CC
:10539000A7052091A8053091A905601B710B820B10
:1053A000930B613177428105910508F4A8CF809174
:1053B000C4058171813119F01092A505A0CF8091AB
:1053C000A5058093C60581E0DF91CF911F910F91D4
:1053D000FF900895EF92FF920F931F93CF93DF9367
:1053E000CDB7DEB728970FB6F894DEBF0FBECDBF9E
:1053F0007C018E010F5F1F4F9E012B5F3F4FAE015F
:10540000495F5F4FBE01685F7F4F0E94BA58882393
:1054100091F121E0F70145816F8188850E944E2935
:10542000882349F189819A81AB81BC818F3FFFEF4D
:105430009F07AF07BF07F9F0BC01CD017459854341
:1054400097470E945E6D2FE632E143E85AE30E94DF
:10545000576E6093F6057093F7058093F805909367
:10546000F9050E94D7676093F2057093F305809366
:10547000F4059093F50528960FB6F894DEBF0FBE9D
:10548000CDBFDF91CF911F910F91FF90EF900895C5
:10549000CF92DF92EF92FF920F931F93CF93DF9300
:1054A000CDB7DEB727970FB6F894DEBF0FBECDBFDE
:1054B0006C01CE0101967C018E010B5F1F4F9E0196
:1054C0002D5F3F4FAE014A5F5F4FBE01695F7F4F67
:1054D000C6010E9446598823C1F122E0F6014581A8
:1054E0006E818F810E944E29882379F19091C605A3
:1054F000F6018581981323C06B817C816F3FFFE7A4
:105500007F07E9F0882777FD8095982F0E945E6DD0
:1055100020E030E040E052E40E94576E0E942B6D84
:105520007093E1056093E0050E94D7676093DC0506
:105530007093DD058093DE059093DF0506C08DE94D
:105540009FEF9093E1058093E00527960FB6F894BE
:10555000DEBF0FBECDBFDF91CF911F910F91FF90A6
:10556000EF90DF90CF900895AF92BF92CF92DF92ED
:10557000EF92FF920F931F93CF93DF93CDB7DEB7D8
:105580002A970FB6F894DEBF0FBECDBF5C01CE01E7
:1055900001966C01FE0133967F018E010B5F1F4F58
:1055A0009E01295F3F4FAE01475F5F4FBE01665FBF
:1055B0007F4FC5010E94EA59882309F476C028E08C
:1055C000F501458169858A850E944E29882309F461
:1055D0006CC080912F04909130048730910514F4B1
:1055E000019761F5EF81F8853197E730F105C8F44F
:1055F000E85AFF4F0C94436F87E090E01DC08EE0A7
:1056000090E01AC088E090E017C089E090E014C0F4
:105610008AE090E011C08DE090E00EC081E090E063
:105620000BC08091C7059091C805009739F08F3F56
:10563000910521F085E090E00E94A2056D817E81B8
:1056400080E090E00E945C6D2DEC3CEC4CE45DE36E
:105650000E94576E6093CD057093CE058093CF0561
:105660009093D0056B817C817D57882777FD80954D
:10567000982F0E945E6D2DEC3CEC4CE45DE30E94A3
:10568000576E6093C9057093CA058093CB059093BC
:10569000CC058F8198859093C8058093C705898133
:1056A0009A8190939E0280939D022A960FB6F89459
:1056B000DEBF0FBECDBFDF91CF911F910F91FF9045
:1056C000EF90DF90CF90BF90AF900895EF92FF9250
:1056D0000F931F93CF93DF93CDB7DEB728970FB605
:1056E000F894DEBF0FBECDBF7C018E010B5F1F4F54
:1056F0009E012F5F3F4FAE01495F5F4FBE01685F64
:105700007F4F0E94955A882309F447C020E1F70192
:1057100045816F8188850E944E298823F1F1698136
:105720007A818B819C810E945C6D2FE632E143E897
:105730005AE30E94576E6093EE057093EF058093D5
:10574000F0059093F1052D813E813093E70520937C
:10575000E6052091100730911107409112075091F2
:1057600013070E945A6C6093EA057093EB058093CF
:10577000EC059093ED0580915F0490916004909307
:10578000E9058093E8050E94D7676093E20570936E
:10579000E3058093E4059093E50528960FB6F89409
:1057A000DEBF0FBECDBFDF91CF911F910F91FF9054
:1057B000EF9008958BEF95E00C94A6668AE08093B5
:1057C000BD0281E080931607089580919F0685347D
:1057D000E9F03CF4813471F08234D9F487E090E050
:1057E00011C08F3451F0803559F0863491F48AE03D
:1057F00090E008C088E090E005C089E090E002C039
:105800008CE090E00E94A20581E008958DE090E098
:10581000F9CF80E0089580916401882311F080E041
:1058200008950E94604208956115710581F0DB01C1
:105830000D900020E9F7AD0141505109461B570B6F
:10584000DC01ED91FC910280F381E02D099480E070
:1058500090E00895EF92FF920F931F93CF93DF9301
:105860007B018A01E90168E073E00E94E77000971C
:1058700081F00E94C970801791072CF0C817D907D2
:105880001CF4CE0101C0C801F7019183808381E03F
:1058900001C080E0DF91CF911F910F91FF90EF90B9
:1058A00008950F931F93CF93DF93EB01042F122FD3
:1058B00068E073E00E94E770009791F00E94C97061
:1058C000602F70E0861797073CF0612F70E0681733
:1058D00079071CF4812F01C0802F888381E001C0EB
:1058E00080E0DF91CF911F910F9108950F931F9347
:1058F000CF93DF938B01EA0168E073E00E94E770C9
:105900000097C1F00E94C97097FD0AC0DC01C8175A
:10591000D9070CF4DE0120E63AEE0E94496F03C07D
:1059200060E070E0CB01F801608371838283938330
:1059300081E001C080E0DF91CF911F910F91089528
:105940008F929F92AF92BF92CF92DF92EF92FF928F
:105950000F931F93CF93DF93EB0149015A0168E046
:1059600073E00E94E7706C01009711F10E94C5700E
:105970009401A5010E94BF6C87FD0DC0C6010E9465
:10598000C5709701A8010E940E6E18163CF0C60162
:105990000E94C57005C0B401C50102C0B701C801AD
:1059A0006B017C01C882D982EA82FB8281E001C05E
:1059B00080E0DF91CF911F910F91FF90EF90DF90EA
:1059C000CF90BF90AF909F908F900895DF92EF920D
:1059D000FF920F931F93CF93DF93CDB7DEB7C854D9
:1059E000D1090FB6F894DEBF0FBECDBF80919F06E0
:1059F00099EC980F923008F071C16FECD62ED80E4A
:105A0000BE016F5F7F4F8D2D0E942D18811106C042
:105A1000BE016F5F7F4F8D2D0E9440198091640100
:105A200081115CC140919D06552747FD5095652F1A
:105A3000752FFA01E154F109E231F10508F04EC188
:105A4000E15AFF4F0C94436FE12CF12C00EA11E472
:105A500020E030E0A901BE016F5F7F4F80EA96E051
:105A60000E94A02C882309F439C148E552E0BE0108
:105A70006B5F7F4F80E090E00E94762C882309F4D2
:105A80002DC128EC30E04FEF5FEFBE01675F7F4F25
:105A900080E090E00E942A2C28C022E330E040E021
:105AA00050E0BE01655F7F4F80EA96E00E942A2C9D
:105AB000882309F413C148E552E0BE016F5E7F4FB1
:105AC00080E090E00E94762C882309F407C1E12C45
:105AD000F12C00EA11E420E030E0A901BE01635F8F
