:100000000C94A3030C94CB030C94CB030C94CB0360
:100010000C94CB030C94CB030C94CB030C94CB0328
:100020000C94CB030C94CB030C94CB030C94CB0318
:100030000C94CB030C94CB030C94CB030C94CB0308
:100040000C94CB030C94FB660C94F5650C9425661C
:100050000C94E46A0C94CB030C94CB030C94CB0368
:100060000C94CB030C94CB030C94CB030C94CB03D8
:100070000C94CB030C94CB030C94CB0316071607FC
:100080001607160716072107770777075408D707BB
:1000900016077F157F15601760178511BB11481271
:1000A000A61212139B13D31395159D14391595158C
:1000B0000D1C0D1C0D1C121C191C201C201C201CAE
:1000C000271C0D1C772C652C6B2C6E2C742C712C22
:1000D000682C8E2E942FD82FD82F612FEA2ED82F50
:1000E000D82FD82FD82FD82FD82FD82FD82FB72EFA
:1000F0003C2FD82FD12FBF38C438C938D338D8387F
:10010000DD38E23888418841DF41DF418841CF4016
:10011000E140E140E140E1400541054188410541C0
:10012000E14008000000BE922449123EABAAAA2A70
:10013000BECDCCCC4C3E00000080BEABAAAAAA3EED
:1001400000000000BF000000803F00000000000829
:100150004178D3BB4387D1133D190E3CC3BD4282C6
:10016000AD2B3E68EC8276BED98FE1A93E4C80EF84
:10017000FFBE01C4FF7F3F00000000004442473B38
:100180002C25642E253033642C202C25642C2564EA
:100190002C202C25642C202C25642C25642C2564F3
:1001A0002C25642C25642C202C25642C25642C20E3
:1001B0002C25632C25732C25732C202C25642C25B1
:1001C000642C25642C25732C202C25642C25642C70
:1001D00020202C25642C25642C25642C25730D0AE5
:1001E000009A996141009749010F0000000000004A
:1001F000000000000066665641FFFF00000000F6A8
:10020000FF0000CDCC4C41000000000000000000C9
:1002100000000000000000000000000000A69BC4D9
:100220003CF7FFD3FF2D000000000000000000CDD0
:10023000CC6C4180CBA40005000000000000000051
:1002400000000000005841FFFF00000000F6FF0022
:1002500000CDCC4C41000000000000000000000078
:1002600000000000000000000000008FC2F53CF715
:10027000FFD3FF2D0000000000000000009A9969E4
:10028000414031F7000500000000000000000000C0
:100290000033335341FFFF00000000F6FF0000CDA4
:1002A000CC4C4100000000000000000000CDCC74E8
:1002B00041190080CBA40000008FC2F53CF7FFD3AA
:1002C000FF2D00000000000000000033336B4140B0
:1002D00031F700030000000000000000000000668D
:1002E000665641FFFF00000000F6FF0000CDCC4C39
:1002F00041000000000000000000000000000000BD
:1003000000000000000000A69BC43CF7FFD3FF2DB7
:100310000000000000000000009A99614100974928
:10032000010500000000000000000000000000586F
:1003300041FFFF00000000F6FF0000CDCC4C410063
:1003400000000000000000000000000000000000AD
:1003500000000000008FC2F53CF7FFD3FF2D000026
:100360000000000000000066666641009749010633
:10037000000000000000000000000066664641002A
:1003800000ECFFFFFF00000C000000000000000078
:1003900000000000000E0000000000FF7F020000CF
:1003A0000000000000A0C1ECFF32000000000000CF
:1003B000000000000066666641009749010F000FCB
:1003C00000CDCC744180CBA4009A995141FFFF002D
:1003D000000000F6FF0000CDCC4C41000000000002
:1003E0000000000000CDCC7441190080CBA40000B7
:1003F000008FC2F53CF7FFD3FF2D00000000000086
:10040000000000CDCC5C4180EE36000F0000000003
:10041000000000000000008FC255410000000000F5
:10042000000000CEFF66664E4100000000000000A4
:1004300000000000000000000000000000000000BC
:100440000000000000000028000000000000000084
:1004500000000000006410B71DC8206E3BAC30D90E
:10046000269041DC76F4516B6B5861B24D3C7105BE
:10047000502083B8ED44930FF0E8A3D6D68CB36137
:10048000CBB0C2649BD4D2D38678E20AA01CF2BD62
:10049000BD2A2A2A2A005353543B2C25732C202C86
:1004A0002531752C2531752C202C25642C25732C99
:1004B00025732C202C25642C25642C202C25642CC1
:1004C00025642C202C2531750D0A005343563B2CF6
:1004D0002531752C2C2531752C25732C25732C2555
:1004E00031752C202C25642C25732C25732C257319
:1004F0002C25642C202C25642C25642C202C256490
:100500002C25732C25642C202C25642C25642C256B
:10051000640D0A004E50433B2C2531752C25732C5D
:1005200025730D0A004353543B2C25642C25642C61
:1005300025642C25642C20202C2531752C25317523
:100540002C20202C2531752C2531752C2531752C2E
:10055000202C25642C2531752C2531752C20202C40
:1005600025642C202C25640D0A004350453B2C2586
:10057000642C25732C25642C25642C25642C202CBC
:1005800025642C25642C25732C25642C202C2573A4
:100590002C25642C25642C25642C25642C25732C97
:1005A000202C25642C25732C25642C202C25732CC1
:1005B00025642C25642C25642C202C25732C256483
:1005C0002C25642C25640D0A004153543B2C2564D2
:1005D0002E253032642C202C25732C25732C25736A
:1005E0002C25642C202C25732C25642C25642C258B
:1005F000642C202C25642C25642C202C25642C2094
:100600002C25732C25642C25642C25640D0A0000F0
:100610000002000A002A00AA00AA02AA0AAA2AAA1C
:10062000AA464C543B25640D0A00464C543B2C25ED
:10063000642C202C25642C25640D0A008B033A03BE
:100640003A0314F0010016F0010012F2010000005C
:10065000000010F0010000F2010014F2010019F294
:1006600001000000000000ED01000000000000E8B3
:10067000000000EA000000EE000000000000120C84
:10068000370E0C37080C37060C3706041302041318
:1006900002030508090A0607040B0C0E0F100001DF
:1006A0000400000000000000000000000300000043
:1006B0000000000000001008020408010280081079
:1006C00080010102042040041020402040800404E6
:1006D00003030302020402020304030404040402E9
:1006E0000303030202020000000023002600290089
:1006F00000000000250028002B000000000024005E
:1007000027002A004E414E494E495459494E46CD84
:10071000CCCC3D0AD7233C17B7D13877CC2B3295B8
:1007200095E6241FB14F0A000020410000C8420096
:10073000401C4620BCBE4CCA1B0E5AAEC59D740060
:10074000432D3A66466B11241FBECFEFD0E1DEBFCA
:10075000CDBF13E0A0E0B1E0EEE9FAEE02C00590F3
:100760000D92AC3EB107D9F729E0ACEEB3E001C081
:100770001D92AE3EB207E1F717E0C6E4D7E004C031
:100780002297FE010E94B36EC034D107C9F70E94C0
:10079000B46B0C944D750C9400008F929F92AF92A5
:1007A000BF92CF92DF92EF92FF92CF93DF930E949E
:1007B0004567C090ED05D090EE05E090EF05F09014
:1007C000F0056C197D098E099F09693E734081050A
:1007D000910548F48091F1059091F205909377048A
:1007E000809376049BC00E9451676B017C01C0918D
:1007F0007904D0917A0480910C0490910D04A09119
:100800000E04B0910F04A7019601281B390B4A0B67
:100810005B0B213482E438074105510588F0C09212
:100820000C04D0920D04E0920E04F0920F0410928A
:100830007A041092790410927704109276046EC0B4
:10084000C436D1050CF46AC060E077E883E993E030
:100850000E948F6EDE010E94C96E0E94CA6C4B011D
:100860005C016091A10270E080E090E00E94CC6C9D
:100870002091A2023091A3024091A4025091A502BE
:100880000E94C56D20E030E040E05FE30E94C56D4E
:100890009B01AC01C501B4010E94316C0E94996CAE
:1008A00016161706DCF57093770460937604809132
:1008B000A8029091A902019691F4809191049091DF
:1008C000920420918F0430919004821793071CF0BA
:1008D0002F3F3F4F21F49093900480938F04809199
:1008E0008F04909190048C34910534F08BE490E067
:1008F0009093900480938F04C0920C04D0920D04C6
:10090000E0920E04F0920F048091790490917A04A1
:100910008C1B9D0B90937A0480937904DF91CF9187
:10092000FF90EF90DF90CF90BF90AF909F908F900F
:100930000895CF92DF92EF92FF92CF93DF932091B1
:100940000B0130910C0140910D0150910E010E945C
:10095000C56D60936B0470936C0480936D049093E9
:100960006E04809186029091870260917304709169
:1009700074048C399F4F49F4C0909502D090960230
:10098000E0909702F090980215C08091640488234B
:1009900049F0C0909102D0909202E0909302F090C2
:1009A000940208C0C0908D02D0908E02E0908F0219
:1009B000F0909002882777FD8095982F0E94CC6C4C
:1009C0009B01AC01C701B6010E94C56D609367042D
:1009D000709368048093690490936A0420E030E087
:1009E0004EE753E4C701B6010E94C56D0E94996CA1
:1009F00070931C0160931B01E0908F04F0909004B1
:100A0000C0907604D09077041E141F042CF5C114F6
:100A1000D10411F58091990290919A020196E1F426
:100A2000C0911B01D0911C01BE01882777FD8095E4
:100A3000982F0E94CC6C2DEC3CEC41E353E40E94D7
:100A40002D6C87FD03C091EB80E002C09C2F8D2FA1
:100A500090931B0180931C01C114D10489F1609112
:100A6000990270919A021616170654F580919B020E
:100A700090919C02C81AD90AC601880F991F8C0D43
:100A80009D1D0E947B6E643C8FEF78076CF0809117
:100A90001B0190911C019B01255C3F4F28173907D2
:100AA00034F4645C7F4F04C060E070E001C0BC01BE
:100AB0006E157F050CF4B70170931C0160931B0148
:100AC00020E030E0A9016091670470916804809192
:100AD000690490916A040E942D6CC0916504D091C4
:100AE0006604882319F0C630D10561F480E090E0F7
:100AF000AAE7B4E48093670490936804A093690420
:100B0000B0936A04C630D10531F48EEF90E0909333
:100B10001C0180931B0180919F029091A0028F3F46
:100B20002FEF9207C9F42091670430916804409137
:100B3000690450916A0460916B0470916C04809117
:100B40006D0490916E040E94C56D0E94996C709323
:100B5000700460936F0404C09093700480936F04DA
:100B600080916F0490917004892B11F0269731F4D5
:100B700088E99AE39093700480936F04DF91CF919A
:100B8000FF90EF90DF90CF900895CF92DF92EF9299
:100B9000FF9220916504309166042817390709F403
:100BA00048C090936604809365040E9445676093F3
:100BB0008704709388048093890490938A04109228
:100BC0009A04C0904A07D0904B07E0904C07F090F1
:100BD0004D0720E030E0A901C701B6010E947C6DFD
:100BE00018165CF420E030E040EA50E4C701B6019A
:100BF0000E942D6C87FF0DC00AC020E030E040EA63
:100C000050ECC701B6010E947C6D181614F41092C6
:100C1000410780911C0790911D07A0911E07B0917C
:100C20001F0780937B0490937C04A0937D04B09372
:100C30007E04FF90EF90DF90CF900895CF93DF93E5
:100C4000EC010E94456760938B0470938C04809341
:100C50008D0490938E04D0939204C093910480915C
:100C6000650490916604039720F410929204109208
:100C70009104BE0182E0DF91CF910C942E6880E058
:100C800090E00E941E0680E090E00E94C50581E091
:100C90000895CF92DF92EF92FF92CF93DF93C091AE
:100CA0007304D09174041C161D0624F5809141072D
:100CB000882301F120E030E048EC52E460914A07DB
:100CC00070914B0780914C0790914D070E94C56D24
:100CD0006B017C01BE01882777FD8095982F0E94CB
:100CE000CC6C9B01AC01C701B6010E94316C0E9423
:100CF0009E6C47C0E0908F04F0909004F7FE02C015
:100D0000E12CF12C80918602909187028C399F4FC3
:100D100069F420E030E04EE753E460919502709171
:100D20009602809197029091980219C08091640474
:100D300020E030E04EE753E4882349F060919102CF
:100D400070919202809193029091940208C06091F8
:100D50008D0270918E0280918F02909190020E947C
:100D6000C56D0E94996C20919104309192042E19C6
:100D70003F0944E6429FC001439F900D11240E9409
:100D80007B6E862F653608F084E6DF91CF91FF9069
:100D9000EF90DF90CF9008954F925F926F927F9285
:100DA0008F929F92AF92BF92CF92DF92EF92FF927B
:100DB00080911004883060F082E090E090936604A7
:100DC0008093650481E290E09093560780935507E5
:100DD00080918202909183028D392FEF9207C9F0A2
:100DE00020916504309166042E30310591F02091F8
:100DF000550430915604821793073CF42091530414
:100E0000309154042817390724F08AE090E00E94BA
:100E1000C505E0916504F09166043497EB30F10567
:100E200008F042C1E25CFF4F0C94B16E6091110476
:100E30007091120480911304909114040E949904FB
:100E400047C160911D0470911E0480911F04909110
:100E500020040E949904C0906704D0906804E09038
:100E60006904F0906A0460911B0470911C04882747
:100E700077FD8095982F0E94CC6C20910F013091C6
:100E8000100140911101509112010E94C56D4B015A
:100E9000B82EA92E9B01482F592FB601C7010E94D9
:100EA0002D6C87FF03C0BE2CAF2C01C06401A601CE
:100EB0006B2D7A2D40936704509368046093690406
:100EC00070936A04E0906F04F090700420910B011D
:100ED00030910C0140910D0150910E0160911D0463
:100EE00070911E0480911F0490912004B9C06091FC
:100EF00025047091260480912704909128040E9473
:100F000099046091290470912A046F3F8FEF78074C
:100F100009F4DEC080914107882309F4D9C0C0904C
:100F20006704D0906804E0906904F0906A04882710
:100F300077FD8095982F0E94CC6C20910F01309105
:100F4000100140911101509112010E94C56D4B0199
:100F5000B82EA92E9B01482F592FB601C7010E9418
:100F60002D6C87FF03C0BE2CAF2C01C06401A6010D
:100F70006B2D7A2D40936704509368046093690445
:100F800070936A04E0906F04F090700420910B015C
:100F900030910C0140910D0150910E01609125049A
:100FA00070912604809127049091280459C0609183
:100FB00041047091420480914304909144040E9442
:100FC000990460914504709146046115710509F416
:100FD0007FC0C0906704D0906804E0906904F090EE
:100FE0006A04882777FD8095982F0E94CC6C209109
:100FF0000F013091100140911101509112010E9496
:10100000C56D4B01B82EA92E9B01482F592FB60153
:10101000C7010E942D6C87FF03C0BE2CAF2C01C0FE
:101020006401A6016B2D7A2D4093670450936804E8
:101030006093690470936A04E0906F04F090700408
:1010400020910B0130910C0140910D0150910E0146
:101050006091410470914204809143049091440452
:101060000E94C56D96014B2D5A2D0E94C56D4B01F6
:101070005C01B701882777FD8095982F0E94CC6C82
:10108000A50194010E942D6C87FD07C0C501B40124
:101090000E94996C262F872F02C02E2D8F2D209312
:1010A0006F048093700414C010926B0410926C044F
:1010B00010926D0410926E041092700410926F04DE
:1010C00010926704109268041092690410926A04E6
:1010D00080910406882309F44EC18091190681117C
:1010E0004AC18091050690910606009709F443C114
:1010F0008F3F910509F43FC120910B0130910C0104
:1011000040910D0150910E0160910B0670910C06FB
:1011100080910D0690910E060E94316C0E949904F8
:101120000E944567C090FE05D090FF05E090000644
:10113000F09001066C197D098E099F096D347D417F
:101140008105910508F4D6C0C0903406D0903506CC
:10115000E0903606F090370640900706509008065B
:101160006090090670900A06A3019201C701B601BA
:101170000E947C6D18160CF087C08091410788236F
:1011800009F453C00E944567C090FA05D090FB0552
:10119000E090FC05F090FD056C197D098E099F0912
:1011A0006D347D4181059105C8F02091070630918D
:1011B00008064091090650910A0660913406709124
:1011C000350680913606909137060E94C86B20E064
:1011D00030E040E05FE30E94C56D12C02091070639
:1011E000309108064091090650910A066091340634
:1011F0007091350680913606909137060E94C86B33
:101200009B01AC0160914A0770914B0780914C079C
:1012100090914D070E94C86B6093670470936804B7
:101220008093690490936A042FC060911B017091B0
:101230001C018091910490919204681779072CF415
:10124000882777FD8095982F05C0BC01882777FDFA
:101250008095982F0E94CC6C4B015C01A3019201F8
:10126000C701B6010E94C86BA70196010E94316CAC
:101270009B01AC01C501B4010E94C56D0E94996C2F
:1012800070931C0160931B0180903406909035068A
:10129000A0903606B0903706C0900706D09008069A
:1012A000E0900906F0900A06A7019601C501B40175
:1012B0000E942D6C87FF1EC0809141078823D1F0CA
:1012C000A5019401C701B6010E94C86B9B01AC0146
:1012D00060914A0770914B0780914C0790914D07A0
:1012E0000E94C96B609367047093680480936904DB
:1012F00090936A040E944567C090F605D090F70568
:10130000E090F805F090F9056C197D098E099F09A8
:101310006D347D418105910588F48091910490910F
:10132000920420911B0130911C0102972817390764
:101330000CF4C90190931C0180931B010E94456726
:10134000C090FA05D090FB05E090FC05F090FD05FB
:101350006C197D098E099F096D347D4181059105C8
:1013600008F4BFC0A090F405B090F505A114B10435
:1013700009F051C0B6C0C0906B04D0906C04E090EE
:101380006D04F0906E0420E030E0A901C701B601C1
:101390000E942D6C882309F4A9C02091820230910B
:1013A00083022D398FEF380709F4A0C080915104D2
:1013B00090915204821793070CF4C90169E170E01F
:1013C000681B790B882777FD8095982F0E94CC6C3D
:1013D00020914D0430914E0440914F04509150049F
:1013E0000E94C56D20910B0130910C0140910D01BF
:1013F00050910E010E94C56D9B01AC01C701B60161
:101400000E94C96B60936B0470936C0480936D04AD
:1014100090936E046BC00E944906682F70E080E0D4
:1014200090E00E94CC6C6B017C01B501882777FDB0
:101430008095982F0E94CC6C2AE939E949E95FE34D
:101440000E94C56D9B01AC01C701B6010E947C6D75
:1014500018168CF4809191049091920420911B01B4
:1014600030911C010197281739070CF4C90190939A
:101470001C0180931B0180911B0190911C0197FF1F
:1014800004C010921C0110921B01809175048823E6
:1014900081F020911B0130911C0180918F0490916B
:1014A0009004821793070CF4C90190931C01809358
:1014B0001B0120E030E0A90160916704709168048D
:1014C0008091690490916A040E942D6C87FF0EC080
:1014D00010926704109268041092690410926A04D2
:1014E00005C01092F5051092F405C5CFFF90EF905E
:1014F000DF90CF90BF90AF909F908F907F906F9034
:101500005F904F9008952F923F924F925F926F920B
:101510007F928F929F92AF92BF92CF92DF92EF9283
:10152000FF920F931F93CF93DF93CDB7DEB7C950D0
:10153000D1400FB6F894DEBF0FBECDBF80913D07FE
:1015400081110C94601720916B0430916C044091D0
:101550006D0450916E046091460770914707809129
:101560004807909149070E94C86BCC52DF4F6883AF
:1015700079838A839B83C45DD04080904A07909092
:101580004B07A0904C07B0904D0700916704109155
:1015900068042091690430916A04C653DF4F0883C0
:1015A00019832A833B83CA5CD04000913F07109186
:1015B000400720906F043090700420910701309113
:1015C00008014091090150910A01C253DF4F28835D
:1015D00039834A835B83CE5CD04040918602509130
:1015E0008702C850DF4F59834883C85FD04050916D
:1015F0008402CD5FDE4F5883C350D1407091850285
:10160000CC5FDE4F7883C450D14080918C02C650AD
:10161000DF4F8883CA5FD04020910B0130910C01CD
:1016200040910D0150910E01C550DF4F2883398341
:101630004A835B83CB5FD0400E9445672B013C010E
:10164000C0900B01D0900C01E0900D01F0900E01C4
:101650002AE037ED43E25DE3C701B6010E94C56DA4
:101660009B01AC01CC52DF4F688179818A819B81DB
:10167000C45DD0400E947C6D18160CF08EC0809125
:101680000B04811119C06091910470919204882714
:1016900077FD8095982F0E94CC6C23E333E343E7DA
:1016A0005FE30E94C56D0E94996C709392046093F1
:1016B000910481E080930B042AE037ED43EA5DE377
:1016C000C701B6010E94C56D9B01AC01CC52DF4F32
:1016D000688179818A819B81C45DD0400E947C6D44
:1016E0001816ECF480910A04811119C060919104DC
:1016F00070919204882777FD8095982F0E94CC6C7A
:101700002AE73DE045E65FE30E94C56D0E94996CC3
:10171000709392046093910481E080930A042DEC0D
:101720003CEC4CEC5DE3C701B6010E94C56D9B012A
:10173000AC01CC52DF4F688179818A819B81C45D85
:10174000D0400E947C6D18166CF460E070E082E07E
:101750000E942E680E94793A10920B0410920A049B
:101760000C94601780917504882381F02091910476
:101770003091920480918F04909190048217930786
:101780000CF4C90190939204809391048091910488
:10179000909192040E941E0604C010920B041092B5
:1017A0000A0480918B0490918C04A0918D04B091D7
:1017B0008E04A3019201281B390B4A0B5B0B2536C3
:1017C00031054105510510F40C946017C653DF4FE5
:1017D000288139814A815B81CA5CD040C501B4014E
:1017E0000E94C86BCA51DF4F688379838A839B83C9
:1017F000C65ED040B801882777FD8095982F0E945B
:10180000CC6C6B017C01B101882777FD8095982F06
:101810000E94CC6CC253DF4F288139814A815B81A1
:10182000CE5CD0400E94C56D9B01AC01C701B601E2
:101830000E94C86BC651DF4F688379838A839B837C
:10184000CA5ED0408091460790914707A091480713
:10185000B0914907C852DF4F88839983AA83BB831D
:10186000C85DD040209106043091070440910804DF
:1018700050910904BC01CD010E94C86BCC50DF4FD0
:10188000688379838A839B83C45FD040C852DF4FCB
:10189000088119812A813B81C85DD04000930604EC
:1018A00010930704209308043093090480904A079A
:1018B00090904B07A0904C07B0904D0720910204E8
:1018C000309103044091040450910504C501B40112
:1018D0000E94C86B6B017C01809202049092030409
:1018E000A0920404B092050400913F0710914007B4
:1018F0008091000490910104B801681B790B88273E
:1019000077FD8095982F0E94CC6CC150DF4F688383
:1019100079838A839B83CF5FD04010930104009327
:1019200000040091860210918702C653DF4F19838D
:101930000883CA5CD0400091840210918502C45291
:10194000DF4F19830883CC5DD040CE50DF4F198321
:101950000883C25FD040C653DF4F28813981CA5CFB
:10196000D0400217130734F4CE50DF4F3983288359
:10197000C25FD0408091FE039091FF03CE50DF4FB5
:1019800008811981C25FD040081B190BC8010531BD
:10199000110514F084E190E0CC51DF4F99838883E6
:1019A000C45ED04097FF06C0CC51DF4F1982188229
:1019B000C45ED04020910B0130910C0140910D018B
:1019C00050910E01C253DF4F288339834A835B83D2
:1019D000CE5CD04020E030E040E251E4CC52DF4F1A
:1019E000688179818A819B81C45DD0400E94C56DE8
:1019F000C253DF4F288139814A815B81CE5CD04060
:101A00000E94316C2091FA033091FB034091FC035A
:101A10005091FD030E94C96B162FB72EA82E992E48
:101A20002AE939E949E95EE3CA51DF4F68817981E2
:101A30008A819B81C65ED0400E94C56D2091F603CD
:101A40003091F7034091F8035091F9030E94C96B5C
:101A5000862E072F382E292E20E030E0A901C6510E
:101A6000DF4F688179818A819B81CA5ED0400E9464
:101A7000C56DC253DF4F288139814A815B81CE5CBD
:101A8000D0400E94316C2091F2033091F3034091D9
:101A9000F4035091F5030E94C96BCE51DF4F688368
:101AA000C25ED040CD51DF4F7883C35ED040C2517B
:101AB000DF4F8883CE5ED040C051DF4F9883C05F38
:101AC000D04020E030E0A901612F7B2D8A2D992D97
:101AD0000E942D6C87FD19C026E636E646E65FE3D8
:101AE000612F7B2D8A2D992D0E947C6D1816B4F4E0
:101AF00016E6CE52DF4F1883C25DD04066E6B62EA2
:101B000076E6A72EEFE39E2E0EC0CE52DF4F188250
:101B1000C25DD040B12CA12C912C05C0CE52DF4F1C
:101B20001883C25DD040CE52DF4F8881C25DD04065
:101B30009B2DAA2DB92D8093FA039093FB03A093BC
:101B4000FC03B093FD0320E030E0A901682D702F65
:101B5000832D922D0E942D6C87FD24C026E636E64B
:101B600046E65FE3682D702F832D922D0E947C6DD9
:101B700018166CF506E6C252DF4F0883CE5DD040E2
:101B800016E6C152DF4F1883CF5DD040C052DF4F01
:101B90000883C05ED0401FE3CF51DF4F1883C15E82
:101BA000D04029C0C252DF4F1882CE5DD040C15212
:101BB000DF4F1882CF5DD040C052DF4F1882C05E29
:101BC000D040CF51DF4F1882C15ED04014C0C25206
:101BD000DF4F8882CE5DD040C152DF4F0883CF5D9A
:101BE000D040C052DF4F3882C05ED040CF51DF4F6F
:101BF0002882C15ED040C252DF4F8881CE5DD04086
:101C0000C152DF4F9881CF5DD040C052DF4FA881D5
:101C1000C05ED040CF51DF4FB881C15ED0408093CD
:101C2000F6039093F703A093F803B093F90320E031
:101C300030E0A901CE51DF4F6881C25ED040CD5166
:101C4000DF4F7881C35ED040C251DF4F8881CE5EC6
:101C5000D040C051DF4F9881C05FD0400E942D6CB2
:101C600087FD23C026E636E646E65FE3CE51DF4F2A
:101C70006881C25ED040CD51DF4F7881C35ED040D5
:101C8000C251DF4F8881CE5ED040C051DF4F988176
:101C9000C05FD0400E947C6D181664F446E6242E86
:101CA00056E6352E06E61FE319C0212C312C00E044
:101CB00010E014C0CE51DF4F2880C25ED040CD511D
:101CC000DF4F3880C35ED040C251DF4F0881CE5E07
:101CD000D040C051DF4F1881C05FD040C101D80152
:101CE0008093F2039093F303A093F403B093F5036E
:101CF00020E030E040EA51ECCC52DF4F688179813E
:101D00008A819B81C45DD0400E94C56DC253DF4F64
:101D1000288139814A815B81CE5CD0400E94316C40
:101D2000CE52DF4F2881C25DD0403B2D4A2D592D28
:101D30000E94C86B4B015C0120E030E048E452E4B3
:101D4000CC50DF4F688179818A819B81C45FD0400C
:101D50000E94C56DC253DF4F288139814A815B8162
:101D6000CE5CD0400E94316C9B01AC01C501B40136
:101D70000E94C86B0E94996CCE51DF4F6883C25E8F
:101D8000D040CD51DF4F7883C35ED040C251DF4F8A
:101D900079836883CE5ED0402AE939E949E15FEB77
:101DA000CA51DF4F688179818A819B81C65ED040AC
:101DB0000E94C56DC252DF4F2881CE5DD040C15216
:101DC000DF4F3881CF5DD040C052DF4F4881C05EC9
:101DD000D040CF51DF4F5881C15ED0400E94C86BC8
:101DE0004B015C0123E333E343E35FE3C701B60147
:101DF0000E94C56D9B01AC01C501B4010E94C86B76
:101E00000E94996CC252DF4F6883CE5DD040C152B0
:101E1000DF4F7883CF5DD040C051DF4F7983688337
:101E2000C05FD0402DEC3CEC4CE45DEBC651DF4F85
:101E3000688179818A819B81CA5ED0400E94C56D8C
:101E4000C253DF4F288139814A815B81CE5CD0400B
:101E50000E94316C9101A8010E94C86B6B017C014A
:101E60002AE037ED43EA5CE3C150DF4F68817981B6
:101E70008A819B81CF5FD0400E94C56DC253DF4FE6
:101E8000288139814A815B81CE5CD0400E94316CCF
:101E90009B01AC01C701B6010E94C86B0E94996CFE
:101EA000C052DF4F6883C05ED040CF51DF4F788390
:101EB000C15ED040CC50DF4F79836883C45FD0408F
:101EC0008091F0039091F1031816190624F01092F6
:101ED000F1031092F003CD5FDE4F8881C350D140F3
:101EE000CC5FDE4F9881C450D140C850DF4F08818D
:101EF0001981C85FD040801791070CF4C8018C018C
:101F0000C650DF4F2881CA5FD040021B1109CE5254
:101F1000DF4F19830883C25DD04080910601815054
:101F200018161CF48093060127C084E680930601EE
:101F3000CE50DF4F08811981C25FD0401093FF035C
:101F40000093FE0326EFCC51DF4F08811981C45E58
:101F5000D0402003C001219F900D1124CE52DF4FAD
:101F600008811981C25DD040801B910B880F991F99
:101F70009093F1038093F003CE52DF4F08811981D3
:101F8000C25DD04010161106B4F58091EF038111A7
:101F900034C023E333E343E75FE3609107017091CB
:101FA00008018091090190910A010E94C56D162FC8
:101FB000F72EE82ED92E2AE939E949E15FE30E949C
:101FC0007C6D18162CF01AE949E939E12FE303C0BA
:101FD0004F2D3E2D2D2D812F942FA32FB22F809387
:101FE000070190930801A0930901B0930A0181E0D1
:101FF0008093EF0302C01092EF03C653DF4F0881B6
:102000001981CA5CD0400E391F4F34F482E090E051
:102010009093F1038093F003C653DF4F0881198139
:10202000CA5CD040C452DF4F28813981CC5DD0409A
:102030002017310734F0C452DF4F08811981CC5D7D
:10204000D040B801882777FD8095982F0E94CC6CEE
:102050006B017C0160918C0270E080E090E00E9456
:10206000CC6C4B015C012AE037ED43E85FE30E9452
:10207000C56D9B01AC01C701B6010E947C6D1816AD
:10208000ECF48091EE03811119C081E08093EE039E
:102090006091910470919204882777FD8095982F24
:1020A0000E94CC6C20E030E040E05FE30E94C56D10
:1020B0000E94996C7093920460939104C653DF4F11
:1020C00008811981CA5CD040C452DF4F2881398110
:1020D000CC5DD0402017310734F0C452DF4F088167
:1020E0001981CC5DD040B801882777FD8095982F65
:1020F0000E94CC6C6B017C0126E636E646E65FE387
:10210000C501B4010E94C56D9B01AC01C701B601B8
:102110000E942D6C87FD1092EE038091F003909148
:10212000F1038330910514F082E090E0C251DF4F5B
:1021300008811981CE5ED0400817190754F4CE519A
:10214000DF4F8881C25ED040CD51DF4F9881C35EA2
:10215000D040C051DF4F08811981C05FD0400817BF
:10216000190754F4C252DF4F8881CE5DD040C1526E
:10217000DF4F9881CF5DD0401C01CC50DF4F0881EC
:102180001981C45FD040081719075CF4C052DF4FB3
:102190008881C05ED040CF51DF4F9881C15ED04072
:1021A0001C01C0904207D0904307E0904407F09094
:1021B00045078090830490908404A0908504B0909B
:1021C0008604A5019401C701B6010E947C6D87FDBC
:1021D00009C0C0928304D0928404E0928504F092F6
:1021E000860423C020E030E0A901C701B6010E94A7
:1021F0007C6D1816D4F420E030E84FEF53E4C501AD
:10220000B4010E94C56DA70196010E94C96B20E030
:1022100030E040E05BE30E94C56D609383047093FF
:102220008404809385049093860480907F0490902A
:102230008004A0908104B0908204A5019401C8524A
:10224000DF4F688179818A819B81C85DD0400E947F
:102250007C6D87FD11C0C852DF4F288139814A81CA
:102260005B81C85DD04020937F043093800440930D
:1022700081045093820420C020E030E845E953E413
:10228000C501B4010E94C56DC852DF4F2881398154
:102290004A815B81C85DD0400E94C96B20E030E07C
:1022A00046E953E40E94316C60937F04709380048C
:1022B00080938104909382042AE037ED43EA5CEB3B
:1022C000C550DF4F688179818A819B81CB5FD04087
:1022D0000E94C56D9B01AC0111E0CC52DF4F6881BB
:1022E00079818A819B81C45DD0400E947C6D87FD8D
:1022F00010E0E0916504F0916604EF30F10508F01C
:1023000005C4E75BFF4F0C94B16E80917504882380
:1023100061F08091A8029091A902181619062CF478
:10232000909392048093910404C0109292041092AE
:1023300091044091DD025091DE02809187049091DA
:102340008804A0918904B0918A0473016201C81ABB
:10235000D90AEA0AFB0A28EE33E0DA010E94B76ED6
:102360006C157D058E059F0508F0DDC385E090E0C6
:102370000E94C505D8C3C0928304D0928404E09221
:102380008504F0928604C852DF4F88819981AA8122
:10239000BB81C85DD04080937F0490938004A0935C
:1023A0008104B09382040E944F3EE0909D02F09021
:1023B0009E029FEFE916F90629F0F0927404E0926C
:1023C000730404C010927404109273041092720487
:1023D00010927104209191043091920480911B011C
:1023E00090911C0128173907ACF5111133C020E07A
:1023F00030E0A901CA51DF4F688179818A819B81D0
:10240000C65ED0400E947C6D87FF24C020E030E093
:10241000A901C651DF4F688179818A819B81CA5E9B
:10242000D0400E947C6D87FF15C0809187049091F9
:102430008804A0918904B0918A0493018201081B49
:10244000190B2A0B3B0BD901C8018037964CA1050B
:10245000B10538F0EF20E09409F4E1C087E090E0A6
:102460009FC180918B0490918C04A0918D04B091B8
:102470008E0493018201081B190B2A0B3B0BD90117
:10248000C80181399140A105B10508F419C54DC3B2
:1024900080919D0290919E02019641F58091910458
:1024A000909192048E3F910509F111111FC0809106
:1024B000760490917704892BC9F080914107882395
:1024C000A9F08091870490918804A0918904B0912B
:1024D0008A0493018201081B190B2A0B3B0BD901BB
:1024E000C80180319742A105B10520F087E090E056
:1024F0000E94C505C0904A07D0904B07E0904C075A
:10250000F0904D076091730470917404882777FDF3
:102510008095982F0E94CC6C9B01AC01C701B6013D
:102520000E947C6D18160CF000C3C701B6010E9412
:10253000996C709374046093730480917604909105
:1025400077049093720480937104EFC21123F1F029
:102550008091870490918804A0918904B0918A04A5
:10256000A3019201281B390B4A0B5B0BA5E0B0E0DD
:102570000E94BE6E60931701709318018093190139
:1025800090931A0188E090E00E94C50580919D0219
:1025900090919E02019609F0C8C2809187049091A3
:1025A0008804A0918904B0918A0493018201081BD8
:1025B000190B2A0B3B0BD901C80181339547A105A3
:1025C000B10508F4B2C280917104909172048650F2
:1025D0009F4F209176043091770482179307FCF087
:1025E0006091730470917404882777FD8095982F0B
:1025F0000E94CC6C26E636E646E85FE30E94C56D95
:102600009B01AC0160914A0770914B0780914C0788
:1026100090914D070E947C6D18160CF086C286E0E2
:1026200090E0BEC08090150490901604A09017040E
:10263000B090180481149104A104B104A1F0809118
:10264000870490918804A0918904B0918A04A30121
:102650009201281B390B4A0B5B0B281539054A05DB
:102660005B0508F05FC0E0901904F0901A043FEF9A
:10267000E316F30641F08091410781111FC080915C
:10268000630481111BC08091870490918804A091FC
:102690008904B0918A04B301A201481B590B6A0B4B
:1026A0007B0B8091170190911801A0911901B091B5
:1026B0001A01481759076A077B07A0F51E141F0463
:1026C0004CF580914107811104C0809163048823F7
:1026D00009F11123F9F0B701882777FD8095982F2C
:1026E0000E94CC6C20910F0130911001409111019A
:1026F000509112010E94C56D9B01AC016091830451
:102700007091840480918504909186040E942D6CC0
:10271000181644F489288A288B2809F006C2EF2865
:1027200009F003C280911B0490911C04892BB1F124
:1027300089E090E035C08091870490918804A09151
:102740008904B0918A04B301A201481B590B6A0B9A
:102750007B0B8091210490912204A0912304B091DD
:102760002404481759076A077B07C0F480911B04AB
:1027700090911C04892B91F020E030E0A901609138
:102780001D0470911E0480911F04909120040E94EA
:102790002D6C882319F0112309F4C7C18AE090E059
:1027A0000E94C505C2C180912B0490912C04A09178
:1027B0002D04B0912E040097A105B105E9F04091D8
:1027C0008704509188046091890470918A04930170
:1027D0008201041B150B260B370B081719072A0754
:1027E0003B0750F08CE090E00E94C50510929204E7
:1027F00010929104212C312CC0903304D0903404D9
:10280000E0903504F090360420E030E0A901C701E3
:10281000B6010E942D6C8823D9F020910B013091D4
:102820000C0140910D0150910E01C701B6010E94AB
:10283000C56D9B01AC0160917F0470918004809113
:102840008104909182040E942D6C18160CF00EC128
:1028500080914107811105C080916304882309F4A8
:1028600064C160912F047091300461157105F9F015
:10287000882777FD8095982F0E94CC6C20910F01BE
:102880003091100140911101509112010E94C56DCB
:102890009B01AC0160918304709184048091850454
:1028A000909186040E942D6C18160CF0DFC00091E8
:1028B0003104109132040115110509F436C16091FB
:1028C0001C0770911D0780911E0790911F07C090F3
:1028D0007B04D0907C04E0907D04F0907E046C1921
:1028E0007D098E099F0920E13EE040E050E00E9412
:1028F0008F6EB901882777FD8095982F0E94CC6C48
:102900006B017C01B801882777FD8095982F0E9484
:10291000CC6C20910F013091100140911101509128
:1029200012010E94C56D9B01AC01C701B6010E9456
:102930002D6C18160CF4F9C099C080913704909151
:102940003804A0913904B0913A040097A105B1056B
:10295000A1F040918704509188046091890470919E
:102960008A0493018201041B150B260B370B0817F1
:1029700019072A073B0708F011CFC0903B04D090FD
:102980003C04E0903D04F0903E0420E030E0A901DA
:10299000C701B6010E942D6C8823D1F0C253DF4FCE
:1029A000288139814A815B81CE5CD040C701B60164
:1029B0000E94C56D9B01AC0160917F047091800401
:1029C00080918104909182040E942D6C87FD4EC0FD
:1029D00000913F04109140040115110509F491C0C4
:1029E00080914107811105C080916304882309F417
:1029F00088C060911C0770911D0780911E079091FF
:102A00001F07C0907B04D0907C04E0907D04F09080
:102A10007E046C197D098E099F0920E13EE040E0AB
:102A200050E00E948F6EB901882777FD8095982F1E
:102A30000E94CC6C6B017C01B801882777FD8095E2
:102A4000982F0E94CC6C20910F0130911001409181
:102A50001101509112010E94C56D9B01AC01C7018B
:102A6000B6010E942D6C18160CF44BC085E090E066
:102A700097CE8091870490918804A0918904B091A9
:102A80008A04B301A201481B590B6A0B7B0B80918E
:102A9000470490914804A0914904B0914A04481712
:102AA00059076A077B0708F079CE60914B04709153
:102AB0004C0461157105C9F180914107811104C071
:102AC00080916304882389F1112379F1882777FDA8
:102AD0008095982F0E94CC6C20910F0130911001AD
:102AE00040911101509112010E94C56D9B01AC01F2
:102AF000C701B6010E942D6C1816BCF04FCE109283
:102B00009A0410929204109291040DC082E090E019
:102B1000909366048093650480E290E0909356075A
:102B200080935507CDC1212C312C80919104909137
:102B30009204820D931D90939204809391042091AE
:102B40007504222361F020918F0430919004821744
:102B500093070CF4C901909392048093910400911F
:102B600091041091920417FD2AC060911B0170918D
:102B70001C01882777FD8095982F0E94CC6C2091AE
:102B80000701309108014091090150910A010E940A
:102B9000C56D6B017C01B801882777FD8095982F62
:102BA0000E94CC6CA70196010E947C6D181654F40B
:102BB000C701B6010E94996C262F972F05C020E00F
:102BC00090E002C0202F912F2093910490939204C3
:102BD000822F0E941E0680915407882309F470C139
:102BE0008091EF0281508093EF0218160CF468C1B7
:102BF000609128067091290680912A0690912B06F3
:102C000043E00E944033CC52DF4F8883C45DD04004
:102C1000C852DF4F9883C85DD0400E944906C65312
:102C2000DF4F8883CA5CD04010910406C253DF4F47
:102C30001883CE5CD0400E94952A882E0E949A3E2E
:102C4000A82E992EC0908602B0908702609107014D
:102C5000709108018091090190910A0142E00E945F
:102C60004033E82ED92E20911B01C452DF4F288318
:102C7000CC5DD04050911C0130918F04CA51DF4F80
:102C80003883C65ED04000919004C651DF4F088360
:102C9000CA5ED040F0906304609183047091840414
:102CA000809185049091860441E0C75FDE4F588390
:102CB000C950D1400E944033182F092F60917F04E2
:102CC00070918004809181049091820443E00E947D
:102CD00040339C014091F0036091F10389E0CB5FA8
:102CE000DE4F2883C550D140CA5FDE4F3883C650BF
:102CF000D140C95FDE4F4883C750D140C85FDE4F27
:102D00006883C850D1400E949969C852DF4F7881CA
:102D1000C85DD0407F93CC52DF4FA881C45DD040C6
:102D2000AF931F92C653DF4FB881CA5CD040BF93A8
:102D30001F92C253DF4FE881CE5CD040EF931F92C9
:102D40008F929F92AF92BF92CF92DF92EF92C75F26
:102D5000DE4F5881C950D1405F93C452DF4F588134
:102D6000CC5DD0405F93C651DF4F5881CA5ED040E2
:102D70005F93CA51DF4F5881C65ED0405F931F9268
:102D8000FF920F931F93CA5FDE4F3881C650D14028
:102D90003F93CB5FDE4F2881C550D1402F931F92C8
:102DA00020E52F93CB51DF4F7881C55ED0407F93D4
:102DB000CC51DF4FA881C45ED040AF93CD52DF4FDE
:102DC000B881C35DD040BF93CE52DF4FE881C25D72
:102DD000D040EF933F922F92C85FDE4F6881C8507A
:102DE000D1406F93C95FDE4F4881C750D1404F93A8
:102DF000CF51DF4F0881C15ED0400F93C052DF4FEB
:102E00001881C05ED0401F93C152DF4F0881CF5D53
:102E1000D0400F93C252DF4F1881CE5DD0401F9338
:102E2000CD51DF4F0881C35ED0400F93CE51DF4FAD
:102E30001881C25ED0401F939F938F93809192041C
:102E40008F93809191048F93809166048F938091EA
:102E500065048F93C301B20128EE33E040E050E0F7
:102E60000E948F6E7F936F933F932F938CE791E037
:102E70009F938F931F9288EC8F938E010F5F1F4F4C
:102E80001F930F930E94C070D8010D900020E9F7A6
:102E9000AD0141505109401B510B0FB6F894DEBFF4
:102EA0000FBECDBFE0914B09F0914C090280F38138
:102EB000E02DB8018BE499E009958AE08093EF0258
:102EC000C75FDE4F0FB6F894DEBF0FBECDBFDF91F8
:102ED000CF911F910F91FF90EF90DF90CF90BF9017
:102EE000AF909F908F907F906F905F904F903F90AA
:102EF0002F9008950F931F93242F26272F7034E0CF
:102F0000239FF0011124EF5AFB4F05911591259154
:102F10003491DC01CB0154E0B695A7959795879540
:102F20005A95D1F780279127A227B327E42FE2955E
:102F3000EF70E827EF7024E0E29FF0011124EF5AD0
:102F4000FB4F0591159125913491BC01CD01E4E031
:102F50009695879577956795EA95D1F760277127BC
:102F6000822793271F910F910895EF92FF920F935D
:102F70001F93CF93DF938C017B01EC016FEF7FEF09
:102F8000CB019E01201B310B2E153F0524F44991E6
:102F90000E947A17F6CF6095709580959095DF9195
:102FA000CF911F910F91FF90EF900895CF92DF92F4
:102FB000EF92FF920F931F93CF93DF93CDB7DEB7BE
:102FC000CC5BD1090FB6F894DEBF0FBECDBF8C012C
:102FD00048E550E060E070E0CE018B599F4F0E94C1
:102FE000C272A7968EAD9FADA7978A3C934F11F002
:102FF00080E02BC0A9968EAD9FADA997833D9347E6
:10300000B9F744E650E065E073E0CE0101960E9416
:10301000C27264E670E0CE0101960E94B517CB56ED
:10302000DF4FC880D980EA80FB80C559D0406C153D
:103030007D058E059F05E1F684E6FE013196D801F7
:1030400001900D928A95E1F781E0C454DF4F0FB6ED
:10305000F894DEBF0FBECDBFDF91CF911F910F91CE
:10306000FF90EF90DF90CF9008950F931F93CF9331
:10307000DF93CDB7DEB7C855D1090FB6F894DEBFE0
:103080000FBECDBF8C0148E550E060E070E0CE019E
:1030900001960E94C2720115110509F18AEC93EFA5
:1030A0009A83898383ED93E79C838B8364E670E046
:1030B000C8010E94B51769AB7AAB8BAB9CAB809112
:1030C000D2028823E1F08091DC02811118C044E62D
:1030D00050E065E073E0C8010E94D27208C01A8215
:1030E00019821C821B8219AA1AAA1BAA1CAA48E5CB
:1030F00050E060E070E0CE0101960E94D272C85AA2
:10310000DF4F0FB6F894DEBF0FBECDBFDF91CF917A
:103110001F910F910895CF92DF92EF92FF920F933C
:103120001F93CF93DF93CDB7DEB7C65AD1090FB641
:10313000F894DEBF0FBECDBFD82E8B0148E550E01E
:1031400060E070E0CE0101960E94C272ED2CF12C7D
:10315000F7013296EE0FFF1F21E030E02C0F3D1FEC
:10316000E20FF31F208131812C393B4611F080E0C2
:1031700042C0D7011A96AA0FBB1F21E030E02C0FE6
:103180003D1FA20FB31F2D913C9127343A4079F790
:103190009EE4D99EB00111246B567F4F4EE450E05F
:1031A000CE01875A9F4F0E94C2726EE470E0CE013A
:1031B000875A9F4F0E94B517F7013D96EE0FFF1FEC
:1031C000EE0FFF1F21E030E02C0F3D1FE20FF31F39
:1031D000C080D180E280F3806C157D058E059F054F
:1031E00031F68EE4FE01E75AFF4FD80101900D92AF
:1031F0008A95E1F781E0CA55DF4F0FB6F894DEBF3C
:103200000FBECDBFDF91CF911F910F91FF90EF9037
:10321000DF90CF900895DF92EF92FF920F931F936C
:10322000CF93DF93CDB7DEB7C855D1090FB6F89469
:10323000DEBF0FBECDBFD82E7B0148E550E060E079
:1032400070E0CE0101960E94C2720D2D10E0F801CF
:103250003296EE0FFF1FE114F104E9F121E030E0B6
:103260002C0F3D1FE20FF31F8CE99BE691838083B7
:10327000F8013A96EE0FFF1FE20FF31F87E49AE082
:10328000918380836EE470E0C7010E94B517F80156
:103290003D96EE0FFF1FEE0FFF1F21E030E02C0FD9
:1032A0003D1FE20FF31F60837183828393838091BC
:1032B000D2028823A1F18091DC02811130C03EE46A
:1032C000D39EB00111246B567F4F4EE450E0C701EE
:1032D0000E94D2721CC081E090E08C0F9D1FE80F0D
:1032E000F91F11821082F8013A96EE0FFF1FE80FC6
:1032F000F91F11821082F8013D96EE0FFF1FEE0FAD
:10330000FF1FE80FF91F108211821282138248E515
:1033100050E060E070E0CE0101960E94D272C85A7F
:10332000DF4F0FB6F894DEBF0FBECDBFDF91CF9158
:103330001F910F91FF90EF90DF9008952EE4829FF0
:10334000C00111248F519E4FDB0120E030E0FC01D1
:10335000E20FF31FE491ED932F5F3F4F2E343105C1
:10336000B1F70895CF92DF92EF92FF920F931F93E0
:10337000CF93DF93CDB7DEB7C557D1090FB6F89419
:10338000DEBF0FBECDBF8C0148E550E060E070E0CD
:10339000CE0101960E94C2728DA19EA18C3A994FD6
:1033A00011F080E02AC08FA198A587399A40C9F70B
:1033B0004DE150E068E570E0CE01875A9F4F0E94D2
:1033C000C2726DE170E0CE01875A9F4F0E94B5171F
:1033D0006996CCACDDACEEACFFAC69976C157D05A5
:1033E0008E059F05F1F68DE1FE01E75AFF4FD801EA
:1033F00001900D928A95E1F781E0CB58DF4F0FB62F
:10340000F894DEBF0FBECDBFDF91CF911F910F911A
:10341000FF90EF90DF90CF9008950F931F93CF937D
:10342000DF93CDB7DEB7C855D1090FB6F894DEBF2C
:103430000FBECDBF8C0148E550E060E070E0CE01EA
:1034400001960E94C27201151105D9F08CEA99EF1C
:103450009EA38DA387E99AE098A78FA36DE170E002
:10346000C8010E94B51769966CAF7DAF8EAF9FAF54
:1034700069974DE150E068E570E0C8010E94D272A2
:103480000AC01EA21DA218A61FA269961CAE1DAEE0
:103490001EAE1FAE699748E550E060E070E0CE01D7
:1034A00001960E94D272C85ADF4F0FB6F894DEBF61
:1034B0000FBECDBFDF91CF911F910F910895CF9295
:1034C000DF92EF92FF920F931F93CF93DF93CDB7CD
:1034D000DEB7C457D1090FB6F894DEBF0FBECDBF1B
:1034E0008C0148E550E060E070E0CE0101960E945A
:1034F000C27289A59AA58A33974811F080E028C046
:103500008BA59CA58A33904CC9F74CE150E069E645
:1035100073E0CE01875A9F4F0E94C2726CE170E047
:10352000CE01875A9F4F0E94B517CDA4DEA4EFA409
:10353000F8A86C157D058E059F0501F78CE1FE014D
:10354000E75AFF4FD80101900D928A95E1F781E08B
:10355000CC58DF4F0FB6F894DEBF0FBECDBFDF9162
:10356000CF911F910F91FF90EF90DF90CF90089532
:103570000F931F93CF93DF93CDB7DEB7C855D10913
:103580000FB6F894DEBF0FBECDBF8C0148E550E00A
:1035900060E070E0CE0101960E94C2720115110533
:1035A00009F18AE397E89AA789A78AE390EC9CA798
:1035B0008BA76CE170E0C8010E94B5176DA77EA7CC
:1035C0008FA798AB8091D2028823E1F08091DC0232
:1035D000811118C04CE150E069E673E0C8010E9417
:1035E000D27208C01AA619A61CA61BA61DA61EA646
:1035F0001FA618AA48E550E060E070E0CE010196F1
:103600000E94D272C85ADF4F0FB6F894DEBF0FBEC9
:10361000CDBFDF91CF911F910F910895CF9380E09F
:1036200090E00E94351880916302811104C080E00F
:1036300090E00E940D1AC0E060E070E08C2F0E94C4
:103640000B19CF5FC830C1F780E090E00E94B81A34
:10365000CF910C94B742089590939E0480939D045B
:10366000709399046093980440939A042093930470
:1036700060E08DE00E94636960E08EE00E94636913
:1036800010929C0410929B040E94456760939404DE
:1036900070939504809396049093970408950F93E4
:1036A0001F9380919B0490919C04892BD1F00E94E0
:1036B00045670091940410919504209196043091EF
:1036C0009704601B710B820B930B0091980410916F
:1036D000990420E030E0061717072807390708F09B
:1036E0004AC080919B0490919C04009709F056C0B9
:1036F00020919A04222309F440C080E090E890933E
:103700009C0480939B04215020939A0480919B04F5
:1037100090919C0420919D0430919E0482239323D8
:10372000892B09F042C060E08DE00E94636960E08F
:103730008EE00E94636980919304882309F44CC051
:1037400080919B0490919C0420919D0430919E0453
:1037500082239323892B09F046C060E088E00E9411
:1037600063690E9445676093940470939504809305
:1037700096049093970481E03DC060E08DE00E9444
:10378000636960E08EE00E946369809193048823FE
:1037900081F160E088E00E9463692BC0969587956F
:1037A00090939C0480939B04B1CF80916504909189
:1037B0006604029719F461E08DE0BBCF61E08EE012
:1037C0000E94636980910406882309F4B4CF809134
:1037D00019068111B0CFEFCF8091650490916604F6
:1037E0008230910510F461E0B9CF049709F0B5CFAC
:1037F000FACF80E01F910F9108950E944F1B811115
:1038000035C0E0916504F09166043597EA30F10522
:1038100028F5E85AFF4F0C94B16E20E04FEF6CE2B0
:1038200071E00BC020E04FEF6CE271E080EA90EABB
:103830001BC020E04FEF68E572E08AEA9AEA14C004
:1038400020E04FEF6CE271E080E09FEF0DC021E0DF
:103850004FEF64E670E080E090EA06C020E04FEFB2
:103860006CE271E080E091E00C942C1B08950F93C2
:103870001F93CF93DF93EDE1F1E0A0E0B0E0408152
:103880005181628173814115510561057105C1F155
:103890003B96EC0109811A812B813C8104171507A5
:1038A0002607370711F01196EACF2BE02A9FE00197
:1038B0002B9FD00D1124FE01E35EFE4F0480F581A5
:1038C000E02D3097E9F0C95DDE4F288121FF04C06B
:1038D00020914D022223A1F02BE02A9FE0012B9F93
:1038E000D00D1124C95DDE4F288122FF04C0209134
:1038F0004E02222329F0DF91CF911F910F9109945D
:10390000DF91CF911F910F9108955F926F927F92F7
:103910008F929F92AF92BF92CF92DF92EF92FF92DF
:103920000F931F93CF93DF933C0180914B029091B3
:103930004C028730910558F4FC01E55DFC4FC081D5
:10394000D0E0FC01EC5DFC4FE080F12C05C0EE24E2
:10395000EA94F12CCFEFD0E020E030E0A9016091B3
:1039600041047091420480914304909144040E9468
:103970002D6C882389F021E0512C8091470490918F
:103980004804A0914904B0914A04892B8A2B8B2BBF
:1039900009F420E0922E02C0912C512CA0900B0132
:1039A000B0900C01C0900D01D0900E0120E030E0ED
:1039B00040EC5FE3C601B5010E942D6C87FD2BC072
:1039C00020E030E040E250E4C601B5010E942D6CD9
:1039D00087FD24C023E333E343E350E4C601B5018C
:1039E0000E942D6C87FD1DC026E636E646E650E4B3
:1039F000C601B5010E942D6C082F112707FD1095F7
:103A00000027110F001F112786E090E09C01201B6A
:103A1000310B890108C001E010E005C002E010E0B0
:103A200002C003E010E060914D0470914E0480915B
:103A30004F04909150040E94996C862E20E030E053
:103A40004AEF53E460910F017091100180911101D0
:103A5000909112010E94C56D20E030E041E655E4EE
:103A60000E94C56D1F921F921F921F921F925B01B1
:103A70006C01292D352DAE0160913806C3010E94DD
:103A8000D3440F900F900F900F900F9081E0DF9133
:103A9000CF911F910F91FF90EF90DF90CF90BF904B
:103AA000AF909F908F907F906F905F900895CF928E
:103AB000EF92FF920F931F93CF93DF93EC016091EE
:103AC00076047091770416161706CCF4882777FDD4
:103AD0008095982F0E94CC6C9B01AC016FE7C62E9D
:103AE00018E2E12E1BE6F12E0EE61EEC609150026C
:103AF000CE010E941A4388E0888381E001C080E003
:103B0000DF91CF911F910F91FF90EF90CF9008958B
:103B1000CF92DF92EF92FF920F931F93CF93DF9399
:103B2000EC01809141078823E9F080914A028823C3
:103B3000C9F020E030E04AE754E460914207709118
:103B4000430780914407909145070E94C56D0E94EC
:103B50009E6C6B017C018CE6D81A8AECE80A88E836
:103B6000F80A04C0CC24CA94DC2C760120E030E0B2
:103B700040EA51E4609146077091470780914807F9
:103B8000909149070E94C56D0E949E6C8701760145
:103B90009B014091480260913806CE010E94DA589C
:103BA00081E0DF91CF911F910F91FF90EF90DF9017
:103BB000CF900895CF93DF93EC01209113013091C2
:103BC00014014091150150911601609142077091C6
:103BD000430780914407909145070E947C6D181619
:103BE0002CF4CE01DF91CF910C94881D80E0DF9101
:103BF000CF910895EF92FF920F93CF93DF93EC0153
:103C000060918202709183026D398FEF780781F0A5
:103C1000882777FD8095982F0E94CC6C20E030E0BB
:103C200040E05DE30E94C56D0E94996C9B0102C05B
:103C30002FEF3FE7EE24EA94FE2C0FEF409148026D
:103C400060913806CE010E946B5981E0DF91CF91DF
:103C50000F91FF90EF900895AF92BF92CF92DF92B5
:103C6000EF92FF920F931F93CF93DF935C018091AC
:103C700065049091660405978A30910530F4FC0143
:103C8000E65EFC4FC081D0E002C0C1E0D0E0C09051
:103C90004B02D0904C0220E030E040EA51E46091C9
:103CA00013017091140180911501909116010E94E9
:103CB000C56D0E949E6C7B0123E8F21A20E030E083
:103CC00040EA51E460916B0470916C0480916D0442
:103CD00090916E040E94C56D0E949E6C8B019E01A6
:103CE0004091480260913806C5010E94005A81E067
:103CF000DF91CF911F910F91FF90EF90DF90CF90C8
:103D0000BF90AF900895EF92FF920F931F93CF93C0
:103D1000DF93EC0120E030E04AE754E4609146078D
:103D20007091470780914807909149070E94C56D9F
:103D30000E949E6C8B019C01EE24EA94FE2C409123
:103D4000480260913806CE010E94B65A81E0DF91A8
:103D5000CF911F910F91FF90EF900895CF92DF9236
:103D6000EF92FF920F931F93CF93DF93EC01C090DC
:103D70004607D0904707E0904807F0904907209108
:103D80006B0430916C0440916D0450916E04C70136
:103D9000B6010E947C6D1816D4F420E030E04AE7AA
:103DA00054E4C701B6010E94C56D0E949E6C8B0150
:103DB0009C01EE24EA94FE2C409148026091380662
:103DC000CE010E94B65A82E0888381E001C080E083
:103DD000DF91CF911F910F91FF90EF90DF90CF90E7
:103DE00008956F927F928F92AF92CF92DF92EF926F
:103DF0000F931F93CF93DF933C01809165049091C3
:103E0000660405978A30910558F4FC01E05FFC4F89
:103E1000C080D12CFC01EA5FFC4FC081D0E005C01E
:103E2000C0E0D0E0CC24C394D12C80912F04909199
:103E30003004892BC9F48091310490913204882494
:103E40008394892B99F420E030E0A9016091330438
:103E50007091340480913504909136040E942D6C49
:103E6000811104C0812C02C0882483940E944906D9
:103E7000E82E20E030E040EA51E460916704709160
:103E800068048091690490916A040E94C56D0E9443
:103E9000996C8B01135820E030E040EA51E46091C6
:103EA0006B0470916C0480916D0490916E040E947B
:103EB000C56D0E949E6CDF93CF93AA24A3949B01AF
:103EC0004091470263E070E0C3010E944A5C0F909A
:103ED0000F9081E0DF91CF911F910F91EF90DF90D4
:103EE000CF90AF908F907F906F900895AF92CF92C8
:103EF000DF92EF92FF920F931F93CF93DF93EC012A
:103F0000809165049091660405970A9740F5809129
:103F1000910490919204009711F120918F043091B7
:103F200090042817390724F080917504811117C077
:103F3000809141078823B1F020E030E04AE754E463
:103F400060914A0770914B0780914C0790914D0703
:103F50000E94C56D0E949E6C8B01135805C000E045
:103F60001DE702C00FEF1FEF20E030E040EA51E410
:103F700060914E0770914F078091500790915107C3
:103F80000E94C56D0E949E6CA090880268017B0112
:103F900000914802209138064091470263E070E0AA
:103FA000CE010E94415D81E0DF91CF911F910F9181
:103FB000FF90EF90DF90CF90AF9008958F929F92F7
:103FC000AF92CF92DF92EF92FF920F931F93CF9316
:103FD000DF93EC0180910406882329F0A090190654
:103FE00081E0A82601C0A12C8091730490917404F3
:103FF000181619063CF48B3F910514F08AEF90E0F7
:10400000F82E02C0FF24FA9420E030E04AEF53E497
:1040100060910F0170911001809111019091120136
:104020000E94C56D0E949E6CEE24E3942091820252
:10403000309183022D393F4F09F4E12CAA2019F069
:1040400000E010E002C003E010E020916504309130
:1040500066042E30310519F420E030E002C022E081
:1040600030E0FF927F936F938FE0882E912C93E046
:10407000C92ED12C4091470263E070E0CE010E942E
:104080000B5E0F900F900F9081E0DF91CF911F9109
:104090000F91FF90EF90DF90CF90AF909F908F9017
:1040A0000895AF92BF92CF92EF920F93CF93DF9389
:1040B000EC0120910B0130910C0140910D015091C8
:1040C0000E01609133047091340480913504909115
:1040D00036040E94C56D20E030E040EA51E40E94C1
:1040E000C56D0E949E6C5B0129E1C22EEE24EA940C
:1040F0000FEF24E64091470263E070E0CE010E949A
:10410000655E81E0DF91CF910F91EF90CF90BF90EE
:10411000AF9008954F925F926F927F928F929F928D
:10412000AF92BF92CF92EF92FF920F931F93CF93D4
:10413000DF93EC0140900B0150900C0160900D0159
:1041400070900E01209111043091120440911304DB
:1041500050911404C301B2010E94C56D20E030E00B
:1041600040EA51E40E94C56D0E949E6C4B015C01C7
:1041700060914D0470914E0480914F0490915004D1
:104180000E949E6CC62E20912504309126044091F9
:10419000270450912804C301B2010E94C56D20E09C
:1041A00030E040EA51E40E94C56D0E949E6C7B01A4
:1041B000840194014091470263E070E0CE010E94C7
:1041C000A85E81E0DF91CF911F910F91FF90EF905A
:1041D000CF90BF90AF909F908F907F906F905F90A7
:1041E0004F9008958F929F92AF92BF92CF92EF928D
:1041F000FF920F931F93CF93DF93EC0160914D04D7
:1042000070914E0480914F04909150040E949E6CD6
:10421000C62E60912B0470912C0480912D049091F6
:104220002E0438EE832E33E0932EA12CB12CA50161
:1042300094010E948F6E79018A016091150470913A
:1042400016048091170490911804A50194010E940E
:104250008F6E89012AEF3FEF4091470263E070E0E3
:10426000CE010E94A85E81E0DF91CF911F910F9156
:10427000FF90EF90CF90BF90AF909F908F90089558
:10428000CF92DF92EF92FF920F93CF93DF93EC01E7
:10429000809165049091660401E08D30910509F4E8
:1042A00000E00D97A9F40E944567C0908704D09064
:1042B0008804E0908904F0908A046C197D098E09C5
:1042C0009F0928EE33E040E050E00E948F6E02C06C
:1042D00020E030E04091470263E070E0CE010E94B0
:1042E000E75E81E0DF91CF910F91FF90EF90DF903B
:1042F000CF900895CF92DF92EF92FF920F931F938A
:10430000CF93DF93EC016091470470914804809152
:10431000490490914A0428EE33E040E050E00E94C6
:104320008F6E69017A0120910B0130910C0140914F
:104330000D0150910E0160914104709142048091F1
:104340004304909144040E94C56D20E030E040EAAF
:1043500051E40E94C56D0E949E6C86019B014091B4
:10436000470263E070E0CE010E941E5F81E0DF91B2
:10437000CF911F910F91FF90EF90DF90CF90089514
:10438000AF92BF92CF92DF92EF92FF920F931F9363
:10439000CF93DF93CDB7DEB7C95CD1090FB6F894E0
:1043A000DEBF0FBECDBF7C0181E994E09F938F9368
:1043B0001F9288EC8F938E010F5F1F4F1F930F93F7
:1043C0000E94C0705C010F900F900F900F900F90A3
:1043D0000F9089E0A816B104D4F44BEE5EEF60E0D4
:1043E00070E0C7010E94804586E0F7018083680184
:1043F000C601801B910B8A159B053CF4F601619167
:104400006F01C7010E94E645F3CF81E001C080E063
:10441000C753DF4F0FB6F894DEBF0FBECDBFDF919D
:10442000CF911F910F91FF90EF90DF90CF90BF90B1
:10443000AF9008958F929F92AF92BF92CF92DF92EA
:10444000EF92FF920F931F93CF93DF93CDB7DEB719
:1044500028970FB6F894DEBF0FBECDBF5C01C090A9
:104460007D05D0907E05E0917B05F0917C05CE1610
:10447000DF06A9F1CE0101967C0100E010E09C016D
:1044800042ED842E912CCE16DF0629F4D0927C05C5
:10449000C0927B0517C00830110581F0DF01A056DE
:1044A000BB4F8C91D7018D937D010F5F1F4FCF01C3
:1044B0000196B4010E94676EFC01E5CFF0937C0584
:1044C000E0937B05A8016091EC05C5010E944F5F58
:1044D00040E050E0B50189E396E00E94715280E02F
:1044E00028960FB6F894DEBF0FBECDBFDF91CF91F7
:1044F0001F910F91FF90EF90DF90CF90BF90AF9002
:104500009F908F9008958F929F92AF92BF92CF927B
:10451000DF92EF920F93409165045091660421E081
:104520004230510509F020E001E04330510509F027
:1045300000E0425051094230510550F4A090550717
:10454000B0905607C12CD12C37E8C30ED11C03C044
:10455000A12CB12C65013FE03F933FEF3F933FE734
:104560003F935BE0852E912CE12C40E060E00E94BF
:10457000E15F0F900F900F9081E00F91EF90DF902F
:10458000CF90BF90AF909F908F9008952091650439
:1045900030916604225031092230310520F40E9406
:1045A000832281E0089580E00895EF92FF920F93B7
:1045B0001F93CF93DF93CDB7DEB7C955D1090FB69F
:1045C000F894DEBF0FBECDBF7C016FE0CE01019637
:1045D0000E949945F70101811281238134814FEFB7
:1045E00061E0CE0101960E94F150F70185818F8331
:1045F00040E050E0BE016F5F7F4F89E396E00E948C
:104600007152C75ADF4F0FB6F894DEBF0FBECDBF51
:10461000DF91CF911F910F91FF90EF900895EF924E
:10462000FF920F931F93CF93DF93CDB7DEB72E97F3
:104630000FB6F894DEBF0FBECDBF9E01235F3F4F84
:1046400079018E010F5F1F4F28503109AE01475F7E
:104650005F4FBE01625F7F4F0E945044882399F1F3
:104660008091040681112FC080914F02882359F157
:10467000909138068E85981326C00E9445676093F6
:1046800015067093160680931706909318068D8171
:104690009E81AF81B8858093110690931206A093F6
:1046A0001306B093140623E333E948E853E4698121
:1046B0007A818B819C810E94C96B0E94996C709356
:1046C000100660930F062E960FB6F894DEBF0FBE4D
:1046D000CDBFDF91CF911F910F91FF90EF90089583
:1046E0006F927F928F929F92AF92BF92CF92DF9202
:1046F000EF92FF920F931F93CF93DF93CDB7DEB767
:104700002E970FB6F894DEBF0FBECDBF3C01CE0191
:1047100001969F938F930A964C01DE011C965D01D2
:1047200008976C0112967D018E01095F1F4F9E0153
:10473000275F3F4FAE01435F5F4FBE016B5F7F4F0F
:10474000C3010E94A25C0F900F90882309F46DC0F2
:104750009E859F3F09F469C0D3011596EC918E2F79
:10476000877001E010E001C0000F8A95EAF7F0E0E1
:10477000B3E0F595E795BA95E1F7EF53FA4F8081ED
:10478000802361F0903550F40E9445676093F605F0
:104790007093F7058093F8059093F905D30115966A
:1047A000EC91F0E0A3E0F595E795AA95E1F7EF55D8
:1047B000FA4F80818023F1F00E9445676093FA05EB
:1047C0007093FB058093FC059093FD058091F405A3
:1047D0009091F5052E85009719F4822F90E006C080
:1047E000820F911D97FD0196959587959093F505FC
:1047F0008093F405D3011596EC91F0E063E0F59514
:10480000E7956A95E1F7EF57FA4F8081802369F0C9
:104810008E85853150F00E9445676093FE05709348
:10482000FF0580930006909301062E960FB6F8942C
:10483000DEBF0FBECDBFDF91CF911F910F91FF90D3
:10484000EF90DF90CF90BF90AF909F908F907F9030
:104850006F9008958F929F92AF92BF92CF92DF9206
:10486000EF92FF920F931F93CF93DF93CDB7DEB7F5
:104870002A970FB6F894DEBF0FBECDBF4C01CE0114
:1048800007965C01FE0131966F0104977C018E0151
:10489000085F1F4F9E01275F3F4FAE01465F5F4F8E
:1048A000BE016B5F7F4FC4010E948C5D882309F4B9
:1048B0004EC0998580913806F4012581981347C030
:1048C000322F377081E090E001C0880F3A95EAF707
:1048D00058854091480230E0F90193E0F595E7955D
:1048E0009A95E1F7EF53FA4F451718F46081682B5A
:1048F00004C0682F6095708167236083F90103E02D
:10490000F595E7950A95E1F7541306C0EF55FA4F70
:104910004081482B40830AC0782F7095DF01AF5546
:10492000BA4F6C9167236C93451760F0F90113E05F
:10493000F595E7951A95E1F7EF57FA4F9081982B87
:10494000908305C0EF57FA4F8081872380832A9692
:104950000FB6F894DEBF0FBECDBFDF91CF911F9190
:104960000F91FF90EF90DF90CF90BF90AF909F900E
:104970008F900895CF93DF9300D0CDB7DEB710921C
:104980007F0522E735E0AE014F5F5F4F63EF75E0D3
:104990000E948F5F882321F089818093800502C067
:1049A000109280050F900F90DF91CF910895FF92A4
:1049B0000F931F93CF93DF9300D0CDB7DEB78C0159
:1049C000FC0141815281638174814430504F610503
:1049D000710549F583E090E09A8389834FEF5FEF9B
:1049E000BE016F5F7F4FC8010E94254623E0969568
:1049F00087952A95E1F79093F2058093F105F09061
:104A00005002BE016F5F7F4FC8010E94F245F8124D
:104A10000AC00E9445676093ED057093EE05809390
:104A2000EF059093F0050F900F90DF91CF911F91BC
:104A30000F91FF900895AF92BF92CF92DF92EF92C5
:104A40000F9320914F02211124C06091E1056F5F07
:104A50006093E1052EEC2F932EE62F932BE62F93F8
:104A600028E22F9338E2A32E3BE6B32E3EE6C32E78
:104A70003EECD32EEE24EA940FEF21E030E040919B
:104A800038060E9475430F900F900F900F9081E0B1
:104A900001C080E00F91EF90DF90CF90BF90AF907A
:104AA00008958F92AF92BF92CF92DF92EF92FF92D2
:104AB0000F931F93CF93DF93EC0180914F028111ED
:104AC00034C060918202709183026D398FEF780754
:104AD00069F0882777FD8095982F0E94CC6C23E39E
:104AE00033E948E853E40E94C96B04C068E27BE6FE
:104AF0008EE69EECE0904207F09043070091440759
:104B0000109145072091460730914707409148078B
:104B1000509149078090E1055B016C016091380676
:104B2000CE010E94DA4381E001C080E0DF91CF91A5
:104B30001F910F91FF90EF90DF90CF90BF90AF90BB
:104B40008F900895CF92DF92EF92FF920F931F9371
:104B5000CF93DF9300D000D000D0CDB7DEB79E0159
:104B60002F5F3F4F69012F5F3F4F79018E010D5F2E
:104B70001F4F2E5F3F4FAE014B5F5F4FBE016A5F1D
:104B80007F4F0E94465B882301F18C81882351F07E
:104B900080916504909166040B9721F08BE090E082
:104BA0000E94C5058B81882381F080E090E00E94FF
:104BB0001E0682E090E0909366048093650483E390
:104BC00090E0909356078093550726960FB6F89479
:104BD000DEBF0FBECDBFDF91CF911F910F91FF9030
:104BE000EF90DF90CF9008950F931F93CF93DF93B3
:104BF00000D000D0CDB7DEB78E010F5F1F4F9E01F2
:104C00002E5F3F4FAE014D5F5F4FBE016C5F7F4F28
:104C10000E94B45B8823D9F09C8180913806981358
:104C200016C08B81882319F08A81882381F080E067
:104C300090E00E941E0682E090E0909366048093CC
:104C4000650482E390E090935607809355070F9098
:104C50000F900F900F90DF91CF911F910F910895BA
:104C6000CF93DF9300D0CDB7DEB7AE014F5F5F4F7C
:104C7000BE016E5F7F4F0E940A5C8823C1F09A815B
:104C800080913806981313C08981882381F080E0D1
:104C900090E00E941E0682E090E09093660480936C
:104CA000650482E390E090935607809355070F9038
:104CB0000F90DF91CF910895CF93DF93E1ECF5E072
:104CC000C1EAD5E0A1E8B5E0119219921D9285E004
:104CD000E13EF807C9F71092F5051092F405DF914F
:104CE000CF910895CF92DF92EF92FF920F931F938F
:104CF000CF93DF93CDB7DEB72B970FB6F894DEBF17
:104D00000FBECDBF4F8358878B87EF81F8853097D3
:104D1000F9F0982F81FF04C080914D028823D9F0CB
:104D200092FF04C080914E028823A9F093FF04C033
:104D300080910306882361F0C6010995882351F00C
:104D400040E050E0B60189E396E00E94715202C053
:104D500080E001C081E02B960FB6F894DEBF0FBE55
:104D6000CDBFDF91CF911F910F91FF90EF90DF901A
:104D7000CF9008954F925F927F928F929F92AF92C1
:104D8000BF92CF92DF92EF92FF920F931F93CF9338
:104D9000DF93CDB7DEB7C955D1090FB6F894DEBFA2
:104DA0000FBECDBF6FE0CE0101960E949945809164
:104DB0000306882341F12AE037ED43E25DE3609189
:104DC0006B0470916C0480916D0490916E040E944C
:104DD000C96B9B01AC0160914607709147078091B8
:104DE0004807909149070E947C6D181664F48091E1
:104DF0009F04811108C0CE0101960E94AE1E81E081
:104E000080939F0460C010929F045DE1A52E51E045
:104E1000B52E812C912C6BE0762EF501808191814D
:104E2000A281B381892B8A2B8B2B09F44CC0D5012D
:104E300018968D919C911997892BF1F10E944567E5
:104E4000F50100851185980140E050E00E948F6EC9
:104E50001695079520E030E0789CF001799CF00DE4
:104E60001124061717072807390708F5CF01895DB0
:104E70009E4F2C01DC018C9180FD1EC0E35EFE4F35
:104E8000CE0101966C01E080F180028113812481C2
:104E90003581468157816085718582850E947226A1
:104EA000882351F0D2018C9181608C930CC0E95D14
:104EB000FE4F80818E7F8083BFEF8B1A9B0AEBE0D1
:104EC000AE0EB11CAACFC75ADF4F0FB6F894DEBFA3
:104ED0000FBECDBFDF91CF911F910F91FF90EF904B
:104EE000DF90CF90BF90AF909F908F907F905F901A
:104EF0004F900895CF92DF92EF92FF920F931F93FE
:104F0000CF93DF93CDB7DEB7C955D1090FB6F8946B
:104F1000DEBF0FBECDBF6B017C016FE0CE010196FD
:104F20000E949945EDE1F1E020E030E0808191813F
:104F3000A281B3810097A105B10549F03B96C8163F
:104F4000D906EA06FB0629F02F5F3F4FEFCF80E03E
:104F500018C08BE0829FF001839FF00D1124E35E67
:104F6000FE4FCE0101966C01E080F1800281138139
:104F700024813581468157816085718582850E94B3
:104F80007226C75ADF4F0FB6F894DEBF0FBECDBFF3
:104F9000DF91CF911F910F91FF90EF90DF90CF9015
:104FA00008952091F3052223C9F02093EC05FC011C
:104FB00022ED30E04191442389F080917D0590916C
:104FC0007E05DC01A056BB4F4C930196B9010E94AF
:104FD000676E90937E0580937D05ECCF0895809158
:104FE0007D0590917E058E529F4F20917B053091DB
:104FF0007C05821B930B62ED70E00E94676E089542
:1050000089E396E00C94545880917F059091800537
:10501000981771F090E0FC01EE58FA4F208101964C
:1050200069E070E00E947B6E80937F05822F089577
:1050300080E008958091800590E0099620917F0599
:10504000821B910969E070E00E94676E0895CF921B
:10505000DF92EF92FF921092030680910406811175
:105060002FC08091E30581112BC0809149028823D4
:1050700039F10E9445676B017C01809148024FEF36
:1050800050E0481B51098091E8059091E905A091F5
:10509000EA05B091EB05C81AD90AEA0AFB0A22E32D
:1050A00030E0DA010E94B76E605E714B8F4F9F4F08
:1050B0006C157D058E059F0518F481E0809303062D
:1050C000FF90EF90DF90CF90089510920406109219
:1050D000E3051092E2051092060610920506109262
:1050E000E8051092E9051092EA051092EB0510927E
:1050F000E4051092E5051092E6051092E70510927E
:10510000190680916504909166040E9721F485E05C
:1051100090E00C94C50508958F92AF92BF92CF9204
:10512000EF92FF920F931F930E946528812C74E1E8
:10513000A72E75E0B72EC12CE1EFEE2EE2E0FE2E99
:1051400001E813E02CEA32E044E650E064E073E06A
:1051500089E396E00E943E4AF4E0CF2EA9E7EA2ECA
:10516000A5E0FA2E02E32DE841E050E060E070E0B7
:1051700089E396E00E94DA4A2091510230E040E053
:1051800050E061E070E089E396E00E94A84B8091D6
:105190006C0690916D06892B19F482E080936E065F
:1051A00080916F0690917006892B19F484E18093A9
:1051B000710667E37CE189E396E00E94E9506AE7C3
:1051C00077E289E396E00E94ED5089E396E00E9441
:1051D000C3510E945C2681E01F910F91FF90EF90D8
:1051E000CF90BF90AF908F9008954F925F926F9243
:1051F0007F928F929F92AF92BF92CF92DF92EF9267
:10520000FF920F931F93CF93DF93EC018B015A0111
:105210000E9445676B017C0180910406882309F494
:1052200031C18091190681112DC18091E8059091BD
:10523000E905A091EA05B091EB05A7019601281BAD
:10524000390B4A0B5B0BDA01C9018E3E9240A10576
:10525000B10518F00E94652855C1809130069091E3
:105260003106A0913206B0913306A7019601281BA2
:10527000390B4A0B5B0BDA01C9018E3E9240A10546
:10528000B10580F5409034065090350660903606A2
:105290007090370620E030E0A901C301B2010E94FE
:1052A0007C6D18165CF420E030E04AEF54E4C30152
:1052B000B2010E942D6C181694F00AC020E030E074
:1052C0004AEF54ECC301B2010E947C6D87FD07C018
:1052D000F801408251826282738211E004C081E051
:1052E0008093190610E080911A0690911B06A091F8
:1052F0001C06B0911D06A7019601281B390B4A0B0D
:105300005B0BDA01C9018E3E9240A105B10568F43C
:1053100080911E0690911F069C01255C3F4F273708
:10532000310518F4F50191838083809120069091D6
:105330002106A0912206B0912306C81AD90AEA0ACA
:10534000FB0AFEEECF16F2E0DF06E104F10408F0FE
:10535000DAC0C0902806D0902906E0902A06F09086
:105360002B0620E030E0A901C701B6010E947C6D48
:1053700018165CF420E030E040EC5FE3C701B601B2
:105380000E942D6C18165CF479C020E030E040ECEF
:105390005FEBC701B6010E947C6D87FD6FC0409036
:1053A0002C0650902D0660902E0670902F0680904F
:1053B0000B0190900C01A0900D01B0900E0120E027
:1053C00030E040E951E4C501B4010E94C56D9B0184
:1053D000AC01C301B2010E942D6C18160CF44EC032
:1053E00020E030E040E051E4C501B4010E94C56D09
:1053F0009B01AC01C301B2010E947C6D87FD3EC0E0
:1054000060919104709192048090260690902706F6
:105410006815790534F5A0908F04B09090046A194E
:105420007B09882777FD8095982F0E94CC6C9B0183
:10543000AC01C701B6010E94C56D6B017C01B401CE
:105440006A197B09882777FD8095982F0E94CC6C7C
:105450009B01AC01C701B6010E94316C9B01AC01FC
:1054600002C0A7019601688179818A819B810E948F
:10547000C96B688379838A839B8345C081E080936D
:10548000190641C08091150690911606A091170645
:10549000B0911806C81AD90AEA0AFB0A20EDC2160A
:1054A00027E0D206E104F10468F5C0901106D0901F
:1054B0001206E0901306F090140620E030E0A901F7
:1054C000C701B6010E947C6D18165CF420E030E044
:1054D0004AEF54E4C701B6010E942D6C181694F0EF
:1054E0000AC020E030E04AEF54ECC701B6010E9448
:1054F0007C6D87FD07C0F801C082D182E282F38211
:1055000011E001C010E0812FDF91CF911F910F9129
:10551000FF90EF90DF90CF90BF90AF909F908F90D3
:105520007F906F905F904F900895CF9380915A062F
:1055300090915B06181619061CF4C09151060AC01A
:10554000019721E1289FF001299FF00D1124E75CCC
:10555000F94FC08D80915102C81731F0C0935102AC
:1055600086E492E00E94B81A8C2FCF910895FF92A2
:105570000F931F93CF93DF93C62FF42ED22F9091CA
:105580003806891325C080914902882321F0809133
:1055900048026817E8F080910406F81621F080911F
:1055A000E305F81217C00E9445670091E8051091C5
:1055B000E9052091EA053091EB05601B710B820B28
:1055C000930B6E3E72408105910520F00E94652884
:1055D00080E063C08091E2058C1730F0C8132DC0C5
:1055E000809104068F1548F5809148028C1728F4A5
:1055F0008091E305F8120DC020C0C81729F08091F2
:10560000490281111AC0F4CF0E94952A8F1580F3A8
:10561000F6CFF092E305C093E2050E9445676093E0
:10562000E4057093E5058093E6059093E7051092F5
:10563000020610920606109205060E9445676093C6
:10564000E8057093E9058093EA059093EB05809156
:1056500002068D2B809302060E9445670091E405A7
:105660001091E5052091E6053091E705601B710B6F
:10567000820B930B613177428105910508F4A8CF25
:10568000809102068171813119F01092E305A0CF5B
:105690008091E3058093040681E0DF91CF911F9113
:1056A0000F91FF900895EF92FF920F931F93CF9366
:1056B000DF93CDB7DEB728970FB6F894DEBF0FBEE5
:1056C000CDBF7C018E010F5F1F4F9E012B5F3F4FAF
:1056D000AE01495F5F4FBE01685F7F4F0E94115965
:1056E000882391F121E0F70145816F8188850E942F
:1056F000B72A882349F189819A81AB81BC818F3F88
:10570000FFEF9F07AF07BF07F9F0BC01CD01745948
:10571000854397470E94CC6C2FE632E143E85AE379
:105720000E94C56D609334067093350680933606EB
:10573000909337060E944567609330067093310658
:10574000809332069093330628960FB6F894DEBF06
:105750000FBECDBFDF91CF911F910F91FF90EF90C2
:105760000895CF92DF92EF92FF920F931F93CF9302
:10577000DF93CDB7DEB727970FB6F894DEBF0FBE25
:10578000CDBF6C01CE0101967C018E010B5F1F4FD6
:105790009E012D5F3F4FAE014A5F5F4FBE01695FC3
:1057A0007F4FC6010E949D598823C1F122E0F60176
:1057B00045816E818F810E94B72A882379F190916B
:1057C0000406F6018581981323C06B817C816F3FAD
:1057D000FFE77F07E9F0882777FD8095982F0E94E3
:1057E000CC6C20E030E040E052E40E94C56D0E94A5
:1057F000996C70931F0660931E060E944567609324
:105800001A0670931B0680931C0690931D0606C013
:105810008DE99FEF90931F0680931E0627960FB683
:10582000F894DEBF0FBECDBFDF91CF911F910F91D6
:10583000FF90EF90DF90CF900895AF92BF92CF92FC
:10584000DF92EF92FF920F931F93CF93DF93CDB729
:10585000DEB72A970FB6F894DEBF0FBECDBF5C014E
:10586000CE0101966C01FE0133967F018E010B5F24
:105870001F4F9E01295F3F4FAE01475F5F4FBE0143
:10588000665F7F4FC5010E94415A882309F476C0A4
:1058900028E0F501458169858A850E94B72A882319
:1058A00009F46CC08091650490916604873091057D
:1058B00014F4019761F5EF81F8853197E730F10530
:1058C000C8F4EE59FF4F0C94B16E87E090E01DC014
:1058D0008EE090E01AC088E090E017C089E090E088
:1058E00014C08AE090E011C08DE090E00EC081E02D
:1058F00090E00BC08091050690910606009739F064
:105900008F3F910521F085E090E00E94C5056D81F3
:105910007E8180E090E00E94CA6C2DEC3CEC4CE46F
:105920005DE30E94C56D60930B0670930C06809337
:105930000D0690930E066B817C817D57882777FD3D
:105940008095982F0E94CC6C2DEC3CEC4CE45DE3F0
:105950000E94C56D60930706709308068093090640
:1059600090930A068F81988590930606809305068A
:1059700089819A8190934C0280934B022A960FB6AC
:10598000F894DEBF0FBECDBFDF91CF911F910F9175
:10599000FF90EF90DF90CF90BF90AF900895EF927F
:1059A000FF920F931F93CF93DF93CDB7DEB7289766
:1059B0000FB6F894DEBF0FBECDBF7C018E010B5F2A
:1059C0001F4F9E012F5F3F4FAE01495F5F4FBE01EA
:1059D000685F7F4F0E94EC5A882309F447C020E19A
:1059E000F70145816F8188850E94B72A8823F1F1EC
:1059F00069817A818B819C810E94CA6C2FE632E199
:105A000043E85AE30E94C56D60932C0670932D06FF
:105A100080932E0690932F062D813E81309325068C
:105A20002093240620914E0730914F074091500754
:105A3000509151070E94C86B609328067093290605
:105A400080932A0690932B06809191049091920462
:105A500090932706809326060E9445676093200650
:105A600070932106809322069093230628960FB602
:105A7000F894DEBF0FBECDBFDF91CF911F910F9184
:105A8000FF90EF90089589E396E00C94EF668AE02A
:105A90008093EF0281E08093540708958091DD06A2
:105AA0008534E9F03CF4813471F08234D9F487E034
:105AB00090E011C08F3451F0803559F0863491F464
:105AC0008AE090E008C088E090E005C089E090E0BE
:105AD00002C08CE090E00E94C50581E008958DE051
