:100000000C94EE030C9416040C9416040C94160431
:100010000C9416040C9416040C9416040C94ED68BD
:100020000C9414690C943B690C9462690C9416044A
:100030000C9416040C9416040C9416040C941604D8
:100040000C9416040C9489690C94A8670C94D867D6
:100050000C94756D0C9416040C9416040C941604F0
:100060000C9416040C9416040C9416040C941604A8
:100070000C9416040C9416040C9416040F080F0824
:100080003808760976090F0876097609760976091F
:10009000380838084308760976097609760976091A
:1000A0007609760999089908760976097609760914
:1000B00076097609F9083808671667165D186E160E
:1000C0006E166E166E166E166E166E161D12531284
:1000D000E0126E166E163E136E166E166E166E16C5
:1000E0005913001483146E166E166E166E166E1665
:1000F0006E166E16BA147D166E166E166E166E1687
:1001000084156E1620167D160C1D0C1D2D1D2D1D23
:100110000C1D2D1D2D1D2D1D2D1D0C1D111D181D02
:100120002D1D2D1D2D1D2D1D2D1D2D1D2D1D1F1D8D
:100130001F1D2D1D2D1D2D1D2D1D1F1D2D1D261D92
:100140000C1DD02DBE2DC42DC72DCD2DCA2DC12DDA
:100150005F306531A931A9313231BB30A931A931C4
:10016000A931A931A931A931A931A93188300D317D
:10017000A931A231194319431C431C431C431C439E
:100180001C431C431C431C4319439442CA421C4356
:100190001C4394421C431C431C431C43DC42CA4284
:1001A000CA421C431C431C431C431C431C431C43AA
:1001B000FD42FD421C431C431C431C4319431C438A
:1001C000FD42CA4208000000BE922449123EABAA7A
:1001D000AA2ABECDCCCC4C3E00000080BEABAAAA61
:1001E000AA3E00000000BF000000803F00000000A9
:1001F00000084178D3BB4387D1133D190E3CC3BDE2
:100200004282AD2B3E68EC8276BED98FE1A93E4C8E
:1002100080EFFFBE01C4FF7F3F00000000004442AA
:10022000473B2C25642E253033642C202C25642C50
:1002300025642C202C25642C202C25642C25642C52
:1002400025642C25642C25642C202C25642C256405
:100250002C202C25632C25732C25732C202C256415
:100260002C25642C25642C25732C202C25642C250E
:10027000642C20202C25642C25642C25642C2573CB
:100280000D0A009A996141009749010F0000000092
:100290000000000000000066665641FFFF000000FD
:1002A00000F6FF0000CDCC4C410000000000000033
:1002B000000000000000000000000000000000A698
:1002C0009BC43CF7FFD3FF2D00000000000000009E
:1002D00000CDCC6C4180CBA40005000000000000E4
:1002E000000000000000005841FFFF00000000F681
:1002F000FF0000CDCC4C41000000000000000000D9
:10030000000000000000000000000000008FC2F5A7
:100310003CF7FFD3FF2D0000000000000000009A12
:100320009969414031F7000500000000000000001D
:1003300000000033335341FFFF00000000F6FF00D0
:1003400000CDCC4C4100000000000000000000CDBA
:10035000CC7441190080CBA40000008FC2F53CF79B
:10036000FFD3FF2D00000000000000000033336BBE
:10037000414031F7000300000000000000000000D1
:100380000066665641FFFF00000000F6FF0000CD4A
:10039000CC4C410000000000000000000000000004
:1003A000000000000000000000A69BC43CF7FFD343
:1003B000FF2D0000000000000000009A996141003C
:1003C0009749010500000000000000000000000047
:1003D000005841FFFF00000000F6FF0000CDCC4CAC
:1003E00041000000000000000000000000000000CC
:1003F000000000000000008FC2F53CF7FFD3FF2D86
:100400000000000000000000006666664100974999
:1004100001070000000000000000000000666656B2
:1004200041FFFF00000000ECFF0000000040410021
:1004300000000000000000000066666641000080C9
:10044000CBA4000300A69BC43CECFFECFF320000F1
:100450000000000000000066666641009749010F39
:10046000000F00CDCC744180CBA4009A995141FF7C
:10047000FF00000000F6FF0000CDCC4C4100000062
:1004800000000000000000CDCC7441190080CBA416
:100490000000008FC2F53CF7FFD3FF2D00000000E5
:1004A0000000000000CDCC5C4180EE36000F000063
:1004B0000000000000000000008FC2554100000055
:1004C0000000000000CEFF66664E41000000000004
:1004D000000000000000000000000000000000001C
:1004E00000000000000000000028000000000000E4
:1004F000000000000000006410B71DC8206E3BAC77
:1005000030D9269041DC76F4516B6B5861B24D3C8A
:100510007105502083B8ED44930FF0E8A3D6D68C34
:10052000B361CBB0C2649BD4D2D38678E20AA01C5C
:10053000F2BDBD2A2A2A2A005353543B2C25732C82
:10054000202C2531752C2531752C202C25642C254B
:10055000732C25732C202C25642C25642C202C2511
:10056000642C25642C202C2531750D0A005343562C
:100570003B2C2531752C2C2531752C25732C25739E
:100580002C2531752C202C25642C25732C25732CBF
:1005900025732C25642C202C25642C25642C202CE0
:1005A00025642C25732C25642C202C25642C256493
:1005B0002C25642C25750D0A004E50433B2C25310B
:1005C000752C25732C25730D0A004353543B2C25A1
:1005D000642C25642C25642C25642C20202C2531AA
:1005E000752C2531752C20202C2531752C25317545
:1005F0002C2531752C202C25642C2531752C25318A
:10060000752C20202C25642C202C25640D0A0043F9
:1006100050453B2C25642C25732C25642C25642CFB
:1006200025642C202C25642C25642C25732C256412
:100630002C202C25732C25642C25642C25642C253A
:10064000642C25732C202C25642C25732C25642CDC
:10065000202C25732C25642C25642C25642C202C1F
:1006600025732C25642C25642C25640D0A00415328
:10067000543B2C25642E253032642C202C25732CE1
:1006800025732C25732C25642C202C25732C256494
:100690002C25642C25642C202C25642C25642C20EE
:1006A0002C25642C202C25732C25642C25642C25CA
:1006B000640D0A00000002000A002A00AA00AA0233
:1006C000AA0AAA2AAAAA464C543B2C25642C2564C3
:1006D0000D0A00EF038E038E0314F0010016F001E3
:1006E0000012F201000000000010F0010000F20111
:1006F0000014F2010019F201000000000000ED01F9
:10070000000000000000E8000000EA000000EE0029
:100710000000000000120C370E0C37080C37060CD6
:100720003706041302041302030508090A06070426
:100730000B0C0E0F10000104000000000000000070
:10074000000000030000000000000000001008028C
:1007500004080102800810800101020420400410F6
:100760002040204080040403030302020402020329
:100770000403040404040203030302020200000051
:100780000023002600290000000000250028002B7F
:100790000000000000240027002A004E414E494E70
:1007A000495459494E46CDCCCC3D0AD7233C17B7C6
:1007B000D13877CC2B329595E6241FB14F0A000033
:1007C00020410000C84200401C4620BCBE4CCA1B51
:1007D0000E5AAEC59D749C2EED67D76D11241FBEB9
:1007E000CFEFD0E1DEBFCDBF14E0A0E0B1E0E0EBA1
:1007F000FFEE02C005900D92A035B107D9F72AE0AF
:10080000A0E5B4E001C01D92AA37B207E1F717E0F6
:10081000CCEDD7E004C02297FE010E944471C63D92
:10082000D107C9F70E94456E0C94D6770C9400004E
:100830000F931F9380917604909177040196909383
:100840007704809376048436910524F10E94DF6951
:100850000091720410917304209174043091750416
:10086000601B710B820B930B6093DC047093DD04AF
:100870008093DE049093DF040E94DF69609372042A
:1008800070937304809374049093750410927704AA
:100890001092760481E08093DB041F910F910895FC
:1008A0008F929F92AF92BF92CF92DF92EF92FF9280
:1008B0000E94D3696B017C0180915D0690915E0678
:1008C000A0915F06B0916006A7019601281B390B25
:1008D0004A0B5B0BDA01C901893E9340A105B105C2
:1008E00048F480916106909162069093DA048093B7
:1008F000D904A0C080916E0490916F04A0917004FF
:10090000B0917104A7019601281B390B4A0B5B0BB0
:10091000DA01C901893E9340A105B10568F0109242
:10092000DA041092D904C0926E04D0926F04E0925F
:100930007004F09271047EC08091DC049091DD041B
:10094000A091DE04B091DF04892B8A2B8B2B09F454
:1009500071C02091DC043091DD044091DE0450919F
:10096000DF0460E077E883E993E00E942071A4E669
:10097000B0E00E944F710E945B6F4B015C0160917F
:10098000B50270E080E090E00E945D6F2091B602B9
:100990003091B7024091B8025091B9020E9456704E
:1009A00020E030E040E05FE30E9456709B01AC0124
:1009B000C501B4010E94C26E0E942A6F1092DC042D
:1009C0001092DD041092DE041092DF04C0926E04D7
:1009D000D0926F04E0927004F0927104161617061C
:1009E0004CF57093DA046093D9048091BC02909125
:1009F000BD02019691F48091FF0490910005209131
:100A0000FD043091FE04821793071CF02F3F3F4FE7
:100A100021F49093FE048093FD048091FD04909155
:100A2000FE048C34910534F08BE490E09093FE0446
:100A30008093FD04FF90EF90DF90CF90BF90AF9038
:100A40009F908F900895CF92DF92EF92FF92CF9375
:100A5000DF93209108013091090140910A015091E2
:100A60000B010E9456706093CE047093CF04809364
:100A7000D0049093D10480919A0290919B0260914E
:100A8000D6047091D7048C399F4F21F08091E007F4
:100A900080FF09C0C090A902D090AA02E090AB02EA
:100AA000F090AC0215C08091C904882349F0C09031
:100AB000A502D090A602E090A702F090A80208C07C
:100AC000C090A102D090A202E090A302F090A402F4
:100AD000882777FD8095982F0E945D6F9B01AC0160
:100AE000C701B6010E9456706093CA047093CB048C
:100AF0008093CC049093CD0420E030E04CE753E4A5
:100B0000C701B6010E9456700E942A6F70931D01A2
:100B100060931C01E090FD04F090FE04C090D904A5
:100B2000D090DA041E141F042CF5C114D10411F561
:100B30008091AD029091AE020196E1F4C0911C014A
:100B4000D0911D01BE01882777FD8095982F0E94C6
:100B50005D6F26E636E640E353E40E94BE6E87FDF5
:100B600003C090EB80E002C09C2F8D2F90931C015E
:100B700080931D01C114D10489F16091AD0270917F
:100B8000AE021616170654F58091AF029091B0028E
:100B9000C81AD90AC601880F991F8C0D9D1D0E9485
:100BA0000C71643C8FEF78076CF080911C01909180
:100BB0001D019B01255C3F4F2817390734F4645C05
:100BC0007F4F04C060E070E001C0BC016E157F057E
:100BD0000CF4B70170931D0160931C0120E030E01C
:100BE000A9016091CA047091CB048091CC049091CA
:100BF000CD040E94BE6EC091DE07D091DF0788232E
:100C000019F0CC30D10561F480E090E0AAE7B4E4BB
:100C10008093CA049093CB04A093CC04B093CD04EA
:100C2000CC30D10531F48CEF90E090931D0180938E
:100C30001C018091B3029091B4028F3F2FEF920775
:100C4000C9F42091CA043091CB044091CC04509156
:100C5000CD046091CE047091CF048091D004909126
:100C6000D1040E9456700E942A6F7093D30460933F
:100C7000D20404C09093D3048093D2048091D20410
:100C80009091D304892B11F02C9731F488E99AE3E1
:100C90009093D3048093D20480911C0190911D0104
:100CA0009093FC048093FB04DF91CF91FF90EF9031
:100CB000DF90CF900895CF92DF92EF92FF927C0168
:100CC0008091DE079091DF078E159F0509F458C0CB
:100CD0000B9771F08BE0E816F10451F40E94D36990
:100CE0006093EC047093ED048093EE049093EF0412
:100CF000F092DF07E092DE070E94D3696093F00470
:100D00007093F1048093F2049093F3041092080519
:100D1000C090D307D090D407E090D507F090D607C5
:100D200020E030E0A901C701B6010E940D7018163D
:100D30005CF420E030E040EA50E4C701B6010E94D4
:100D4000BE6E87FF0DC00AC020E030E040EA50ECE4
:100D5000C701B6010E940D70181614F41092CA074C
:100D60008091A5079091A607A091A707B091A80729
:100D70008093E0049093E104A093E204B093E30431
:100D8000FF90EF90DF90CF900895CF92DF92EF9297
:100D9000FF92CF93DF93EC018091DE079091DF0704
:100DA000039728F4109200051092FF0404C0D0931A
:100DB0000005C093FF042091CE043091CF044091F0
:100DC000D0045091D1046091CF077091D0078091E9
:100DD000D1079091D2070E94596E6B017C012AE0E5
:100DE00037ED43E25DE36091080170910901809164
:100DF0000A0190910B010E9456709B01AC01C70142
:100E0000B6010E94BE6E1816ACF0BE0182E00E94D0
:100E1000BC6A0E94D3696093F4047093F5048093D4
:100E2000F6049093F704DF91CF91FF90EF90DF905D
:100E3000CF9008956091FD047091FE0477FF02C089
:100E400060E070E082E0DF91CF91FF90EF90DF9063
:100E5000CF900C94BC6A61E082E00E94316BE1E8C3
:100E6000F0E08081887F8460808343E050E068E127
:100E700074E083E00E94AF6880E090E00E94C506C5
:100E800080E090E00E945B0681E00895CF92DF92BF
:100E9000EF92FF92CF93DF93C091D604D091D70405
:100EA0001C161D0634F58091CA07882311F120E035
:100EB00030E048EC52E46091D3077091D407809100
:100EC000D5079091D6070E9456706B017C01BE0138
:100ED000882777FD8095982F0E945D6F9B01AC015C
:100EE000C701B6010E94C26E0E942F6F862F90E04C
:100EF0003AC0E090FD04F090FE04F7FE02C0E12C41
:100F0000F12C6091FB047091FC048091F9049091A4
:100F1000FA0497FF02C0680F791F882777FD809534
:100F2000982F0E945D6F2091180130911901409116
:100F30001A0150911B010E9456702091FF043091BC
:100F400000052E193F0944E6429F6001439FD00CE3
:100F500011240E942A6F6E197F09C6010E940C712C
:100F6000CB0177FD06C08536910524F084E690E03C
:100F700001C080E0DF91CF91FF90EF90DF90CF90A4
:100F800008954F925F926F927F928F929F92AF924D
:100F9000BF92CF92DF92EF92FF920F931F93CF9366
:100FA000DF9380917904883060F082E090E0909344
:100FB000DF078093DE0781E290E09093E207809361
:100FC000E10780919602909197028D392FEF920759
:100FD000C9F02091DE073091DF072732310591F00B
:100FE0002091BE043091BF04821793073CF42091F6
:100FF000BC043091BD042817390724F08EE190E03D
:101000000E945B06E091DE07F091DF073A97EE3130
:10101000F10508F06BC1E25CFF4F0C944271009146
:101020007A0410917B04D0917C04C0917D04C0901F
:101030008E04D0908F04E0909004F090910420E012
:1010400030E0A901B601C7010E94BE6E882361F09D
:1010500098014D2F5C2FB601C7010E94BE6E87FF1D
:1010600003C08601DE2DCF2DB8018D2F9C2F08C027
:1010700060917A0470917B0480917C0490917D044E
:101080000E94230540C1609186047091870480917D
:101090008804909189040E9423050091CA0410914C
:1010A000CB04D091CC04C091CD04609184047091A4
:1010B0008504882777FD8095982F0E945D6F209189
:1010C0000C0130910D0140910E0150910F010E94D1
:1010D00056706B01F82EE92E9B01482F592FB8014D
:1010E0008D2F9C2F0E94BE6E87FF02C07E0101C023
:1010F0008601A8016F2D7E2D4093CA045093CB0426
:101100006093CC047093CD04C091D204D091D304E9
:10111000209108013091090140910A0150910B0181
:10112000609186047091870480918804909189046D
:10113000B9C060918E0470918F0480919004909159
:1011400091040E94230560919204709193046F3F73
:101150008FEF780709F4D7C08091CA07882309F474
:10116000D2C00091CA041091CB04D091CC04C0919C
:10117000CD04882777FD8095982F0E945D6F209180
:101180000C0130910D0140910E0150910F010E9410
:1011900056706B01F82EE92E9B01482F592FB8018C
:1011A0008D2F9C2F0E94BE6E87FF02C07E0101C062
:1011B0008601A8016F2D7E2D4093CA045093CB0465
:1011C0006093CC047093CD04C091D204D091D30429
:1011D000209108013091090140910A0150910B01C1
:1011E00060918E0470918F0480919004909191048D
:1011F00059C06091AA047091AB048091AC049091A5
:10120000AD040E9423056091AE047091AF04611596
:10121000710509F478C00091CA041091CB04D091F3
:10122000CC04C091CD04882777FD8095982F0E942B
:101230005D6F20910C0130910D0140910E01509194
:101240000F010E9456706B01F82EE92E9B01482F6A
:10125000592FB8018D2F9C2F0E94BE6E87FF02C0B0
:101260007E0101C08601A8016F2D7E2D4093CA0426
:101270005093CB046093CC047093CD04C091D204FE
:10128000D091D304209108013091090140910A01C5
:1012900050910B016091AA047091AB048091AC0451
:1012A0009091AD040E94567098014F2D5E2D0E94C2
:1012B00056706B017C01BE01882777FD8095982FC1
:1012C0000E945D6FA70196010E94BE6E87FD07C058
:1012D000C701B6010E942A6F262F872F02C02C2F2C
:1012E0008D2F2093D2048093D3040DC01092CE048E
:1012F0001092CF041092D0041092D1041092D30413
:101300001092D20428C280917406882309F40FC178
:101310008091890681110BC18091750690917606A6
:10132000009709F404C18F3F910509F400C1209191
:1013300008013091090140910A0150910B0160911F
:101340007B0670917C0680917D0690917E060E94BE
:10135000C26E0E9423050E94D36900916E0610910F
:101360006F062091700630917106601B710B820B25
:10137000930B6D347D418105910508F425C1C09022
:10138000A406D090A506E090A606F090A70640908F
:101390007706509078066090790670907A06A301DF
:1013A0009201C701B6010E940D7018160CF087C09B
:1013B0008091CA07882309F453C00E94D369009121
:1013C0006A0610916B0620916C0630916D06601BC9
:1013D000710B820B930B6D347D4181059105C8F033
:1013E00020917706309178064091790650917A06DF
:1013F0006091A4067091A5068091A6069091A7061B
:101400000E94596E20E030E040E05FE30E94567099
:1014100012C020917706309178064091790650915C
:101420007A066091A4067091A5068091A606909117
:10143000A7060E94596E9B01AC016091D307709181
:10144000D4078091D5079091D6070E94596E60937A
:10145000CA047093CB048093CC049093CD042FC026
:1014600060911C0170911D018091FF049091000515
:10147000681779072CF4882777FD8095982F05C089
:10148000BC01882777FD8095982F0E945D6F4B01E6
:101490005C01A3019201C701B6010E94596EA70128
:1014A00096010E94C26E9B01AC01C501B4010E946D
:1014B00056700E942A6F70931D0160931C018090EA
:1014C000A4069090A506A090A606B090A706C0908E
:1014D0007706D0907806E0907906F0907A06A7011A
:1014E0009601C501B4010E94BE6E87FF6DC0809158
:1014F000CA07882309F468C0A5019401C701B60191
:101500000E94596E9B01AC016091D3077091D40782
:101510008091D5079091D6070E945A6E6093CA04B5
:101520007093CB048093CC049093CD044DC0C090B5
:10153000CE04D090CF04E090D004F090D10420E00D
:1015400030E0A901C701B6010E94BE6E8823E1F117
:1015500020919602309197022D398FEF3807A1F133
:101560008091BA049091BB04821793070CF4C901CF
:1015700069E170E0681B790B882777FD8095982FCB
:101580000E945D6F2091B6043091B7044091B80479
:101590005091B9040E9456702091080130910901C0
:1015A00040910A0150910B010E9456709B01AC01C1
:1015B000C701B6010E945A6E6093CE047093CF04A7
:1015C0008093D0049093D1040E94D3690091660661
:1015D000109167062091680630916906601B710BB7
:1015E000820B930B6D347D418105910588F48091C8
:1015F000FF049091000520911C0130911D0102977C
:10160000281739070CF4C90190931D0180931C0120
:101610000E94D36900916A0610916B0620916C06B6
:1016200030916D06601B710B820B930B6D347D4105
:101630008105910508F062C0C0916406D0916506ED
:10164000209709F45BC02091CE043091CF044091E3
:10165000D0045091D1046091CF077091D007809150
:10166000D1079091D2070E94596E6B017C012AE04C
:1016700037ED43EA5CEB60910801709109018091BC
:101680000A0190910B010E9456709B01AC01C701A9
:10169000B6010E940D7087FD31C00E944607682F79
:1016A00070E080E090E00E945D6F6B017C01BE0104
:1016B000882777FD8095982F0E945D6F26E636E695
:1016C00046E85FE30E9456709B01AC01C701B6017A
:1016D0000E940D7018160CF047C08091FF04909185
:1016E000000520911C0130911D010597281739072D
:1016F0000CF4C90190931D0180931C0180911C0181
:1017000090911D0197FF04C010921D0110921C01C1
:101710008091D804882381F020911C0130911D0113
:101720008091FD049091FE04821793070CF4C90187
:1017300090931D0180931C0120E030E0A90160918D
:10174000CA047091CB048091CC049091CD040E9486
:10175000BE6E87FF0EC01092CA041092CB04109286
:10176000CC041092CD0405C0109265061092640658
:10177000C5CFDF91CF911F910F91FF90EF90DF9038
:10178000CF90BF90AF909F908F907F906F905F9021
:101790004F9008952F923F924F925F926F927F9257
:1017A0008F929F92AF92BF92CF92DF92EF92FF9271
:1017B0000F931F93CF93DF93CDB7DEB7C850D140BF
:1017C0000FB6F894DEBF0FBECDBF8091C607811162
:1017D0000C945D182091CE043091CF044091D00438
:1017E0005091D1046091CF077091D0078091D107BB
:1017F0009091D2070E94596ECE51DF4F6883798352
:101800008A839B83C25ED0408090D3079090D40798
:10181000A090D507B090D6070091CA041091CB04D0
:101820002091CC043091CD04C653DF4F0883198337
:101830002A833B83CA5CD0400091C8071091C90736
:101840002090D2043090D304C0901801D090190198
:10185000E0901A01F0901B0120919A0230919B02B6
:10186000CC50DF4F39832883C45FD0403091980239
:10187000CF5FDE4F3883C150D14040919902CE5F97
:10188000DE4F4883C250D1405091A002CA50DF4F72
:101890005883C65FD0408091080190910901A091C2
:1018A0000A01B0910B01C950DF4F88839983AA8345
:1018B000BB83C75FD0400E94D3692B013C012AE063
:1018C00037ED43E25DE36091080170910901809179
:1018D0000A0190910B010E9456709B01AC01CE5100
:1018E000DF4F688179818A819B81C25ED0400E94EE
:1018F0000D70181634F48091FF04909100050E9439
:10190000C5068091F4049091F504A091F604B0917D
:10191000F704A3019201281B390B4A0B5B0B2536F8
:1019200031054105510510F40C945D18C653DF4F85
:10193000288139814A815B81CA5CD040C501B401EC
:101940000E94596ECA51DF4F688379838A839B83D3
:10195000C65ED040B801882777FD8095982F0E94F9
:101960005D6F4B015C01B101882777FD8095982F51
:101970000E945D6FA70196010E9456709B01AC0109
:10198000C501B4010E94596EC651DF4F6883798347
:101990008A839B83CA5ED0408091CF079091D00705
:1019A000A091D107B091D207CC52DF4F88839983A1
:1019B000AA83BB83C45DD04020916A0430916B043C
:1019C00040916C0450916D04BC01CD010E94596E90
:1019D000C051DF4F688379838A839B83C05FD04087
:1019E000CC52DF4F088119812A813B81C45DD040F0
:1019F00000936A0410936B0420936C0430936D047D
:101A00008090D3079090D407A090D507B090D607C8
:101A100020916604309167044091680450916904F4
:101A2000C501B4010E94596E6B017C01809266046D
:101A300090926704A0926804B09269040091C8076C
:101A40001091C9078091640490916504B801681BE6
:101A5000790B882777FD8095982F0E945D6FC55080
:101A6000DF4F688379838A839B83CB5FD040109359
:101A700065040093640400919A0210919B02C6537E
:101A8000DF4F19830883CA5CD040009198021091FF
:101A90009902C852DF4F19830883C85DD040009176
:101AA000620410916304C150DF4F19830883CF5F34
:101AB000D040209108013091090140910A015091D4
:101AC0000B01C253DF4F288339834A835B83CE5C8B
:101AD000D04020E030E040E251E4CE51DF4F688159
:101AE00079818A819B81C25ED0400E945670C25328
:101AF000DF4F288139814A815B81CE5CD0400E94D2
:101B0000C26E20915E0430915F0440916004509158
:101B100061040E945A6E162FB72EA82E992E2AE91C
:101B200039E949E95EE3CA51DF4F688179818A81E9
:101B30009B81C65ED0400E94567020915A0430911D
:101B40005B0440915C0450915D040E945A6E862EA5
:101B5000072F382E292E20E030E0A901C651DF4F93
:101B6000688179818A819B81CA5ED0400E945670CB
:101B7000C253DF4F288139814A815B81CE5CD040DE
:101B80000E94C26E2091560430915704409158042F
:101B9000509159040E945A6EC252DF4F6883CE5D45
:101BA000D040C152DF4F7883CF5DD040C052DF4F6D
:101BB0008883C05ED040C251DF4F9883CE5ED04054
:101BC00020E030E0A901612F7B2D8A2D992D0E9404
:101BD000BE6E87FD19C026E636E646E65FE3612F56
:101BE0007B2D8A2D992D0E940D701816B4F416E6DF
:101BF000CE52DF4F1883C25DD04066E6B62E76E641
:101C0000A72EEFE39E2E0EC0CE52DF4F1882C25D8C
:101C1000D040B12CA12C912C05C0CE52DF4F18839F
:101C2000C25DD040CE52DF4F8881C25DD0409B2D37
:101C3000AA2DB92D80935E0490935F04A093600455
:101C4000B093610420E030E0A901682D702F832D4E
:101C5000922D0E94BE6E87FD24C026E636E646E63B
:101C60005FE3682D702F832D922D0E940D70181642
:101C70006CF506E6C652DF4F0883CA5DD04016E613
:101C8000C552DF4F1883CB5DD040C452DF4F08836D
:101C9000CC5DD0401FE3C352DF4F1883CD5DD040F1
:101CA00029C0C652DF4F1882CA5DD040C552DF4FEF
:101CB0001882CB5DD040C452DF4F1882CC5DD0403B
:101CC000C352DF4F1882CD5DD04014C0C652DF4FE3
:101CD0008882CA5DD040C552DF4F0883CB5DD040BB
:101CE000C452DF4F3882CC5DD040C352DF4F2882D0
:101CF000CD5DD040C652DF4F8881CA5DD040C5520D
:101D0000DF4F9881CB5DD040C452DF4FA881CC5DBE
:101D1000D040C352DF4FB881CD5DD04080935A048C
:101D200090935B04A0935C04B0935D0420E030E0EA
:101D3000A901C252DF4F6881CE5DD040C152DF4F52
:101D40007881CF5DD040C052DF4F8881C05ED040E7
:101D5000C251DF4F9881CE5ED0400E94BE6E87FD9B
:101D600023C026E636E646E65FE3C252DF4F6881CF
:101D7000CE5DD040C152DF4F7881CF5DD040C052A0
:101D8000DF4F8881C05ED040C251DF4F9881CE5E68
:101D9000D0400E940D70181664F446E6242E56E6D4
:101DA000352E06E61FE319C0212C312C00E010E08F
:101DB00014C0C252DF4F2880CE5DD040C152DF4FE9
:101DC0003880CF5DD040C052DF4F0881C05ED04028
:101DD000C251DF4F1881CE5ED040C101D80180933F
:101DE000560490935704A0935804B093590420E0EC
:101DF00030E040EA51ECCE51DF4F688179818A8131
:101E00009B81C25ED0400E945670C253DF4F288132
:101E100039814A815B81CE5CD0400E94C26ECE5235
:101E2000DF4F2881C25DD0403B2D4A2D592D0E94A5
:101E3000596E4B015C0120E030E046E952E4C051AC
:101E4000DF4F688179818A819B81C05FD0400E9489
:101E50005670C253DF4F288139814A815B81CE5C45
:101E6000D0400E94C26E9B01AC01C501B4010E942A
:101E7000596E0E942A6FC252DF4F6883CE5DD040F8
:101E8000C152DF4F7883CF5DD040C052DF4F79839E
:101E90006883C05ED0402AE939E949E15FEBCA5165
:101EA000DF4F688179818A819B81C65ED0400E9424
:101EB0005670C652DF4F2881CA5DD040C552DF4FF1
:101EC0003881CB5DD040C452DF4F4881CC5DD040DB
:101ED000C352DF4F5881CD5DD0400E94596E4B01F7
:101EE0005C0123E333E343E35FE3C701B6010E94F0
:101EF00056709B01AC01C501B4010E94596E0E944D
:101F00002A6FC652DF4F6883CA5DD040C552DF4F8B
:101F10007883CB5DD040C251DF4F79836883CE5E3A
:101F2000D0402DEC3CEC4CE45DEBC651DF4F6881BA
:101F300079818A819B81CA5ED0400E945670C253CB
:101F4000DF4F288139814A815B81CE5CD0400E947D
:101F5000C26E9101A8010E94596E6B017C012AE0BA
:101F600037ED43EA5CE3C550DF4F688179818A81B0
:101F70009B81CB5FD0400E945670C253DF4F2881B7
:101F800039814A815B81CE5CD0400E94C26E9B0148
:101F9000AC01C701B6010E94596E0E942A6FC4525B
:101FA000DF4F6883CC5DD040C352DF4F7883CD5D77
:101FB000D040C051DF4F79836883C05FD0408091AB
:101FC0005404909155041816190624F010925504E3
:101FD00010925404CF5FDE4F8881C150D140CE5F54
:101FE000DE4F9881C250D140CC50DF4F088119811B
:101FF000C45FD040801791070CF4C8018C01CA500F
:10200000DF4F2881C65FD040021B1109CE52DF4F3F
:1020100019830883C25DD040809106018150181653
:102020001CF48093060140C0C852DF4F28813981DB
:10203000C85DD040C653DF4F08811981CA5CD040CB
:10204000201731070CF4980184E680930601309341
:10205000630420936204C150DF4F08811981CF5F70
:10206000D040201B310B2531310514F024E130E044
:1020700037FF02C020E030E046EF4203C001439F3B
:10208000900D1124CE52DF4F08811981C25DD040DE
:10209000801B910B880F991F9093550480935404D3
:1020A0009093FA048093F904CE52DF4F088119818E
:1020B000C25DD04010161106B4F58091F80481116C
:1020C00034C023E333E343E75FE360911801709189
:1020D000190180911A0190911B010E945670162FD0
:1020E000F72EE82ED92E2AE939E949E15FE30E946B
:1020F0000D7018162CF01AE949E939E12FE303C0F5
:102100004F2D3E2D2D2D812F942FA32FB22F809355
:10211000180190931901A0931A01B0931B0181E05B
:102120008093F80402C01092F804C653DF4F088170
:102130001981CA5CD0400E391F4F34F482E090E020
:102140009093550480935404C653DF4F088119813E
:10215000CA5CD040C852DF4F28813981C85DD04069
:102160002017310734F0C852DF4F08811981C85D4C
:10217000D040B801882777FD8095982F0E945D6F29
:102180006B017C016091A00270E080E090E00E9411
:102190005D6F4B015C012AE037ED43E85FE30E948D
:1021A00056709B01AC01C701B6010E940D70181654
:1021B000ECF480915304811119C081E080935304A1
:1021C0006091FF0470910005882777FD8095982F16
:1021D0000E945D6F20E030E040E05FE30E945670B7
:1021E0000E942A6F709300056093FF04C653DF4F6F
:1021F00008811981CA5CD040C852DF4F28813981DB
:10220000C85DD0402017310734F0C852DF4F088135
:102210001981C85DD040B801882777FD8095982F37
:102220000E945D6F6B017C0126E636E646E65FE3C1
:10223000C501B4010E9456709B01AC01C701B601F3
:102240000E94BE6E87FD10925304809154049091B9
:1022500055048330910514F082E090E0C052DF4FC6
:1022600008811981C05ED0400817190754F4C25282
:10227000DF4F8881CE5DD040C152DF4F9881CF5D66
:10228000D040C251DF4F08811981CE5ED04008177F
:10229000190754F4C652DF4F8881CA5DD040C55239
:1022A000DF4F9881CB5DD0401C01C051DF4F0881CA
:1022B0001981C05FD040081719075CF4C452DF4F82
:1022C0008881CC5DD040C352DF4F9881CD5DD04036
:1022D0001C01C090CB07D090CC07E090CD07F090C8
:1022E000CE078090E8049090E904A090EA04B090B2
:1022F000EB04A5019401C701B6010E940D7087FD92
:1023000009C0C092E804D092E904E092EA04F09295
:10231000EB0423C020E030E0A901C701B6010E9410
:102320000D701816D4F420E030E04FE753E4C501F7
:10233000B4010E945670A70196010E945A6E20E0D7
:1023400030E040E85BE30E9456706093E8047093CD
:10235000E9048093EA049093EB048090E404909065
:10236000E504A090E604B090E704A5019401CC52E6
:10237000DF4F688179818A819B81C45DD0400E9452
:102380000D7087FD11C0CC52DF4F288139814A8101
:102390005B81C45DD0402093E4043093E504409316
:1023A000E6045093E70420C020E030E845E953E418
:1023B000C501B4010E945670CC52DF4F288139818B
:1023C0004A815B81C45DD0400E945A6E20E030E0BB
:1023D00046E953E40E94C26E6093E4047093E504FE
:1023E0008093E6049093E7042AE037ED43EA5CEB40
:1023F000C950DF4F688179818A819B81C75FD04056
:102400000E9456709B01AC0111E0CE51DF4F6881F4
:1024100079818A819B81C25ED0400E940D7087FDC8
:1024200010E0E091DE07F091DF07E832F10508F0F7
:1024300055C4E45AFF4F0C9442718091D80488230C
:1024400061F08091BC029091BD02181619062CF41F
:10245000909300058093FF0404C010920005109231
:10246000FF044091F1025091F2028091F0049091AA
:10247000F104A091F204B091F30473016201C81A4F
:10248000D90AEA0AFB0A28EE33E0DA010E94487111
:102490006C157D058E059F0508F02DC48BE090E03E
:1024A0000E945B0628C4C092E804D092E904E0923E
:1024B000EA04F092EB04CC52DF4F88819981AA8123
:1024C000BB81C45DD0408093E4049093E504A09365
:1024D000E604B093E7040E94803FE090B102F090E0
:1024E000B2029FEFE916F90629F0F092D704E092C4
:1024F000D60404C01092D7041092D6041092D504CA
:102500001092D4042091FF043091000580911C01A9
:1025100090911D0128173907ACF5111133C020E047
:1025200030E0A901CA51DF4F688179818A819B819E
:10253000C65ED0400E940D7087FF24C020E030E0CE
:10254000A901C651DF4F688179818A819B81CA5E6A
:10255000D0400E940D7087FF15C08091F0049091CB
:10256000F104A091F204B091F30493018201081BDD
:10257000190B2A0B3B0BD901C801803E944CA105D5
:10258000B10538F0EF20E09409F437C18FE090E016
:102590008DC08091F4049091F504A091F604B0915F
:1025A000F70493018201081B190B2A0B3B0BD9017D
:1025B000C80181399140A105B10508F47EC59DC3CC
:1025C0008091B1029091B202019641F58091FF0491
:1025D000909100058C3F910509F111111FC0809168
:1025E000D9049091DA04892BC9F08091CA07882315
:1025F000A9F08091F0049091F104A091F204B091BF
:10260000F30493018201081B190B2A0B3B0BD90120
:10261000C80180319742A105B10520F08FE090E01C
:102620000E945B06C090D307D090D407E090D507F6
:10263000F090D6076091D6047091D704882777FD73
:102640008095982F0E945D6F9B01AC01C701B60178
:102650000E940D7018160CF050C3C701B6010E94FD
:102660002A6F7093D7046093D6048091D904909117
:10267000DA049093D5048093D4043FC38091F0048E
:102680009091F104A091F204B091F304A30192019E
:10269000281B390B4A0B5B0BDA01C9018C349D41B5
:1026A000A105B10508F429C384E190E00E945B060E
:1026B00024C31123F1F08091F0049091F104A091D2
:1026C000F204B091F304A3019201281B390B4A0BC9
:1026D0005B0BA5E0B0E00E944F7160931401709312
:1026E0001501809316019093170185E190E00E94F7
:1026F0005B068091CB079091CC07A091CD07B0915C
:10270000CE078093E8049093E904A093EA04B09381
:10271000EB048091EC049091ED04A091EE04B09153
:10272000EF0493018201081B190B2A0B3B0BD90103
:10273000C801813E944CA105B105B0F48091F40428
:102740009091F504A091F604B091F704A3019201D1
:10275000281B390B4A0B5B0BDA01C9018139914007
:10276000A105B10508F4A9C48091B1029091B2020B
:10277000019609F0C2C28091F0049091F104A091F9
:10278000F204B091F30493018201081B190B2A0B88
:102790003B0BD901C80181339547A105B10508F468
:1027A000ACC28091D4049091D50486509F4F209163
:1027B000D9043091DA0482179307FCF06091D604B3
:1027C0007091D704882777FD8095982F0E945D6FC0
:1027D00026E636E646E85FE30E9456709B01AC01B0
:1027E0006091D3077091D4078091D5079091D60757
:1027F0000E940D7018160CF080C28CE090E056CF4D
:1028000080907E0490907F04A0908004B09081041A
:1028100081149104A104B104A1F08091F00490917D
:10282000F104A091F204B091F304A3019201281BDA
:10283000390B4A0B5B0B281539054A055B0508F077
:1028400058C0E0908204F09083043FEFE316F30653
:10285000E1F48091F0049091F104A091F204B09120
:10286000F304B301A201481B590B6A0B7B0B809147
:10287000140190911501A0911601B091170148170C
:1028800059076A077B07A8F538C21E141F044CF5C8
:102890008091CA07811104C08091C804882309F17E
:1028A0001123F9F0B701882777FD8095982F0E94B2
:1028B0005D6F20910C0130910D0140910E015091FE
:1028C0000F010E9456709B01AC016091E804709169
:1028D000E9048091EA049091EB040E94BE6E181600
:1028E00044F489288A288B2809F007C2EF2809F0C8
:1028F00004C28091840490918504892B09F4E4C179
:1029000086E190E0D3CE8091F0049091F104A09103
:10291000F204B091F304B301A201481B590B6A0BF6
:102920007B0B80918A0490918B04A0918C04B091D0
:102930008D04481759076A077B0708F0C5C18091C5
:10294000840490918504892B09F4BEC120E030E015
:10295000A901609186047091870480918804909108
:1029600089040E94BE6E882309F4AEC1112309F4C4
:10297000C4C1AAC18091940490919504A091960439
:10298000B09197040097A105B105E9F04091F004DA
:102990005091F1046091F2047091F304930182016B
:1029A000041B150B260B370B081719072A073B07C3
:1029B00050F084E290E00E945B06109200051092B5
:1029C000FF04212C312CC0909C04D0909D04E090F9
:1029D0009E04F0909F0420E030E0A901C701B601F9
:1029E0000E94BE6E8823D9F0209108013091090120
:1029F00040910A0150910B01C701B6010E94567027
:102A00009B01AC016091E4047091E5048091E604BF
:102A10009091E7040E94BE6E18160CF00EC18091D2
:102A2000CA07811105C08091C804882309F465C1D3
:102A3000609198047091990461157105F9F08827E7
:102A400077FD8095982F0E945D6F20910C01309149
:102A50000D0140910E0150910F010E9456709B0193
:102A6000AC016091E8047091E9048091EA049091CE
:102A7000EB040E94BE6E18160CF0DFC000919A04A1
:102A800010919B040115110509F437C16091A50748
:102A90007091A6078091A7079091A807C090E004C5
:102AA000D090E104E090E204F090E3046C197D0919
:102AB0008E099F0920E13EE040E050E00E94207135
:102AC000B901882777FD8095982F0E945D6F6B0173
:102AD0007C01B801882777FD8095982F0E945D6F53
:102AE00020910C0130910D0140910E0150910F0188
:102AF0000E9456709B01AC01C701B6010E94BE6ED8
:102B000018160CF4FAC099C08091A0049091A10409
:102B1000A091A204B091A3040097A105B105A1F072
:102B20004091F0045091F1046091F2047091F3042B
:102B300093018201041B150B260B370B081719078D
:102B40002A073B0708F0C0C0C090A404D090A50499
:102B5000E090A604F090A70420E030E0A901C701AE
:102B6000B6010E94BE6E8823D1F0C253DF4F288188
:102B700039814A815B81CE5CD040C701B6010E9499
:102B800056709B01AC016091E4047091E504809162
:102B9000E6049091E7040E94BE6E87FD4EC000914E
:102BA000A8041091A9040115110509F492C080919F
:102BB000CA07811105C08091C804882309F489C01F
:102BC0006091A5077091A6078091A7079091A8072B
:102BD000C090E004D090E104E090E204F090E304BF
:102BE0006C197D098E099F0920E13EE040E050E02C
:102BF0000E942071B901882777FD8095982F0E9447
:102C00005D6F6B017C01B801882777FD8095982F57
:102C10000E945D6F20910C0130910D0140910E01D9
:102C200050910F010E9456709B01AC01C701B60183
:102C30000E94BE6E18160CF44CC08BE090E036CDAE
:102C40008091F0049091F104A091F204B091F3040A
:102C5000B301A201481B590B6A0B7B0B8091B00496
:102C60009091B104A091B204B091B30448175907F0
:102C70006A077B0748F56091B4047091B50461154B
:102C80007105D9F18091CA07811104C08091C804EF
:102C9000882399F1112389F1882777FD8095982F52
:102CA0000E945D6F20910C0130910D0140910E0149
:102CB00050910F010E9456709B01AC01C701B601F3
:102CC0000E94BE6E1816CCF08EE190E0EFCC109210
:102CD0000805109200051092FF040DC082E090E0FC
:102CE0009093DF078093DE0780E290E09093E20705
:102CF0008093E107E2C1212C312C8091FF04909157
:102D00000005820D931D909300058093FF04209190
:102D1000D804222361F02091FD043091FE04821733
:102D200093070CF4C901909300058093FF04009170
:102D3000FF041091000517FD2AC060911C017091DD
:102D40001D01882777FD8095982F0E945D6F209147
:102D500018013091190140911A0150911B010E94F4
:102D600056706B017C01B801882777FD8095982FFC
:102D70000E945D6FA70196010E940D70181654F411
:102D8000C701B6010E942A6F262F972F05C020E0A9
:102D900090E002C0202F912F2093FF049093000514
:102DA00080915204811103C0822F0E94C5061092A7
:102DB000520480917804882309F47FC1809107012F
:102DC00081508093070118160CF477C16091980622
:102DD0007091990680919A0690919B0643E00E941B
:102DE0003035C253DF4F8883CE5CD040CC52DF4FAA
:102DF0009883C45DD0400E944607882E9090740648
:102E00000E94E22BA82E0E94CB3FC82EB92E5091D3
:102E10009A02D0909B0260911801709119018091E3
:102E20001A0190911B0142E0C85FDE4F5883C850E1
:102E3000D1400E943035F82EE92E10911C01C85265
:102E4000DF4F1883C85DD04020911D01CE51DF4F68
:102E50002883C25ED0403091FD04CA51DF4F3883D1
:102E6000C65ED0400091FE04C651DF4F0883CA5EA3
:102E7000D0401091C804C653DF4F1883CA5CD040BD
:102E80006091D3077091D4078091D5079091D607B0
:102E900041E00E943035182F092F6091D7077091BB
:102EA000D8078091D9079091DA0743E00E94303526
:102EB0009C017091640640916506C052DF4F4883C3
:102EC000C05ED040409154046091550489E0CD5FCC
:102ED000DE4F2883C350D140CC5FDE4F3883C450CF
:102EE000D140CA5FDE4F4883C650D140C95FDE4F34
:102EF0006883C750D140CB5FDE4F7883C550D14047
:102F00000E942A6CCC52DF4FA881C45DD040AF93A1
:102F1000C253DF4FB881CE5CD040BF931F928F92D7
:102F20001F929F921F92AF92BF92CF92DF92C85F83
:102F3000DE4F5881C850D1405F93EF92FF92CE513F
:102F4000DF4F5881C25ED0405F93C852DF4F588137
:102F5000C85DD0405F93C651DF4F5881CA5ED040F4
:102F60005F93CA51DF4F5881C65ED0405F931F9276
:102F7000C653DF4F5881CA5CD0405F930F931F93B5
:102F8000CC5FDE4F3881C450D1403F93CD5FDE4FE0
:102F90002881C350D1402F931F9221E42F93C05218
:102FA000DF4F0881C05ED0400F93CB5FDE4F78814A
:102FB000C550D1407F93CD52DF4F1881C35DD040C3
:102FC0001F93CE52DF4F2881C25DD0402F933F9296
:102FD0002F92C95FDE4F6881C750D1406F93CA5F9F
:102FE000DE4F4881C650D1404F93C352DF4F088116
:102FF000CD5DD0400F93C452DF4F1881CC5DD040DF
:103000001F93C552DF4F0881CB5DD0400F93C6524E
:10301000DF4F1881CA5DD0401F93C152DF4F088136
:10302000CF5DD0400F93C252DF4F1881CE5DD040AC
:103030001F939F938F93809100058F938091FF043E
:103040008F938091DF078F938091DE078F93C30169
:10305000B20128EE33E040E050E00E9420717F93FF
:103060006F933F932F938EE192E09F938F931F92E4
:1030700088EC8F938E010F5F1F4F1F930F930E9459
:103080004973D8010D900020E9F7AD014150510975
:10309000401B510B0FB6F894DEBF0FBECDBFE091C1
:1030A000D709F091D8090280F381E02DB80187EDAE
:1030B00099E009958AE080930701C85FDE4F0FB65B
:1030C000F894DEBF0FBECDBFDF91CF911F910F915E
:1030D000FF90EF90DF90CF90BF90AF909F908F9038
:1030E0007F906F905F904F903F902F9008950F9337
:1030F0001F93242F26272F7034E0239FF0011124E3
:10310000ED50FB4F0591159125913491DC01CB01D8
:1031100054E0B695A795979587955A95D1F780274E
:103120009127A227B327E42FE295EF70E827EF70ED
:1031300024E0E29FF0011124ED50FB4F0591159121
:1031400025913491BC01CD01E4E096958795779562
:103150006795EA95D1F760277127822793271F91FA
:103160000F910895EF92FF920F931F93CF93DF93E8
:103170008C017B01EC016FEF7FEFCB019E01201BE7
:10318000310B2E153F0524F449910E947718F6CF94
:103190006095709580959095DF91CF911F910F91DB
:1031A000FF90EF900895CF92DF92EF92FF920F93EE
:1031B0001F93CF93DF93CDB7DEB7CC5BD1090FB6AA
:1031C000F894DEBF0FBECDBF8C0148E550E060E053
:1031D00070E0CE018B599F4F0E944B75A7968EAD24
:1031E0009FADA7978A3C934F11F080E02BC0A99622
:1031F0008EAD9FADA997833D9347B9F744E650E064
:1032000065E073E0CE0101960E944B7564E670E0C4
:10321000CE0101960E94B218CB56DF4FC880D980EC
:10322000EA80FB80C559D0406C157D058E059F0551
:10323000E1F684E6FE013196D80101900D928A955F
:10324000E1F781E0C454DF4F0FB6F894DEBF0FBE44
:10325000CDBFDF91CF911F910F91FF90EF90DF9045
:10326000CF9008950F931F93CF93DF93CDB7DEB721
:10327000C855D1090FB6F894DEBF0FBECDBF8C0183
:1032800048E550E060E070E0CE0101960E944B7589
:103290000115110509F18AEC93EF9A83898383ED77
:1032A00093E79C838B8364E670E0C8010E94B218A8
:1032B00069AB7AAB8BAB9CAB8091E6028823E1F0E3
:1032C0008091F002811118C044E650E065E073E09F
:1032D000C8010E945B7508C01A8219821C821B8279
:1032E00019AA1AAA1BAA1CAA48E550E060E070E0DF
:1032F000CE0101960E945B75C85ADF4F0FB6F89455
:10330000DEBF0FBECDBFDF91CF911F910F9108950A
:10331000CF92DF92EF92FF920F931F93CF93DF93A1
:10332000CDB7DEB7C65AD1090FB6F894DEBF0FBECF
:10333000CDBFD82E8B0148E550E060E070E0CE01B3
:1033400001960E944B75ED2CF12CF7013296EE0F91
:10335000FF1F21E030E02C0F3D1FE20FF31F208103
:1033600031812C393B4611F080E042C0D7011A96DA
:10337000AA0FBB1F21E030E02C0F3D1FA20FB31F8F
:103380002D913C9127343A4079F79EE4D99EB001C3
:1033900011246B567F4F4EE450E0CE01875A9F4F69
:1033A0000E944B756EE470E0CE01875A9F4F0E94D9
:1033B000B218F7013D96EE0FFF1FEE0FFF1F21E041
:1033C00030E02C0F3D1FE20FF31FC080D180E28060
:1033D000F3806C157D058E059F0531F68EE4FE01A8
:1033E000E75AFF4FD80101900D928A95E1F781E0ED
:1033F000CA55DF4F0FB6F894DEBF0FBECDBFDF91C9
:10340000CF911F910F91FF90EF90DF90CF90089593
:10341000DF92EF92FF920F931F93CF93DF93CDB77D
:10342000DEB7C855D1090FB6F894DEBF0FBECDBFC9
:10343000D82E7B0148E550E060E070E0CE010196B7
:103440000E944B750D2D10E0F8013296EE0FFF1F14
:10345000E114F104E9F121E030E02C0F3D1FE20F0F
:10346000F31F8CE99BE691838083F8013A96EE0F77
:10347000FF1FE20FF31F87E49AE0918380836EE4DD
:1034800070E0C7010E94B218F8013D96EE0FFF1FD1
:10349000EE0FFF1F21E030E02C0F3D1FE20FF31F66
:1034A00060837183828393838091E6028823A1F1F4
:1034B0008091F002811130C03EE4D39EB00111240E
:1034C0006B567F4F4EE450E0C7010E945B751CC0F5
:1034D00081E090E08C0F9D1FE80FF91F1182108290
:1034E000F8013A96EE0FFF1FE80FF91F11821082C4
:1034F000F8013D96EE0FFF1FEE0FFF1FE80FF91FBB
:10350000108211821282138248E550E060E070E080
:10351000CE0101960E945B75C85ADF4F0FB6F89432
:10352000DEBF0FBECDBFDF91CF911F910F91FF90F6
:10353000EF90DF9008952EE4829FC00111248D57F3
:103540009D4FDB0120E030E0FC01E20FF31FE4912E
:10355000ED932F5F3F4F2E343105B1F70895CF9291
:10356000DF92EF92FF920F931F93CF93DF93CDB72C
:10357000DEB7C557D1090FB6F894DEBF0FBECDBF79
:103580008C0148E550E060E070E0CE0101960E94B9
:103590004B758DA19EA18C3A994F11F080E02AC005
:1035A0008FA198A587399A40C9F74DE150E068E5A9
:1035B00070E0CE01875A9F4F0E944B756DE170E01D
:1035C000CE01875A9F4F0E94B2186996CCACDDACF1
:1035D000EEACFFAC69976C157D058E059F05F1F685
:1035E0008DE1FE01E75AFF4FD80101900D928A95B7
:1035F000E1F781E0CB58DF4F0FB6F894DEBF0FBE86
:10360000CDBFDF91CF911F910F91FF90EF90DF9091
:10361000CF9008950F931F93CF93DF93CDB7DEB76D
:10362000C855D1090FB6F894DEBF0FBECDBF8C01CF
:1036300048E550E060E070E0CE0101960E944B75D5
:1036400001151105D9F08CEA99EF9EA38DA387E9A6
:103650009AE098A78FA36DE170E0C8010E94B218AC
:1036600069966CAF7DAF8EAF9FAF69974DE150E02B
:1036700068E570E0C8010E945B750AC01EA21DA229
:1036800018A61FA269961CAE1DAE1EAE1FAE69978E
:1036900048E550E060E070E0CE0101960E945B7565
:1036A000C85ADF4F0FB6F894DEBF0FBECDBFDF9113
:1036B000CF911F910F910895CF92DF92EF92FF92D9
:1036C0000F931F93CF93DF93CDB7DEB7C457D109C4
:1036D0000FB6F894DEBF0FBECDBF8C0148E550E0B9
:1036E00060E070E0CE0101960E944B7589A59AA515
:1036F0008A33974811F080E028C08BA59CA58A33B7
:10370000904CC9F74CE150E069E673E0CE01875A6E
:103710009F4F0E944B756CE170E0CE01875A9F4F1E
:103720000E94B218CDA4DEA4EFA4F8A86C157D0504
:103730008E059F0501F78CE1FE01E75AFF4FD80186
:1037400001900D928A95E1F781E0CC58DF4F0FB6DA
:10375000F894DEBF0FBECDBFDF91CF911F910F91C7
:10376000FF90EF90DF90CF9008950F931F93CF932A
:10377000DF93CDB7DEB7C855D1090FB6F894DEBFD9
:103780000FBECDBF8C0148E550E060E070E0CE0197
:1037900001960E944B750115110509F18AE397E81E
:1037A0009AA789A78AE390EC9CA78BA76CE170E0AD
:1037B000C8010E94B2186DA77EA78FA798AB809111
:1037C000E6028823E1F08091F002811118C04CE1FB
:1037D00050E069E673E0C8010E945B7508C01AA654
:1037E00019A61CA61BA61DA61EA61FA618AA48E55C
:1037F00050E060E070E0CE0101960E945B75C85A0F
:10380000DF4F0FB6F894DEBF0FBECDBFDF91CF9173
:103810001F910F910895CF9380E090E00E9432199C
:1038200080916F02811104C080E090E00E940A1B29
:10383000C0E060E070E08C2F0E94081ACF5FC830B3
:10384000C1F780E090E00E94B51BCF910C949E419F
:1038500090930C0580930B05709307056093060504
:10386000409308052093010560E08DE00E94F46B11
:1038700060E08EE00E94F46B10920A051092090538
:103880000E94D36960930205709303058093040539
:103890009093050508950F931F93809109059091CA
:1038A0000A05892BD1F00E94D3690091020510917D
:1038B00003052091040530910505601B710B820BF7
:1038C000930B009106051091070520E030E00617E4
:1038D00017072807390708F04AC080910905909119
:1038E0000A05009709F056C020910805222309F423
:1038F00040C080E090E890930A058093090521502C
:10390000209308058091090590910A0520910B05E7
:1039100030910C0582239323892B09F042C060E08B
:103920008DE00E94F46B60E08EE00E94F46B809169
:103930000105882309F44CC08091090590910A057E
:1039400020910B0530910C0582239323892B09F0DC
:1039500046C060E088E00E94F46B0E94D3696093E7
:10396000020570930305809304059093050581E09B
:1039700040C060E08DE00E94F46B60E08EE00E9449
:10398000F46B80910105882399F160E088E00E9442
:10399000F46B2EC09695879590930A058093090540
:1039A000B1CF8091DE079091DF07029719F461E0B3
:1039B0008DE0BBCF61E08EE00E94F46B80917406D5
:1039C000882309F4B4CF809189068111B0CFEFCF5D
:1039D0008091DE079091DF078230910510F461E05D
:1039E000B9CF0A97E1F38091E0078111F8CFB1CF09
:1039F00080E01F910F9108950E944B1C811135C0EA
:103A0000E091DE07F091DF073B97ED31F10528F5F6
:103A1000EC57FF4F0C94427120E04FEF6CE271E0E5
:103A20000BC020E04FEF6CE271E080EA90EA1BC02F
:103A300020E04FEF68E572E08AEA9AEA14C020E0DD
:103A40004FEF6CE271E080E09FEF0DC021E04FEF9F
:103A500064E670E080E090EA06C020E04FEF6CE2A0
:103A600071E080E091E00C94281C08950F931F935F
:103A7000CF93DF93EEE1F1E0A0E0B0E0408151812F
:103A8000628173814115510561057105C1F13B9654
:103A9000EC0109811A812B813C8104171507260747
:103AA000370711F01196EACF2BE02A9FE0012B9FF8
:103AB000D00D1124FE01E25EFE4F0480F581E02D61
:103AC0003097E9F0C85DDE4F288121FF04C02091C6
:103AD00059022223A1F02BE02A9FE0012B9FD00D59
:103AE0001124C85DDE4F288122FF04C020915A02B4
:103AF000222329F0DF91CF911F910F910994DF913B
:103B0000CF911F910F9108955F926F927F928F9244
:103B10009F92AF92BF92CF92DF92EF92FF920F935C
:103B20001F93CF93DF933C018091570290915802ED
:103B30008730910558F4FC01E158FC4FC081D0E07A
:103B4000FC01E858FC4FE080F12C05C0EE24EA941B
:103B5000F12CCFEFD0E020E030E0A9016091AA0481
:103B60007091AB048091AC049091AD040E94BE6E44
:103B7000882389F021E0512C8091B0049091B10408
:103B8000A091B204B091B304892B8A2B8B2B09F43A
:103B900020E0922E02C0912C512CA0900801B090F0
:103BA0000901C0900A01D0900B0120E030E040EC08
:103BB0005FE3C601B5010E94BE6E87FD2BC020E009
:103BC00030E040E250E4C601B5010E94BE6E87FDC0
:103BD00024C023E333E343E350E4C601B5010E946C
:103BE000BE6E87FD1DC026E636E646E650E4C601F9
:103BF000B5010E94BE6E082F112707FD1095002702
:103C0000110F001F112786E090E09C01201B310B53
:103C1000890108C001E010E005C002E010E002C028
:103C200003E010E06091B6047091B7048091B8048D
:103C30009091B9040E942A6F862E20E030E04AEF6E
:103C400053E460910C0170910D0180910E019091EF
:103C50000F010E94567020E030E041E655E40E94DA
:103C600056701F921F921F921F921F925B016C0150
:103C7000292D352DAE016091A806C3010E94164E74
:103C80000F900F900F900F900F9081E0DF91CF91E8
:103C90001F910F91FF90EF90DF90CF90BF90AF906A
:103CA0009F908F907F906F905F900895CF92EF924A
:103CB000FF920F931F93CF93DF93EC016091D90490
:103CC0007091DA0416161706CCF4882777FD8095D4
:103CD000982F0E945D6F9B01AC016FE7C62E18E222
:103CE000E12E1BE6F12E0EE61EEC60915C02CE0189
:103CF0000E945D4C88E0888381E001C080E0DF9114
:103D0000CF911F910F91FF90EF90CF900895CF9298
:103D1000DF92EF92FF920F931F93CF93DF93EC010B
:103D20008091CA078823E9F0809156028823C9F060
:103D300020E030E04AE754E46091CB077091CC0773
:103D40008091CD079091CE070E9456700E942F6FF0
:103D50006B017C018CE6D81A8AECE80A88E8F80A3C
:103D600004C0CC24CA94DC2C760120E030E040EA88
:103D700051E46091CF077091D0078091D107909165
:103D8000D2070E9456700E942F6F870176019B0117
:103D9000409154026091A806CE010E94AE4481E099
:103DA000DF91CF911F910F91FF90EF90DF90CF9017
:103DB0000895CF93DF93EC01209110013091110110
:103DC00040911201509113016091CB077091CC0783
:103DD0008091CD079091CE070E940D7018162CF49B
:103DE000CE01DF91CF910C94871E80E0DF91CF91BF
:103DF0000895EF92FF920F93CF93DF93EC016091C0
:103E00009602709197026D398FEF780781F08827BD
:103E100077FD8095982F0E945D6F20E030E040E0B4
:103E200052E40E9456700E942A6F9B0102C02FEF3D
:103E30003FE7EE24EA94FE2C0FEF4091540260918C
:103E4000A806CE010E943F4581E0DF91CF910F91FE
:103E5000FF90EF900895AF92BF92CF92DF92EF92D2
:103E6000FF920F931F93CF93DF935C018091DE0746
:103E70009091DF070B978D31910530F4FC01E55AE5
:103E8000FC4FC081D0E002C0C1E0D0E0C09057023A
:103E9000D090580220E030E040EA51E460911001F7
:103EA0007091110180911201909113010E9456703E
:103EB0000E942F6F7B0123E8F21A20E030E040EAF5
:103EC00051E46091CE047091CF048091D004909120
:103ED000D1040E9456700E942F6F8B019E01409169
:103EE00054026091A806C5010E94D44581E0DF918B
:103EF000CF911F910F91FF90EF90DF90CF90BF90E7
:103F0000AF900895EF92FF920F931F93CF93DF939B
:103F1000EC0120E030E04AE754E46091CF07709173
:103F2000D0078091D1079091D2070E9456700E94CD
:103F30002F6F8B019C01EE24EA94FE2C40915402D9
:103F40006091A806CE010E948A4681E0DF91CF9160
:103F50001F910F91FF90EF900895CF92DF92EF9213
:103F6000FF920F931F93CF93DF93EC01C090CF0785
:103F7000D090D007E090D107F090D2072091CE04E6
:103F80003091CF044091D0045091D104C701B601C3
:103F90000E940D701816D4F420E030E04AE754E493
:103FA000C701B6010E9456700E942F6F8B019C01C1
:103FB000EE24EA94FE2C409154026091A806CE01B2
:103FC0000E948A4682E0888381E001C080E0DF9120
:103FD000CF911F910F91FF90EF90DF90CF900895B8
:103FE0006F927F928F92AF92CF92DF92EF920F9368
:103FF0001F93CF93DF933C018091DE079091DF0701
:104000000B978D31910558F4FC01E25CFC4FC080A8
:10401000D12CFC01EF5DFC4FC081D0E005C0C0E0B9
:10402000D0E0CC24C394D12C809198049091990431
:10403000892BC9F480919A0490919B0488248394DD
:10404000892B99F420E030E0A90160919C047091E3
:104050009D0480919E0490919F040E94BE6E8111E8
:1040600004C0812C02C0882483940E944607E82E55
:1040700020E030E040EA51E46091CA047091CB0442
:104080008091CC049091CD040E9456700E942A6FBA
:104090008B01135820E030E040EA51E46091CE04F7
:1040A0007091CF048091D0049091D1040E945670F9
:1040B0000E942F6FDF93CF93AA24A3949B0140917A
:1040C000530263E070E0C3010E941E480F900F90FE
:1040D00081E0DF91CF911F910F91EF90DF90CF9012
:1040E000AF908F907F906F900895CF93DF93FC01F6
:1040F0002091FF043091000544E6429FC001439F98
:10410000900D11246CEF70E00E940C71EB01209176
:104110000D0530910E05261B370B37FF03C0319577
:1041200021953109263031053CF0CF010E94F01F66
:10413000D0930E05C0930D0581E0DF91CF910895D6
:10414000AF92BF92CF92DF92EF92FF920F931F93A5
:10415000CF93DF93EC018091DE079091DF070B97FF
:104160004D9760F58091FF0490910005009731F123
:104170002091FD043091FE042817390724F0809126
:10418000D80481111BC08091CA078823D1F0809187
:104190005602811116C020E030E040EA51E46091FF
:1041A000D3077091D4078091D5079091D6070E94CC
:1041B00056700E942F6F8B01135805C000E01DE759
:1041C00002C00FEF1FEFA0909A02B0909B028DE902
:1041D000A8168FEFB80611F48FE7A82E20E030E084
:1041E00040EA51E46091D7077091D8078091D907D0
:1041F0009091DA070E9456700E942F6F68017B0130
:10420000009154022091A8064091530263E070E0AF
:10421000CE010E94154981E0DF91CF911F910F914E
:10422000FF90EF90DF90CF90BF90AF9008958F9266
:104230009F92AF92CF92DF92EF92FF920F931F93D4
:10424000CF93DF93EC0180917406882329F0A0902E
:10425000890681E0A82601C0A12C8091D604909106
:10426000D704181619063CF48B3F910514F08AEF19
:1042700090E0F82E02C0FF24FA9420E030E04AEFEC
:1042800053E460910C0170910D0180910E019091A9
:104290000F010E9456700E942F6FEE24E39420912C
:1042A0009602309197022D393F4F09F4E12CAA2054
:1042B00019F000E010E002C003E010E02091DE07FA
:1042C0003091DF072732310519F420E030E002C0D9
:1042D00022E030E0FF927F936F939FE0892E912C34
:1042E00043E0C42ED12C4091530263E070E0CE0134
:1042F0000E94DF490F900F900F9081E0DF91CF91E6
:104300001F910F91FF90EF90DF90CF90AF909F9013
:104310008F900895AF92BF92CF92EF920F93CF9369
:10432000DF93EC01209108013091090140910A01CD
:1043300050910B0160919C0470919D0480919E04AA
:1043400090919F040E94567020E030E040EA51E4D2
:104350000E9456700E942F6F5B0159E1C52EEE241A
:10436000EA940FEF24E64091530263E070E0CE013F
:104370000E94394A81E0DF91CF910F91EF90CF9069
:10438000BF90AF9008954F925F926F927F928F92FD
:104390009F92AF92BF92CF92EF92FF920F931F9393
:1043A000CF93DF93EC014090080150900901609099
:1043B0000A0170900B0120917A0430917B044091A6
:1043C0007C0450917D04C301B2010E94567020E02C
:1043D00030E040EA51E40E9456700E942F6F4B017A
:1043E0005C0120E030E04AE754E46091B60470914B
:1043F000B7048091B8049091B9040E9456700E944D
:104400002F6FC62E20918E0430918F04409190041E
:1044100050919104C301B2010E94567020E030E037
:1044200040EA51E40E9456700E942F6F7B01840184
:1044300094014091530263E070E0CE010E947C4AF7
:1044400081E0DF91CF911F910F91FF90EF90CF907E
:10445000BF90AF909F908F907F906F905F904F90A4
:1044600008958F929F92AF92BF92EF92FF920F9317
:104470001F93CF93DF93EC016091940470919504A6
:104480008091960490919704E8EE8E2EE3E09E2EA4
:10449000A12CB12CA50194010E94207179018A01FF
:1044A00060917E0470917F048091800490918104DA
:1044B000A50194010E94207189012AEF3FEF4091EC
:1044C000530263E070E0CE010E94BB4A81E0DF91BD
:1044D000CF911F910F91FF90EF90BF90AF909F9061
:1044E0008F900895CF92DF92EF92FF920F93CF9328
:1044F000DF93EC018091DE079091DF0701E08632C7
:10450000910509F400E08697A9F40E94D369C09050
:10451000F004D090F104E090F204F090F3046C19F0
:104520007D098E099F0928EE33E040E050E00E94AB
:10453000207102C020E030E04091530263E070E05F
:10454000CE010E94F44A81E0DF91CF910F91FF905C
:10455000EF90DF90CF900895CF92DF92EF92FF928D
:104560000F931F93CF93DF93EC016091B004709190
:10457000B1048091B2049091B30428EE33E040E09E
:1045800050E00E94207169017A0120910801309168
:10459000090140910A0150910B016091AA047091A8
:1045A000AB048091AC049091AD040E94567020E061
:1045B00030E040EA51E40E9456700E942F6F86015D
:1045C0009B014091530263E070E0CE010E942B4BAF
:1045D00081E0DF91CF911F910F91FF90EF90DF90DD
:1045E000CF900895AF92BF92CF92DF92EF92FF9259
:1045F0000F931F93CF93DF93CDB7DEB7C95CD1097B
:104600000FB6F894DEBF0FBECDBF7C0183E395E00B
:104610009F938F931F9288EC8F938E010F5F1F4F94
:104620001F930F930E9449735C010F900F900F909E
:104630000F900F900F9089E0A816B104D4F44BEEC0
:104640005EEF60E070E0C7010E94C34E86E0F701B4
:1046500080836801C601801B910B8A159B053CF481
:10466000F60161916F01C7010E94294FF3CF81E0EC
:1046700001C080E0C753DF4F0FB6F894DEBF0FBE16
:10468000CDBFDF91CF911F910F91FF90EF90DF9001
:10469000CF90BF90AF9008958F929F92AF92BF92AC
:1046A000CF92DF92EF92FF920F931F93CF93DF93FE
:1046B000CDB7DEB728970FB6F894DEBF0FBECDBFDB
:1046C0005C01C090ED05D090EE05E091EB05F09116
:1046D000EC05CE16DF06A9F1CE0101967C0100E0C3
:1046E00010E09C01A2ED8A2E912CCE16DF0629F453
:1046F000D092EC05C092EB0517C00830110581F08F
:10470000DF01A05FBA4F8C91D7018D937D010F5FC0
:104710001F4FCF010196B4010E94F870FC01E5CF54
:10472000F093EC05E093EB05A80160915C06C501F0
:104730000E945C4B40E050E0B50189EA96E00E949F
:10474000885B80E028960FB6F894DEBF0FBECDBF21
:10475000DF91CF911F910F91FF90EF90DF90CF905D
:10476000BF90AF909F908F9008958F929F92AF923D
:10477000BF92CF92DF92EF920F934091DE0750915C
:10478000DF0761E04230510509F460E021E042308A
:10479000510509F020E001E04330510539F0309136
:1047A000E007311103C000E0222349F0A090E107A7
:1047B000B090E207C12CD12C37E0C32A03C0A12C52
:1047C000B12C65013FE03F933FEF3F933FE73F93BD
:1047D000BBE08B2E912CE12C41E00E94EE4B0F9020
:1047E0000F900F9081E00F91EF90DF90CF90BF90EE
:1047F000AF909F908F9008952091DE073091DF0752
:10480000225031092230310520F02091E007222387
:1048100021F00E94B52381E0089580E00895EF9291
:10482000FF920F931F93CF93DF93CDB7DEB7C95598
:10483000D1090FB6F894DEBF0FBECDBF7C016FE08B
:10484000CE0101960E94DC4EF70101811281238185
:1048500034814FEF61E0CE0101960E94085AF701C2
:1048600085818F8340E050E0BE016F5F7F4F89EA12
:1048700096E00E94885BC75ADF4F0FB6F894DEBF00
:104880000FBECDBFDF91CF911F910F91FF90EF90A1
:104890000895EF92FF920F931F93CF93DF93CDB7BD
:1048A000DEB72E970FB6F894DEBF0FBECDBF9E01C8
:1048B000235F3F4F79018E010F5F1F4F2850310951
:1048C000AE01475F5F4FBE01625F7F4F0E94934D15
:1048D000882399F18091740681112FC080915B0229
:1048E000882359F19091A8068E85981326C00E94BE
:1048F000D3696093850670938606809387069093AC
:1049000088068D819E81AF81B885809381069093C2
:104910008206A0938306B093840623E333E948E834
:1049200053E469817A818B819C810E945A6E0E9436
:104930002A6F7093800660937F062E960FB6F894C8
:10494000DEBF0FBECDBFDF91CF911F910F91FF90C2
:10495000EF9008956F927F928F929F92AF92BF9245
:10496000CF92DF92EF92FF920F931F93CF93DF933B
:10497000CDB7DEB72E970FB6F894DEBF0FBECDBF12
:104980003C01CE0101969F938F930A964C01DE0164
:104990001C965D0108976C0112967D018E01095FDE
:1049A0001F4F9E01275F3F4FAE01435F5F4FBE0128
:1049B0006B5F7F4FC3010E9476480F900F90882352
:1049C00009F475C09E859F3F09F471C0D301159607
:1049D000EC918E2F877001E010E001C0000F8A95E6
:1049E000EAF7F0E043E0F595E7954A95E1F7EF5CEB
:1049F000F94F8081802361F0903550F40E94D36993
:104A000060936606709367068093680690936906C4
:104A1000D3011596EC91F0E033E0F595E7953A95E2
:104A2000E1F7EF5EF94F8081802331F10E94D36975
:104A300060936A0670936B0680936C0690936D0684
:104A40008091640690916506892B39F40E9446078F
:104A500090E090936506809364062E8580916406AD
:104A600090916506820F911D97FD0196959587950A
:104A70009093650680936406D3011596EC91F0E05F
:104A800013E0F595E7951A95E1F7EF50FA4F80811D
:104A9000802369F08E85853150F00E94D369609340
:104AA0006E0670936F0680937006909371062E9633
:104AB0000FB6F894DEBF0FBECDBFDF91CF911F912F
:104AC0000F91FF90EF90DF90CF90BF90AF909F90AD
:104AD0008F907F906F9008958F929F92AF92BF9228
:104AE000CF92DF92EF92FF920F931F93CF93DF93BA
:104AF000CDB7DEB72A970FB6F894DEBF0FBECDBF95
:104B00004C01CE0107965C01FE0131966F010497BE
:104B10007C018E01085F1F4F9E01275F3F4FAE0152
:104B2000465F5F4FBE016B5F7F4FC4010E946049CB
:104B3000882309F44EC099858091A806F401258147
:104B4000981347C0322F377081E090E001C0880F82
:104B50003A95EAF758854091540230E0F90173E044
:104B6000F595E7957A95E1F7EF5CF94F451718F45D
:104B70006081682B04C0682F609570816723608313
:104B8000F90163E0F595E7956A95E1F7541306C0DE
:104B9000EF5EF94F4081482B40830AC0782F709513
:104BA000DF01AF5EB94F6C9167236C93451760F0DE
:104BB000F90153E0F595E7955A95E1F7EF50FA4F73
:104BC0009081982B908305C0EF50FA4F8081872306
:104BD00080832A960FB6F894DEBF0FBECDBFDF915B
:104BE000CF911F910F91FF90EF90DF90CF90BF90EA
:104BF000AF909F908F900895CF93DF9300D0CDB763
:104C0000DEB71092EF0522EE35E0AE014F5F5F4F49
:104C100063E676E00E949C4B882321F08981809393
:104C2000F00502C01092F0050F900F90DF91CF9128
:104C30000895FF920F931F93CF93DF9300D0CDB7CA
:104C4000DEB78C01FC014181528163817481443063
:104C5000504F6105710549F583E090E09A8389839F
:104C60004FEF5FEFBE016F5F7F4FC8010E94684F3B
:104C7000E3E096958795EA95E1F790936206809335
:104C80006106F0905C02BE016F5F7F4FC8010E9419
:104C9000354FF8120AC00E94D36960935D06709385
:104CA0005E0680935F06909360060F900F90DF91F1
:104CB000CF911F910F91FF900895AF92BF92CF9225
:104CC000DF92EF920F9320915B02211124C060913B
:104CD00051066F5F609351062EEC2F932EE62F93B3
:104CE0002BE62F9328E22F93F8E2AF2EFBE6BF2EA0
:104CF000FEE6CF2EFEECDF2EEE24EA940FEF21E04D
:104D000030E04091A8060E94B84C0F900F900F9091
:104D10000F9081E001C080E00F91EF90DF90CF9085
:104D2000BF90AF9008958F92AF92BF92CF92DF92D3
:104D3000EF92FF920F931F93CF93DF93EC0180913B
:104D40005B02811134C060919602709197026D39B7
:104D50008FEF780769F0882777FD8095982F0E945C
:104D60005D6F23E333E948E853E40E945A6E04C0C0
:104D700068E27BE68EE69EECE090CB07F090CC07F5
:104D80000091CD071091CE072091CF073091D00729
:104D90004091D1075091D207809051065B016C0180
:104DA0006091A806CE010E941D4D81E001C080E007
:104DB000DF91CF911F910F91FF90EF90DF90CF90F7
:104DC000BF90AF908F900895CF92DF92EF92FF92B5
:104DD0000F931F93CF93DF9300D000D000D0CDB7B7
:104DE000DEB79E012F5F3F4F69012F5F3F4F790173
:104DF0008E010D5F1F4F2E5F3F4FAE014B5F5F4F28
:104E0000BE016A5F7F4F0E941A478823D1F08C81D0
:104E1000882321F08FE190E00E945B068B8188233C
:104E200081F080E090E00E94C50682E090E09093DF
:104E3000DF078093DE0784E390E09093E20780939E
:104E4000E10726960FB6F894DEBF0FBECDBFDF9107
:104E5000CF911F910F91FF90EF90DF90CF90089529
:104E60000F931F93CF93DF9300D000D0CDB7DEB761
:104E70008E010F5F1F4F9E012E5F3F4FAE014D5FB2
:104E80005F4FBE016C5F7F4F0E9488478823D9F037
:104E90009C818091A806981316C08B81882319F0F5
:104EA0008A81882381F080E090E00E94C50682E03C
:104EB00090E09093DF078093DE0783E390E0909388
:104EC000E2078093E1070F900F900F900F90DF9112
:104ED000CF911F910F910895CF93DF9300D0CDB75D
:104EE000DEB7AE014F5F5F4FBE016E5F7F4F0E9426
:104EF000DE478823C1F09A818091A806981313C0D9
:104F00008981882381F080E090E00E94C50682E0DC
:104F100090E09093DF078093DE0783E390E0909327
:104F2000E2078093E1070F900F90DF91CF910895F2
:104F3000CF93DF93E1E3F6E0C1E1D6E0A1EFB5E086
:104F4000119219921D9286E0E135F807C9F7109287
:104F5000650610926406DF91CF910895CF92DF929B
:104F6000EF92FF920F931F93CF93DF93CDB7DEB7EE
:104F70002B970FB6F894DEBF0FBECDBF4F83588777
:104F80008B87EF81F8853097F9F0982F81FF04C067
:104F9000809159028823D9F092FF04C080915A026F
:104FA0008823A9F093FF04C080917306882361F0E1
:104FB000C6010995882351F040E050E0B60189EA26
:104FC00096E00E94885B02C080E001C081E02B96E1
:104FD0000FB6F894DEBF0FBECDBFDF91CF911F910A
:104FE0000F91FF90EF90DF90CF9008954F925F92D6
:104FF0007F928F929F92AF92BF92CF92DF92EF9269
:10500000FF920F931F93CF93DF93CDB7DEB7C955B0
:10501000D1090FB6F894DEBF0FBECDBF6FE0CE0151
:1050200001960E94DC4E80917306882389F12AE064
:1050300037ED43E25DE36091CE047091CF0480913F
:10504000D0049091D1040E945A6E9B01AC016091F2
:10505000CF077091D0078091D1079091D2070E941D
:105060000D701816ACF480910F05811113C0CE019C
:1050700001960E94AD1F40E050E0BE016F5F7F4F80
:1050800089EA96E00E94885B81E080930F0560C00A
:1050900010920F05BEE1AB2EB1E0BB2E812C912CFE
:1050A0001BE0712EF50180819181A281B381892B52
:1050B0008A2B8B2B09F44CC0D50118968D919C91AD
:1050C0001997892BF1F10E94D369F50100851185AB
:1050D000980140E050E00E9420711695079520E06D
:1050E00030E0789CF001799CF00D11240617170729
:1050F0002807390708F5CF01885D9E4F2C01DC0198
:105100008C9180FD1EC0E25EFE4FCE0101966C01C7
:10511000E080F180028113812481358146815781AD
:105120006085718582850E94AE27882351F0D20167
:105130008C9181608C930CC0E85DFE4F80818E7FE6
:105140008083BFEF8B1A9B0AEBE0AE0EB11CAACF97
:10515000C75ADF4F0FB6F894DEBF0FBECDBFDF9149
:10516000CF911F910F91FF90EF90DF90CF90BF9064
:10517000AF909F908F907F905F904F900895CF92C7
:10518000DF92EF92FF920F931F93CF93DF93CDB7F0
:10519000DEB7C955D1090FB6F894DEBF0FBECDBF3B
:1051A0006B017C016FE0CE0101960E94DC4EEEE1C6
:1051B000F1E020E030E080819181A281B38100970D
:1051C000A105B10549F03B96C816D906EA06FB06CB
:1051D00029F02F5F3F4FEFCF80E018C08BE0829F18
:1051E000F001839FF00D1124E25EFE4FCE01019687
:1051F0006C01E080F1800281138124813581468138
:1052000057816085718582850E94AE27C75ADF4F1E
:105210000FB6F894DEBF0FBECDBFDF91CF911F91C7
:105220000F91FF90EF90DF90CF900895209163064B
:105230002223C9F020935C06FC0122ED30E041916D
:10524000442389F08091ED059091EE05DC01A05F8B
:10525000BA4F4C930196B9010E94F8709093EE05F5
:105260008093ED05ECCF08958091ED059091EE05CA
:105270008E529F4F2091EB053091EC05821B930BD2
:1052800062ED70E00E94F870089589EA96E00C944F
:105290006B618091EF059091F005981771F090E0A7
:1052A000FC01EE51FA4F2081019669E070E00E9406
:1052B0000C718093EF05822F089580E0089580910E
:1052C000F00590E009962091EF05821B910969E0B5
:1052D00070E00E94F8700895CF92DF92EF92FF92F3
:1052E000109273068091740681112FC0809153062D
:1052F00081112BC080915502882339F10E94D36916
:105300006B017C01809154024FEF50E0481B510922
:105310008091580690915906A0915A06B0915B066B
:10532000C81AD90AEA0AFB0A22E330E0DA010E942D
:105330004871605E714B8F4F9F4F6C157D058E05D8
:105340009F0518F481E080937306FF90EF90DF9043
:10535000CF9008950E9445290E94F6270E946C294B
:1053600081E008951092740610925306109252062E
:1053700010927606109275061092580610925906F1
:1053800010925A0610925B0610925406109255061F
:105390001092560610925706109289068091DE07E9
:1053A0009091DF07879721F48BE090E00C945B06E7
:1053B00008958F92AF92BF92CF92EF92FF920F9388
:1053C0001F930E94B229812C04E1A02E05E0B02E8B
:1053D000C12C8CE0E82E83E0F82E05EE13E020ECE3
:1053E00032E044E650E06FE173E089EA96E00E9423
:1053F000555394E0C92E29E7E22E25E0F22E02E370
:105400002DE841E050E060E070E089EA96E00E941B
:10541000F15320915D0230E040E050E061E070E047
:1054200089EA96E00E94BF548091DC069091DD06E7
:10543000892B19F482E08093DE068091DF0690913B
:10544000E006892B19F484E18093E10666E37DE1AF
:1054500089EA96E00E94005A6FEB78E289EA96E0CA
:105460000E94045A89EA96E00E94DA5A0E9498271C
:1054700081E01F910F91FF90EF90CF90BF90AF9080
:105480008F9008954F925F926F927F928F929F922A
:10549000AF92BF92CF92DF92EF92FF920F931F9342
:1054A000CF93DF93EC018B015A010E94D3696B010A
:1054B0007C0180917406882309F431C180918906AA
:1054C00081112DC18091580690915906A0915A06DC
:1054D000B0915B06A7019601281B390B4A0B5B0BA9
:1054E000DA01C9018E3E9240A105B10518F00E9473
:1054F000B22955C18091A0069091A106A091A20663
:10550000B091A306A7019601281B390B4A0B5B0B30
:10551000DA01C9018E3E9240A105B10580F54090A7
:10552000A4065090A5066090A6067090A70620E0FD
:1055300030E0A901C301B2010E940D7018165CF49D
:1055400020E030E04AEF54E4C301B2010E94BE6E95
:10555000181694F00AC020E030E04AEF54ECC30182
:10556000B2010E940D7087FD07C0F8014082518290
:105570006282738211E004C081E08093890610E0AA
:1055800080918A0690918B06A0918C06B0918D0631
:10559000A7019601281B390B4A0B5B0BDA01C901E5
:1055A0008E3E9240A105B10568F480918E069091DF
:1055B0008F069C01255C3F4F2737310518F4F50114
:1055C000918380838091900690919106A09192069C
:1055D000B0919306C81AD90AEA0AFB0AFEEECF1662
:1055E000F2E0DF06E104F10408F0DAC0C0909806AA
:1055F000D0909906E0909A06F0909B0620E030E06B
:10560000A901C701B6010E940D7018165CF420E0D4
:1056100030E040EC5FE3C701B6010E94BE6E181691
:105620005CF479C020E030E040EC5FEBC701B601EC
:105630000E940D7087FD6FC040909C0650909D06A3
:1056400060909E0670909F068090080190900901DE
:10565000A0900A01B0900B0120E030E040E951E455
:10566000C501B4010E9456709B01AC01C301B20197
:105670000E94BE6E18160CF44EC020E030E040E0F0
:1056800051E4C501B4010E9456709B01AC01C301F5
:10569000B2010E940D7087FD3EC06091FF047091C1
:1056A000000580909606909097066815790534F568
:1056B000A090FD04B090FE046A197B09882777FD4D
:1056C0008095982F0E945D6F9B01AC01C701B601C8
:1056D0000E9456706B017C01B4016A197B0988270E
:1056E00077FD8095982F0E945D6F9B01AC01C701EB
:1056F000B6010E94C26E9B01AC0102C0A7019601D7
:10570000688179818A819B810E945A6E688379833E
:105710008A839B8345C081E08093890641C0809144
:10572000850690918606A0918706B0918806C81AD2
:10573000D90AEA0AFB0A20EDC21627E0D206E104E4
:10574000F10468F5C0908106D0908206E09083064F
:10575000F090840620E030E0A901C701B6010E9464
:105760000D7018165CF420E030E04AEF54E4C701F5
:10577000B6010E94BE6E181694F00AC020E030E018
:105780004AEF54ECC701B6010E940D7087FD07C0B7
:10579000F801C082D182E282F38211E001C010E000
:1057A000812FDF91CF911F910F91FF90EF90DF90AC
:1057B000CF90BF90AF909F908F907F906F905F90B1
:1057C0004F900895CF938091CA069091CB061816FA
:1057D00019061CF4C091C1060AC0019721E1289F57
:1057E000F001299FF00D1124E755F94FC08D8091EC
:1057F0005D02C81731F0C0935D0282E592E00E941D
:10580000B51B8C2FCF910895FF920F931F93CF93C9
:10581000DF93D62FF42EC22F9091A806891331C0A2
:1058200080915502882381F08091DE079091DF07F7
:10583000449754F080915402681718F1681304C01B
:105840000E94E22BF816E8F080917406F81621F019
:1058500080915306F81217C00E94D3690091580630
:105860001091590620915A0630915B06601B710B0E
:10587000820B930B6E3E72408105910520F00E94D1
:10588000B22980E063C0809152068D1730F0D813A2
:105890002DC0809174068F1548F5809154028D17A4
:1058A00028F480915306F8120DC020C0D81729F0B3
:1058B0008091550281111AC0F4CF0E94E22B8F15FE
:1058C00080F3F6CFF0925306D09352060E94D3692C
:1058D000609354067093550680935606909357062E
:1058E0001092720610927606109275060E94D36985
:1058F000609358067093590680935A0690935B06FE
:10590000809172068C2B809372060E94D36900915D
:105910005406109155062091560630915706601B8B
:10592000710B820B930B613177428105910508F46D
:10593000A8CF809172068171813119F010925306BF
:10594000A0CF809153068093740681E0DF91CF91C0
:105950001F910F91FF900895EF92FF920F931F9365
:10596000CF93DF93CDB7DEB728970FB6F894DEBF9D
:105970000FBECDBF7C018E010F5F1F4F9E012B5FBD
:105980003F4FAE01495F5F4FBE01685F7F4F0E948E
:10599000E544882391F121E0F70145816F818885F5
:1059A0000E94042C882349F189819A81AB81BC81B2
:1059B0008F3FFFEF9F07AF07BF07F9F0BC01CD0195
:1059C0007459854397470E945D6F2FE632E143E8A3
:1059D0005AE30E9456706093A4067093A5068093C4
:1059E000A6069093A7060E94D3696093A0067093C1
:1059F000A1068093A2069093A30628960FB6F8946A
:105A0000DEBF0FBECDBFDF91CF911F910F91FF90F1
:105A1000EF900895CF92DF92EF92FF920F931F9332
:105A2000CF93DF93CDB7DEB727970FB6F894DEBFDD
:105A30000FBECDBF6C01CE0101967C018E010B5FC4
:105A40001F4F9E012D5F3F4FAE014A5F5F4FBE016A
:105A5000695F7F4FC6010E9471458823C1F122E032
:105A6000F60145816E818F810E94042C882379F193
:105A700090917406F6018581981323C06B817C8117
:105A80006F3FFFE77F07E9F0882777FD8095982F24
:105A90000E945D6F20E030E040E052E40E945670CA
:105AA0000E942A6F70938F0660938E060E94D369BE
:105AB00060938A0670938B0680938C0690938D0674
:105AC00006C08DE99FEF90938F0680938E062796F0
:105AD0000FB6F894DEBF0FBECDBFDF91CF911F91FF
