:100000000C947A030C94A2030C94A2030C94A20304
:100010000C94A2030C94A2030C94A2030C94D36638
:100020000C94FA660C9421670C9448670C94A20314
:100030000C94A2030C94A2030C94A2030C94A203AC
:100040000C94A2030C946F670C948E650C94BE659F
:100050000C94586B0C94A2030C94A2030C94A2036E
:100060000C94A2030C94A2030C94A2030C94A2037C
:100070000C94A2030C94A2030C94A203D506D506FB
:10008000D506D506D506E0063607360713089607C7
:10009000D50612151215F316F3163C116B11F0115B
:1000A0004E12BA123E13761328153514C8142815AB
:1000B000F02ADE2AE42AE72AED2AEA2AE12A062D96
:1000C0000C2E502E502ED92D622D502E502E502EEB
:1000D000502E502E502E502E502E2F2DB42D502EEF
:1000E000492EB53FB53FB53FBA3FC13FC83FC83FB6
:1000F000C83FCF3FB53F134113416A416A411341A5
:100100005A406C406C406C406C40904090401341B1
:1001100090406C4008000000BE922449123EABAAF9
:10012000AA2ABECDCCCC4C3E00000080BEABAAAA11
:10013000AA3E00000000BF000000803F0000000059
:1001400000084178D3BB4387D1133D190E3CC3BD92
:100150004282AD2B3E68EC8276BED98FE1A93E4C3F
:1001600080EFFFBE01C4FF7F3F00000000009A99AE
:100170006141009749010F000000000000000000ED
:10018000000066665641FFFF00000000F6FF000019
:10019000CDCC4C4100000000000000000000000039
:1001A00000000000000000000000A69BC43CF7FF18
:1001B000D3FF3400CDCC6C4180CBA40005000000FF
:1001C000000000000000000000005841FFFF000098
:1001D0000000F6FF0000CDCC4C4100000000000004
:1001E000000000000000000000000000000000000F
:1001F0008FC2F53CF7FFD3FF34009A996941403133
:10020000F700050000000000000000000000666626
:100210005641FFFF00000000F6FF0000CDCC4C412E
:1002200000000000000000000000CDCC7441000080
:1002300020BF020000008FC2F53CF7FFD3FF34005F
:1002400033336B414031F700030000000000000031
:100250000000000066665641FFFF00000000F6FF48
:100260000000CDCC4C410000000000000000000068
:10027000000000000000000000000000A69BC43C3D
:10028000F7FFD3FF34009A996141009749010500B7
:100290000000000000000000000000005841FFFFC7
:1002A00000000000F6FF0000CDCC4C410000000033
:1002B000000000000000000000000000000000003E
:1002C00000008FC2F53CF7FFD3FF3400000060410F
:1002D00080EE36000F00000000000000000000006B
:1002E0009A995141FFFF000000000000000000004B
:1002F00000000000000000000000000000000000FE
:10030000000000000000000000000000F7FFD3FF25
:10031000340066666641009749010F000F00CDCC9E
:10032000744180CBA4009A995141FFFF0000000066
:10033000F6FF0000CDCC4C410000000000000000A2
:100340000000CDCC7441000020BF020000008FC22D
:10035000F53CF7FFD3FF340066665E4180EE360061
:100360000F00000000000000000000008FC2554197
:1003700000000000000000003200CDCC544100001D
:10038000000000000000000000000000000000006D
:100390000000000000000000000000002D004442AA
:1003A000473B2C25642E253033642C202C25642CCF
:1003B00025642C202C25642C202C25642C25642CD1
:1003C00025642C25642C25642C202C25642C256484
:1003D0002C2025632C25732C25732C202C25642C94
:1003E00025642C25642C25732C202C25642C256455
:1003F0002C20202C25642C25642C25642C25730DA1
:100400000A00000000006410B71DC8206E3BAC302D
:10041000D9269041DC76F4516B6B5861B24D3C713A
:1004200005502083B8ED44930FF0E8A3D6D68CB3E3
:1004300061CBB0C2649BD4D2D38678E20AA01CF20E
:10044000BDBD2A2A2A2A005353543B2C25732C2045
:100450002C2531752C2531752C202C25642C2573E9
:100460002C25732C202C25642C25642C202C256411
:100470002C25642C202C2531750D0A005343563B46
:100480002C2531752C2C2531752C25732C25732C9E
:100490002531752C202C25642C25732C25732C25B7
:1004A000732C25642C202C25642C25642C202C25D1
:1004B000642C25732C25642C202C25642C25640D9C
:1004C0000A004E50433B2C2531752C25732C257387
:1004D0000D0A004353543B2C25642C25642C2564C1
:1004E0002C25642C20202C2531752C2531752C20B1
:1004F000202C2531752C2531752C2531752C202C7F
:1005000025642C2531752C2531752C20202C256453
:100510002C202C25640D0A004350453B2C25642CCF
:1005200025732C25642C25642C25642C202C256413
:100530002C25642C25732C25642C202C25732C252C
:10054000642C25642C25642C25642C25732C202CEC
:1005500025642C25732C25642C202C25732C2564D4
:100560002C25642C25642C202C25732C25642C250B
:10057000642C25640D0A004153543B2C25642E2520
:100580003032642C202C25732C25732C25732C25BC
:10059000642C202C25732C25642C25642C25642C9C
:1005A000202C25642C25642C202C25642C202C2523
:1005B000732C25642C25642C25640D0A0000000290
:1005C000000A002A00AA00AA02AA0AAA2AAAAA467F
:1005D0004C543B25640D0A00464C543B2C25642C9E
:1005E000202C25642C25640D0A00610310031003E0
:1005F00014F0010016F0010012F2010000000000EA
:1006000010F0010000F2010014F2010019F20100E3
:100610000000000000ED01000000000000E8000004
:1006200000EA000000EE000000000000120C370E8F
:100630000C37080C37060C370604130204130203A8
:100640000508090A0607040B0C0E0F100001040030
:100650000000000000000000000003000000000097
:100660000000000010080204080102800810800148
:1006700001020420400410204020408004040303B1
:100680000302020402020304030404040402030339
:1006900003020202000000002300260029000000DF
:1006A0000000250028002B00000000002400270087
:1006B0002A004E414E494E495459494E46CDCCCC64
:1006C0003D0AD7233C17B7D13877CC2B329595E626
:1006D000241FB14F0A000020410000C84200401C06
:1006E0004620BCBE4CCA1B0E5AAEC59D7400BC2B26
:1006F000D365BA6B11241FBECFEFD0E1DEBFCDBFF3
:1007000013E0A0E0B1E0E6E8FBEE02C005900D9238
:10071000A23CB107D9F729E0A2ECB3E001C01D92D9
:10072000AC3BB207E1F716E0C4EFD6E004C0229775
:10073000FE010E94276FCE3ED107C9F70E94286CA8
:100740000C94C1750C940000809143049091440472
:100750000196909344048093430481E08093420483
:1007600008958F929F92AF92BF92CF92DF92EF92B5
:10077000FF920E94B967C090AF05D090B005E0909D
:10078000B105F090B2056C197D098E099F09693E8B
:1007900073408105910548F48091B3059091B405AB
:1007A000909341048093400498C00E94C5676B01F8
:1007B0007C01A0904304B090440480914504909142
:1007C0004604A0914704B0914804A7019601281B54
:1007D000390B4A0B5B0BDA01C90180549244AF40DC
:1007E000B109B7FD11C0C0924504D0924604E09211
:1007F0004704F0924804109244041092430410926B
:1008000041041092400469C084E6A816B1040CF4B7
:1008100064C060E077E883E993E00E94036FD5014C
:100820000E943D6F0E943E6D4B015C016091290169
:1008300070E080E090E00E94406D20912A013091AC
:100840002B0140912C0150912D010E94396E20E026
:1008500030E040E05FE30E94396E9B01AC01C501CE
:10086000B4010E94A56C0E940D6D16161706ACF51A
:100870007093410460934004809130019091310164
:10088000019691F480915F049091600420915D0441
:1008900030915E04821793071CF02F3F3F4F21F4E5
:1008A00090935E0480935D0480915D0490915E045A
:1008B0008C34910534F08BE490E090935E04809347
:1008C0005D04C0924504D0924604E0924704F09241
:1008D00048041092440410924304FF90EF90DF907C
:1008E000CF90BF90AF909F908F900895CF92DF925E
:1008F000EF92FF92CF93DF9320910B0130910C0187
:1009000040910D0150910E010E94396E60933504A3
:100910007093360480933704909338048091B80222
:100920009091B90260913D0470913E048C399F4FC3
:1009300049F4C0901D01D0901E01E0901F01F0907D
:10094000200115C080912E04882349F0C090190120
:10095000D0901A01E0901B01F0901C0108C0C090DB
:100960001501D0901601E0901701F090180188272A
:1009700077FD8095982F0E94406D9B01AC01C701C7
:10098000B6010E94396E60933104709332048093F3
:1009900033049093340420E030E04EE753E4C70181
:1009A000B6010E94396E0E940D6D70936E016093C6
:1009B0006D01E0905D04F0905E04C0904004D09022
:1009C00041041E141F042CF5C114D10411F58091AB
:1009D0002101909122010196E1F4C0916D01D09125
:1009E0006E01BE01882777FD8095982F0E94406D8B
:1009F0002DEC3CEC41E353E40E94A16C87FD03C065
:100A000091EB80E002C09C2F8D2F90936D0180931D
:100A10006E01C114D10489F160912101709122010C
:100A20001616170654F58091230190912401C81AD7
:100A3000D90AC601880F991F8C0D9D1D0E94EF6E6B
:100A4000643C8FEF78076CF080916D0190916E019E
:100A50009B01255C3F4F2817390734F4645C7F4FB6
:100A600004C060E070E001C0BC016E157F050CF4AD
:100A7000B70170936E0160936D0120E030E0A90131
:100A80006091310470913204809133049091340468
:100A90000E94A16CC0912F04D0913004882319F0DA
:100AA000C630D10561F480E090E0AAE7B4E4809319
:100AB000310490933204A0933304B0933404C630CD
:100AC000D10531F48EEF90E090936E0180936D012B
:100AD00080912701909128018F3F2FEF9207C9F451
:100AE0002091310430913204409133045091340408
:100AF00060913504709136048091370490913804E8
:100B00000E94396E0E940D6D70933A04609339040F
:100B100004C090933A0480933904809139049091F1
:100B20003A04892B11F0269731F488E99AE39093DF
:100B30003A0480933904DF91CF91FF90EF90DF90DA
:100B4000CF90089520912F04309130042817390751
:100B500011F19093300480932F040E94B967609341
:100B60005504709356048093570490935804109240
:100B70001E07109203078091DE069091DF06A09178
:100B8000E006B091E1068093490490934A04A09353
:100B90004B04B0934C040895CF93DF93EC010E9473
:100BA000B9676093590470935A0480935B049093DF
:100BB0005C04D0936004C0935F0480912F049091F3
:100BC0003004039720F41092600410925F04BE0179
:100BD00082E0DF91CF910C94A26861E082E00E94F4
:100BE000146980E090E00E94CC05E1E8F0E08081AB
:100BF000887F8460808343E050E064EA73E083E0B0
:100C00000E94956680E090E00E94A20581E0089530
:100C1000CF92DF92EF92FF92CF93DF93C0913D048A
:100C2000D0913E041C161D0624F5809103078823ED
:100C300001F120E030E048EC52E460910C07709143
:100C40000D0780910E0790910F070E94396E6B017E
:100C50007C01BE01882777FD8095982F0E94406D0A
:100C60009B01AC01C701B6010E94A56C0E94126DE8
:100C700047C0E0905D04F0905E04F7FE02C0E12CF6
:100C8000F12C8091B8029091B9028C399F4F69F490
:100C900020E030E04EE753E460911D0170911E01A9
:100CA00080911F019091200119C080912E0420E0B5
:100CB00030E04EE753E4882349F0609119017091C8
:100CC0001A0180911B0190911C0108C060911501CF
:100CD0007091160180911701909118010E94396E50
:100CE0000E940D6D20915F04309160042E193F0920
:100CF00044E6429FC001439F900D11240E94EF6E75
:100D0000862F653608F084E6DF91CF91FF90EF9053
:100D1000DF90CF9008954F925F926F927F928F9263
:100D20009F92AF92BF92CF92DF92EF92FF9280910B
:100D3000E203883060F082E090E09093300480938A
:100D40002F0481E290E09093240780932307809101
:100D5000B4029091B5028D392FEF9207C9F020911E
:100D60002F04309130042E30310591F0209127046A
:100D700030912804821793073CF420912504309188
:100D800026042817390724F08AE090E00E94A20583
:100D9000E0912F04F09130043497EB30F10508F026
:100DA00042C1E25CFF4F0C94256F6091E3037091A8
:100DB000E4038091E5039091E6030E94760447C125
:100DC0006091EF037091F0038091F1039091F20331
:100DD0000E947604C0903104D0903204E090330435
:100DE000F09034046091ED037091EE03882777FD55
:100DF0008095982F0E94406D20910F013091100135
:100E000040911101509112010E94396E4B01B82E90
:100E1000A92E9B01482F592FB601C7010E94A16C32
:100E200087FF03C0BE2CAF2C01C06401A6016B2D4F
:100E30007A2D4093310450933204609333047093BD
:100E40003404E0903904F0903A0420910B01309181
:100E50000C0140910D0150910E016091EF037091D2
:100E6000F0038091F1039091F203B9C06091F70310
:100E70007091F8038091F9039091FA030E9476042F
:100E80006091FB037091FC036F3F8FEF780709F4CB
:100E9000DEC080910307882309F4D9C0C0903104D3
:100EA000D0903204E0903304F0903404882777FD2A
:100EB0008095982F0E94406D20910F013091100174
:100EC00040911101509112010E94396E4B01B82ED0
:100ED000A92E9B01482F592FB601C7010E94A16C72
:100EE00087FF03C0BE2CAF2C01C06401A6016B2D8F
:100EF0007A2D4093310450933204609333047093FD
:100F00003404E0903904F0903A0420910B013091C0
:100F10000C0140910D0150910E016091F703709109
:100F2000F8038091F9039091FA0359C0609113047A
:100F30007091140480911504909116040E94760417
:100F400060911704709118046115710509F47FC050
:100F5000C0903104D0903204E0903304F090340417
:100F6000882777FD8095982F0E94406D20910F0172
:100F70003091100140911101509112010E94396E7F
:100F80004B01B82EA92E9B01482F592FB601C7013E
:100F90000E94A16C87FF03C0BE2CAF2C01C064016E
:100FA000A6016B2D7A2D4093310450933204609347
:100FB000330470933404E0903904F0903A042091A3
:100FC0000B0130910C0140910D0150910E01609187
:100FD00013047091140480911504909116040E94DA
:100FE000396E96014B2D5A2D0E94396E4B015C01D2
:100FF000B701882777FD8095982F0E94406DA50145
:1010000094010E94A16C87FD07C0C501B4010E9434
:101010000D6D262F872F02C02E2D8F2D2093390482
:1010200080933A0414C01092350410923604109242
:1010300037041092380410923A0410923904109236
:1010400031041092320410923304109234048091CF
:10105000C605882309F44EC18091DB0581114AC180
:101060008091C7059091C805009709F443C18F3F4F
:10107000910509F43FC120910B0130910C01409181
:101080000D0150910E016091CD057091CE058091BA
:10109000CF059091D0050E94A56C0E9476040E9415
:1010A000B967C090C005D090C105E090C205F0902E
:1010B000C3056C197D098E099F096D347D41810539
:1010C000910508F4D6C0C090F605D090F705E090E1
:1010D000F805F090F9054090C9055090CA05609058
:1010E000CB057090CC05A3019201C701B6010E9407
:1010F000F06D18160CF087C080910307882309F45F
:1011000053C00E94B967C090BC05D090BD05E09067
:10111000BE05F090BF056C197D098E099F096D34DD
:101120007D4181059105C8F02091C9053091CA051E
:101130004091CB055091CC056091F6057091F70573
:101140008091F8059091F9050E943C6C20E030E018
:1011500040E05FE30E94396E12C02091C9053091D2
:10116000CA054091CB055091CC056091F605709170
:10117000F7058091F8059091F9050E943C6C9B0160
:10118000AC0160910C0770910D0780910E07909152
:101190000F070E943C6C609331047093320480937B
:1011A0003304909334042FC060916D0170916E01EF
:1011B00080915F0490916004681779072CF4882768
:1011C00077FD8095982F05C0BC01882777FD809515
:1011D000982F0E94406D4B015C01A3019201C70151
:1011E000B6010E943C6CA70196010E94A56C9B0170
:1011F000AC01C501B4010E94396E0E940D6D70935F
:101200006E0160936D018090F6059090F705A090B7
:10121000F805B090F905C090C905D090CA05E090D6
:10122000CB05F090CC05A7019601C501B4010E9441
:10123000A16C87FF1EC0809103078823D1F0A50110
:101240009401C701B6010E943C6C9B01AC01609106
:101250000C0770910D0780910E0790910F070E9467
:101260003D6C609331047093320480933304909307
:1012700034040E94B967C090B805D090B905E090D9
:10128000BA05F090BB056C197D098E099F096D3474
:101290007D418105910588F480915F0490916004FF
:1012A00020916D0130916E010297281739070CF4D7
:1012B000C90190936E0180936D010E94B967C0903F
:1012C000BC05D090BD05E090BE05F090BF056C193F
:1012D0007D098E099F096D347D418105910508F4D2
:1012E000BFC0A090B605B090B705A114B10409F035
:1012F00051C0B6C0C0903504D0903604E090370499
:10130000F090380420E030E0A901C701B6010E9446
:10131000A16C882309F4A9C02091B4023091B502D0
:101320002D398FEF380709F4A0C0809123049091E4
:101330002404821793070CF4C90169E170E0681B6B
:10134000790B882777FD8095982F0E94406D20911A
:101350001F043091200440912104509122040E94E6
:10136000396E20910B0130910C0140910D0150918B
:101370000E010E94396E9B01AC01C701B6010E94AB
:101380003D6C6093350470933604809337049093DA
:1013900038046BC00E940806682F70E080E090E07F
:1013A0000E94406D6B017C01B501882777FD809517
:1013B000982F0E94406D2AE939E949E95FE30E94CC
:1013C000396E9B01AC01C701B6010E94F06D181681
:1013D0008CF480915F049091600420916D013091B4
:1013E0006E010197281739070CF4C90190936E011B
:1013F00080936D0180916D0190916E0197FF04C003
:1014000010926E0110926D0180913F04882381F04B
:1014100020916D0130916E0180915D0490915E0488
:10142000821793070CF4C90190936E0180936D01AC
:1014300020E030E0A9016091310470913204809184
:101440003304909134040E94A16C87FF0EC0109267
:10145000310410923204109233041092340405C007
:101460001092B7051092B605C5CFFF90EF90DF90B0
:10147000CF90BF90AF909F908F907F906F905F9034
:101480004F9008952F923F924F925F926F927F926A
:101490008F929F92AF92BF92CF92DF92EF92FF9284
:1014A0000F931F93CF93DF93CDB7DEB7CD50D140CD
:1014B0000FB6F894DEBF0FBECDBF8091FF0681113D
:1014C0000C94F31620913504309136044091370482
:1014D00050913804609108077091090780910A07BC
:1014E00090910B070E943C6CCC52DF4F688379834C
:1014F0008A839B83C45DD04080900C0790900D0739
:10150000A0900E07B0900F07C0903104D090320425
:10151000E0903304F0903404C653DF4FC882D98280
:10152000EA82FB82CA5CD040009101071091020759
:101530002090390430903A04C0900701D0900801FF
:10154000E0900901F0900A01C253DF4FC882D982AE
:10155000EA82FB82CE5CD040E090B802F090B90203
:10156000CC50DF4FF982E882C45FD040F090B602E1
:10157000C95FDE4FF882C750D140C090B702C85F44
:10158000DE4FC882C850D140D0901401C650DF4F02
:10159000D882CA5FD040C0900B01D0900C01E0907F
:1015A0000D01F0900E01C550DF4FC882D982EA824A
:1015B000FB82CB5FD0400E94B9672B013C01C090F9
:1015C0000B01D0900C01E0900D01F0900E012AE08B
:1015D00037ED43E25DE3C701B6010E94396E9B011E
:1015E000AC01CC52DF4F688179818A819B81C45DD7
:1015F000D0400E94F06D18160CF08EC08091E1036F
:10160000811119C060915F0470916004882777FD93
:101610008095982F0E94406D23E333E343E75FE317
:101620000E94396E0E940D6D7093600460935F0498
:1016300081E08093E1032AE037ED43EA5DE3C701EF
:10164000B6010E94396E9B01AC01CC52DF4F68811C
:1016500079818A819B81C45DD0400E94F06D18160B
:10166000ECF48091E003811119C060915F047091E6
:101670006004882777FD8095982F0E94406D2AE7A7
:101680003DE045E65FE30E94396E0E940D6D709368
:10169000600460935F0481E08093E0032DEC3CECF8
:1016A0004CEC5DE3C701B6010E94396E9B01AC01B1
:1016B000CC52DF4F688179818A819B81C45DD040A3
:1016C0000E94F06D18166CF460E070E082E00E94F9
:1016D000A2680E94D2381092E1031092E0030C94A9
:1016E000F31680913F04882381F020915F043091AC
:1016F000600480915D0490915E04821793070CF45E
:10170000C9019093600480935F0480915F0490917D
:1017100060040E94CC0504C01092E1031092E00323
:101720008091590490915A04A0915B04B0915C049B
:1017300073016201C81AD90AEA0AFB0ACA50DF4FCC
:10174000C882D982EA82FB82C65FD040A701960197
:10175000253631054105510510F40C94F316C65396
:10176000DF4F288139814A815B81CA5CD040C50145
:10177000B4010E943C6CCA51DF4F688379838A832D
:101780009B83C65ED040B801882777FD8095982F4F
:101790000E94406D6B017C01B101882777FD809527
:1017A000982F0E94406DC253DF4F288139814A81B2
:1017B0005B81CE5CD0400E94396E9B01AC01C701B9
:1017C000B6010E943C6CC651DF4F688379838A83DF
:1017D0009B83CA5ED040C0900807D0900907E09074
:1017E0000A07F0900B07C852DF4FC882D982EA82FD
:1017F000FB82C85DD0402091DC033091DD03409135
:10180000DE035091DF03C701B6010E943C6CC1505A
:10181000DF4F688379838A839B83CF5FD040C092F8
:10182000DC03D092DD03E092DE03F092DF038090D0
:101830000C0790900D07A0900E07B0900F07209115
:10184000D8033091D9034091DA035091DB03C501ED
:10185000B4010E943C6C6B017C018092D803909291
:10186000D903A092DA03B092DB0300910107109133
:1018700002078091D6039091D703B801681B790BBA
:10188000882777FD8095982F0E94406DCD5FDE4FB1
:10189000688379838A839B83C350D1401093D70395
:1018A0000093D6030091B8021091B902C653DF4FDE
:1018B00019830883CA5CD0400091B6021091B70228
:1018C000C452DF4F19830883CC5DD040CE50DF4F28
:1018D00019830883C25FD040C653DF4F2881398106
:1018E000CA5CD0400217130734F4CE50DF4F39835F
:1018F0002883C25FD0408091D4039091D503CE500D
:10190000DF4F08811981C25FD040081B190BC80145
:101910000531110514F084E190E0CC51DF4F99833B
:101920008883C45ED04097FF06C0CC51DF4F198238
:101930001882C45ED04020910B0130910C0140917F
:101940000D0150910E01C253DF4F288339834A8322
:101950005B83CE5CD04020E030E040E251E4CC52EA
:10196000DF4F688179818A819B81C45DD0400E946C
:10197000396EC253DF4F288139814A815B81CE5C49
:10198000D0400E94A56C2091D0033091D1034091AA
:10199000D2035091D3030E943D6C162FB72EA82E70
:1019A000992E2AE939E949E95EE3CA51DF4F688196
:1019B00079818A819B81C65ED0400E94396E2091D8
:1019C000CC033091CD034091CE035091CF030E94C0
:1019D0003D6C862E072F382E292E20E030E0A901FD
:1019E000C651DF4F688179818A819B81CA5ED04070
:1019F0000E94396EC253DF4F288139814A815B8151
:101A0000CE5CD0400E94A56C2091C8033091C903E0
:101A10004091CA035091CB030E943D6CCE51DF4FE1
:101A20006883C25ED040CD51DF4F7883C35ED04023
:101A3000C251DF4F8883CE5ED040C051DF4F9883C4
:101A4000C05FD04020E030E0A901612F7B2D8A2DBE
:101A5000992D0E94A16C87FD19C026E636E646E660
:101A60005FE3612F7B2D8A2D992D0E94F06D181652
:101A7000B4F416E6CE52DF4F1883C25DD04066E65E
:101A8000B62E76E6A72EEFE39E2E0EC0CE52DF4F87
:101A90001882C25DD040B12CA12C912C05C0CE5231
:101AA000DF4F1883C25DD040CE52DF4F8881C25DC8
:101AB000D0409B2DAA2DB92D8093D0039093D103B4
:101AC000A093D203B093D30320E030E0A901682DA6
:101AD000702F832D922D0E94A16C87FD24C026E6D5
:101AE00036E646E65FE3682D702F832D922D0E9427
:101AF000F06D18166CF506E6C252DF4F0883CE5D16
:101B0000D04016E6C152DF4F1883CF5DD040C0529F
:101B1000DF4F0883C05ED0401FE3CF51DF4F1883F3
:101B2000C15ED04029C0C252DF4F1882CE5DD04086
:101B3000C152DF4F1882CF5DD040C052DF4F1882B4
:101B4000C05ED040CF51DF4F1882C15ED04014C07C
:101B5000C252DF4F8882CE5DD040C152DF4F088332
:101B6000CF5DD040C052DF4F3882C05ED040CF51F1
:101B7000DF4F2882C15ED040C252DF4F8881CE5DE8
:101B8000D040C152DF4F9881CF5DD040C052DF4F6F
:101B9000A881C05ED040CF51DF4FB881C15ED04038
:101BA0008093CC039093CD03A093CE03B093CF0347
:101BB00020E030E0A901CE51DF4F6881C25ED04005
:101BC000CD51DF4F7881C35ED040C251DF4F888155
:101BD000CE5ED040C051DF4F9881C05FD0400E94A0
:101BE000A16C87FD23C026E636E646E65FE3CE51CC
:101BF000DF4F6881C25ED040CD51DF4F7881C35E38
:101C0000D040C251DF4F8881CE5ED040C051DF4FFF
:101C10009881C05FD0400E94F06D181664F446E6CB
:101C2000242E56E6352E06E61FE319C0212C312C52
:101C300000E010E014C0CE51DF4F2880C25ED040DB
:101C4000CD51DF4F3880C35ED040C251DF4F088195
:101C5000CE5ED040C051DF4F1881C05FD040C1017F
:101C6000D8018093C8039093C903A093CA03B0938B
:101C7000CB0320E030E040EA51ECCC52DF4F6881EA
:101C800079818A819B81C45DD0400E94396EC253A4
:101C9000DF4F288139814A815B81CE5CD0400E9430
:101CA000A56CCE52DF4F2881C25DD0403B2D4A2D1E
:101CB000592D0E943C6C4B015C0120E030E048E46F
:101CC00052E4C150DF4F688179818A819B81CF5F67
:101CD000D0400E94396EC253DF4F288139814A813A
:101CE0005B81CE5CD0400E94A56C9B01AC01C5011C
:101CF000B4010E943C6C0E940D6DCE51DF4F688391
:101D0000C25ED040CD51DF4F7883C35ED040C25118
:101D1000DF4F79836883CE5ED0402AE939E949E113
:101D20005FEBCA51DF4F688179818A819B81C65EF2
:101D3000D0400E94396EC252DF4F2881CE5DD04024
:101D4000C152DF4F3881CF5DD040C052DF4F488154
:101D5000C05ED040CF51DF4F5881C15ED0400E945D
:101D60003C6C4B015C0123E333E343E35FE3C701D6
:101D7000B6010E94396E9B01AC01C501B4010E94FD
:101D80003C6C0E940D6DC252DF4F6883CE5DD04027
:101D9000C152DF4F7883CF5DD040C051DF4F798390
:101DA0006883C05FD0402DEC3CEC4CE45DEBC65149
:101DB000DF4F688179818A819B81CA5ED0400E9411
:101DC000396EC253DF4F288139814A815B81CE5CF5
:101DD000D0400E94A56C9101A8010E943C6C6B014F
:101DE0007C012AE037ED43EA5CE3CD5FDE4F68819A
:101DF00079818A819B81C350D1400E94396EC25340
:101E0000DF4F288139814A815B81CE5CD0400E94BE
:101E1000A56C9B01AC01C701B6010E943C6C0E94FD
:101E20000D6DC052DF4F6883C05ED040CF51DF4F91
:101E30007883C15ED0408B018091C6039091C70327
:101E40001816190624F01092C7031092C603C95F32
:101E5000DE4F8881C750D140C85FDE4F9881C8509F
:101E6000D140CC50DF4FC880D980C45FD0408C15A2
:101E70009D050CF4C6017C01C650DF4FC880CA5FC7
:101E8000D040EC18F108CE52DF4FF982E882C25DF3
:101E9000D04080910601815018161CF480930601F1
:101EA00027C084E680930601CE50DF4FE880F9809A
:101EB000C25FD040F092D503E092D40326EFCC511C
:101EC000DF4F48815981C45ED0402403C001259F63
:101ED000900D1124CE52DF4FC880D980C25DD04012
:101EE0008C199D09880F991F9093C7038093C6038F
:101EF000CE52DF4FE880F980C25DD0401E141F042F
:101F0000ACF58091C503811133C023E333E343E78C
:101F10005FE3609107017091080180910901909140
:101F20000A010E94396EF62EE72ED82EC92E2AE914
:101F300039E949E15FE30E94F06D18162CF05AE987
:101F400049E939E12FE302C0A7019601852F942FBB
:101F5000A32FB22F8093070190930801A09309014A
:101F6000B0930A0181E08093C50302C01092C503BB
:101F7000C653DF4FC880D980CA5CD0402EE9C21654
:101F80002FEFD20634F482E090E09093C703809361
:101F9000C603C653DF4FC880D980CA5CD040C45244
:101FA000DF4FE880F980CC5DD040EC14FD0434F0C4
:101FB000C452DF4FC880D980CC5DD040B60188279D
:101FC00077FD8095982F0E94406D6B017C01609198
:101FD000140170E080E090E00E94406D4B015C01D4
:101FE0002AE037ED43E85FE30E94396E9B01AC01C4
:101FF000C701B6010E94F06D1816ECF48091C4037D
:10200000811119C081E08093C40360915F047091D5
:102010006004882777FD8095982F0E94406D20E00E
:1020200030E040E05FE30E94396E0E940D6D7093D6
:10203000600460935F04C653DF4FE880F980CA5C98
:10204000D040C452DF4FC880D980CC5DD040CE1480
:10205000DF0434F0C452DF4FE880F980CC5DD0401B
:10206000B701882777FD8095982F0E94406D6B01FE
:102070007C0126E636E646E65FE3C501B4010E9430
:10208000396E9B01AC01C701B6010E94A16C87FDAE
:102090001092C4038091C6039091C70383309105C9
:1020A00014F082E090E0C251DF4FC880D980CE5E4C
:1020B000D040C816D90654F4CE51DF4F8881C25E95
:1020C000D040CD51DF4F9881C35ED040C051DF4F2B
:1020D000E880F980C05FD040E816F90654F4C25297
:1020E000DF4F8881CE5DD040C152DF4F9881CF5DF8
:1020F000D0401C01081719075CF4C052DF4F8881DB
:10210000C05ED040CF51DF4F9881C15ED0401C01EE
:102110008090040790900507A0900607B0900707ED
:10212000C0905104D0905204E0905304F0905404B5
:10213000A7019601C501B4010E94F06D87FD09C099
:102140008092510490925204A0925304B09254048D
:1021500023C020E030E0A901C501B4010E94F06D68
:102160001816D4F420E030E84FEF53E4C701B6016D
:102170000E94396EA50194010E943D6C20E030E080
:1021800040E05BE30E94396E609351047093520407
:102190008093530490935404C0904D04D0904E0407
:1021A000E0904F04F0905004A7019601C852DF4F11
:1021B000688179818A819B81C85DD0400E94F06DE1
:1021C00087FD11C0C852DF4FC880D980EA80FB80EC
:1021D000C85DD040C0924D04D0924E04E0924F04AE
:1021E000F092500420C020E030E845E953E4C701F4
:1021F000B6010E94396EC852DF4F288139814A8169
:102200005B81C85DD0400E943D6C20E030E046E933
:1022100053E40E94A56C60934D0470934E04809328
:102220004F04909350042AE037ED43EA5CEBC5502D
:10223000DF4F688179818A819B81CB5FD0400E948A
:10224000396E9B01AC0111E0CC52DF4F688179817E
:102250008A819B81C45DD0400E94F06D87FD10E0B3
:10226000E0912F04F0913004EF30F10508F0E1C364
:10227000E75BFF4F0C94256F80913F04882361F04A
:102280008091300190913101181619062CF4909329
:10229000600480935F0404C01092600410925F0495
:1022A0008091550490915604A0915704B091580420
:1022B00083017201E81AF90A0A0B1B0BD801C70146
:1022C00081339547A105B10508F4C0C385E090E0CE
:1022D0000E94A205BBC38092510490925204A09226
:1022E0005304B0925404C852DF4FC880D980EA80AA
:1022F000FB80C85DD040C0924D04D0924E04E09265
:102300004F04F0925004E0902501F09026010FEF69
:10231000E016F00629F0F0923E04E0923D0404C07D
:1023200010923E0410923D0410923C0410923B0423
:1023300020915F043091600480916D0190916E0155
:1023400028173907ACF5111133C020E030E0A9019E
:10235000CA51DF4F688179818A819B81C65ED040F6
:102360000E94F06D87FF24C020E030E0A901C65133
:10237000DF4F688179818A819B81CA5ED0400E944B
:10238000F06D87FF15C08091550490915604A0917F
:102390005704B0915804A3019201281B390B4A0B32
:1023A0005B0BDA01C9018037964CA105B10538F005
:1023B000EF20E09409F4DBC087E090E094C1CA50BC
:1023C000DF4FC880D980EA80FB80C65FD04001E93A
:1023D000C01601E0D006E104F10408F404C538C3D6
:1023E0008091250190912601019641F580915F042D
:1023F000909160048E3F910509F111111FC08091E9
:10240000400490914104892BC9F0809103078823EF
:10241000A9F08091550490915604A0915704B09171
:10242000580473016201C81AD90AEA0AFB0A00E1DA
:10243000C01607E2D006E104F10420F087E090E046
:102440000E94A205C0900C07D0900D07E0900E07E7
:10245000F0900F0760913D0470913E04882777FD4E
:102460008095982F0E94406D9B01AC01C701B60179
:102470000E94F06D18160CF0EBC2C701B6010E9465
:102480000D6D70933E0460933D04809140049091E3
:10249000410490933C0480933B04DAC21123F1F091
:1024A0008091550490915604A0915704B09158041E
:1024B000A3019201281B390B4A0B5B0BA5E0B0E08E
:1024C0000E94326F6093690170936A0180936B017F
:1024D00090936C0188E090E00E94A2058091250114
:1024E00090912601019609F0B3C280915504909114
:1024F0005604A0915704B0915804A3019201281BDF
:10250000390B4A0B5B0BDA01C90181339547A105F1
:10251000B10508F49DC280913B0490913C04865023
:102520009F4F209140043091410482179307FCF0A3
:1025300060913D0470913E04882777FD8095982F27
:102540000E94406D26E636E646E85FE30E94396E5B
:102550009B01AC0160910C0770910D0780910E07F3
:1025600090910F070E94F06D18160CF071C286E072
:1025700090E0B9C08091E7039091E803A091E9034E
:10258000B091EA030097A105B105A1F0409155046F
:102590005091560460915704709158047301620180
:1025A000C41AD50AE60AF70AC816D906EA06FB06CF
:1025B00008F05BC02091EB033091EC032F3F0FEF4D
:1025C000300741F08091030781111FC080912D04D5
:1025D00081111BC08091550490915604A09157041D
:1025E000B0915804B301A201481B590B6A0B7B0B35
:1025F0008091690190916A01A0916B01B0916C0189
:10260000481759076A077B0780F5121613060CF066
:102610001FC280910307811105C080912D0488237A
:1026200009F416C2112309F413C2B901882777FDF2
:102630008095982F0E94406D20910F0130911001DC
:1026400040911101509112010E94396E9B01AC0121
:1026500060915104709152048091530490915404FC
:102660000E94A16C18160CF4F3C18091ED039091B7
:10267000EE03892BB1F189E090E035C080915504DB
:1026800090915604A0915704B0915804B301A2014F
:10269000481B590B6A0B7B0B8091F3039091F40359
:1026A000A091F503B091F603481759076A077B0715
:1026B000C0F48091ED039091EE03892B91F020E01E
:1026C00030E0A9016091EF037091F0038091F10374
:1026D0009091F2030E94A16C882319F0112309F450
:1026E000B7C18AE090E00E94A205B2C18091FD03CB
:1026F0009091FE03A091FF03B09100040097A10503
:10270000B105E9F040915504509156046091570489
:102710007091580473016201C41AD50AE60AF70AD7
:10272000C816D906EA06FB0650F08CE090E00E943D
:10273000A2051092600410925F04212C312C60914C
:1027400001047091020461157105F1F0882777FD8D
:102750008095982F0E94406D20910F0130911001BB
:1027600040911101509112010E94396E9B01AC0100
:1027700060915104709152048091530490915404DB
:102780000E94A16C87FD01C1C0900504D090060491
:10279000E0900704F090080420E030E0A901C701B0
:1027A000B6010E94A16C8823D1F020910B013091D9
:1027B0000C0140910D0150910E01C701B6010E941C
:1027C000396E9B01AC0160914D0470914E04809173
:1027D0004F04909150040E94A16C87FDD6C00091D7
:1027E0000304109104040115110509F431C160912D
:1027F000DE067091DF068091E0069091E106C090C0
:102800004904D0904A04E0904B04F0904C046C19B9
:102810007D098E099F0920E13EE040E050E00E94E2
:10282000036FB901882777FD8095982F0E94406D2E
:102830006B017C01B801882777FD8095982F0E9455
:10284000406D20910F013091100140911101509184
:1028500012010E94396E9B01AC01C701B6010E94B2
:10286000F06D18160CF0F4C090C08091090490919E
:102870000A04A0910B04B0910C040097A105B105C6
:10288000A1F0409155045091560460915704709105
:10289000580483017201E41AF50A060B170BE816B7
:1028A000F9060A071B0708F01CCFC0900D04D09052
:1028B0000E04E0900F04F090100420E030E0A90135
:1028C000C701B6010E94A16C8823D1F0C253DF4F2B
:1028D000288139814A815B81CE5CD040C701B60135
:1028E0000E94396E9B01AC0160914D0470914E04C1
:1028F00080914F04909150040E94A16C87FD45C0C7
:1029000000911104109112040115110509F48CC0F5
:102910006091DE067091DF068091E0069091E106FD
:10292000C0904904D0904A04E0904B04F0904C04CD
:102930006C197D098E099F0920E13EE040E050E0DE
:102940000E94036FB901882777FD8095982F0E9418
:10295000406D6B017C01B801882777FD8095982F29
:102960000E94406D20910F013091100140911101A2
:10297000509112010E94396E9B01AC01C701B60152
:102980000E94F06D18160CF04FC085E090E0ABCEC1
:102990008091550490915604A0915704B091580429
:1029A000B301A201481B590B6A0B7B0B80911904E0
:1029B00090911A04A0911B04B0911C044817590768
:1029C0006A077B0708F08DCE60911D0470911E048C
:1029D00061157105E9F180910307811104C08091AF
:1029E0002D048823A9F1882777FD8095982F0E94D0
:1029F000406D20910F0130911001409111015091D3
:102A000012010E94396E9B01AC01609151047091DA
:102A1000520480915304909154040E94A16C1816A2
:102A2000BCF05FCE10921E071092600410925F04FB
:102A30000DC082E090E09093300480932F0480E2F8
:102A400090E09093240780932307CDC1212C312C53
:102A500080915F0490916004820D931D90936004B7
:102A600080935F0420913F04222361F020915D0454
:102A700030915E04821793070CF4C90190936004AF
:102A800080935F0400915F041091600417FD2AC0D9
:102A900060916D0170916E01882777FD8095982F68
:102AA0000E94406D20910701309108014091090179
:102AB00050910A010E94396E6B017C01B801882790
:102AC00077FD8095982F0E94406DA70196010E9486
:102AD000F06D181654F4C701B6010E940D6D262F33
:102AE000972F05C020E090E002C0202F912F209367
:102AF0005F0490936004822F0E94CC05809116079A
:102B0000882309F470C18091BD0281508093BD0279
:102B100018160CF468C16091EA057091EB0580917C
:102B2000EC059091ED0543E00E94A331CC52DF4FBC
:102B30008883C45DD040C852DF4F9883C85DD040C1
:102B40000E940806C653DF4F8883CA5CD040F090CD
:102B5000C605C253DF4FF882CE5CD0400E941729D1
:102B6000882E0E94F93CA82E992EC090B802B090F1
:102B7000B90260910701709108018091090190915B
:102B80000A0142E00E94A331E82ED92E00916D0186
:102B9000C452DF4F0883CC5DD04050916E0110913C
:102BA0005D04CA51DF4F1883C65ED04020915E0499
:102BB000C651DF4F2883CA5ED040F0902D0460914B
:102BC000040770910507809106079091070741E07F
:102BD000C35FDE4F5883CD50D1400E94A331182FE0
:102BE000092F609108077091090780910A07909159
:102BF0000B0743E00E94A3319C014091C603609102
:102C0000C70389E0C75FDE4F2883C950D140C65F44
:102C1000DE4F3883CA50D140C55FDE4F4883CB506A
:102C2000D140C45FDE4F6883CC50D1400E940D6A12
:102C3000C852DF4F7881C85DD0407F93CC52DF4FC0
:102C4000A881C45DD040AF931F92C653DF4FB881B7
:102C5000CA5CD040BF931F92C253DF4FE881CE5C65
:102C6000D040EF931F928F929F92AF92BF92CF92DC
:102C7000DF92EF92C35FDE4F5881CD50D1405F931A
:102C8000C452DF4FC880CC5DD040CF92C651DF4FD9
:102C9000D880CA5ED040DF92CA51DF4FE880C65E5E
:102CA000D040EF921F92FF920F931F93C65FDE4FAB
:102CB0003881CA50D1403F93C75FDE4F2881C95049
:102CC000D1402F931F9222E42F93CB51DF4FF880F6
:102CD000C55ED040FF92CC51DF4F0881C45ED0402A
:102CE0000F93CD52DF4F1881C35DD0401F93CE525A
:102CF000DF4F2881C25DD0402F933F922F92C45F57
:102D0000DE4F6881CC50D1406F93C55FDE4F488164
:102D1000CB50D1404F93CF51DF4FC880C15ED040E0
:102D2000CF92C052DF4FD880C05ED040DF92C152F8
:102D3000DF4FE880CF5DD040EF92C252DF4FF88086
:102D4000CE5DD040FF92CD51DF4F0881C35ED040B1
:102D50000F93CE51DF4F1881C25ED0401F939F93D7
:102D60008F93809160048F9380915F048F93809103
:102D700030048F9380912F048F93C301B20128EE0A
:102D800033E040E050E00E94036F7F936F933F93E6
:102D90002F938EE993E09F938F931F9288EC8F93EC
:102DA0008E010F5F1F4F1F930F930E943471D80144
:102DB0000D900020E9F7AD0141505109401B510B26
:102DC0000FB6F894DEBF0FBECDBFE0911909F091A8
:102DD0001A090280F381E02DB80189E199E0099593
:102DE0008AE08093BD02C35FDE4F0FB6F894DEBF6A
:102DF0000FBECDBFDF91CF911F910F91FF90EF904C
:102E0000DF90CF90BF90AF909F908F907F906F900A
:102E10005F904F903F902F9008950F931F93242F12
:102E200026272F7034E0239FF0011124EE5FFB4F23
:102E30000591159125913491DC01CB0154E0B695B3
:102E4000A795979587955A95D1F780279127A2271F
:102E5000B327E42FE295EF70E827EF7024E0E29FBC
:102E6000F0011124EE5FFB4F0591159125913491EE
:102E7000BC01CD01E4E09695879577956795EA9535
:102E8000D1F760277127822793271F910F9108950B
:102E9000EF92FF920F931F93CF93DF938C017B01EF
:102EA000EC016FEF7FEFCB019E01201B310B2E1544
:102EB0003F0524F449910E940D17F6CF6095709557
:102EC00080959095DF91CF911F910F91FF90EF909A
:102ED0000895CF92DF92EF92FF920F931F93CF93BB
:102EE000DF93CDB7DEB7CA5AD1090FB6F894DEBF6B
:102EF0000FBECDBF8C0148E550E060E070E0CE0130
:102F000001960E94367389819A818A3C934F11F011
:102F100080E028C08B819C81833D9946C9F742E5BA
:102F200050E065EB72E0CE01875A9F4F0E943673E6
:102F300062E570E0CE01875A9F4F0E944817C9A8EA
:102F4000DAA8EBA8FCA86C157D058E059F0501F796
:102F500082E5FE01E75AFF4FD80101900D928A9554
:102F6000E1F781E0C655DF4F0FB6F894DEBF0FBE24
:102F7000CDBFDF91CF911F910F91FF90EF90DF9028
:102F8000CF9008950F931F93CF93DF93CDB7DEB704
:102F9000C855D1090FB6F894DEBF0FBECDBF8C0166
:102FA00048E550E060E070E0CE0101960E94367383
:102FB0000115110509F18AEC93EF9A83898383ED5A
:102FC00099E69C838B8362E570E0C8010E944817F4
:102FD00069AB7AAB8BAB9CAB80915A018823E1F053
:102FE00080916401811118C042E550E065EB72E008
:102FF000C8010E94467308C01A8219821C821B8273
:1030000019AA1AAA1BAA1CAA48E550E060E070E0C1
:10301000CE0101960E944673C85ADF4F0FB6F8944E
:10302000DEBF0FBECDBFDF91CF911F910F910895ED
:10303000CF92DF92EF92FF920F931F93CF93DF9384
:10304000CDB7DEB7CE59D1090FB6F894DEBF0FBEAB
:10305000CDBFD82E8B0148E550E060E070E0CE0196
:1030600001960E943673ED2CF12CF7013296EE0F8B
:10307000FF1F21E030E02C0F3D1FE20FF31F2081E6
:1030800031812C363B4611F080E042C0D7011A96C0
:10309000AA0FBB1F21E030E02C0F3D1FA20FB31F72
:1030A0002D913C9127343A4079F796E4D99EB001AE
:1030B00011246B577F4F46E450E0CE01875A9F4F53
:1030C0000E94367366E470E0CE01875A9F4F0E94DB
:1030D0004817F7013D96EE0FFF1FEE0FFF1F21E08F
:1030E00030E02C0F3D1FE20FF31FC080D180E28043
:1030F000F3806C157D058E059F0531F686E4FE0193
:10310000E75AFF4FD80101900D928A95E1F781E0CF
:10311000C256DF4F0FB6F894DEBF0FBECDBFDF91B2
:10312000CF911F910F91FF90EF90DF90CF90089576
:10313000DF92EF92FF920F931F93CF93DF93CDB760
:10314000DEB7C855D1090FB6F894DEBF0FBECDBFAC
:10315000D82E7B0148E550E060E070E0CE0101969A
:103160000E9436730D2D10E0F8013296EE0FFF1F0E
:10317000E114F104E9F121E030E02C0F3D1FE20FF2
:10318000F31F8CE69BE691838083F8013A96EE0F5D
:10319000FF1FE20FF31F87E49AE09183808366E4C8
:1031A00070E0C7010E944817F8013D96EE0FFF1F1F
:1031B000EE0FFF1F21E030E02C0F3D1FE20FF31F49
:1031C000608371838283938380915A018823A1F164
:1031D00080916401811130C036E4D39EB001112486
:1031E0006B577F4F46E450E0C7010E9446731CC0F6
:1031F00081E090E08C0F9D1FE80FF91F1182108273
:10320000F8013A96EE0FFF1FE80FF91F11821082A6
:10321000F8013D96EE0FFF1FEE0FFF1FE80FF91F9D
:10322000108211821282138248E550E060E070E063
:10323000CE0101960E944673C85ADF4F0FB6F8942C
:10324000DEBF0FBECDBFDF91CF911F910F91FF90D9
:10325000EF90DF90089526E4829FC00111248259E7
:103260009E4FDB0120E030E0FC01E20FF31FE49110
:10327000ED932F5F3F4F26343105B1F70895CF927C
:10328000DF92EF92FF920F931F93CF93DF93CDB70F
:10329000DEB7C556D1090FB6F894DEBF0FBECDBF5D
:1032A0008C0148E550E060E070E0CE0101960E949C
:1032B00036738DA19EA18C3A904F11F080E02AC008
:1032C0008FA198A587399A40C9F74DE050E068E58D
:1032D00070E0CE01875A9F4F0E9436736DE070E018
:1032E000CE01875A9F4F0E9448176996CCACDDAC3F
:1032F000EEACFFAC69976C157D058E059F05F1F668
:103300008DE0FE01E75AFF4FD80101900D928A959A
:10331000E1F781E0CB59DF4F0FB6F894DEBF0FBE67
:10332000CDBFDF91CF911F910F91FF90EF90DF9074
:10333000CF9008950F931F93CF93DF93CDB7DEB750
:10334000C855D1090FB6F894DEBF0FBECDBF8C01B2
:1033500048E550E060E070E0CE0101960E943673CF
:1033600001151105D9F08CEA90EF9EA38DA387E992
:103370009AE098A78FA36DE070E0C8010E944817FB
:1033800069966CAF7DAF8EAF9FAF69974DE050E00F
:1033900068E570E0C8010E9446730AC01EA21DA223
:1033A00018A61FA269961CAE1DAE1EAE1FAE699771
:1033B00048E550E060E070E0CE0101960E9446735F
:1033C000C85ADF4F0FB6F894DEBF0FBECDBFDF91F6
:1033D000CF911F910F910895CF92DF92EF92FF92BC
:1033E0000F931F93CF93DF93CDB7DEB7C456D109A8
:1033F0000FB6F894DEBF0FBECDBF8C0148E550E09C
:1034000060E070E0CE0101960E94367389A59AA50E
:103410008A33944811F080E028C08BA59CA58A339C
:10342000904CC9F74CE050E067E073E0CE01875A5A
:103430009F4F0E9436736CE070E0CE01875A9F4F19
:103440000E944817CDA4DEA4EFA4F8A86C157D0552
:103450008E059F0501F78CE0FE01E75AFF4FD8016A
:1034600001900D928A95E1F781E0CC59DF4F0FB6BC
:10347000F894DEBF0FBECDBFDF91CF911F910F91AA
:10348000FF90EF90DF90CF9008950F931F93CF930D
:10349000DF93CDB7DEB7C855D1090FB6F894DEBFBC
:1034A0000FBECDBF8C0148E550E060E070E0CE017A
:1034B00001960E9436730115110509F18AE394E81B
:1034C0009AA789A78AE390EC9CA78BA76CE070E091
:1034D000C8010E9448176DA77EA78FA798AB80915F
:1034E0005A018823E1F080916401811118C04CE0F9
:1034F00050E067E073E0C8010E94467308C01AA656
:1035000019A61CA61BA61DA61EA61FA618AA48E53E
:1035100050E060E070E0CE0101960E944673C85A08
:10352000DF4F0FB6F894DEBF0FBECDBFDF91CF9156
:103530001F910F910895CF9380E090E00E94C217F1
:103540008091A502811104C080E090E00E949A1948
:10355000C0E060E070E08C2F0E949818CF5FC83008
:10356000C1F780E090E00E94451ACF910C9442424E
:1035700008950F931F93CF93DF93EFE6F1E0A0E060
:10358000B0E040815181628173814115510561052F
:103590007105C1F13B96EC0109811A812B813C81B7
:1035A000041715072607370711F01196EACF2BE00D
:1035B0002A9FE0012B9FD00D1124FE01E159FE4FFF
:1035C0000480F581E02D3097E9F0C758DE4F28815F
:1035D00021FF04C020919F022223A1F02BE02A9F0B
:1035E000E0012B9FD00D1124C758DE4F288122FF08
:1035F00004C02091A002222329F0DF91CF911F91D6
:103600000F910994DF91CF911F910F9108955F92CF
:103610006F927F928F929F92AF92BF92CF92DF92E2
:10362000EF92FF920F931F93CF93DF933C01809112
:103630009D0290919E028730910558F4FC01EF5F46
:10364000FC4FC081D0E0FC01E650FD4FE080F12C42
:1036500005C0EE24EA94F12CCFEFD0E020E030E07A
:10366000A901609113047091140480911504909144
:1036700016040E94A16C882389F021E0512C8091CE
:10368000190490911A04A0911B04B0911C04892B79
:103690008A2B8B2B09F420E0922E02C0912C512C06
:1036A000A0900B01B0900C01C0900D01D0900E01C4
:1036B00020E030E040EC5FE3C601B5010E94A16C60
:1036C00087FD2BC020E030E040E250E4C601B501A8
:1036D0000E94A16C87FD24C023E333E343E350E45D
:1036E000C601B5010E94A16C87FD1DC026E636E625
:1036F00046E650E4C601B5010E94A16C082F1127CF
:1037000007FD10950027110F001F112786E090E09C
:103710009C01201B310B890108C001E010E005C0AD
:1037200002E010E002C003E010E060911F0470911D
:10373000200480912104909122040E940D6D862E18
:1037400020E030E04AEF53E460910F0170911001E6
:1037500080911101909112010E94396E20E030E0B9
:1037600041E655E40E94396E1F921F921F921F92EC
:103770001F925B016C01292D352DAE016091FA0578
:10378000C3010E945E440F900F900F900F900F9016
:1037900081E0DF91CF911F910F91FF90EF90DF902B
:1037A000CF90BF90AF909F908F907F906F905F90E1
:1037B0000895CF92EF92FF920F931F93CF93DF93D1
:1037C000EC01609140047091410416161706CCF488
:1037D000882777FD8095982F0E94406D9B01AC0152
:1037E0006FE7C62E18E2E12E1BE6F12E0EE61EEC68
:1037F0006091A202CE010E94A54288E0888381E008
:1038000001C080E0DF91CF911F910F91FF90EF9069
:10381000CF900895CF92DF92EF92FF920F931F9374
:10382000CF93DF93EC01809103078823E9F0809127
:103830009C028823C9F020E030E04AE754E460911C
:1038400004077091050780910607909107070E9471
:10385000396E0E94126D6B017C018CE6D81A8AECDD
:10386000E80A88E8F80A04C0CC24CA94DC2C760163
:1038700020E030E040EA51E46091080770910907C8
:1038800080910A0790910B070E94396E0E94126D79
:10389000870176019B0140919A026091FA05CE0161
:1038A0000E94655881E0DF91CF911F910F91FF90A9
:1038B000EF90DF90CF900895CF93DF93EC012091AC
:1038C00065013091660140916701509168016091F6
:1038D00004077091050780910607909107070E94E1
:1038E000F06D18162CF4CE01DF91CF910C940A1CC8
:1038F00080E0DF91CF910895EF92FF920F93CF93E5
:10390000DF93EC016091B4027091B5026D398FEFD5
:10391000780781F0882777FD8095982F0E94406D69
:1039200020E030E040E05DE30E94396E0E940D6DC2
:103930009B0102C02FEF3FE7EE24EA94FE2C0FEF2D
:1039400040919A026091FA05CE010E94F65881E0FA
:10395000DF91CF910F91FF90EF900895AF92BF92BA
:10396000CF92DF92EF92FF920F931F93CF93DF934B
:103970005C0180912F049091300405978A30910565
:1039800030F4FC01E051FD4FC081D0E002C0C1E045
:10399000D0E0C0909D02D0909E0220E030E040EA4E
:1039A00051E4609165017091660180916701909189
:1039B00068010E94396E0E94126D7B0123E8F21AA1
:1039C00020E030E040EA51E4609135047091360423
:1039D00080913704909138040E94396E0E94126DD4
:1039E0008B019E0140919A026091FA05C5010E94E7
:1039F0008B5981E0DF91CF911F910F91FF90EF9054
:103A0000DF90CF90BF90AF900895EF92FF920F9309
:103A10001F93CF93DF93EC0120E030E04AE754E4BA
:103A2000609108077091090780910A0790910B0730
:103A30000E94396E0E94126D8B019C01EE24EA9463
:103A4000FE2C40919A026091FA05CE010E94415AE3
:103A500081E0DF91CF911F910F91FF90EF9008953A
:103A6000CF92DF92EF92FF920F931F93CF93DF934A
:103A7000EC01C0900807D0900907E0900A07F09089
:103A80000B07209135043091360440913704509152
:103A90003804C701B6010E94F06D1816D4F420E076
:103AA00030E04AE754E4C701B6010E94396E0E9433
:103AB000126D8B019C01EE24EA94FE2C40919A0237
:103AC0006091FA05CE010E94415A82E0888381E02C
:103AD00001C080E0DF91CF911F910F91FF90EF9097
:103AE000DF90CF9008956F927F928F92AF92CF9296
:103AF000DF92EF920F931F93CF93DF933C0180915E
:103B00002F049091300405978A30910558F4FC01F8
:103B1000EA51FD4FC080D12CFC01E452FD4FC08121
:103B2000D0E005C0C0E0D0E0CC24C394D12C80917B
:103B3000010490910204892BC9F4809103049091AF
:103B4000040488248394892B99F420E030E0A901AF
:103B50006091050470910604809107049091080417
:103B60000E94A16C811104C0812C02C0882483941E
:103B70000E940806E82E20E030E040EA51E460911F
:103B800031047091320480913304909134040E9486
:103B9000396E0E940D6D8B01135820E030E040EA31
:103BA00051E460913504709136048091370490910E
:103BB00038040E94396E0E94126DDF93CF93AA24BD
:103BC000A3949B014091990263E070E0C3010E94BD
:103BD000D55B0F900F9081E0DF91CF911F910F91F6
:103BE000EF90DF90CF90AF908F907F906F9008957F
:103BF000AF92CF92DF92EF92FF920F931F93CF93EA
:103C0000DF93EC0180912F049091300405970A977F
:103C100040F580915F0490916004009711F120912C
:103C20005D0430915E042817390724F080913F0429
:103C3000811117C0809103078823B1F020E030E0A4
:103C40004AE754E460910C0770910D0780910E07CC
:103C500090910F070E94396E0E94126D8B011358CC
:103C600005C000E01DE702C00FEF1FEF20E030E0CD
:103C700040EA51E46091100770911107809112079A
:103C8000909113070E94396E0E94126DA090BA02A3
:103C900068017B0100919A022091FA0540919902F6
:103CA00063E070E0CE010E94CC5C81E0DF91CF91B7
:103CB0001F910F91FF90EF90DF90CF90AF900895FC
:103CC0008F929F92AF92CF92DF92EF92FF920F93DB
:103CD0001F93CF93DF93EC018091C605882329F0D1
:103CE000A090DB0581E0A82601C0A12C80913D04B5
:103CF00090913E04181619063CF48B3F910514F080
:103D00008AEF90E0F82E02C0FF24FA9420E030E021
:103D10004AEF53E460910F017091100180911101FD
:103D2000909112010E94396E0E94126DEE24E3946C
:103D30002091B4023091B5022D393F4F09F4E12CA6
:103D4000AA2019F000E010E002C003E010E020918A
:103D50002F04309130042E30310519F420E030E08A
:103D600002C022E030E0FF927F936F938FE0882EB5
:103D7000912C93E0C92ED12C4091990263E070E020
:103D8000CE010E94965D0F900F900F9081E0DF9121
:103D9000CF911F910F91FF90EF90DF90CF90AF9058
:103DA0009F908F900895AF92BF92CF92EF920F9312
:103DB000CF93DF93EC0120910B0130910C014091E6
:103DC0000D0150910E0160910504709106048091DF
:103DD0000704909108040E94396E20E030E040EA28
:103DE00051E40E94396E0E94126D5B0129E1C22EDE
:103DF000EE24EA940FEF24E64091990263E070E02C
:103E0000CE010E94F05D81E0DF91CF910F91EF90A4
:103E1000CF90BF90AF9008954F925F926F927F9234
:103E20008F929F92AF92BF92CF92EF92FF920F9399
:103E30001F93CF93DF93EC0140900B0150900C0146
:103E400060900D0170900E012091E3033091E40326
:103E50004091E5035091E603C301B2010E94396E1F
:103E600020E030E040EA51E40E94396E0E94126D79
:103E70004B015C0160911F0470912004809121042A
:103E8000909122040E94126DC62E2091F70330916A
:103E9000F8034091F9035091FA03C301B2010E9463
:103EA000396E20E030E040EA51E40E94396E0E9411
:103EB000126D7B01840194014091990263E070E0EE
:103EC000CE010E94335E81E0DF91CF911F910F916F
:103ED000FF90EF90CF90BF90AF909F908F907F908A
:103EE0006F905F904F9008958F929F92AF92BF9284
:103EF000CF92EF92FF920F931F93CF93DF93EC013A
:103F000060911F04709120048091210490912204FB
:103F10000E94126DC62E6091FD037091FE03809188
:103F2000FF039091000438EE832E33E0932EA12CF2
:103F3000B12CA50194010E94036F79018A0160915F
:103F4000E7037091E8038091E9039091EA03A501EA
:103F500094010E94036F89012AEF3FEF409199027B
:103F600063E070E0CE010E94335E81E0DF91CF918B
:103F70001F910F91FF90EF90CF90BF90AF909F90C7
:103F80008F900895CF92DF92EF92FF920F93CF938D
:103F9000DF93EC0180912F049091300401E08D308B
:103FA000910509F400E00D97A9F40E94B967C0904B
:103FB0005504D0905604E0905704F09058046C19C2
:103FC0007D098E099F0928EE33E040E050E00E9411
:103FD000036F02C020E030E04091990263E070E09E
:103FE000CE010E94725E81E0DF91CF910F91FF9030
:103FF000EF90DF90CF900895CF92DF92EF92FF92F3
:104000000F931F93CF93DF93EC016091190470918C
:104010001A0480911B0490911C0428EE33E040E0C8
:1040200050E00E94036F69017A0120910B013091E9
:104030000C0140910D0150910E016091130470919B
:10404000140480911504909116040E94396E20E0AA
:1040500030E040EA51E40E94396E0E94126D860100
:104060009B014091990263E070E0CE010E94A95E3D
:1040700081E0DF91CF911F910F91FF90EF90DF9042
:10408000CF900895AF92BF92CF92DF92EF92FF92BE
:104090000F931F93CF93DF93CDB7DEB7C95CD109E0
:1040A0000FB6F894DEBF0FBECDBF7C0182E494E072
:1040B0009F938F931F9288EC8F938E010F5F1F4FFA
:1040C0001F930F930E9434715C010F900F900F901B
:1040D0000F900F900F9089E0A816B104D4F44BEE26
:1040E0005EEF60E070E0C7010E940B4586E0F701DB
:1040F00080836801C601801B910B8A159B053CF4E7
:10410000F60161916F01C7010E947145F3CF81E013
:1041100001C080E0C753DF4F0FB6F894DEBF0FBE7B
:10412000CDBFDF91CF911F910F91FF90EF90DF9066
:10413000CF90BF90AF9008958F929F92AF92BF9211
:10414000CF92DF92EF92FF920F931F93CF93DF9363
:10415000CDB7DEB728970FB6F894DEBF0FBECDBF40
:104160005C01C0903F05D0904005E0913D05F09185
:104170003E05CE16DF06A9F1CE0101967C0100E0D6
:1041800010E09C0142ED842E912CCE16DF0629F41E
:10419000D0923E05C0923D0517C00830110581F050
:1041A000DF01AE59BB4F8C91D7018D937D010F5F1D
:1041B0001F4FCF010196B4010E94DB6EFC01E5CFD9
:1041C000F0933E05E0933D05A8016091AE05C50161
:1041D0000E94DA5E40E050E0B5018BEF95E00E946E
:1041E000FC5180E028960FB6F894DEBF0FBECDBF1D
:1041F000DF91CF911F910F91FF90EF90DF90CF90C3
:10420000BF90AF909F908F9008958F929F92AF92A2
:10421000BF92CF92DF92EF920F9340912F04509173
:10422000300421E04230510509F020E001E0433044
:10423000510509F000E0425051094230510550F457
:10424000A0902307B0902407C12CD12C37E8C30ECF
:10425000D11C03C0A12CB12C65013FE03F933FEF7F
:104260003F933FE73F935BE0852E912CE12C40E0AC
:1042700060E00E947A5F0F900F900F9081E00F91A5
:10428000EF90DF90CF90BF90AF909F908F90089568
:1042900020912F0430913004225031092230310511
:1042A00020F40E94052181E0089580E00895EF92B6
:1042B000FF920F931F93CF93DF93CDB7DEB7C9550E
:1042C000D1090FB6F894DEBF0FBECDBF7C016FE001
:1042D000CE0101960E942445F701018112812381BC
:1042E00034814FEF61E0CE0101960E947C50F701CE
:1042F00085818F8340E050E0BE016F5F7F4F8BEF81
:1043000095E00E94FC51C75ADF4F0FB6F894DEBF0C
:104310000FBECDBFDF91CF911F910F91FF90EF9016
:104320000895EF92FF920F931F93CF93DF93CDB732
:10433000DEB72E970FB6F894DEBF0FBECDBF9E013D
:10434000235F3F4F79018E010F5F1F4F28503109C6
:10435000AE01475F5F4FBE01625F7F4F0E94DB434C
:10436000882399F18091C60581112FC08091A10207
:10437000882359F19091FA058E85981326C00E94E2
:10438000B9676093D7057093D8058093D90590934A
:10439000DA058D819E81AF81B8858093D305909396
:1043A000D405A093D505B093D60523E333E948E8B7
:1043B00053E469817A818B819C810E943D6C0E94CB
:1043C0000D6D7093D2056093D1052E960FB6F894BB
:1043D000DEBF0FBECDBFDF91CF911F910F91FF9038
:1043E000EF9008956F927F928F929F92AF92BF92BB
:1043F000CF92DF92EF92FF920F931F93CF93DF93B1
:10440000CDB7DEB72E970FB6F894DEBF0FBECDBF87
:104410003C01CE0101969F938F930A964C01DE01D9
:104420001C965D0108976C0112967D018E01095F53
:104430001F4F9E01275F3F4FAE01435F5F4FBE019D
:104440006B5F7F4FC3010E942D5C0F900F908823FC
:1044500009F46DC09E859F3F09F469C0D30115968C
:10446000EC918E2F877001E010E001C0000F8A955B
:10447000EAF7F0E0B3E0F595E795BA95E1F7ED5787
:10448000FA4F8081802361F0903550F40E94B96723
:104490006093B8057093B9058093BA059093BB05F6
:1044A000D3011596EC91F0E0A3E0F595E795AA9578
:1044B000E1F7ED59FA4F80818023F1F00E94B9674E
:1044C0006093BC057093BD058093BE059093BF05B6
:1044D0008091B6059091B7052E85009719F4822F2B
:1044E00090E006C0820F911D97FD019695958795E6
:1044F0009093B7058093B605D3011596EC91F0E043
:1045000063E0F595E7956A95E1F7ED5BFA4F8081F9
:10451000802369F08E85853150F00E94B9676093E1
:10452000C0057093C1058093C2059093C3052E9674
:104530000FB6F894DEBF0FBECDBFDF91CF911F91B4
:104540000F91FF90EF90DF90CF90BF90AF909F9032
:104550008F907F906F9008958F929F92AF92BF92AD
:10456000CF92DF92EF92FF920F931F93CF93DF933F
:10457000CDB7DEB72A970FB6F894DEBF0FBECDBF1A
:104580004C01CE0107965C01FE0131966F01049744
:104590007C018E01085F1F4F9E01275F3F4FAE01D8
:1045A000465F5F4FBE016B5F7F4FC4010E94175D86
:1045B000882309F44EC099858091FA05F40125817C
:1045C000981347C0322F377081E090E001C0880F08
:1045D0003A95EAF7588540919A0230E0F90193E064
:1045E000F595E7959A95E1F7ED57FA4F451718F4C9
:1045F0006081682B04C0682F609570816723608399
:10460000F90103E0F595E7950A95E1F7541306C023
:10461000ED59FA4F4081482B40830AC0782F70959E
:10462000DF01AD59BA4F6C9167236C93451760F069
:10463000F90113E0F595E7951A95E1F7ED5BFA4F6F
:104640009081982B908305C0ED5BFA4F8081872382
:1046500080832A960FB6F894DEBF0FBECDBFDF91E0
:10466000CF911F910F91FF90EF90DF90CF90BF906F
:10467000AF909F908F900895CF93DF9300D0CDB7E8
:10468000DEB71092410524E335E0AE014F5F5F4F86
:1046900065EB75E00E94285F882321F08981809373
:1046A000420502C0109242050F900F90DF91CF910A
:1046B0000895FF920F931F93CF93DF9300D0CDB750
:1046C000DEB78C01FC0141815281638174814430E9
:1046D000504F6105710549F583E090E09A83898325
:1046E0004FEF5FEFBE016F5F7F4FC8010E94B04583
:1046F00023E0969587952A95E1F79093B4058093EA
:10470000B305F090A202BE016F5F7F4FC8010E9407
:104710007D45F8120AC00E94B9676093AF05709397
:10472000B0058093B1059093B2050F900F90DF9183
:10473000CF911F910F91FF900895AF92BF92CF92AA
:10474000DF92EF920F932091A102211124C060917A
:10475000A3056F5F6093A3052EEC2F932EE62F9396
:104760002BE62F9328E22F9338E2A32E3BE6B32EBD
:104770003EE6C32E3EECD32EEE24EA940FEF21E06A
:1047800030E04091FA050E9400430F900F900F9087
:104790000F9081E001C080E00F91EF90DF90CF900B
:1047A000BF90AF9008958F92AF92BF92CF92DF9259
:1047B000EF92FF920F931F93CF93DF93EC018091C1
:1047C000A102811134C06091B4027091B5026D39BB
:1047D0008FEF780769F0882777FD8095982F0E94E2
:1047E000406D23E333E948E853E40E943D6C04C084
:1047F00068E27BE68EE69EECE0900407F090050709
:1048000000910607109107072091080730910907CA
:1048100040910A0750910B078090A3055B016C0142
:104820006091FA05CE010E94654381E001C080E0FD
:10483000DF91CF911F910F91FF90EF90DF90CF907C
:10484000BF90AF908F900895CF92DF92EF92FF923A
:104850000F931F93CF93DF9300D000D000D0CDB73C
:10486000DEB79E012F5F3F4F69012F5F3F4F7901F8
:104870008E010D5F1F4F2E5F3F4FAE014B5F5F4FAD
:10488000BE016A5F7F4F0E94D15A882301F18C815B
:10489000882351F080912F04909130040B9721F0E0
:1048A0008BE090E00E94A2058B81882381F080E05C
:1048B00090E00E94CC0582E090E0909330048093D9
:1048C0002F0483E390E09093240780932307269698
:1048D0000FB6F894DEBF0FBECDBFDF91CF911F9111
:1048E0000F91FF90EF90DF90CF9008950F931F935B
:1048F000CF93DF9300D000D0CDB7DEB78E010F5F2E
:104900001F4F9E012E5F3F4FAE014D5F5F4FBE01B7
:104910006C5F7F4F0E943F5B8823D9F09C81809120
:10492000FA05981316C08B81882319F08A81882391
:1049300081F080E090E00E94CC0582E090E09093CE
:10494000300480932F0482E390E0909324078093B7
:1049500023070F900F900F900F90DF91CF911F9131
:104960000F910895CF93DF9300D0CDB7DEB7AE019E
:104970004F5F5F4FBE016E5F7F4F0E94955B882344
:10498000C1F09A818091FA05981313C08981882318
:1049900081F080E090E00E94CC0582E090E090936E
:1049A000300480932F0482E390E090932407809357
:1049B00023070F900F90DF91CF910895CF93DF934E
:1049C000E3E8F5E0C3E6D5E0A3E4B5E0119219927F
:1049D0001D9285E0E33AF807C9F71092B7051092E7
:1049E000B605DF91CF910895CF92DF92EF92FF92BB
:1049F0000F931F93CF93DF93CDB7DEB72B970FB6EF
:104A0000F894DEBF0FBECDBF4F8358878B87EF81F1
:104A1000F8853097F9F0982F81FF04C080919F02AC
:104A20008823D9F092FF04C08091A0028823A9F0C6
:104A300093FF04C08091C505882361F0C6010995E4
:104A4000882351F040E050E0B6018BEF95E00E94E2
:104A5000FC5102C080E001C081E02B960FB6F894B3
:104A6000DEBF0FBECDBFDF91CF911F910F91FF90A1
:104A7000EF90DF90CF9008954F925F927F928F9248
:104A80009F92AF92BF92CF92DF92EF92FF920F93DD
:104A90001F93CF93DF93CDB7DEB7C955D1090FB6BA
:104AA000F894DEBF0FBECDBF6FE0CE0101960E942D
:104AB00024458091C505882341F12AE037ED43E282
:104AC0005DE36091350470913604809137049091D4
:104AD00038040E943D6C9B01AC0160910807709105
:104AE000090780910A0790910B070E94F06D181634
:104AF00064F480916104811108C0CE0101960E9486
:104B0000301D81E08093610460C0109261045FE613
:104B1000A52E51E0B52E812C912C6BE0762EF5015F
:104B200080819181A281B381892B8A2B8B2B09F4FF
:104B30004CC0D50118968D919C911997892BF1F154
:104B40000E94B967F50100851185980140E050E0A9
:104B50000E94036F1695079520E030E0789CF001E5
:104B6000799CF00D1124061717072807390708F557
:104B7000CF0187589E4F2C01DC018C9180FD1EC017
:104B8000E159FE4FCE0101966C01E080F180028177
:104B900013812481358146815781608571858285A5
:104BA0000E94F424882351F0D2018C9181608C936F
:104BB0000CC0E758FE4F80818E7F8083BFEF8B1A39
:104BC0009B0AEBE0AE0EB11CAACFC75ADF4F0FB65F
:104BD000F894DEBF0FBECDBFDF91CF911F910F9133
:104BE000FF90EF90DF90CF90BF90AF909F908F900D
:104BF0007F905F904F900895CF92DF92EF92FF9257
:104C00000F931F93CF93DF93CDB7DEB7C955D1096B
:104C10000FB6F894DEBF0FBECDBF6B017C016FE015
:104C2000CE0101960E942445EFE6F1E020E030E05D
:104C300080819181A281B3810097A105B10549F0DE
:104C40003B96C816D906EA06FB0629F02F5F3F4FB0
:104C5000EFCF80E018C08BE0829FF001839FF00DC2
:104C60001124E159FE4FCE0101966C01E080F180E4
:104C70000281138124813581468157816085718548
:104C800082850E94F424C75ADF4F0FB6F894DEBF26
:104C90000FBECDBFDF91CF911F910F91FF90EF908D
:104CA000DF90CF9008952091B5052223C9F020937D
:104CB000AE05FC0122ED30E04191442389F0809162
:104CC0003F0590914005DC01AE59BB4F4C930196D6
:104CD000B9010E94DB6E9093400580933F05ECCFB5
:104CE000089580913F05909140058E529F4F2091ED
:104CF0003D0530913E05821B930B62ED70E00E94F2
:104D0000DB6E08958BEF95E00C94DF5780914105A1
:104D100090914205981771F090E0FC01EC5CFA4F1D
:104D20002081019669E070E00E94EF6E809341055A
:104D3000822F089580E008958091420590E00996C1
:104D400020914105821B910969E070E00E94DB6EB1
:104D50000895CF92DF92EF92FF921092C505809155
:104D6000C60581112FC08091A50581112BC08091AE
:104D70009B02882339F10E94B9676B017C01809105
:104D80009A024FEF50E0481B51098091AA0590917B
:104D9000AB05A091AC05B091AD05C81AD90AEA0AD5
:104DA000FB0A22E330E0DA010E942B6F605E714B58
:104DB0008F4F9F4F6C157D058E059F0518F481E080
:104DC0008093C505FF90EF90DF90CF9008951092EB
:104DD000C6051092A5051092A4051092C805109260
:104DE000C7051092AA051092AB051092AC0510925F
:104DF000AD051092A6051092A7051092A805109275
:104E0000A9051092DB0580912F04909130040E9734
:104E100021F485E090E00C94A20508958F92AF9262
:104E2000BF92CF92EF92FF920F931F930E94E726BB
:104E3000812C74E1A72E75E0B72EC12CE7ECEE2E85
:104E4000E2E0FE2E07E513E024E331E044E650E023
:104E50006AED72E08BEF95E00E94C949F4E0CF2E35
:104E6000A9E7EA2EA5E0FA2E02E32DE841E050E0A2
:104E700060E070E08BEF95E00E94654A2091A3020C
:104E800030E040E050E061E070E08BEF95E00E94A0
:104E9000334B80912E0690912F06892B19F482E0D6
:104EA000809330068091310690913206892B19F457
:104EB00084E18093330669EB7AE18BEF95E00E9401
:104EC00074506CEF75E28BEF95E00E9478508BEF99
:104ED00095E00E944E510E94DE2481E01F910F91C7
:104EE000FF90EF90CF90BF90AF908F9008954F922A
:104EF0005F926F927F928F929F92AF92BF92CF926A
:104F0000DF92EF92FF920F931F93CF93DF93EC0109
:104F10008B015A010E94B9676B017C018091C60523
:104F2000882309F431C18091DB0581112DC1809165
:104F3000AA059091AB05A091AC05B091AD05A70174
:104F40009601281B390B4A0B5B0BDA01C9018E3E17
:104F50009240A105B10518F00E94E72655C1809145
:104F6000F2059091F305A091F405B091F505A70124
:104F70009601281B390B4A0B5B0BDA01C9018E3EE7
:104F80009240A105B10580F54090F6055090F705D7
:104F90006090F8057090F90520E030E0A901C301A8
:104FA000B2010E94F06D18165CF420E030E04AEF88
:104FB00054E4C301B2010E94A16C181694F00AC017
:104FC00020E030E04AEF54ECC301B2010E94F06DE2
:104FD00087FD07C0F801408251826282738211E02E
:104FE00004C081E08093DB0510E08091DC059091A6
:104FF000DD05A091DE05B091DF05A7019601281B14
:10500000390B4A0B5B0BDA01C9018E3E9240A105B8
:10501000B10568F48091E0059091E1059C01255C63
:105020003F4F2737310518F4F50191838083809134
:10503000E2059091E305A091E405B091E505C81A59
:10504000D90AEA0AFB0AFEEECF16F2E0DF06E10417
:10505000F10408F0DAC0C090EA05D090EB05E090CA
:10506000EC05F090ED0520E030E0A901C701B601A4
:105070000E94F06D18165CF420E030E040EC5FE335
:10508000C701B6010E94A16C18165CF479C020E03B
:1050900030E040EC5FEBC701B6010E94F06D87FD88
:1050A0006FC04090EE055090EF056090F005709055
:1050B000F10580900B0190900C01A0900D01B09033
:1050C0000E0120E030E040E951E4C501B4010E9446
:1050D000396E9B01AC01C301B2010E94A16C18168C
:1050E0000CF44EC020E030E040E051E4C501B401D2
:1050F0000E94396E9B01AC01C301B2010E94F06DA8
:1051000087FD3EC060915F04709160048090E80567
:105110009090E9056815790534F5A0905D04B0908C
:105120005E046A197B09882777FD8095982F0E9475
:10513000406D9B01AC01C701B6010E94396E6B0145
:105140007C01B4016A197B09882777FD8095982F27
:105150000E94406D9B01AC01C701B6010E94A56C85
:105160009B01AC0102C0A7019601688179818A8107
:105170009B810E943D6C688379838A839B8345C0B1
:1051800081E08093DB0541C08091D7059091D805DF
:10519000A091D905B091DA05C81AD90AEA0AFB0A22
:1051A00020EDC21627E0D206E104F10468F5C090B4
:1051B000D305D090D405E090D505F090D60520E039
:1051C00030E0A901C701B6010E94F06D18165CF429
:1051D00020E030E04AEF54E4C701B6010E94A16C20
:1051E000181694F00AC020E030E04AEF54ECC701F2
:1051F000B6010E94F06D87FD07C0F801C082D18220
:10520000E282F38211E001C010E0812FDF91CF91A3
:105210001F910F91FF90EF90DF90CF90BF90AF90D4
:105220009F908F907F906F905F904F900895CF9355
:1052300080911C0690911D06181619061CF4C09149
:1052400013060AC0019721E1289FF001299FF00D64
:105250001124E550FA4FC08D8091A302C81731F098
:10526000C093A30288E992E00E94451A8C2FCF9147
:105270000895FF920F931F93CF93DF93C62FF42EC1
:10528000D22F9091FA05891321C080919A02681754
:10529000E8F08091C605481721F08091A5054813D4
:1052A00017C00E94B9670091AA051091AB05209123
:1052B000AC053091AD05601B710B820B930B6E3EFC
:1052C00072408105910520F00E94E72680E05EC0D3
:1052D0008091A4058C1730F0C81313C08091C605C7
:1052E0008F1578F480919A028C1728F48091A50587
:1052F000F81237C006C0C81304C00E9417298F15C2
:10530000A8F30E94B9676093AA057093AB058093D8
:10531000AC059093AD058091C4058D2B8093C40599
:105320000E94B9670091A6051091A7052091A805D4
:105330003091A905601B710B820B930B6131774291
:105340008105910518F28091C4058171813119F0B0
:105350001092A505BBCF8091A5058093C60581E07D
:1053600015C0F092A505C093A4050E94B96760938B
:10537000A6057093A7058093A8059093A9051092A0
:10538000C4051092C8051092C705BBCFDF91CF911D
:105390001F910F91FF900895EF92FF920F931F932B
:1053A000CF93DF93CDB7DEB728970FB6F894DEBF63
:1053B0000FBECDBF7C018E010F5F1F4F9E012B5F83
:1053C0003F4FAE01495F5F4FBE01685F7F4F0E9454
:1053D0009C58882391F121E0F70145816F818885F0
:1053E0000E943929882349F189819A81AB81BC8146
:1053F0008F3FFFEF9F07AF07BF07F9F0BC01CD015B
:105400007459854397470E94406D2FE632E143E887
:105410005AE30E94396E6093F6057093F705809306
:10542000F8059093F9050E94B9676093F2057093AF
:10543000F3058093F4059093F50528960FB6F8943C
:10544000DEBF0FBECDBFDF91CF911F910F91FF90B7
:10545000EF900895CF92DF92EF92FF920F931F93F8
:10546000CF93DF93CDB7DEB727970FB6F894DEBFA3
:105470000FBECDBF6C01CE0101967C018E010B5F8A
:105480001F4F9E012D5F3F4FAE014A5F5F4FBE0130
:10549000695F7F4FC6010E9428598823C1F122E02D
:1054A000F60145816E818F810E943929882379F127
:1054B0009091C605F6018581981323C06B817C818C
:1054C0006F3FFFE77F07E9F0882777FD8095982FEA
:1054D0000E94406D20E030E040E052E40E94396ECE
:1054E0000E940D6D7093E1056093E0050E94B9671D
:1054F0006093DC057093DD058093DE059093DF05F6
:1055000006C08DE99FEF9093E1058093E005279613
:105510000FB6F894DEBF0FBECDBFDF91CF911F91C4
:105520000F91FF90EF90DF90CF900895AF92BF92D0
:10553000CF92DF92EF92FF920F931F93CF93DF935F
:10554000CDB7DEB72A970FB6F894DEBF0FBECDBF3A
:105550005C01CE0101966C01FE0133967F018E0144
:105560000B5F1F4F9E01295F3F4FAE01475F5F4FAB
:10557000BE01665F7F4FC5010E94CC59882309F4A4
:1055800076C028E0F501458169858A850E94392920
:10559000882309F46CC080912F04909130048730E7
:1055A000910514F4019761F5EF81F8853197E730A3
:1055B000F105C8F4E85AFF4F0C94256F87E090E09E
:1055C0001DC08EE090E01AC088E090E017C089E02E
:1055D00090E014C08AE090E011C08DE090E00EC031
:1055E00081E090E00BC08091C7059091C8050097BD
:1055F00039F08F3F910521F085E090E00E94A205EF
:105600006D817E8180E090E00E943E6D2DEC3CEC4F
:105610004CE45DE30E94396E6093CD057093CE0536
:105620008093CF059093D0056B817C817D5788272F
:1056300077FD8095982F0E94406D2DEC3CEC4CE45A
:105640005DE30E94396E6093C9057093CA0580932B
:10565000CB059093CC058F8198859093C805809356
:10566000C70589819A8190939E0280939D022A9614
:105670000FB6F894DEBF0FBECDBFDF91CF911F9163
:105680000F91FF90EF90DF90CF90BF90AF90089573
:10569000EF92FF920F931F93CF93DF93CDB7DEB7B7
:1056A00028970FB6F894DEBF0FBECDBF7C018E01E8
:1056B0000B5F1F4F9E012F5F3F4FAE01495F5F4F52
:1056C000BE01685F7F4F0E94775A882309F447C064
:1056D00020E1F70145816F8188850E94392988235F
:1056E000F1F169817A818B819C810E943E6D2FE668
:1056F00032E143E85AE30E94396E6093EE057093FD
:10570000EF058093F0059093F1052D813E81309354
:10571000E7052093E605209110073091110740918D
:105720001207509113070E943C6C6093EA05709336
:10573000EB058093EC059093ED0580915F049091CB
:1057400060049093E9058093E8050E94B96760932F
:10575000E2057093E3058093E4059093E5052896B0
:105760000FB6F894DEBF0FBECDBFDF91CF911F9172
:105770000F91FF90EF9008958BEF95E00C94886661
:105780008AE08093BD0281E080931607089580919E
:105790009F068534E9F03CF4813471F08234D9F409
:1057A00087E090E011C08F3451F0803559F0863495
:1057B00091F48AE090E008C088E090E005C089E0BC
:1057C00090E002C08CE090E00E94A20581E0089584
:1057D0008DE090E0F9CF80E0089580916401882306
:1057E00011F080E008950E9442420895611571050C
:1057F00081F0DB010D900020E9F7AD014150510926
:10580000461B570BDC01ED91FC910280F381E02DEA
:10581000099480E090E00895EF92FF920F931F9318
:10582000CF93DF937B018A01E90168E073E00E9476
:10583000C970009781F00E94AB70801791072CF01F
:10584000C817D9071CF4CE0101C0C801F701918324
:10585000808381E001C080E0DF91CF911F910F91A3
:10586000FF90EF9008950F931F93CF93DF93EB0179
:10587000042F122F68E073E00E94C970009791F026
:105880000E94AB70602F70E0861797073CF0612F85
:1058900070E0681779071CF4812F01C0802F88837E
:1058A00081E001C080E0DF91CF911F910F910895B9
:1058B0000F931F93CF93DF938B01EA0168E073E0AE
:1058C0000E94C9700097C1F00E94AB7097FD0AC09A
:1058D000DC01C817D9070CF4DE0120E63AEE0E947D
:1058E0002B6F03C060E070E0CB01F801608371832F
:1058F0008283938381E001C080E0DF91CF911F918B
:105900000F9108958F929F92AF92BF92CF92DF92A4
:10591000EF92FF920F931F93CF93DF93EB01490117
:105920005A0168E073E00E94C9706C01009711F1A0
:105930000E94A7709401A5010E94A16C87FD0DC073
:10594000C6010E94A7709701A8010E94F06D181669
:105950003CF0C6010E94A77005C0B401C50102C099
:10596000B701C8016B017C01C882D982EA82FB823F
:1059700081E001C080E0DF91CF911F910F91FF90F6
:10598000EF90DF90CF90BF90AF909F908F90089551
:10599000DF92EF92FF920F931F93CF93DF93CDB7D8
:1059A000DEB7C854D1090FB6F894DEBF0FBECDBF25
:1059B00080919F0699EC980F923008F071C16FECBE
:1059C000D62ED80EBE016F5F7F4F8D2D0E94181806
:1059D000811106C0BE016F5F7F4F8D2D0E942B1974
:1059E0008091640181115CC140919D06552747FD5E
:1059F0005095652F752FFA01E154F109E231F10557
:105A000008F04EC1E15AFF4F0C94256FE12CF12CA8
:105A100000EA11E420E030E0A901BE016F5F7F4F92
:105A200080EA96E00E94822C882309F439C148E577
:105A300052E0BE016B5F7F4F80E090E00E94582CE7
:105A4000882309F42DC128EC30E04FEF5FEFBE0151
:105A5000675F7F4F80E090E00E940C2C28C022E31B
:105A600030E040E050E0BE01655F7F4F80EA96E0A5
:105A70000E940C2C882309F413C148E552E0BE01B2
:105A80006F5E7F4F80E090E00E94582C882309F4DD
:105A900007C1E12CF12C00EA11E420E030E0A9017B
:105AA000BE01635F7F4F80E090E00E94822C8823DC
:105AB00009F4F6C020E030E040E050E0BE01695B50
:105AC0007F4FDDC0E12CF12C00EA11E420E030E052
:105AD000A901BE016B5E7F4F80EA96E00E94822C96
