:100000000C94F5030C941D040C941D040C941D0415
:100010000C941D040C941D040C941D040C94F7689E
:100020000C941E690C9445690C946C690C941D0425
:100030000C941D040C941D040C941D040C941D04BC
:100040000C941D040C9493690C94B2670C94E267B1
:100050000C94846D0C941D040C941D040C941D04CC
:100060000C941D040C941D040C941D040C941D048C
:100070000C941D040C941D040C941D04CA07CA079B
:10008000F30731093109CA07310931093109310949
:10009000F307F307FE073109310931093109310945
:1000A000310931095408540831093109310931093C
:1000B00031093109B408F307C216C216B818C916B7
:1000C000C916C916C916C916C916C9167812AE12AC
:1000D0003B13C916C9169913C916C916C916C916EC
:1000E000B4135B14DE14C916C916C916C916C9168D
:1000F000C916C9161515D816C916C916C916C916AE
:10010000DF15C9167B16D816671D671D881D881D4B
:10011000671D881D881D881D881D671D6C1D731D2A
:10012000881D881D881D881D881D881D881D7A1DB5
:100130007A1D881D881D881D881D7A1D881D811DBA
:10014000671DE52DD32DD92DDC2DE22DDF2DD62DEC
:10015000FC2F023146314631CF30583046314631DE
:100160004631463146314631463146312530AA3096
:1001700046313F31FE39033A083A123A173A1C3AEF
:10018000213A094309430C430C430C430C430C43F1
:100190000C430C430C4309438442BA420C430C43C6
:1001A00084420C430C430C430C43CC42BA42BA4247
:1001B0000C430C430C430C430C430C430C43ED42E7
:1001C000ED420C430C430C430C4309430C43ED42FA
:1001D000BA4208000000BE922449123EABAAAA2AE5
:1001E000BECDCCCC4C3E00000080BEABAAAAAA3E3D
:1001F00000000000BF000000803F00000000000879
:100200004178D3BB4387D1133D190E3CC3BD428215
:10021000AD2B3E68EC8276BED98FE1A93E4C80EFD3
:10022000FFBE01C4FF7F3F00000000004442473B87
:100230002C25642E253033642C202C25642C256439
:100240002C202C25642C202C25642C25642C256442
:100250002C25642C25642C202C25642C25642C2032
:100260002C25632C25732C25732C202C25642C2500
:10027000642C25642C25732C202C25642C25642CBF
:1002800020202C25642C25642C25642C25730D0A34
:10029000009A996141009749010F00000000000099
:1002A000000000000066665641FFFF00000000F6F7
:1002B000FF0000CDCC4C4100000000000000000019
:1002C00000000000000000000000000000A69BC429
:1002D0003CF7FFD3FF2D000000000000000000CD20
:1002E000CC6C4180CBA400050000000000000000A1
:1002F00000000000005841FFFF00000000F6FF0072
:1003000000CDCC4C410000000000000000000000C7
:1003100000000000000000000000008FC2F53CF764
:10032000FFD3FF2D0000000000000000009A996933
:10033000414031F70005000000000000000000000F
:100340000033335341FFFF00000000F6FF0000CDF3
:10035000CC4C4100000000000000000000CDCC7437
:1003600041190080CBA40000008FC2F53CF7FFD3F9
:10037000FF2D00000000000000000033336B4140FF
:1003800031F70003000000000000000000000066DC
:10039000665641FFFF00000000F6FF0000CDCC4C88
:1003A000410000000000000000000000000000000C
:1003B00000000000000000A69BC43CF7FFD3FF2D07
:1003C0000000000000000000009A99614100974978
:1003D00001050000000000000000000000000058BF
:1003E00041FFFF00000000F6FF0000CDCC4C4100B3
:1003F00000000000000000000000000000000000FD
:1004000000000000008FC2F53CF7FFD3FF2D000075
:100410000000000000000066666641009749010781
:10042000000000000000000000000066665641FF6A
:10043000FF00000000ECFF00000000404100000051
:100440000000000000000066666641000080CBA44A
:10045000000300A69BC43CECFFECFF320000000050
:10046000000000000066666641009749010F000F1A
:1004700000CDCC744180CBA4009A995141FFFF007C
:10048000000000F6FF0000CDCC4C41000000000051
:100490000000000000CDCC7441190080CBA4000006
:1004A000008FC2F53CF7FFD3FF2D000000000000D5
:1004B000000000CDCC5C4180EE36000F0000000053
:1004C000000000000000008FC25541000000000045
:1004D000000000CEFF66664E4100000000000000F4
:1004E000000000000000000000000000000000000C
:1004F00000000000000000280000000000000000D4
:1005000000000000006410B71DC8206E3BAC30D95D
:10051000269041DC76F4516B6B5861B24D3C71050D
:10052000502083B8ED44930FF0E8A3D6D68CB36186
:10053000CBB0C2649BD4D2D38678E20AA01CF2BDB1
:10054000BD2A2A2A2A005353543B2C25732C202CD5
:100550002531752C2531752C202C25642C25732CE8
:1005600025732C202C25642C25642C202C25642C10
:1005700025642C202C2531750D0A005343563B2C45
:100580002531752C2C2531752C25732C25732C25A4
:1005900031752C202C25642C25732C25732C257368
:1005A0002C25642C202C25642C25642C202C2564DF
:1005B0002C25732C25642C202C25642C25642C25BB
:1005C000642C25750D0A004E50433B2C2531752CAB
:1005D00025732C25730D0A004353543B2C25642CA2
:1005E00025642C25642C25642C20202C2531752C89
:1005F0002531752C20202C2531752C2531752C2585
:1006000031752C202C25642C2531752C2531752C29
:1006100020202C25642C202C25640D0A00435045F5
:100620003B2C25642C25732C25642C25642C2564F7
:100630002C202C25642C25642C25732C25642C203F
:100640002C25732C25642C25642C25642C25642CE6
:1006500025732C202C25642C25732C25642C202C10
:1006600025732C25642C25642C25642C202C2573C3
:100670002C25642C25642C25640D0A004153543B21
:100680002C25642E253032642C202C25732C2573C8
:100690002C25732C25642C202C25732C25642C25CB
:1006A000642C25642C202C25642C25642C202C25DE
:1006B000642C202C25732C25642C25642C25640D9A
:1006C0000A00000002000A002A00AA00AA02AA0AE0
:1006D000AA2AAAAA464C543B2C25642C25640D0A50
:1006E00000CF038303830314F0010016F00100120E
:1006F000F201000000000010F0010000F2010014FF
:10070000F2010019F201000000000000ED010000FC
:1007100000000000E8000000EA000000EE00000019
:10072000000000120C370E0C37080C37060C370689
:10073000041302041302030508090A0607040B0C3C
:100740000E0F100001040000000000000000000077
:100750000003000000000000000000100802040870
:100760000102800810800101020420400410204092
:100770002040800404030303020204020203040372
:100780000404040402030303020202000000002325
:10079000002600290000000000250028002B000092
:1007A000000000240027002A004E414E494E4954C3
:1007B00059494E46CDCCCC3D0AD7233C17B7D1384A
:1007C00077CC2B329595E6241FB14F0A00002041CB
:1007D0000000C84200401C4620BCBE4CCA1B0E5A3A
:1007E000AEC59D74B12EF767E66D11241FBECFEF25
:1007F000D0E1DEBFCDBF14E0A0E0B1E0EEECFFEE53
:1008000002C005900D92A033B107D9F72AE0A0E30A
:10081000B4E001C01D92A935B207E1F717E0CAEEB6
:10082000D7E004C02297FE010E945371C43ED10755
:10083000C9F70E94546E0C94E5770C9400000F9356
:100840001F938091580490915904019690935904F4
:10085000809358048436910524F10E94E96900913F
:100860005404109155042091560430915704601B94
:10087000710B820B930B6093BE047093BF04809343
:10088000C0049093C1040E94E9696093540470937A
:100890005504809356049093570410925904109273
:1008A000580481E08093BD041F910F9108958F92A9
:1008B0009F92AF92BF92CF92DF92EF92FF920E94EF
:1008C000DD696B017C0180913D0690913E06A0910F
:1008D0003F06B0914006A7019601281B390B4A0B31
:1008E0005B0BDA01C901893E9340A105B10548F4CB
:1008F00080914106909142069093BC048093BB0482
:10090000A0C08091500490915104A0915204B091E4
:100910005304A7019601281B390B4A0B5B0BDA0124
:10092000C901893E9340A105B10568F01092BC044D
:100930001092BB04C0925004D0925104E092520431
:10094000F09253047EC08091BE049091BF04A091A8
:10095000C004B091C104892B8A2B8B2B09F471C080
:100960002091BE043091BF044091C0045091C10455
:1009700060E077E883E993E00E942F71A4E6B0E09D
:100980000E945E710E946A6F4B015C016091AA0235
:1009900070E080E090E00E946C6F2091AB0230919B
:1009A000AC024091AD025091AE020E94657020E011
:1009B00030E040E05FE30E9465709B01AC01C5013F
:1009C000B4010E94D16E0E94396F1092BE04109241
:1009D000BF041092C0041092C104C0925004D0927F
:1009E0005104E0925204F0925304161617064CF587
:1009F0007093BC046093BB048091B1029091B202E9
:100A0000019691F48091E1049091E2042091DF0439
:100A10003091E004821793071CF02F3F3F4F21F4E1
:100A20009093E0048093DF048091DF049091E004D0
:100A30008C34910534F08BE490E09093E004809343
:100A4000DF04FF90EF90DF90CF90BF90AF909F902A
:100A50008F900895CF92DF92EF92FF92CF93DF9322
:100A6000209108013091090140910A0150910B0138
:100A70000E9465706093B0047093B1048093B204D7
:100A80009093B30480918F02909190026091B8048A
:100A90007091B9048C399F4F21F08091BF0780FF7E
:100AA00009C0C0909E02D0909F02E090A002F090FA
:100AB000A10215C08091AB04882349F0C0909A022E
:100AC000D0909B02E0909C02F0909D0208C0C090E4
:100AD0009602D0909702E0909802F09099028827B1
:100AE00077FD8095982F0E946C6F9B01AC01C70128
:100AF000B6010E9465706093AC047093AD0480935E
:100B0000AE049093AF0420E030E04EE753E4C70119
:100B1000B6010E9465700E94396F70931D01609349
:100B20001C01E090DF04F090E004C090BB04D09082
:100B3000BC041E141F042CF5C114D10411F58091BE
:100B4000A2029091A3020196E1F4C0911C01D09100
:100B50001D01BE01882777FD8095982F0E946C6F3C
:100B60002DEC3CEC41E353E40E94CD6E87FD03C0C5
:100B700091EB80E002C09C2F8D2F90931C018093FD
:100B80001D01C114D10489F16091A2027091A302E8
:100B90001616170654F58091A4029091A502C81A62
:100BA000D90AC601880F991F8C0D9D1D0E941B71CB
:100BB000643C8FEF78076CF080911C0190911D01CF
:100BC0009B01255C3F4F2817390734F4645C7F4F45
:100BD00004C060E070E001C0BC016E157F050CF43C
:100BE000B70170931D0160931C0120E030E0A90162
:100BF0006091AC047091AD048091AE049091AF040B
:100C00000E94CD6EC091BD07D091BE07882319F018
:100C1000CC30D10561F480E090E0AAE7B4E48093A1
:100C2000AC049093AD04A093AE04B093AF04CC3069
:100C3000D10531F48EEF90E090931D0180931C015B
:100C40008091A8029091A9028F3F2FEF9207C9F4DB
:100C50002091AC043091AD044091AE045091AF04AA
:100C60006091B0047091B1048091B2049091B3048A
:100C70000E9465700E94396F7093B5046093B4044C
:100C800004C09093B5048093B4048091B40490910F
:100C9000B504892B11F02C9731F488E99AE39093ED
:100CA000B5048093B40480911C0190911D01909330
:100CB000DE048093DD04DF91CF91FF90EF90DF9011
:100CC000CF900895CF92DF92EF92FF927C018091B6
:100CD000BD079091BE078E159F0509F458C00B976C
:100CE00071F08BE0E816F10451F40E94DD69609325
:100CF000CE047093CF048093D0049093D104F092EB
:100D0000BE07E092BD070E94DD696093D204709334
:100D1000D3048093D4049093D5041092EA04C09035
:100D2000B207D090B307E090B407F090B50720E089
:100D300030E0A901C701B6010E941C7018165CF4CE
:100D400020E030E040EA50E4C701B6010E94CD6ED9
:100D500087FF0DC00AC020E030E040EA50ECC70138
:100D6000B6010E941C70181614F41092A907809105
:100D7000840790918507A0918607B091870780939B
:100D8000C2049093C304A093C404B093C504FF901D
:100D9000EF90DF90CF900895CF93DF93EC010E9406
:100DA000DD696093D6047093D7048093D804909340
:100DB000D904D093E204C093E1048091BD079091DF
:100DC000BE07039720F41092E2041092E104BE01E2
:100DD00082E0DF91CF910C94C66A61E082E00E94CC
:100DE000406BE1E8F0E08081887F8460808343E0AD
:100DF00050E06FE174E083E00E94B96880E090E029
:100E00000E94CC0680E090E00E94620681E0089596
:100E1000CF92DF92EF92FF92CF93DF93C091B8040D
:100E2000D091B9041C161D0624F58091A9078823CA
:100E300001F120E030E048EC52E46091B20770919B
:100E4000B3078091B4079091B5070E9465706B015C
:100E50007C01BE01882777FD8095982F0E946C6FDA
:100E60009B01AC01C701B6010E94D16E0E943E6F8A
:100E700038C0E090DF04F090E004F7FE02C0E12CFF
:100E8000F12C6091DD047091DE048091DB0490917F
:100E9000DC0497FF02C0680F791F882777FD8095D3
:100EA000982F0E946C6F2091180130911901409188
:100EB0001A0150911B010E9465702091E10430914C
:100EC000E2042E193F0944E6429F7001439FF00C53
:100ED00011240E94396FAB01BC01C701BA010E9405
:100EE0001B71862F653608F084E6DF91CF91FF9065
:100EF000EF90DF90CF9008954F925F926F927F9224
:100F00008F929F92AF92BF92CF92DF92EF92FF9219
:100F10000F931F93CF93DF9380915B04883060F031
:100F200082E090E09093BE078093BD0781E290E05D
:100F30009093C1078093C00780918B0290918C029F
:100F40008D392FEF9207C9F02091BD073091BE0770
:100F50002732310591F02091A0043091A10482172D
:100F600093073CF420919E0430919F042817390781
:100F700024F08EE190E00E946206E091BD07F091BE
:100F8000BE073A97EE31F10508F06BC1E25CFF4F06
:100F90000C94517100915C0410915D04D0915E0439
:100FA000C0915F04C0907004D0907104E09072040E
:100FB000F090730420E030E0A901B601C7010E945F
:100FC000CD6E882361F098014D2F5C2FB601C701CB
:100FD0000E94CD6E87FF03C08601DE2DCF2DB801A4
:100FE0008D2F9C2F08C060915C0470915D048091EE
:100FF0005E0490915F040E942A0540C160916804DC
:101000007091690480916A0490916B040E942A0592
:101010000091AC041091AD04D091AE04C091AF0426
:101020006091660470916704882777FD8095982FFA
:101030000E946C6F20910C0130910D0140910E01C6
:1010400050910F010E9465706B01F82EE92E9B01F3
:10105000482F592FB8018D2F9C2F0E94CD6E87FFEE
:1010600002C07E0101C08601A8016F2D7E2D409334
:10107000AC045093AD046093AE047093AF04C09180
:10108000B404D091B5042091080130910901409138
:101090000A0150910B01609168047091690480917C
:1010A0006A0490916B04B9C06091700470917104EE
:1010B00080917204909173040E942A0560917404D7
:1010C000709175046F3F8FEF780709F4D7C0809156
:1010D000A907882309F4D2C00091AC041091AD0493
:1010E000D091AE04C091AF04882777FD8095982FEA
:1010F0000E946C6F20910C0130910D0140910E0106
:1011000050910F010E9465706B01F82EE92E9B0132
:10111000482F592FB8018D2F9C2F0E94CD6E87FF2D
:1011200002C07E0101C08601A8016F2D7E2D409373
:10113000AC045093AD046093AE047093AF04C091BF
:10114000B404D091B5042091080130910901409177
:101150000A0150910B0160917004709171048091AB
:1011600072049091730459C060918C0470918D0445
:1011700080918E0490918F040E942A0560919004C2
:10118000709191046115710509F478C00091AC0467
:101190001091AD04D091AE04C091AF04882777FDC3
:1011A0008095982F0E946C6F20910C0130910D0159
:1011B00040910E0150910F010E9465706B01F82E55
:1011C000E92E9B01482F592FB8018D2F9C2F0E948B
:1011D000CD6E87FF02C07E0101C08601A8016F2D80
:1011E0007E2D4093AC045093AD046093AE04709395
:1011F000AF04C091B404D091B5042091080130919E
:10120000090140910A0150910B0160918C04709189
:101210008D0480918E0490918F040E9465709801D6
:101220004F2D5E2D0E9465706B017C01BE018827E9
:1012300077FD8095982F0E946C6FA70196010E9400
:10124000CD6E87FD07C0C701B6010E94396F262FFA
:10125000872F02C02C2F8D2F2093B4048093B504C8
:101260000DC01092B0041092B1041092B20410920A
:10127000B3041092B5041092B40428C280915406AD
:10128000882309F40FC18091690681110BC18091F7
:10129000550690915606009709F404C18F3F9105B9
:1012A00009F400C1209108013091090140910A011F
:1012B00050910B0160915B0670915C0680915D0618
:1012C00090915E060E94D16E0E942A050E94DD69FF
:1012D00000914E0610914F06209150063091510614
:1012E000601B710B820B930B6D347D418105910561
:1012F00008F425C1C0908406D0908506E09086064B
:10130000F090870640905706509058066090590616
:1013100070905A06A3019201C701B6010E941C7089
:1013200018160CF087C08091A907882309F453C0D0
:101330000E94DD6900914A0610914B0620914C06EF
:1013400030914D06601B710B820B930B6D347D4108
:1013500081059105C8F020915706309158064091BB
:10136000590650915A0660918406709185068091C5
:101370008606909187060E94686E20E030E040E08B
:101380005FE30E94657012C02091570630915806A5
:101390004091590650915A066091840670918506D5
:1013A00080918606909187060E94686E9B01AC0131
:1013B0006091B2077091B3078091B4079091B5071F
:1013C0000E94686E6093AC047093AD048093AE0489
:1013D0009093AF042FC060911C0170911D0180910A
:1013E000E1049091E204681779072CF4882777FDCF
:1013F0008095982F05C0BC01882777FD8095982F90
:101400000E946C6F4B015C01A3019201C701B60100
:101410000E94686EA70196010E94D16E9B01AC01EB
:10142000C501B4010E9465700E94396F70931D015F
:1014300060931C018090840690908506A09086069B
:10144000B0908706C0905706D0905806E090590695
:10145000F0905A06A7019601C501B4010E94CD6E15
:1014600087FF6DC08091A907882309F468C0A50192
:101470009401C701B6010E94686E9B01AC016091A6
:10148000B2077091B3078091B4079091B5070E949D
:10149000696E6093AC047093AD048093AE04909336
:1014A000AF044DC0C090B004D090B104E090B2043D
:1014B000F090B30420E030E0A901C701B6010E941A
:1014C000CD6E8823E1F120918B0230918C022D3971
:1014D0008FEF3807A1F180919C0490919D048217B1
:1014E00093070CF4C90169E170E0681B790B882748
:1014F00077FD8095982F0E946C6F20919804309111
:10150000990440919A0450919B040E946570209127
:1015100008013091090140910A0150910B010E948C
:1015200065709B01AC01C701B6010E94696E6093B2
:10153000B0047093B1048093B2049093B3040E94FA
:10154000DD690091460610914706209148063091CA
:101550004906601B710B820B930B6D347D41810535
:10156000910588F48091E1049091E20420911C019E
:1015700030911D010297281739070CF4C901909387
:101580001D0180931C010E94DD6900914A061091A3
:101590004B0620914C0630914D06601B710B820B5F
:1015A000930B6D347D418105910508F062C0C091B7
:1015B0004406D0914506209709F45BC02091B00401
:1015C0003091B1044091B2045091B3046091AE07E0
:1015D0007091AF078091B0079091B1070E94686E3B
:1015E0006B017C012AE037ED43EA5CEB6091080176
:1015F0007091090180910A0190910B010E94657020
:101600009B01AC01C701B6010E941C7087FD31C06F
:101610000E940807682F70E080E090E00E946C6FE5
:101620006B017C01BE01882777FD8095982F0E9471
:101630006C6F26E636E646E85FE30E9465709B0124
:10164000AC01C701B6010E941C7018160CF047C00F
:101650008091E1049091E20420911C0130911D01E0
:101660000597281739070CF4C90190931D01809341
:101670001C0180911C0190911D0197FF04C01092E4
:101680001D0110921C018091BA04882381F02091E1
:101690001C0130911D018091DF049091E0048217BC
:1016A00093070CF4C90190931D0180931C0120E065
:1016B00030E0A9016091AC047091AD048091AE045A
:1016C0009091AF040E94CD6E87FF0EC01092AC04C3
:1016D0001092AD041092AE041092AF0405C01092A7
:1016E000450610924406C5CFDF91CF911F910F910F
:1016F000FF90EF90DF90CF90BF90AF909F908F9032
:101700007F906F905F904F9008952F923F924F92ED
:101710005F926F927F928F929F92AF92BF92CF9281
:10172000DF92EF92FF920F931F93CF93DF93CDB78A
:10173000DEB7C850D1400FB6F894DEBF0FBECDBFA4
:101740008091A50781110C94B8182091B0043091B4
:10175000B1044091B2045091B3046091AE0770910E
:10176000AF078091B0079091B1070E94686ECC528C
:10177000DF4F688379838A839B83C45DD0408090E8
:10178000B2079090B307A090B407B090B50700914E
:10179000AC041091AD042091AE043091AF04C65357
:1017A000DF4F088319832A833B83CA5CD0400091B2
:1017B000A7071091A8072090B4043090B504209199
:1017C00018013091190140911A0150911B01C25327
:1017D000DF4F288339834A835B83CE5CD0404091BE
:1017E0008F0250919002CC50DF4F59834883C45FE1
:1017F000D04050918D02CF5FDE4F5883C150D14011
:1018000080918E02CE5FDE4F8883C250D14090918E
:101810009502CA50DF4F9883C65FD04020910801DF
:101820003091090140910A0150910B01C950DF4FDD
:10183000288339834A835B83C75FD0400E94DD6978
:101840002B013C01C0900801D0900901E0900A01F1
:10185000F0900B012AE037ED43E25DE3C701B601EA
:101860000E9465709B01AC01CC52DF4F6881798189
:101870008A819B81C45DD0400E941C7018160CF0B8
:101880008FC080914F04811119C06091E104709163
:10189000E204882777FD8095982F0E946C6F23E3E0
:1018A00033E343E75FE30E9465700E94396F7093F2
:1018B000E2046093E10481E080934F042AE037ED75
:1018C00043EA5DE3C701B6010E9465709B01AC016C
:1018D000CC52DF4F688179818A819B81C45DD04081
:1018E0000E941C701816ECF480914E04811119C0EE
:1018F0006091E1047091E204882777FD8095982F2C
:101900000E946C6F2AE73DE045E65FE30E94657048
:101910000E94396F7093E2046093E10481E0809348
:101920004E042DEC3CEC4CEC5DE3C701B6010E948B
:1019300065709B01AC01CC52DF4F688179818A814F
:101940009B81C45DD0400E941C70181674F460E046
:1019500070E082E00E94C66A0E94BE3B10924F0473
:1019600010924E0481E080934D048091BA04882344
:1019700081F02091E1043091E2048091DF049091A4
:10198000E004821793070CF4C9019093E20480935A
:10199000E1048091E1049091E2040E94CC0606C02B
:1019A00010924F0410924E0410924D048091D60470
:1019B0009091D704A091D804B091D904A3019201C9
:1019C000281B390B4A0B5B0B2536310541055105A8
:1019D00010F40C94B818C653DF4F288139814A811E
:1019E0005B81CA5CD040C501B4010E94686ECA51D7
:1019F000DF4F688379838A839B83C65ED040B801BA
:101A0000882777FD8095982F0E946C6F6B017C0171
:101A1000B101882777FD8095982F0E946C6FC25383
:101A2000DF4F288139814A815B81CE5CD0400E94A2
:101A300065709B01AC01C701B6010E94686EC6517A
:101A4000DF4F688379838A839B83CA5ED04080910D
:101A5000AE079091AF07A091B007B091B107C852FF
:101A6000DF4F88839983AA83BB83C85DD0402091D0
:101A7000490430914A0440914B0450914C04BC01FC
:101A8000CD010E94686EC051DF4F688379838A83DD
:101A90009B83C05FD040C852DF4F088119812A81E3
:101AA0003B81C85DD0400093490410934A042093C1
:101AB0004B0430934C048090B2079090B307A090F1
:101AC000B407B090B5072091450430914604409189
:101AD000470450914804C501B4010E94686E6B012F
:101AE0007C018092450490924604A0924704B092F3
:101AF00048040091A7071091A80780914304909192
:101B00004404B801681B790B882777FD8095982FCE
:101B10000E946C6FC550DF4F688379838A839B83F3
:101B2000CB5FD040109344040093430400918F0294
:101B300010919002C653DF4F19830883CA5CD040CE
:101B400000918D0210918E02C452DF4F19830883D9
:101B5000CC5DD0400091410410914204C150DF4F50
:101B600019830883CF5FD04020910801309109018B
:101B700040910A0150910B01C253DF4F28833983F2
:101B80004A835B83CE5CD04020E030E040E251E409
:101B9000CC52DF4F688179818A819B81C45DD040BE
:101BA0000E946570C253DF4F288139814A815B8171
:101BB000CE5CD0400E94D16E20913D0430913E0415
:101BC00040913F04509140040E94696E162FB72E39
:101BD000A82E992E2AE939E949E95EE3CA51DF4F77
:101BE000688179818A819B81C65ED0400E94657040
:101BF0002091390430913A0440913B0450913C04C7
:101C00000E94696E862E072F382E292E20E030E0A4
:101C1000A901C651DF4F688179818A819B81CA5EA3
:101C2000D0400E946570C253DF4F288139814A81BC
:101C30005B81CE5CD0400E94D16E20913504309102
:101C4000360440913704509138040E94696ECE5199
:101C5000DF4F6883C25ED040CD51DF4F7883C35ED3
:101C6000D040CC51DF4F8883C45ED040C251DF4F9B
:101C70009883CE5ED04020E030E0A901612F7B2D1B
:101C80008A2D992D0E94CD6E87FD19C026E636E675
:101C900046E65FE3612F7B2D8A2D992D0E941C70F3
:101CA0001816B4F416E6CE52DF4F1883C25DD0404A
:101CB00066E6B62E76E6A72EEFE39E2E0EC0CE5237
:101CC000DF4F1882C25DD040B12CA12C912C05C0F1
:101CD000CE52DF4F1883C25DD040CE52DF4F888195
:101CE000C25DD0409B2DAA2DB92D80933D049093C9
:101CF0003E04A0933F04B093400420E030E0A901EB
:101D0000682D702F832D922D0E94CD6E87FD24C0EB
:101D100026E636E646E65FE3682D702F832D922D8A
:101D20000E941C7018166CF506E6C252DF4F08833D
:101D3000CE5DD04016E6C152DF4F1883CF5DD04054
:101D4000C052DF4F0883C05ED0401FE3CF51DF4F4A
:101D50001883C15ED04029C0C252DF4F1882CE5DC9
:101D6000D040C152DF4F1882CF5DD040C052DF4F0C
:101D70001882C05ED040CF51DF4F1882C15ED04084
:101D800014C0C252DF4F8882CE5DD040C152DF4FB7
:101D90000883CF5DD040C052DF4F3882C05ED04054
:101DA000CF51DF4F2882C15ED040C252DF4F8881C1
:101DB000CE5DD040C152DF4F9881CF5DD040C05240
:101DC000DF4FA881C05ED040CF51DF4FB881C15EE8
:101DD000D0408093390490933A04A0933B04B0938D
:101DE0003C0420E030E0A901CE51DF4F6881C25EA3
:101DF000D040CD51DF4F7881C35ED040CC51DF4F12
:101E00008881C45ED040C251DF4F9881CE5ED04001
:101E10000E94CD6E87FD23C026E636E646E65FE3E8
:101E2000CE51DF4F6881C25ED040CD51DF4F788107
:101E3000C35ED040CC51DF4F8881C45ED040C251D8
:101E4000DF4F9881CE5ED0400E941C70181664F45B
:101E500046E6242E56E6352E06E61FE319C0212C51
:101E6000312C00E010E014C0CE51DF4F2880C25E5C
:101E7000D040CD51DF4F3880C35ED040CC51DF4FD2
:101E80000881C45ED040C251DF4F1881CE5ED04081
:101E9000C101D8018093350490933604A093370490
:101EA000B093380420E030E040EA51ECCC52DF4FF0
:101EB000688179818A819B81C45DD0400E94657070
:101EC000C253DF4F288139814A815B81CE5CD0408B
:101ED0000E94D16ECE52DF4F2881C25DD0403B2D93
:101EE0004A2D592D0E94686E4B015C0120E030E0C4
:101EF00048E452E4C051DF4F688179818A819B8137
:101F0000C05FD0400E946570C253DF4F2881398185
:101F10004A815B81CE5CD0400E94D16E9B01AC01B6
:101F2000C501B4010E94686E0E94396FCE51DF4F27
:101F30006883C25ED040CD51DF4F7883C35ED0400E
:101F4000CC51DF4F79836883C45ED0402AE939E9F8
:101F500049E15FEBCA51DF4F688179818A819B81BA
:101F6000C65ED0400E946570C252DF4F2881CE5DB0
:101F7000D040C152DF4F3881CF5DD040C052DF4FDB
:101F80004881C05ED040CF51DF4F5881C15ED04004
:101F90000E94686E4B015C0123E333E343E35FE39C
:101FA000C701B6010E9465709B01AC01C501B40177
:101FB0000E94686E0E94396FC252DF4F6883CE5D07
:101FC000D040C152DF4F7883CF5DD040C251DF4F48
:101FD00079836883CE5ED0402DEC3CEC4CE45DEB25
:101FE000C651DF4F688179818A819B81CA5ED0406A
:101FF0000E946570C253DF4F288139814A815B811D
:10200000CE5CD0400E94D16E9101A8010E94686E02
:102010006B017C012AE037ED43EA5CE3C550DF4FFA
:10202000688179818A819B81CB5FD0400E946570F5
:10203000C253DF4F288139814A815B81CE5CD04019
:102040000E94D16E9B01AC01C701B6010E94686E6F
:102050000E94396FC052DF4F6883C05ED040CF51BD
:10206000DF4F7883C15ED040C051DF4F79836883F2
:10207000C05FD04080913304909134041816190643
:1020800024F01092340410923304CF5FDE4F888125
:10209000C150D140CE5FDE4F9881C250D140CC506C
:1020A000DF4F08811981C45FD040801791070CF47D
:1020B000C8018C01CA50DF4F2881C65FD040021B87
:1020C0001109CE52DF4F19830883C25DD040809141
:1020D0000601815018161CF48093060140C0C452BA
:1020E000DF4F28813981CC5DD040C653DF4F088156
:1020F0001981CA5CD040201731070CF4980184E69E
:10210000809306013093420420934104C150DF4F75
:1021100008811981CF5FD040201B310B253131055B
:1021200014F024E130E037FF02C020E030E046EF59
:102130004203C001439F900D1124CE52DF4F08810E
:102140001981C25DD040801B910B880F991F90931D
:102150003404809333049093DC048093DB04CE52E8
:10216000DF4F08811981C25DD04010161106B4F509
:102170008091DA04811134C023E333E343E75FE362
:10218000609118017091190180911A0190911B01C1
:102190000E946570162FF72EE82ED92E2AE939E90C
:1021A00049E15FE30E941C7018162CF01AE949E916
:1021B00039E12FE303C04F2D3E2D2D2D812F942F7C
:1021C000A32FB22F8093180190931901A0931A01A5
:1021D000B0931B0181E08093DA0402C01092DA040C
:1021E000C653DF4F08811981CA5CD0400E391F4F9A
:1021F00034F482E090E09093340480933304C65327
:10220000DF4F08811981CA5CD040C452DF4F28815A
:102210003981CC5DD0402017310734F0C452DF4FF4
:1022200008811981CC5DD040B801882777FD809561
:10223000982F0E946C6F6B017C016091950270E099
:1022400080E090E00E946C6F4B015C012AE037ED6A
:1022500043E85FE30E9465709B01AC01C701B601D2
:102260000E941C701816ECF480913204811119C080
:1022700081E0809332046091E1047091E204882748
:1022800077FD8095982F0E946C6F20E030E040E051
:102290005FE30E9465700E94396F7093E20460935F
:1022A000E104C653DF4F08811981CA5CD040C45293
:1022B000DF4F28813981CC5DD0402017310734F0C1
:1022C000C452DF4F08811981CC5DD040B801882706
:1022D00077FD8095982F0E946C6F6B017C0126E63C
:1022E00036E646E65FE3C501B4010E9465709B01D6
:1022F000AC01C701B6010E94CD6E87FD1092320479
:1023000080913304909134048330910514F082E07D
:1023100090E0CC51DF4F08811981C45ED04008178E
:10232000190754F4CE51DF4F8881C25ED040CD51A1
:10233000DF4F9881C35ED040C251DF4F08811981C1
:10234000CE5ED0400817190754F4C252DF4F88817F
:10235000CE5DD040C152DF4F9881CF5DD0401C018F
:10236000C051DF4F08811981C05FD040081719079D
:102370005CF4C052DF4F8881C05ED040CF51DF4F48
:102380009881C15ED0401C01C090AA07D090AB07D5
:10239000E090AC07F090AD078090CA049090CB0419
:1023A000A090CC04B090CD04A5019401C701B60162
:1023B0000E941C7087FD09C0C092CA04D092CB0451
:1023C000E092CC04F092CD0423C020E030E0A901DB
:1023D000C701B6010E941C701816D4F420E030E842
:1023E0004FEF53E4C501B4010E946570A701960147
:1023F0000E94696E20E030E040E05BE30E9465707F
:102400006093CA047093CB048093CC049093CD0462
:102410008090C6049090C704A090C804B090C904EE
:10242000A5019401C852DF4F688179818A819B811F
:10243000C85DD0400E941C7087FD11C0C852DF4F9C
:10244000288139814A815B81C85DD0402093C604D0
:102450003093C7044093C8045093C90420C020E0BF
:1024600030E845E953E4C501B4010E946570C852E3
:10247000DF4F288139814A815B81C85DD0400E944D
:10248000696E20E030E046E953E40E94D16E60932B
:10249000C6047093C7048093C8049093C9042AE0CB
:1024A00037ED43EA5CEBC950DF4F688179818A815F
:1024B0009B81C75FD0400E9465709B01AC0111E019
:1024C000CC52DF4F688179818A819B81C45DD04085
:1024D0000E941C7087FD10E0E091BD07F091BE07DF
:1024E000E832F10508F055C4E45AFF4F0C945171DD
:1024F0008091BA04882361F08091B1029091B20278
:10250000181619062CF49093E2048093E10404C099
:102510001092E2041092E1044091E6025091E70229
:102520008091D2049091D304A091D404B091D504A9
:1025300073016201C81AD90AEA0AFB0A28EE33E0DD
:10254000DA010E9457716C157D058E059F0508F014
:102550002DC48BE090E00E94620628C4C092CA0499
:10256000D092CB04E092CC04F092CD04C852DF4F5D
:1025700088819981AA81BB81C85DD0408093C604BF
:102580009093C704A093C804B093C9040E94743FF9
:10259000E090A602F090A7029FEFE916F90629F055
:1025A000F092B904E092B80404C01092B9041092F9
:1025B000B8041092B7041092B6042091E10430914F
:1025C000E20480911C0190911D0128173907ACF598
:1025D000111133C020E030E0A901CA51DF4F6881FA
:1025E00079818A819B81C65ED0400E941C7087FFE2
:1025F00024C020E030E0A901C651DF4F6881798115
:102600008A819B81CA5ED0400E941C7087FF15C0E2
:102610008091D2049091D304A091D404B091D504B8
:1026200093018201081B190B2A0B3B0BD901C8012E
:102630008037964CA105B10538F0EF20E09409F4FD
:1026400037C18FE090E08DC08091D6049091D7047F
:10265000A091D804B091D90493018201081B190BF1
:102660002A0B3B0BD901C80181399140A105B10565
:1026700008F47EC59DC38091A6029091A7020196A1
:1026800041F58091E1049091E2048E3F910509F1BA
:1026900011111FC08091BB049091BC04892BC9F01B
:1026A0008091A9078823A9F08091D2049091D30446
:1026B000A091D404B091D50493018201081B190B99
:1026C0002A0B3B0BD901C80180319742A105B10506
:1026D00020F08FE090E00E946206C090B207D09098
:1026E000B307E090B407F090B5076091B80470911B
:1026F000B904882777FD8095982F0E946C6F9B0105
:10270000AC01C701B6010E941C7018160CF050C332
:10271000C701B6010E94396F7093B9046093B80481
:102720008091BB049091BC049093B7048093B6044D
:102730003FC38091D2049091D304A091D404B0916E
:10274000D504A3019201281B390B4A0B5B0BDA015C
:10275000C9018C349D41A105B10508F429C384E168
:1027600090E00E94620624C31123F1F08091D2040C
:102770009091D304A091D404B091D504A301920107
:10278000281B390B4A0B5B0BA5E0B0E00E945E7181
:1027900060931401709315018093160190931701B3
:1027A00085E190E00E9462068091AA079091AB07B4
:1027B000A091AC07B091AD078093CA049093CB046D
:1027C000A093CC04B093CD048091CE049091CF041B
:1027D000A091D004B091D10493018201081B190B80
:1027E0002A0B3B0BD901C8018137964CA105B105D5
:1027F000B0F48091D6049091D704A091D804B09100
:10280000D904A3019201281B390B4A0B5B0BDA0197
:10281000C90181399140A105B10508F4A9C480918D
:10282000A6029091A702019609F0C2C28091D2043B
:102830009091D304A091D404B091D5049301820166
:10284000081B190B2A0B3B0BD901C8018133954793
:10285000A105B10508F4ACC28091B6049091B7040B
:1028600086509F4F2091BB043091BC048217930780
:10287000FCF06091B8047091B904882777FD8095C9
:10288000982F0E946C6F26E636E646E85FE30E94CA
:1028900065709B01AC016091B2077091B3078091A4
:1028A000B4079091B5070E941C7018160CF080C2F6
:1028B0008CE090E056CF8090600490906104A090EE
:1028C0006204B090630481149104A104B104A1F0E6
:1028D0008091D2049091D304A091D404B091D504F6
:1028E000A3019201281B390B4A0B5B0B28153905F4
:1028F0004A055B0508F058C0E0906404F090650458
:102900003FEFE316F306E1F48091D2049091D304F3
:10291000A091D404B091D504B301A201481B590B76
:102920006A0B7B0B8091140190911501A091160107
:10293000B0911701481759076A077B07A8F538C2F5
:102940001E141F044CF58091A907811104C08091C9
:10295000AA04882309F11123F9F0B701882777FD2C
:102960008095982F0E946C6F20910C0130910D0181
:1029700040910E0150910F010E9465709B01AC01C6
:102980006091CA047091CB048091CC049091CD04E5
:102990000E94CD6E181644F489288A288B2809F0E5
:1029A00007C2EF2809F004C2809166049091670481
:1029B000892B09F4E4C186E190E0D3CE8091D20462
:1029C0009091D304A091D404B091D504B301A20195
:1029D000481B590B6A0B7B0B80916C0490916D0422
:1029E000A0916E04B0916F04481759076A077B07DE
:1029F00008F0C5C18091660490916704892B09F4A1
:102A0000BEC120E030E0A9016091680470916904C2
:102A100080916A0490916B040E94CD6E882309F422
:102A2000AEC1112309F4C4C1AAC18091760490916A
:102A30007704A0917804B09179040097A105B105BD
:102A4000E9F04091D2045091D3046091D404709184
:102A5000D50493018201041B150B260B370B0817B5
:102A600019072A073B0750F084E290E00E946206B3
:102A70001092E2041092E104212C312CC0907E04CB
:102A8000D0907F04E0908004F090810420E030E05A
:102A9000A901C701B6010E94CD6E8823D9F020910B
:102AA00008013091090140910A0150910B01C701C1
:102AB000B6010E9465709B01AC016091C6047091E3
:102AC000C7048091C8049091C9040E94CD6E181665
:102AD0000CF00EC18091A907811105C08091AA0454
:102AE000882309F465C160917A0470917B046115B3
:102AF0007105F9F0882777FD8095982F0E946C6FFB
:102B000020910C0130910D0140910E0150910F0167
:102B10000E9465709B01AC016091CA047091CB0466
:102B20008091CC049091CD040E94CD6E18160CF0CB
:102B3000DFC000917C0410917D040115110509F49A
:102B400037C16091840770918507809186079091C5
:102B50008707C090C204D090C304E090C404F090F2
:102B6000C5046C197D098E099F0920E13EE040E013
:102B700050E00E942F71B901882777FD8095982F2A
:102B80000E946C6F6B017C01B801882777FD8095EE
:102B9000982F0E946C6F20910C0130910D01409193
:102BA0000E0150910F010E9465709B01AC01C7019D
:102BB000B6010E94CD6E18160CF4FAC099C080912F
:102BC000820490918304A0918404B09185040097BD
:102BD000A105B105A1F04091D2045091D3046091B8
:102BE000D4047091D50493018201041B150B260BAC
:102BF000370B081719072A073B0708F0C0C0C09019
:102C00008604D0908704E0908804F090890420E046
:102C100030E0A901C701B6010E94CD6E8823D1F032
:102C2000C253DF4F288139814A815B81CE5CD0401D
:102C3000C701B6010E9465709B01AC016091C6049A
:102C40007091C7048091C8049091C9040E94CD6E10
:102C500087FD4EC000918A0410918B040115110567
:102C600009F492C08091A907811105C08091AA043E
:102C7000882309F489C06091840770918507809149
:102C8000860790918707C090C204D090C304E0905B
:102C9000C404F090C5046C197D098E099F0920E1D8
:102CA0003EE040E050E00E942F71B901882777FD97
:102CB0008095982F0E946C6F6B017C01B80188276A
:102CC00077FD8095982F0E946C6F20910C013091B8
:102CD0000D0140910E0150910F010E9465709B0102
:102CE000AC01C701B6010E94CD6E18160CF44CC0A1
:102CF0008BE090E036CD8091D2049091D304A091E6
:102D0000D404B091D504B301A201481B590B6A0B3E
:102D10007B0B8091920490919304A0919404B091C4
:102D20009504481759076A077B0748F56091960490
:102D30007091970461157105D9F18091A9078111EE
:102D400004C08091AA04882399F1112389F188276E
:102D500077FD8095982F0E946C6F20910C01309127
:102D60000D0140910E0150910F010E9465709B0171
:102D7000AC01C701B6010E94CD6E1816CCF08EE1F1
:102D800090E0EFCC1092EA041092E2041092E10479
:102D90000DC082E090E09093BE078093BD0780E273
:102DA00090E09093C1078093C007E2C1212C312CA1
:102DB0008091E1049091E204820D931D9093E204CE
:102DC0008093E1042091BA04222361F02091DF0472
:102DD0003091E004821793070CF4C9019093E20448
:102DE0008093E1040091E1041091E20417FD2AC0F0
:102DF00060911C0170911D01882777FD8095982FA7
:102E00000E946C6F209118013091190140911A01B4
:102E100050911B010E9465706B017C01B8018827ED
:102E200077FD8095982F0E946C6FA70196010E94F4
:102E30001C70181654F4C701B6010E94396F262F72
:102E4000972F05C020E090E002C0202F912F209303
:102E5000E1049093E20480914D04811103C0822F1C
:102E60000E94CC0610924D0480915A04882309F4E4
:102E70007FC18091070181508093070118160CF4DF
:102E800077C1609178067091790680917A06909169
:102E90007B0643E00E947634C253DF4F8883CE5CCA
:102EA000D040CC52DF4F9883C45DD0400E940807C9
:102EB000882E909054060E94F72BA82E0E94BF3FA8
:102EC000C82EB92E50918F02D090900260911801B7
:102ED0007091190180911A0190911B0142E0C85F25
:102EE000DE4F5883C850D1400E947634F82EE92E28
:102EF00010911C01C852DF4F1883C85DD04020914B
:102F00001D01C452DF4F2883CC5DD0403091DF04D7
:102F1000CA51DF4F3883C65ED0400091E004C651ED
:102F2000DF4F0883CA5ED0401091AA04C653DF4F1A
:102F30001883CA5CD0406091B2077091B30780914A
:102F4000B4079091B50741E00E947634182F092FFD
:102F50006091B6077091B7078091B8079091B90753
:102F600043E00E9476349C017091440640914506EE
:102F7000CC51DF4F4883C45ED04040913304609110
:102F8000340489E0CD5FDE4F2883C350D140CC5F4D
:102F9000DE4F3883C450D140CA5FDE4F4883C650ED
:102FA000D140C95FDE4F6883C750D140CB5FDE4F51
:102FB0007883C550D1400E94396CCC52DF4FA88134
:102FC000C45DD040AF93C253DF4FB881CE5CD040D8
:102FD000BF931F928F921F929F921F92AF92BF92A8
:102FE000CF92DF92C85FDE4F5881C850D1405F93C7
:102FF000EF92FF92C452DF4F5881CC5DD0405F9377
:10300000C852DF4F5881C85DD0405F93C651DF4F33
:103010005881CA5ED0405F93CA51DF4F5881C65E67
:10302000D0405F931F92C653DF4F5881CA5CD04097
:103030005F930F931F93CC5FDE4F3881C450D14014
:103040003F93CD5FDE4F2881C350D1402F931F9215
:1030500021E42F93CC51DF4F0881C45ED0400F9301
:10306000CB5FDE4F7881C550D1407F93CD52DF4F8B
:103070001881C35DD0401F93CE52DF4F2881C25DBF
:10308000D0402F933F922F92C95FDE4F6881C75087
:10309000D1406F93CA5FDE4F4881C650D1404F93F5
:1030A000CF51DF4F0881C15ED0400F93C052DF4F38
:1030B0001881C05ED0401F93C152DF4F0881CF5DA1
:1030C000D0400F93C252DF4F1881CE5DD0401F9386
:1030D000CD51DF4F0881C35ED0400F93CE51DF4FFB
:1030E0001881C25ED0401F939F938F938091E2041A
:1030F0008F938091E1048F938091BE078F9380918D
:10310000BD078F93C301B20128EE33E040E050E0E9
:103110000E942F717F936F933F932F938CE292E0E5
:103120009F938F931F9288EC8F938E010F5F1F4F99
:103130001F930F930E945873D8010D900020E9F758
:10314000AD0141505109401B510B0FB6F894DEBF41
:103150000FBECDBFE091B609F091B7090280F381AF
:10316000E02DB80186EB99E009958AE0809307018C
:10317000C85FDE4F0FB6F894DEBF0FBECDBFDF9144
:10318000CF911F910F91FF90EF90DF90CF90BF9064
:10319000AF909F908F907F906F905F904F903F90F7
:1031A0002F9008950F931F93242F26272F7034E01C
:1031B000239FF0011124EF5FFA4F0591159125919E
:1031C0003491DC01CB0154E0B695A795979587958E
:1031D0005A95D1F780279127A227B327E42FE295AC
:1031E000EF70E827EF7024E0E29FF0011124EF5F19
:1031F000FA4F0591159125913491BC01CD01E4E080
:103200009695879577956795EA95D1F76027712709
:10321000822793271F910F910895EF92FF920F93AA
:103220001F93CF93DF938C017B01EC016FEF7FEF56
:10323000CB019E01201B310B2E153F0524F4499133
:103240000E94D218F6CF6095709580959095DF9189
:10325000CF911F910F91FF90EF900895CF92DF9241
:10326000EF92FF920F931F93CF93DF93CDB7DEB70B
:10327000CC5BD1090FB6F894DEBF0FBECDBF8C0179
:1032800048E550E060E070E0CE018B599F4F0E940E
:103290005A75A7968EAD9FADA7978A3C934F11F0B4
:1032A00080E02BC0A9968EAD9FADA997833D934733
:1032B000B9F744E650E065E073E0CE0101960E9464
:1032C0005A7564E670E0CE0101960E940D19CB5646
:1032D000DF4FC880D980EA80FB80C559D0406C158B
:1032E0007D058E059F05E1F684E6FE013196D80145
:1032F00001900D928A95E1F781E0C454DF4F0FB63B
:10330000F894DEBF0FBECDBFDF91CF911F910F911B
:10331000FF90EF90DF90CF9008950F931F93CF937E
:10332000DF93CDB7DEB7C855D1090FB6F894DEBF2D
:103330000FBECDBF8C0148E550E060E070E0CE01EB
:1033400001960E945A750115110509F18AEC93EF57
:103350009A83898383ED93E79C838B8364E670E093
:10336000C8010E940D1969AB7AAB8BAB9CAB809105
:10337000DB028823E1F08091E502811118C044E668
:1033800050E065E073E0C8010E946A7508C01A82C7
:1033900019821C821B8219AA1AAA1BAA1CAA48E518
:1033A00050E060E070E0CE0101960E946A75C85A54
:1033B000DF4F0FB6F894DEBF0FBECDBFDF91CF91C8
:1033C0001F910F910895CF92DF92EF92FF920F938A
:1033D0001F93CF93DF93CDB7DEB7C65AD1090FB68F
:1033E000F894DEBF0FBECDBFD82E8B0148E550E06C
:1033F00060E070E0CE0101960E945A75ED2CF12C30
:10340000F7013296EE0FFF1F21E030E02C0F3D1F39
:10341000E20FF31F208131812C393B4611F080E00F
:1034200042C0D7011A96AA0FBB1F21E030E02C0F33
:103430003D1FA20FB31F2D913C9127343A4079F7DD
:103440009EE4D99EB00111246B567F4F4EE450E0AC
:10345000CE01875A9F4F0E945A756EE470E0CE01EC
:10346000875A9F4F0E940D19F7013D96EE0FFF1FDF
:10347000EE0FFF1F21E030E02C0F3D1FE20FF31F86
:10348000C080D180E280F3806C157D058E059F059C
:1034900031F68EE4FE01E75AFF4FD80101900D92FC
:1034A0008A95E1F781E0CA55DF4F0FB6F894DEBF89
:1034B0000FBECDBFDF91CF911F910F91FF90EF9085
:1034C000DF90CF900895DF92EF92FF920F931F93BA
:1034D000CF93DF93CDB7DEB7C855D1090FB6F894B7
:1034E000DEBF0FBECDBFD82E7B0148E550E060E0C7
:1034F00070E0CE0101960E945A750D2D10E0F80182
:103500003296EE0FFF1FE114F104E9F121E030E003
:103510002C0F3D1FE20FF31F8CE99BE69183808304
:10352000F8013A96EE0FFF1FE20FF31F87E49AE0CF
:10353000918380836EE470E0C7010E940D19F80149
:103540003D96EE0FFF1FEE0FFF1F21E030E02C0F26
:103550003D1FE20FF31F6083718382839383809109
:10356000DB028823A1F18091E502811130C03EE4A5
:10357000D39EB00111246B567F4F4EE450E0C7013B
:103580000E946A751CC081E090E08C0F9D1FE80FBF
:10359000F91F11821082F8013A96EE0FFF1FE80F13
:1035A000F91F11821082F8013D96EE0FFF1FEE0FFA
:1035B000FF1FE80FF91F108211821282138248E563
:1035C00050E060E070E0CE0101960E946A75C85A32
:1035D000DF4F0FB6F894DEBF0FBECDBFDF91CF91A6
:1035E0001F910F91FF90EF90DF9008952EE4829F3E
:1035F000C00111248F569D4FDB0120E030E0FC011B
:10360000E20FF31FE491ED932F5F3F4F2E3431050E
:10361000B1F70895CF92DF92EF92FF920F931F932D
:10362000CF93DF93CDB7DEB7C557D1090FB6F89466
:10363000DEBF0FBECDBF8C0148E550E060E070E01A
:10364000CE0101960E945A758DA19EA18C3A994F88
:1036500011F080E02AC08FA198A587399A40C9F758
:103660004DE150E068E570E0CE01875A9F4F0E941F
:103670005A756DE170E0CE01875A9F4F0E940D1977
:103680006996CCACDDACEEACFFAC69976C157D05F2
:103690008E059F05F1F68DE1FE01E75AFF4FD80137
:1036A00001900D928A95E1F781E0CB58DF4F0FB67C
:1036B000F894DEBF0FBECDBFDF91CF911F910F9168
:1036C000FF90EF90DF90CF9008950F931F93CF93CB
:1036D000DF93CDB7DEB7C855D1090FB6F894DEBF7A
:1036E0000FBECDBF8C0148E550E060E070E0CE0138
:1036F00001960E945A7501151105D9F08CEA99EFCF
:103700009EA38DA387E99AE098A78FA36DE170E04F
:10371000C8010E940D1969966CAF7DAF8EAF9FAF47
:1037200069974DE150E068E570E0C8010E946A7554
:103730000AC01EA21DA218A61FA269961CAE1DAE2D
:103740001EAE1FAE699748E550E060E070E0CE0124
:1037500001960E946A75C85ADF4F0FB6F894DEBF13
:103760000FBECDBFDF91CF911F910F910895CF92E2
:10377000DF92EF92FF920F931F93CF93DF93CDB71A
:10378000DEB7C457D1090FB6F894DEBF0FBECDBF68
:103790008C0148E550E060E070E0CE0101960E94A7
:1037A0005A7589A59AA58A33974811F080E028C0F8
:1037B0008BA59CA58A33904CC9F74CE150E069E693
:1037C00073E0CE01875A9F4F0E945A756CE170E0FA
:1037D000CE01875A9F4F0E940D19CDA4DEA4EFA4FD
:1037E000F8A86C157D058E059F0501F78CE1FE019B
:1037F000E75AFF4FD80101900D928A95E1F781E0D9
:10380000CC58DF4F0FB6F894DEBF0FBECDBFDF91AF
:10381000CF911F910F91FF90EF90DF90CF9008957F
:103820000F931F93CF93DF93CDB7DEB7C855D10960
:103830000FB6F894DEBF0FBECDBF8C0148E550E057
:1038400060E070E0CE0101960E945A7501151105E5
:1038500009F18AE397E89AA789A78AE390EC9CA7E5
:103860008BA76CE170E0C8010E940D196DA77EA7BF
:103870008FA798AB8091DB028823E1F08091E5026D
:10388000811118C04CE150E069E673E0C8010E9464
:103890006A7508C01AA619A61CA61BA61DA61EA6F8
:1038A0001FA618AA48E550E060E070E0CE0101963E
:1038B0000E946A75C85ADF4F0FB6F894DEBF0FBE7C
:1038C000CDBFDF91CF911F910F910895CF9380E0ED
:1038D00090E00E948D1980916402811104C080E003
:1038E00090E00E94651BC0E060E070E08C2F0E94B9
:1038F000631ACF5FC830C1F780E090E00E94101CCF
:10390000CF910C948E419093EE048093ED047093CC
:10391000E9046093E8044093EA042093E30460E040
:103920008DE00E94036C60E08EE00E94036C1092B8
:10393000EC041092EB040E94DD696093E404709340
:10394000E5048093E6049093E70408950F931F9392
:103950008091EB049091EC04892BD1F00E94DD69F9
:103960000091E4041091E5042091E6043091E7040D
:10397000601B710B820B930B0091E8041091E9041A
:1039800020E030E0061717072807390708F04AC07B
:103990008091EB049091EC04009709F056C02091BF
:1039A000EA04222309F440C080E090E89093EC04FC
:1039B0008093EB0421502093EA048091EB049091D2
:1039C000EC042091ED043091EE0482239323892BA3
:1039D00009F042C060E08DE00E94036C60E08EE080
:1039E0000E94036C8091E304882309F44CC0809109
:1039F000EB049091EC042091ED043091EE048223CD
:103A00009323892B09F046C060E088E00E94036C94
:103A10000E94DD696093E4047093E5048093E604FA
:103A20009093E70481E040C060E08DE00E94036C69
:103A300060E08EE00E94036C8091E304882399F19A
:103A400060E088E00E94036C2EC096958795909365
:103A5000EC048093EB04B1CF8091BD079091BE0739
:103A6000029719F461E08DE0BBCF61E08EE00E9427
:103A7000036C80915406882309F4B4CF80916906C1
:103A80008111B0CFEFCF8091BD079091BE078230FA
:103A9000910510F461E0B9CF0A97E1F38091BF0777
:103AA0008111F8CFB1CF80E01F910F9108950E944E
:103AB000A61C811135C0E091BD07F091BE073B9770
:103AC000ED31F10528F5EC57FF4F0C94517120E0D2
:103AD0004FEF6CE271E00BC020E04FEF6CE271E061
:103AE00080EA90EA1BC020E04FEF68E572E08AEAC6
:103AF0009AEA14C020E04FEF6CE271E080E09FEFA3
:103B00000DC021E04FEF64E670E080E090EA06C06F
:103B100020E04FEF6CE271E080E091E00C94831CB8
:103B200008950F931F93CF93DF93EEE1F1E0A0E0B0
:103B3000B0E0408151816281738141155105610579
:103B40007105C1F13B96EC0109811A812B813C8101
:103B5000041715072607370711F01196EACF2BE057
:103B60002A9FE0012B9FD00D1124FE01E25EFE4F43
:103B70000480F581E02D3097E9F0C85DDE4F2881A3
:103B800021FF04C020914E022223A1F02BE02A9FA6
:103B9000E0012B9FD00D1124C85DDE4F288122FF4C
:103BA00004C020914F02222329F0DF91CF911F9171
:103BB0000F910994DF91CF911F910F9108955F921A
:103BC0006F927F928F929F92AF92BF92CF92DF922D
:103BD000EF92FF920F931F93CF93DF933C0180915D
:103BE0004C0290914D028730910558F4FC01EC583D
:103BF000FC4FC081D0E0FC01E359FC4FE080F12C88
:103C000005C0EE24EA94F12CCFEFD0E020E030E0C4
:103C1000A90160918C0470918D0480918E04909123
:103C20008F040E94CD6E882389F021E0512C809171
:103C3000920490919304A0919404B0919504892BDF
:103C40008A2B8B2B09F420E0922E02C0912C512C50
:103C5000A0900801B0900901C0900A01D0900B011A
:103C600020E030E040EC5FE3C601B5010E94CD6E7C
:103C700087FD2BC020E030E040E250E4C601B501F2
:103C80000E94CD6E87FD24C023E333E343E350E479
:103C9000C601B5010E94CD6E87FD1DC026E636E641
:103CA00046E650E4C601B5010E94CD6E082F1127EB
:103CB00007FD10950027110F001F112786E090E0E7
:103CC0009C01201B310B890108C001E010E005C0F8
:103CD00002E010E002C003E010E0609198047091EF
:103CE000990480919A0490919B040E94396F862ECA
:103CF00020E030E04AEF53E460910C0170910D0137
:103D000080910E0190910F010E94657020E030E0DB
:103D100041E655E40E9465701F921F921F921F9208
:103D20001F925B016C01292D352DAE016091880633
:103D3000C3010E9457460F900F900F900F900F9065
:103D400081E0DF91CF911F910F91FF90EF90DF9075
:103D5000CF90BF90AF909F908F907F906F905F902B
:103D60000895CF92EF92FF920F931F93CF93DF931B
:103D7000EC016091BB047091BC0416161706CCF4DC
:103D8000882777FD8095982F0E946C6F9B01AC016E
:103D90006FE7C62E18E2E12E1BE6F12E0EE61EECB2
:103DA00060915102CE010E949E4488E0888381E0A8
:103DB00001C080E0DF91CF911F910F91FF90EF90B4
:103DC000CF900895CF92DF92EF92FF920F931F93BF
:103DD000CF93DF93EC018091A9078823E9F08091CC
:103DE0004B028823C9F020E030E04AE754E46091B8
:103DF000AA077091AB078091AC079091AD070E9424
:103E000065700E943E6F6B017C018CE6D81A8AECCB
:103E1000E80A88E8F80A04C0CC24CA94DC2C7601AD
:103E200020E030E040EA51E46091AE077091AF07C6
:103E30008091B0079091B1070E9465700E943E6F1B
:103E4000870176019B014091490260918806CE016D
:103E50000E945E5A81E0DF91CF911F910F91FF90F8
:103E6000EF90DF90CF900895CF93DF93EC012091F6
:103E70001001309111014091120150911301609194
:103E8000AA077091AB078091AC079091AD070E9493
:103E90001C7018162CF4CE01DF91CF910C94E21E09
:103EA00080E0DF91CF910895EF92FF920F93CF932F
:103EB000DF93EC0160918B0270918C026D398FEF72
:103EC000780781F0882777FD8095982F0E946C6F86
:103ED00020E030E040E05DE30E9465700E94396FB1
:103EE0009B0102C02FEF3FE7EE24EA94FE2C0FEF78
:103EF0004091490260918806CE010E94EF5A81E00C
:103F0000DF91CF910F91FF90EF900895AF92BF9204
:103F1000CF92DF92EF92FF920F931F93CF93DF9395
:103F20005C018091BD079091BE070B978D31910583
:103F300030F4FC01E05BFC4FC081D0E002C0C1E086
:103F4000D0E0C0904C02D0904D0220E030E040EA3A
:103F500051E46091100170911101809112019091D2
:103F600013010E9465700E943E6F7B0123E8F21AE4
:103F700020E030E040EA51E46091B0047091B10477
:103F80008091B2049091B3040E9465700E943E6FCC
:103F90008B019E014091490260918806C5010E94F3
:103FA000845B81E0DF91CF911F910F91FF90EF90A3
:103FB000DF90CF90BF90AF900895EF92FF920F9354
:103FC0001F93CF93DF93EC0120E030E04AE754E405
:103FD0006091AE077091AF078091B0079091B107E3
:103FE0000E9465700E943E6F8B019C01EE24EA9452
:103FF000FE2C4091490260918806CE010E943A5CF5
:1040000081E0DF91CF911F910F91FF90EF90089584
:10401000CF92DF92EF92FF920F931F93CF93DF9394
:10402000EC01C090AE07D090AF07E090B007F090E1
:10403000B1072091B0043091B1044091B204509185
:10404000B304C701B6010E941C701816D4F420E016
:1040500030E04AE754E4C701B6010E9465700E944F
:104060003E6F8B019C01EE24EA94FE2C40914902A4
:1040700060918806CE010E943A5C82E0888381E0EC
:1040800001C080E0DF91CF911F910F91FF90EF90E1
:10409000DF90CF9008956F927F928F92AF92CF92E0
:1040A000DF92EF920F931F93CF93DF933C018091A8
:1040B000BD079091BE070B978D31910558F4FC0117
:1040C000ED5CFC4FC080D12CFC01EA5EFC4FC0814E
:1040D000D0E005C0C0E0D0E0CC24C394D12C8091C6
:1040E0007A0490917B04892BC9F480917C0490918F
:1040F0007D0488248394892B99F420E030E0A90181
:1041000060917E0470917F0480918004909181047D
:104110000E94CD6E811104C0812C02C0882483943A
:104120000E940807E82E20E030E040EA51E4609168
:10413000AC047091AD048091AE049091AF040E94E4
:1041400065700E94396F8B01135820E030E040EA1F
:1041500051E46091B0047091B1048091B2049091E7
:10416000B3040E9465700E943E6FDF93CF93AA2430
:10417000A3949B014091480263E070E0C3010E9458
:10418000CE5D0F900F9081E0DF91CF911F910F9145
:10419000EF90DF90CF90AF908F907F906F900895C9
:1041A000AF92CF92DF92EF92FF920F931F93CF9334
:1041B000DF93EC018091BD079091BE070B974D975F
:1041C00040F58091E1049091E204009711F1209173
:1041D000DF043091E0042817390724F08091BA04F5
:1041E000811117C08091A9078823B1F020E030E049
:1041F0004AE754E46091B2077091B3078091B40725
:104200009091B5070E9465700E943E6F8B01135814
:1042100005C000E01DE702C00FEF1FEF20E030E017
:1042200040EA51E46091B6077091B7078091B807F2
:104230009091B9070E9465700E943E6FA090910214
:1042400068017B0100914902209188064091480253
:1042500063E070E0CE010E94C55E81E0DF91CF9106
:104260001F910F91FF90EF90DF90CF90AF90089546
:104270008F929F92AF92CF92DF92EF92FF920F9325
:104280001F93CF93DF93EC0180915406882329F08C
:10429000A090690681E0A82601C0A12C8091B804F5
:1042A0009091B904181619063CF48B3F910514F04F
:1042B0008AEF90E0F82E02C0FF24FA9420E030E06C
:1042C0004AEF53E460910C0170910D0180910E0151
:1042D00090910F010E9465700E943E6FEE24E3945E
:1042E00020918B0230918C022D393F4F09F4E12C43
:1042F000AA2019F000E010E002C003E010E02091D5
:10430000BD073091BE072732310519F420E030E0B7
:1043100002C022E030E0FF927F936F938FE0882EFF
:10432000912C93E0C92ED12C4091480263E070E0BB
:10433000CE010E948F5F0F900F900F9081E0DF9170
:10434000CF911F910F91FF90EF90DF90CF90AF90A2
:104350009F908F900895AF92BF92CF92EF920F935C
:10436000CF93DF93EC012091080130910901409136
:104370000A0150910B0160917E0470917F0480913D
:104380008004909181040E94657020E030E040EA52
:1043900051E40E9465700E943E6F5B0129E1C22ECC
:1043A000EE24EA940FEF24E64091480263E070E0C7
:1043B000CE010E94E95F81E0DF91CF910F91EF90F4
:1043C000CF90BF90AF9008954F925F926F927F927F
:1043D0008F929F92AF92BF92CF92EF92FF920F93E4
:1043E0001F93CF93DF93EC01409008015090090197
:1043F00060900A0170900B0120915C0430915D0483
:1044000040915E0450915F04C301B2010E94657047
:1044100020E030E040EA51E40E9465700E943E6F67
:104420004B015C0120E030E04AE754E460919804DD
:104430007091990480919A0490919B040E946570F8
:104440000E943E6FC62E20917004309171044091FD
:10445000720450917304C301B2010E94657020E0A0
:1044600030E040EA51E40E9465700E943E6F7B019B
:10447000840194014091480263E070E0CE010E9403
:104480002C6081E0DF91CF911F910F91FF90EF9011
:10449000CF90BF90AF909F908F907F906F905F90E4
:1044A0004F9008958F929F92AF92BF92EF92FF929A
:1044B0000F931F93CF93DF93EC016091760470917B
:1044C0007704809178049091790438EE832E33E05C
:1044D000932EA12CB12CA50194010E942F7179017A
:1044E0008A016091600470916104809162049091EE
:1044F0006304A50194010E942F7189012AEF3FEF07
:104500004091480263E070E0CE010E946B6081E060
:10451000DF91CF911F910F91FF90EF90BF90AF90DF
:104520009F908F900895CF92DF92EF92FF920F931A
:10453000CF93DF93EC018091BD079091BE0701E01E
:104540008632910509F400E08697A9F40E94DD699E
:10455000C090D204D090D304E090D404F090D5045D
:104560006C197D098E099F0928EE33E040E050E088
:104570000E942F7102C020E030E04091480263E0C9
:1045800070E0CE010E94A46081E0DF91CF910F9195
:10459000FF90EF90DF90CF900895CF92DF92EF924F
:1045A000FF920F931F93CF93DF93EC0160919204DE
:1045B00070919304809194049091950428EE33E0D7
:1045C00040E050E00E942F7169017A0120910801BA
:1045D0003091090140910A0150910B0160918C04C6
:1045E00070918D0480918E0490918F040E9465706B
:1045F00020E030E040EA51E40E9465700E943E6F86
:1046000086019B014091480263E070E0CE010E9468
:10461000DB6081E0DF91CF911F910F91FF90EF90D0
:10462000DF90CF900895AF92BF92CF92DF92EF923A
:10463000FF920F931F93CF93DF93CDB7DEB7C95C83
:10464000D1090FB6F894DEBF0FBECDBF7C0181E467
:1046500095E09F938F931F9288EC8F938E010F5F4D
:104660001F4F1F930F930E9458735C010F900F9080
:104670000F900F900F900F9089E0A816B104D4F41A
:104680004BEE5EEF60E070E0C7010E94044786E0F9
:10469000F70180836801C601801B910B8A159B0579
:1046A0003CF4F60161916F01C7010E946A47F3CFA4
:1046B00081E001C080E0C753DF4F0FB6F894DEBF42
:1046C0000FBECDBFDF91CF911F910F91FF90EF9063
:1046D000DF90CF90BF90AF9008958F929F92AF924E
:1046E000BF92CF92DF92EF92FF920F931F93CF93DF
:1046F000DF93CDB7DEB728970FB6F894DEBF0FBEB5
:10470000CDBF5C01C090CD05D090CE05E091CB052A
:10471000F091CC05CE16DF06A9F1CE0101967C0101
:1047200000E010E09C0142ED842E912CCE16DF06B5
:1047300029F4D092CC05C092CB0517C008301105E2
:1047400081F0DF01A051BB4F8C91D7018D937D018A
:104750000F5F1F4FCF010196B4010E940771FC014A
:10476000E5CFF093CC05E093CB05A80160913C0622
:10477000C5010E940C6140E050E0B50189E896E077
:104780000E94F55380E028960FB6F894DEBF0FBE66
:10479000CDBFDF91CF911F910F91FF90EF90DF90F0
:1047A000CF90BF90AF909F908F9008958F929F92DF
:1047B000AF92BF92CF92DF92EF920F934091BD07DD
:1047C0005091BE0721E04230510509F020E001E0A0
:1047D0004330510539F03091BF07311103C000E07B
:1047E000222351F0A090C007B090C107C12CD12C5A
:1047F00037E8C30ED11C03C0A12CB12C65013FE0EA
:104800003F933FEF3F933FE73F935BE0852E912C33
:10481000E12C40E060E00E949E610F900F900F90AD
:1048200081E00F91EF90DF90CF90BF90AF909F907D
:104830008F9008952091BD073091BE072250310915
:104840002230310520F02091BF07222321F00E9461
:10485000D62381E0089580E00895EF92FF920F93B0
:104860001F93CF93DF93CDB7DEB7C955D1090FB6EC
:10487000F894DEBF0FBECDBF7C016FE0CE01019684
:104880000E941D47F70101811281238134814FEF7E
:1048900061E0CE0101960E947552F70185818F83F8
:1048A00040E050E0BE016F5F7F4F89E896E00E94D4
:1048B000F553C75ADF4F0FB6F894DEBF0FBECDBF1A
:1048C000DF91CF911F910F91FF90EF900895EF929C
:1048D000FF920F931F93CF93DF93CDB7DEB72E9741
:1048E0000FB6F894DEBF0FBECDBF9E01235F3F4FD2
:1048F00079018E010F5F1F4F28503109AE01475FCC
:104900005F4FBE01625F7F4F0E94D445882399F1BB
:104910008091540681112FC080915002882359F153
:10492000909188068E85981326C00E94DD69609359
:1049300065067093660680936706909368068D817E
:104940009E81AF81B8858093610690936206A093A3
:104950006306B093640623E333E948E853E46981CE
:104960007A818B819C810E94696E0E94396F70935D
:10497000600660935F062E960FB6F894DEBF0FBEFA
:10498000CDBFDF91CF911F910F91FF90EF900895D0
:104990006F927F928F929F92AF92BF92CF92DF924F
:1049A000EF92FF920F931F93CF93DF93CDB7DEB7B4
:1049B0002E970FB6F894DEBF0FBECDBF3C01CE01DF
:1049C00001969F938F930A964C01DE011C965D0120
:1049D00008976C0112967D018E01095F1F4F9E01A1
:1049E000275F3F4FAE01435F5F4FBE016B5F7F4F5D
:1049F000C3010E94265E0F900F90882309F475C0B2
:104A00009E859F3F09F471C0D3011596EC918E2FBE
:104A1000877001E010E001C0000F8A95EAF7F0E02E
:104A2000B3E0F595E795BA95E1F7EF5EF94F808130
:104A3000802361F0903550F40E94DD696093460652
:104A4000709347068093480690934906D3011596C4
:104A5000EC91F0E0A3E0F595E795AA95E1F7EF502A
:104A6000FA4F8081802331F10E94DD6960934A060C
:104A700070934B0680934C0690934D0680914406AC
:104A800090914506892B39F40E94080790E0909395
:104A90004506809344062E858091440690914506F4
:104AA000820F911D97FD01969595879590934506E8
:104AB00080934406D3011596EC91F0E063E0F59500
:104AC000E7956A95E1F7EF52FA4F8081802369F00C
:104AD0008E85853150F00E94DD6960934E0670939B
:104AE0004F0680935006909351062E960FB6F89479
:104AF000DEBF0FBECDBFDF91CF911F910F91FF9011
:104B0000EF90DF90CF90BF90AF909F908F907F906D
:104B10006F9008958F929F92AF92BF92CF92DF9243
:104B2000EF92FF920F931F93CF93DF93CDB7DEB732
:104B30002A970FB6F894DEBF0FBECDBF4C01CE0151
:104B400007965C01FE0131966F0104977C018E018E
:104B5000085F1F4F9E01275F3F4FAE01465F5F4FCB
:104B6000BE016B5F7F4FC4010E94105F882309F470
:104B70004EC0998580918806F4012581981347C01D
:104B8000322F377081E090E001C0880F3A95EAF744
:104B900058854091490230E0F90193E0F595E79599
:104BA0009A95E1F7EF5EF94F451718F46081682B8D
:104BB00004C0682F6095708167236083F90103E06A
:104BC000F595E7950A95E1F7541306C0EF50FA4FB3
:104BD0004081482B40830AC0782F7095DF01AF5089
:104BE000BA4F6C9167236C93451760F0F90113E09D
:104BF000F595E7951A95E1F7EF52FA4F9081982BCA
:104C0000908305C0EF52FA4F8081872380832A96D4
:104C10000FB6F894DEBF0FBECDBFDF91CF911F91CD
:104C20000F91FF90EF90DF90CF90BF90AF909F904B
:104C30008F900895CF93DF9300D0CDB7DEB7109259
:104C4000CF0522EC35E0AE014F5F5F4F63E476E0C5
:104C50000E944C61882321F089818093D00502C095
:104C60001092D0050F900F90DF91CF910895FF9291
:104C70000F931F93CF93DF9300D0CDB7DEB78C0196
:104C8000FC0141815281638174814430504F610540
:104C9000710549F583E090E09A8389834FEF5FEFD8
:104CA000BE016F5F7F4FC8010E94A94723E0969520
:104CB00087952A95E1F79093420680934106F090FC
:104CC0005102BE016F5F7F4FC8010E947647F81204
:104CD0000AC00E94DD6960933D0670933E06809392
:104CE0003F06909340060F900F90DF91CF911F9158
:104CF0000F91FF900895AF92BF92CF92DF92EF9203
:104D00000F9320915002211124C0609131066F5FF2
:104D1000609331062EEC2F932EE62F932BE62F93E4
:104D200028E22F9338E2A32E3BE6B32E3EE6C32EB5
:104D30003EECD32EEE24EA940FEF21E030E04091D8
:104D400088060E94F9440F900F900F900F9081E019
:104D500001C080E00F91EF90DF90CF90BF90AF90B7
:104D600008958F92AF92BF92CF92DF92EF92FF920F
:104D70000F931F93CF93DF93EC0180915002811129
:104D800034C060918B0270918C026D398FEF78077F
:104D900069F0882777FD8095982F0E946C6F23E338
:104DA00033E948E853E40E94696E04C068E27BE698
:104DB0008EE69EECE090AA07F090AB070091AC075E
:104DC0001091AD072091AE073091AF074091B00729
:104DD0005091B107809031065B016C0160918806AB
:104DE000CE010E945E4581E001C080E0DF91CF915D
:104DF0001F910F91FF90EF90DF90CF90BF90AF90F9
:104E00008F900895CF92DF92EF92FF920F931F93AE
:104E1000CF93DF9300D000D000D0CDB7DEB79E0196
:104E20002F5F3F4F69012F5F3F4F79018E010D5F6B
:104E30001F4F2E5F3F4FAE014B5F5F4FBE016A5F5A
:104E40007F4F0E94CA5C8823D1F08C81882321F097
:104E50008FE190E00E9462068B81882381F080E0E0
:104E600090E00E94CC0682E090E09093BE07809391
:104E7000BD0784E390E09093C1078093C007269616
:104E80000FB6F894DEBF0FBECDBFDF91CF911F915B
:104E90000F91FF90EF90DF90CF9008950F931F93A5
:104EA000CF93DF9300D000D0CDB7DEB78E010F5F78
:104EB0001F4F9E012E5F3F4FAE014D5F5F4FBE0102
:104EC0006C5F7F4F0E94385D8823D9F09C81809170
:104ED0008806981316C08B81882319F08A8188234D
:104EE00081F080E090E00E94CC0682E090E0909318
:104EF000BE078093BD0783E390E09093C107809342
:104F0000C0070F900F900F900F90DF91CF911F91DE
:104F10000F910895CF93DF9300D0CDB7DEB7AE01E8
:104F20004F5F5F4FBE016E5F7F4F0E948E5D882393
:104F3000C1F09A8180918806981313C089818823D3
:104F400081F080E090E00E94CC0682E090E09093B7
:104F5000BE078093BD0783E390E09093C1078093E1
:104F6000C0070F900F90DF91CF910895CF93DF93FB
:104F7000E1E1F6E0C1EFD5E0A1EDB5E011921992C3
:104F80001D9286E0E133F807C9F7109245061092AA
:104F90004406DF91CF910895CF92DF92EF92FF9276
:104FA0000F931F93CF93DF93CDB7DEB72B970FB639
:104FB000F894DEBF0FBECDBF4F8358878B87EF813C
:104FC000F8853097F9F0982F81FF04C080914E0248
:104FD0008823D9F092FF04C080914F028823A9F062
:104FE00093FF04C080915306882361F0C6010995A0
:104FF000882351F040E050E0B60189E896E00E9435
:10500000F55302C080E001C081E02B960FB6F89402
:10501000DEBF0FBECDBFDF91CF911F910F91FF90EB
:10502000EF90DF90CF9008954F925F927F928F9292
:105030009F92AF92BF92CF92DF92EF92FF920F9327
:105040001F93CF93DF93CDB7DEB7C955D1090FB604
:10505000F894DEBF0FBECDBF6FE0CE0101960E9477
:105060001D4780915306882341F12AE037ED43E242
:105070005DE36091B0047091B1048091B2049091AD
:10508000B3040E94696E9B01AC016091AE07709100
:10509000AF078091B0079091B1070E941C7018165D
:1050A00064F48091EF04811108C0CE0101960E9442
:1050B000082081E08093EF0460C01092EF045EE16D
:1050C000A52E51E0B52E812C912C6BE0762EF501AA
:1050D00080819181A281B381892B8A2B8B2B09F44A
:1050E0004CC0D50118968D919C911997892BF1F19F
:1050F0000E94DD69F50100851185980140E050E0CE
:105100000E942F711695079520E030E0789CF00101
:10511000799CF00D1124061717072807390708F5A1
:10512000CF01885D9E4F2C01DC018C9180FD1EC05B
:10513000E25EFE4FCE0101966C01E080F1800281BB
:1051400013812481358146815781608571858285EF
:105150000E94CC27882351F0D2018C9181608C93DE
:105160000CC0E85DFE4F80818E7F8083BFEF8B1A7D
:105170009B0AEBE0AE0EB11CAACFC75ADF4F0FB6A9
:10518000F894DEBF0FBECDBFDF91CF911F910F917D
:10519000FF90EF90DF90CF90BF90AF909F908F9057
:1051A0007F905F904F900895CF92DF92EF92FF92A1
:1051B0000F931F93CF93DF93CDB7DEB7C955D109B6
:1051C0000FB6F894DEBF0FBECDBF6B017C016FE060
:1051D000CE0101960E941D47EEE1F1E020E030E0B3
:1051E00080819181A281B3810097A105B10549F029
:1051F0003B96C816D906EA06FB0629F02F5F3F4FFB
:10520000EFCF80E018C08BE0829FF001839FF00D0C
:105210001124E25EFE4FCE0101966C01E080F18028
:105220000281138124813581468157816085718592
:1052300082850E94CC27C75ADF4F0FB6F894DEBF95
:105240000FBECDBFDF91CF911F910F91FF90EF90D7
:10525000DF90CF900895209143062223C9F0209338
:105260003C06FC0122ED30E04191442389F080911D
:10527000CD059091CE05DC01A051BB4F4C9301961A
:10528000B9010E9407719093CE058093CD05ECCFB4
:1052900008958091CD059091CE058E529F4F20911B
:1052A000CB053091CC05821B930B62ED70E00E9420
:1052B0000771089589E896E00C94D8598091CF053C
:1052C0009091D005981771F090E0FC01EE53FA4FE1
:1052D0002081019669E070E00E941B718093CF05E8
:1052E000822F089580E008958091D00590E009967E
:1052F0002091CF05821B910969E070E00E9407713F
:105300000895CF92DF92EF92FF9210925306809110
:10531000540681112FC08091330681112BC08091DA
:105320004A02882339F10E94DD696B017C0180917A
:1053300049024FEF50E0481B510980913806909187
:105340003906A0913A06B0913B06C81AD90AEA0A72
:10535000FB0A22E330E0DA010E945771605E714B74
:105360008F4F9F4F6C157D058E059F0518F481E0CA
:1053700080935306FF90EF90DF90CF9008950E94A6
:105380005A290E9414280E94812981E008951092D0
:10539000540610923306109232061092560610925E
:1053A0005506109238061092390610923A0610925D
:1053B0003B06109234061092350610923606109273
:1053C0003706109269068091BD079091BE078797B6
:1053D00021F48BE090E00C94620608958F92AF92D6
:1053E000BF92CF92EF92FF920F931F930E94C72913
:1053F000812C74E1A72E75E0B72EC12CE1E0EE2ED2
:10540000E3E0FE2E05EC13E025EB32E044E650E04D
:1054100064E173E089E896E00E94C24BF4E0CF2E8D
:10542000A9E7EA2EA5E0FA2E02E32DE841E050E0DC
:1054300060E070E089E896E00E945E4C20915202A4
:1054400030E040E050E061E070E089E896E00E94E2
:105450002C4D8091BC069091BD06892B19F482E0F9
:105460008093BE068091BF069091C006892B19F4E7
:1054700084E18093C10661E97DE189E896E00E94BC
:105480006D5264ED78E289E896E00E94715289E8F5
:1054900096E00E9447530E94B62781E01F910F912A
:1054A000FF90EF90CF90BF90AF908F9008954F9264
:1054B0005F926F927F928F929F92AF92BF92CF92A4
:1054C000DF92EF92FF920F931F93CF93DF93EC0144
:1054D0008B015A010E94DD696B017C0180915406A9
:1054E000882309F431C18091690681112DC1809111
:1054F000380690913906A0913A06B0913B06A70173
:105500009601281B390B4A0B5B0BDA01C9018E3E51
:105510009240A105B10518F00E94C72955C180919C
:10552000800690918106A0918206B0918306A70122
:105530009601281B390B4A0B5B0BDA01C9018E3E21
:105540009240A105B10580F54090840650908506F3
:10555000609086067090870620E030E0A901C301C4
:10556000B2010E941C7018165CF420E030E04AEF93
:1055700054E4C301B2010E94CD6E181694F00AC023
:1055800020E030E04AEF54ECC301B2010E941C70ED
:1055900087FD07C0F801408251826282738211E068
:1055A00004C081E08093690610E080916A069091C2
:1055B0006B06A0916C06B0916D06A7019601281BA1
:1055C000390B4A0B5B0BDA01C9018E3E9240A105F3
:1055D000B10568F480916E0690916F069C01255C80
:1055E0003F4F2737310518F4F5019183808380916F
:1055F000700690917106A0917206B0917306C81A58
:10560000D90AEA0AFB0AFEEECF16F2E0DF06E10451
:10561000F10408F0DAC0C0907806D0907906E090E6
:105620007A06F0907B0620E030E0A901C701B601C0
:105630000E941C7018165CF420E030E040EC5FE340
:10564000C701B6010E94CD6E18165CF479C020E047
:1056500030E040EC5FEBC701B6010E941C7087FD93
:105660006FC040907C0650907D0660907E067090E2
:105670007F068090080190900901A0900A01B090E7
:105680000B0120E030E040E951E4C501B4010E9483
:1056900065709B01AC01C301B2010E94CD6E18166A
:1056A0000CF44EC020E030E040E051E4C501B4010C
:1056B0000E9465709B01AC01C301B2010E941C7085
:1056C00087FD3EC06091E1047091E204809076060F
:1056D000909077066815790534F5A090DF04B090B6
:1056E000E0046A197B09882777FD8095982F0E942E
:1056F0006C6F9B01AC01C701B6010E9465706B0124
:105700007C01B4016A197B09882777FD8095982F61
:105710000E946C6F9B01AC01C701B6010E94D16E63
:105720009B01AC0102C0A7019601688179818A8141
:105730009B810E94696E688379838A839B8345C0BD
:1057400081E08093690641C080916506909166066C
:10575000A0916706B0916806C81AD90AEA0AFB0A3E
:1057600020EDC21627E0D206E104F10468F5C090EE
:105770006106D0906206E0906306F090640620E037
:1057800030E0A901C701B6010E941C7018165CF434
:1057900020E030E04AEF54E4C701B6010E94CD6E2C
:1057A000181694F00AC020E030E04AEF54ECC7012C
:1057B000B6010E941C7087FD07C0F801C082D1822B
:1057C000E282F38211E001C010E0812FDF91CF91DE
:1057D0001F910F91FF90EF90DF90CF90BF90AF900F
:1057E0009F908F907F906F905F904F900895CF9390
:1057F0008091AA069091AB06181619061CF4C09168
:10580000A1060AC0019721E1289FF001299FF00D10
:105810001124E757F94FC08D80915202C81731F01B
:10582000C093520287E492E00E94101C8C2FCF910B
:105830000895FF920F931F93CF93DF93D62FF42EEB
:10584000C22F90918806891331C080914A02882323
:1058500081F08091BD079091BE07449754F08091EC
:105860004902681718F1681304C00E94F72BF81654
:10587000E8F080915406F81621F080913306F81272
:1058800017C00E94DD6900913806109139062091F9
:105890003A0630913B06601B710B820B930B6E3EF8
:1058A00072408105910520F00E94C72980E063C005
:1058B000809132068D1730F0D8132DC08091540698
:1058C0008F1548F5809149028D1728F48091330691
:1058D000F8120DC020C0D81729F080914A0281111A
:1058E0001AC0F4CF0E94F72B8F1580F3F6CFF092F9
:1058F0003306D09332060E94DD69609334067093BC
:105900003506809336069093370610925206109211
:105910005606109255060E94DD6960933806709312
:10592000390680933A0690933B06809152068C2B61
:10593000809352060E94DD6900913406109135066D
:105940002091360630913706601B710B820B930B4A
:10595000613177428105910508F4A8CF8091520604
:105960008171813119F010923306A0CF80913306F6
:105970008093540681E0DF91CF911F910F91FF90AA
:105980000895EF92FF920F931F93CF93DF93CDB7BC
:10599000DEB728970FB6F894DEBF0FBECDBF7C01EF
:1059A0008E010F5F1F4F9E012B5F3F4FAE01495F7E
:1059B0005F4FBE01685F7F4F0E94955A882391F127
:1059C00021E0F70145816F8188850E94192C882389
:1059D00049F189819A81AB81BC818F3FFFEF9F079D
:1059E000AF07BF07F9F0BC01CD0174598543974754
:1059F0000E946C6F2FE632E143E85AE30E94657023
:105A0000609384067093850680938606909387063C
:105A10000E94DD6960938006709381068093820600
:105A20009093830628960FB6F894DEBF0FBECDBFC5
:105A3000DF91CF911F910F91FF90EF900895CF923A
:105A4000DF92EF92FF920F931F93CF93DF93CDB727
:105A5000DEB727970FB6F894DEBF0FBECDBF6C013F
:105A6000CE0101967C018E010B5F1F4F9E012D5FC1
:105A70003F4FAE014A5F5F4FBE01695F7F4FC60176
:105A80000E94215B8823C1F122E0F60145816E81ED
:105A90008F810E94192C882379F190915406F60188
:105AA0008581981323C06B817C816F3FFFE77F075F
:105AB000E9F0882777FD8095982F0E946C6F20E091
:105AC00030E040E052E40E9465700E94396F7093AC
:105AD0006F0660936E060E94DD6960936A0670939C
