:100000000C94A3030C94CB030C94CB030C94CB0360
:100010000C94CB030C94CB030C94CB030C94CB0328
:100020000C94CB030C94CB030C94CB030C94CB0318
:100030000C94CB030C94CB030C94CB030C94CB0308
:100040000C94CB030C9425670C941F660C944F669C
:100050000C940E6B0C94CB030C94CB030C94CB033D
:100060000C94CB030C94CB030C94CB030C94CB03D8
:100070000C94CB030C94CB030C94CB0316071607FC
:100080001607160716072107770777075408D707BB
:10009000160784158415651765178911BF114C1251
:1000A000AA1216139A13D2139A159B1437159A1580
:1000B000121C121C121C171C1E1C251C251C251C86
:1000C0002C1C121C7C2C6A2C702C732C792C762CFA
:1000D0006D2C932E992FDD2FDD2F662FEF2EDD2F28
:1000E000DD2FDD2FDD2FDD2FDD2FDD2FDD2FBC2ED2
:1000F000412FDD2FD62FC438C938CE38D838DD3857
:10010000E238E738B241B24109420942B241F9400E
:100110000B410B410B410B412F412F41B2412F416C
:100120000B4108000000BE922449123EABAAAA2A45
:10013000BECDCCCC4C3E00000080BEABAAAAAA3EED
:1001400000000000BF000000803F00000000000829
:100150004178D3BB4387D1133D190E3CC3BD4282C6
:10016000AD2B3E68EC8276BED98FE1A93E4C80EF84
:10017000FFBE01C4FF7F3F00000000004442473B38
:100180002C25642E253033642C202C25642C2564EA
:100190002C202C25642C202C25642C25642C2564F3
:1001A0002C25642C25642C202C25642C25642C20E3
:1001B0002C25632C25732C25732C202C25642C25B1
:1001C000642C25642C25732C202C25642C25642C70
:1001D00020202C25642C25642C25642C25730D0AE5
:1001E000009A996141009749010F0000000000004A
:1001F000000000000066665641FFFF00000000F6A8
:10020000FF0000CDCC4C41000000000000000000C9
:1002100000000000000000000000000000A69BC4D9
:100220003CF7FFD3FF2D000000000000000000CDD0
:10023000CC6C4180CBA40005000000000000000051
:1002400000000000005841FFFF00000000F6FF0022
:1002500000CDCC4C41000000000000000000000078
:1002600000000000000000000000008FC2F53CF715
:10027000FFD3FF2D0000000000000000009A9969E4
:10028000414031F7000500000000000000000000C0
:100290000066665641FFFF00000000F6FF0000CD3B
:1002A000CC4C4100000000000000000000CDCC74E8
:1002B00041000020BF020000008FC2F53CF7FFD3D1
:1002C000FF2D00000000000000000033336B4140B0
:1002D00031F700030000000000000000000000668D
:1002E000665641FFFF00000000F6FF0000CDCC4C39
:1002F00041000000000000000000000000000000BD
:1003000000000000000000A69BC43CF7FFD3FF2DB7
:100310000000000000000000009A99614100974928
:10032000010500000000000000000000000000586F
:1003300041FFFF00000000F6FF0000CDCC4C410063
:1003400000000000000000000000000000000000AD
:1003500000000000008FC2F53CF7FFD3FF2D000026
:1003600000000000000000CDCC5C4140771B000085
:1003700000000000000000000000009A995141FFB9
:10038000FF0000000000000000000000000000006E
:10039000000000000000000000000000000000005D
:1003A00000000000000000F7FF000028000000002F
:1003B000000000000066666641009749010F000FCB
:1003C00000CDCC744180CBA4009A995141FFFF002D
:1003D000000000F6FF0000CDCC4C41000000000002
:1003E0000000000000CDCC7441000020BF020000DE
:1003F000008FC2F53CF7FFD3FF2D00000000000086
:10040000000000CDCC5C4180EE36000F0000000003
:10041000000000000000008FC255410000000000F5
:10042000000000CEFF66664E4100000000000000A4
:1004300000000000000000000000000000000000BC
:100440000000000000000028000000000000000084
:1004500000000000006410B71DC8206E3BAC30D90E
:10046000269041DC76F4516B6B5861B24D3C7105BE
:10047000502083B8ED44930FF0E8A3D6D68CB36137
:10048000CBB0C2649BD4D2D38678E20AA01CF2BD62
:10049000BD2A2A2A2A005353543B2C25732C202C86
:1004A0002531752C2531752C202C25642C25732C99
:1004B00025732C202C25642C25642C202C25642CC1
:1004C00025642C202C2531750D0A005343563B2CF6
:1004D0002531752C2C2531752C25732C25732C2555
:1004E00031752C202C25642C25732C25732C257319
:1004F0002C25642C202C25642C25642C202C256490
:100500002C25732C25642C202C25642C25642C256B
:10051000640D0A004E50433B2C2531752C25732C5D
:1005200025730D0A004353543B2C25642C25642C61
:1005300025642C25642C20202C2531752C25317523
:100540002C20202C2531752C2531752C2531752C2E
:10055000202C25642C2531752C2531752C20202C40
:1005600025642C202C25640D0A004350453B2C2586
:10057000642C25732C25642C25642C25642C202CBC
:1005800025642C25642C25732C25642C202C2573A4
:100590002C25642C25642C25642C25642C25732C97
:1005A000202C25642C25732C25642C202C25732CC1
:1005B00025642C25642C25642C202C25732C256483
:1005C0002C25642C25640D0A004153543B2C2564D2
:1005D0002E253032642C202C25732C25732C25736A
:1005E0002C25642C202C25732C25642C25642C258B
:1005F000642C202C25642C25642C202C25642C2094
:100600002C25732C25642C25642C25640D0A0000F0
:100610000002000A002A00AA00AA02AA0AAA2AAA1C
:10062000AA464C543B25640D0A00464C543B2C25ED
:10063000642C202C25642C25640D0A008B033A03BE
:100640003A0314F0010016F0010012F2010000005C
:10065000000010F0010000F2010014F2010019F294
:1006600001000000000000ED01000000000000E8B3
:10067000000000EA000000EE000000000000120C84
:10068000370E0C37080C37060C3706041302041318
:1006900002030508090A0607040B0C0E0F100001DF
:1006A0000400000000000000000000000300000043
:1006B0000000000000001008020408010280081079
:1006C00080010102042040041020402040800404E6
:1006D00003030302020402020304030404040402E9
:1006E0000303030202020000000023002600290089
:1006F00000000000250028002B000000000024005E
:1007000027002A004E414E494E495459494E46CD84
:10071000CCCC3D0AD7233C17B7D13877CC2B3295B8
:1007200095E6241FB14F0A000020410000C8420096
:10073000401C4620BCBE4CCA1B0E5AAEC59D740060
:10074000482D6466706B11241FBECFEFD0E1DEBF71
:10075000CDBF13E0A0E0B1E0E2EFFAEE02C00590F9
:100760000D92AC3EB107D9F729E0ACEEB3E001C081
:100770001D92AE3EB207E1F717E0C6E4D7E004C031
:100780002297FE010E94DD6EC034D107C9F70E9496
:10079000DE6B0C9477750C9400008F929F92AF9251
:1007A000BF92CF92DF92EF92FF92CF93DF930E949E
:1007B0006F67C090ED05D090EE05E090EF05F090EA
:1007C000F0056C197D098E099F09693E734081050A
:1007D000910548F48091F1059091F205909377048A
:1007E000809376049BC00E947B676B017C01C09163
:1007F0007904D0917A0480910C0490910D04A09119
:100800000E04B0910F04A7019601281B390B4A0B67
:100810005B0B213482E438074105510588F0C09212
:100820000C04D0920D04E0920E04F0920F0410928A
:100830007A041092790410927704109276046EC0B4
:10084000C436D1050CF46AC060E077E883E993E030
:100850000E94B96EDE010E94F36E0E94F46C4B019F
:100860005C016091A10270E080E090E00E94F66C73
:100870002091A2023091A3024091A4025091A502BE
:100880000E94EF6D20E030E040E05FE30E94EF6DFA
:100890009B01AC01C501B4010E945B6C0E94C36C5A
:1008A00016161706DCF57093770460937604809132
:1008B000A8029091A902019691F4809191049091DF
:1008C000920420918F0430919004821793071CF0BA
:1008D0002F3F3F4F21F49093900480938F04809199
:1008E0008F04909190048C34910534F08BE490E067
:1008F0009093900480938F04C0920C04D0920D04C6
:10090000E0920E04F0920F048091790490917A04A1
:100910008C1B9D0B90937A0480937904DF91CF9187
:10092000FF90EF90DF90CF90BF90AF909F908F900F
:100930000895CF92DF92EF92FF92CF93DF932091B1
:100940000B0130910C0140910D0150910E010E945C
:10095000EF6D60936B0470936C0480936D049093BF
:100960006E04809186029091870260917304709169
:1009700074048C399F4F49F4C0909502D090960230
:10098000E0909702F090980215C08091640488234B
:1009900049F0C0909102D0909202E0909302F090C2
:1009A000940208C0C0908D02D0908E02E0908F0219
:1009B000F0909002882777FD8095982F0E94F66C22
:1009C0009B01AC01C701B6010E94EF6D6093670403
:1009D000709368048093690490936A0420E030E087
:1009E0004EE753E4C701B6010E94EF6D0E94C36C4D
:1009F00070931C0160931B01E0908F04F0909004B1
:100A0000C0907604D09077041E141F042CF5C114F6
:100A1000D10411F58091990290919A020196E1F426
:100A2000C0911B01D0911C01BE01882777FD8095E4
:100A3000982F0E94F66C2DEC3CEC41E353E40E94AD
:100A4000576C87FD03C091EB80E002C09C2F8D2F77
:100A500090931B0180931C01C114D10489F1609112
:100A6000990270919A021616170654F580919B020E
:100A700090919C02C81AD90AC601880F991F8C0D43
:100A80009D1D0E94A56E643C8FEF78076CF08091ED
:100A90001B0190911C019B01255C3F4F28173907D2
:100AA00034F4645C7F4F04C060E070E001C0BC01BE
:100AB0006E157F050CF4B70170931C0160931B0148
:100AC00020E030E0A9016091670470916804809192
:100AD000690490916A040E94576CC0916504D0919A
:100AE0006604882319F0C630D10561F480E090E0F7
:100AF000AAE7B4E48093670490936804A093690420
:100B0000B0936A04C630D10531F48EEF90E0909333
:100B10001C0180931B0180919F029091A0028F3F46
:100B20002FEF9207C9F42091670430916804409137
:100B3000690450916A0460916B0470916C04809117
:100B40006D0490916E040E94EF6D0E94C36C7093CF
:100B5000700460936F0404C09093700480936F04DA
:100B600080916F0490917004892B11F0269731F4D5
:100B700088E99AE39093700480936F04DF91CF919A
:100B8000FF90EF90DF90CF900895CF92DF92EF9299
:100B9000FF9220916504309166042817390709F403
:100BA00048C090936604809365040E946F676093C9
:100BB0008704709388048093890490938A04109228
:100BC0009A04C0904A07D0904B07E0904C07F090F1
:100BD0004D0720E030E0A901C701B6010E94A66DD3
:100BE00018165CF420E030E040EA50E4C701B6019A
:100BF0000E94576C87FF0DC00AC020E030E040EA39
:100C000050ECC701B6010E94A66D181614F410929C
:100C1000410780911C0790911D07A0911E07B0917C
:100C20001F0780937B0490937C04A0937D04B09372
:100C30007E04FF90EF90DF90CF900895CF93DF93E5
:100C4000EC010E946F6760938B0470938C04809317
:100C50008D0490938E04D0939204C093910480915C
:100C6000650490916604039720F410929204109208
:100C70009104BE0182E0DF91CF910C94586880E02E
:100C800090E00E941E0680E090E00E94C50581E091
:100C90000895CF92DF92EF92FF92CF93DF93C091AE
:100CA0007304D09174041C161D0624F5809141072D
:100CB000882301F120E030E048EC52E460914A07DB
:100CC00070914B0780914C0790914D070E94EF6DFA
:100CD0006B017C01BE01882777FD8095982F0E94CB
:100CE000F66C9B01AC01C701B6010E945B6C0E94CF
:100CF000C86C47C0E0908F04F0909004F7FE02C0EB
:100D0000E12CF12C80918602909187028C399F4FC3
:100D100069F420E030E04EE753E460919502709171
:100D20009602809197029091980219C08091640474
:100D300020E030E04EE753E4882349F060919102CF
:100D400070919202809193029091940208C06091F8
:100D50008D0270918E0280918F02909190020E947C
:100D6000EF6D0E94C36C20919104309192042E1972
:100D70003F0944E6429FC001439F900D11240E9409
:100D8000A56E862F653608F084E6DF91CF91FF903F
:100D9000EF90DF90CF9008954F925F926F927F9285
:100DA0008F929F92AF92BF92CF92DF92EF92FF927B
:100DB00080911004883060F082E090E090936604A7
:100DC0008093650481E290E09093560780935507E5
:100DD00080918202909183028D392FEF9207C9F0A2
:100DE00020916504309166042E30310591F02091F8
:100DF000550430915604821793073CF42091530414
:100E0000309154042817390724F08AE090E00E94BA
:100E1000C505E0916504F09166043497EB30F10567
:100E200008F042C1E25CFF4F0C94DB6E609111044C
:100E30007091120480911304909114040E949904FB
:100E400047C160911D0470911E0480911F04909110
:100E500020040E949904C0906704D0906804E09038
:100E60006904F0906A0460911B0470911C04882747
:100E700077FD8095982F0E94F66C20910F0130919C
:100E8000100140911101509112010E94EF6D4B0130
:100E9000B82EA92E9B01482F592FB601C7010E94D9
:100EA000576C87FF03C0BE2CAF2C01C06401A601A4
:100EB0006B2D7A2D40936704509368046093690406
:100EC00070936A04E0906F04F090700420910B011D
:100ED00030910C0140910D0150910E0160911D0463
:100EE00070911E0480911F0490912004B9C06091FC
:100EF00025047091260480912704909128040E9473
:100F000099046091290470912A046F3F8FEF78074C
:100F100009F4DEC080914107882309F4D9C0C0904C
:100F20006704D0906804E0906904F0906A04882710
:100F300077FD8095982F0E94F66C20910F013091DB
:100F4000100140911101509112010E94EF6D4B016F
:100F5000B82EA92E9B01482F592FB601C7010E9418
:100F6000576C87FF03C0BE2CAF2C01C06401A601E3
:100F70006B2D7A2D40936704509368046093690445
:100F800070936A04E0906F04F090700420910B015C
:100F900030910C0140910D0150910E01609125049A
:100FA00070912604809127049091280459C0609183
:100FB00041047091420480914304909144040E9442
:100FC000990460914504709146046115710509F416
:100FD0007FC0C0906704D0906804E0906904F090EE
:100FE0006A04882777FD8095982F0E94F66C2091DF
:100FF0000F013091100140911101509112010E9496
:10100000EF6D4B01B82EA92E9B01482F592FB60129
:10101000C7010E94576C87FF03C0BE2CAF2C01C0D4
:101020006401A6016B2D7A2D4093670450936804E8
:101030006093690470936A04E0906F04F090700408
:1010400020910B0130910C0140910D0150910E0146
:101050006091410470914204809143049091440452
:101060000E94EF6D96014B2D5A2D0E94EF6D4B01A2
:101070005C01B701882777FD8095982F0E94F66C58
:10108000A50194010E94576C87FD07C0C501B401FA
:101090000E94C36C262F872F02C02E2D8F2D2093E8
:1010A0006F048093700414C010926B0410926C044F
:1010B00010926D0410926E041092700410926F04DE
:1010C00010926704109268041092690410926A04E6
:1010D00080910406882309F44EC18091190681117C
:1010E0004AC18091050690910606009709F443C114
:1010F0008F3F910509F43FC120910B0130910C0104
:1011000040910D0150910E0160910B0670910C06FB
:1011100080910D0690910E060E945B6C0E949904CE
:101120000E946F67C090FE05D090FF05E09000061A
:10113000F09001066C197D098E099F096D347D417F
:101140008105910508F4D6C0C0903406D0903506CC
:10115000E0903606F090370640900706509008065B
:101160006090090670900A06A3019201C701B601BA
:101170000E94A66D18160CF087C080914107882345
:1011800009F453C00E946F67C090FA05D090FB0528
:10119000E090FC05F090FD056C197D098E099F0912
:1011A0006D347D4181059105C8F02091070630918D
:1011B00008064091090650910A0660913406709124
:1011C000350680913606909137060E94F26B20E03A
:1011D00030E040E05FE30E94EF6D12C0209107060F
:1011E000309108064091090650910A066091340634
:1011F0007091350680913606909137060E94F26B09
:101200009B01AC0160914A0770914B0780914C079C
:1012100090914D070E94F26B60936704709368048D
:101220008093690490936A042FC060911B017091B0
:101230001C018091910490919204681779072CF415
:10124000882777FD8095982F05C0BC01882777FDFA
:101250008095982F0E94F66C4B015C01A3019201CE
:10126000C701B6010E94F26BA70196010E945B6C58
:101270009B01AC01C501B4010E94EF6D0E94C36CDB
:1012800070931C0160931B0180903406909035068A
:10129000A0903606B0903706C0900706D09008069A
:1012A000E0900906F0900A06A7019601C501B40175
:1012B0000E94576C87FF1EC0809141078823D1F0A0
:1012C000A5019401C701B6010E94F26B9B01AC011C
:1012D00060914A0770914B0780914C0790914D07A0
:1012E0000E94F36B609367047093680480936904B1
:1012F00090936A040E946F67C090F605D090F7053E
:10130000E090F805F090F9056C197D098E099F09A8
:101310006D347D418105910588F48091910490910F
:10132000920420911B0130911C0102972817390764
:101330000CF4C90190931C0180931B010E946F67FC
:10134000C090FA05D090FB05E090FC05F090FD05FB
:101350006C197D098E099F096D347D4181059105C8
:1013600008F4BFC0A090F405B090F505A114B10435
:1013700009F051C0B6C0C0906B04D0906C04E090EE
:101380006D04F0906E0420E030E0A901C701B601C1
:101390000E94576C882309F4A9C0209182023091E1
:1013A00083022D398FEF380709F4A0C080915104D2
:1013B00090915204821793070CF4C90169E170E01F
:1013C000681B790B882777FD8095982F0E94F66C13
:1013D00020914D0430914E0440914F04509150049F
:1013E0000E94EF6D20910B0130910C0140910D0195
:1013F00050910E010E94EF6D9B01AC01C701B60137
:101400000E94F36B60936B0470936C0480936D0483
:1014100090936E046BC00E944906682F70E080E0D4
:1014200090E00E94F66C6B017C01B501882777FD86
:101430008095982F0E94F66C2AE939E949E95FE323
:101440000E94EF6D9B01AC01C701B6010E94A66D21
:1014500018168CF4809191049091920420911B01B4
:1014600030911C010197281739070CF4C90190939A
:101470001C0180931B0180911B0190911C0197FF1F
:1014800004C010921C0110921B01809175048823E6
:1014900081F020911B0130911C0180918F0490916B
:1014A0009004821793070CF4C90190931C01809358
:1014B0001B0120E030E0A90160916704709168048D
:1014C0008091690490916A040E94576C87FF0EC056
:1014D00010926704109268041092690410926A04D2
:1014E00005C01092F5051092F405C5CFFF90EF905E
:1014F000DF90CF90BF90AF909F908F907F906F9034
:101500005F904F9008952F923F924F925F926F920B
:101510007F928F929F92AF92BF92CF92DF92EF9283
:10152000FF920F931F93CF93DF93CDB7DEB7C950D0
:10153000D1400FB6F894DEBF0FBECDBF80913D07FE
:1015400081110C94651720916B0430916C044091CB
:101550006D0450916E046091460770914707809129
:101560004807909149070E94F26BCC52DF4F688385
:1015700079838A839B83C45DD04080904A07909092
:101580004B07A0904C07B0904D07C0906704D090D7
:101590006804E0906904F0906A04C653DF4FC88283
:1015A000D982EA82FB82CA5CD04000913F07109149
:1015B000400720906F0430907004C0900701D090D5
:1015C0000801E0900901F0900A01C253DF4FC88280
:1015D000D982EA82FB82CE5CD040E0908602F09015
:1015E0008702C850DF4FF982E882C85FD040F09090
:1015F0008402CD5FDE4FF882C350D140C090850297
:10160000CC5FDE4FC882C450D140D0908C02C6500F
:10161000DF4FD882CA5FD040C0900B01D0900C0140
:10162000E0900D01F0900E01C550DF4FC882D982C5
:10163000EA82FB82CB5FD0400E946F672B013C01A6
:10164000C0900B01D0900C01E0900D01F0900E01C4
:101650002AE037ED43E25DE3C701B6010E94EF6D7A
:101660009B01AC01CC52DF4F688179818A819B81DB
:10167000C45DD0400E94A66D18160CF08EC08091FB
:101680000B04811119C06091910470919204882714
:1016900077FD8095982F0E94F66C23E333E343E7B0
:1016A0005FE30E94EF6D0E94C36C7093920460939D
:1016B000910481E080930B042AE037ED43EA5DE377
:1016C000C701B6010E94EF6D9B01AC01CC52DF4F08
:1016D000688179818A819B81C45DD0400E94A66D1A
:1016E0001816ECF480910A04811119C060919104DC
:1016F00070919204882777FD8095982F0E94F66C50
:101700002AE73DE045E65FE30E94EF6D0E94C36C6F
:10171000709392046093910481E080930A042DEC0D
:101720003CEC4CEC5DE3C701B6010E94EF6D9B0100
:10173000AC01CC52DF4F688179818A819B81C45D85
:10174000D0400E94A66D18166CF460E070E082E054
:101750000E9458680E947E3A10920B0410920A046C
:101760000C94651780917504882381F02091910471
:101770003091920480918F04909190048217930786
:101780000CF4C90190939204809391048091910488
:10179000909192040E941E0604C010920B041092B5
:1017A0000A0480918B0490918C04A0918D04B091D7
:1017B0008E04A3019201281B390B4A0B5B0B2536C3
:1017C00031054105510510F40C946517C653DF4FE0
:1017D000288139814A815B81CA5CD040C501B4014E
:1017E0000E94F26BCA51DF4F688379838A839B839F
:1017F000C65ED040B801882777FD8095982F0E945B
:10180000F66C6B017C01B101882777FD8095982FDC
:101810000E94F66CC253DF4F288139814A815B8177
:10182000CE5CD0400E94EF6D9B01AC01C701B601B8
:101830000E94F26BC651DF4F688379838A839B8352
:10184000CA5ED040C0904607D0904707E090480756
:10185000F0904907C852DF4FC882D982EA82FB82E2
:10186000C85DD040209106043091070440910804DF
:1018700050910904C701B6010E94F26BCC50DF4FB2
:10188000688379838A839B83C45FD040C0920604B7
:10189000D0920704E0920804F092090480904A076D
:1018A00090904B07A0904C07B0904D0720910204F8
:1018B000309103044091040450910504C501B40122
:1018C0000E94F26B6B017C018092020490920304EF
:1018D000A0920404B092050400913F0710914007C4
:1018E0008091000490910104B801681B790B88274E
:1018F00077FD8095982F0E94F66CC150DF4F68836A
:1019000079838A839B83CF5FD04010930104009337
:1019100000040091860210918702C653DF4F19839D
:101920000883CA5CD0400091840210918502C452A1
:10193000DF4F19830883CC5DD040CE50DF4F198331
:101940000883C25FD040C653DF4F28813981CA5C0B
:10195000D0400217130734F4CE50DF4F3983288369
:10196000C25FD0408091FE039091FF03CE50DF4FC5
:1019700008811981C25FD040081B190BC8010531CD
:10198000110514F084E190E0CC51DF4F99838883F6
:10199000C45ED04097FF06C0CC51DF4F1982188239
:1019A000C45ED04020910B0130910C0140910D019B
:1019B00050910E01C253DF4F288339834A835B83E2
:1019C000CE5CD04020E030E040E251E4CC52DF4F2A
:1019D000688179818A819B81C45DD0400E94EF6DCE
:1019E000C253DF4F288139814A815B81CE5CD04070
:1019F0000E945B6C2091FA033091FB034091FC0341
:101A00005091FD030E94F36B162FB72EA82E992E2E
:101A10002AE939E949E95EE3CA51DF4F68817981F2
:101A20008A819B81C65ED0400E94EF6D2091F603B3
:101A30003091F7034091F8035091F9030E94F36B42
:101A4000862E072F382E292E20E030E0A901C6511E
:101A5000DF4F688179818A819B81CA5ED0400E9474
:101A6000EF6DC253DF4F288139814A815B81CE5CA3
:101A7000D0400E945B6C2091F2033091F3034091BF
:101A8000F4035091F5030E94F36BCE51DF4F68834E
:101A9000C25ED040CD51DF4F7883C35ED040C2518B
:101AA000DF4F8883CE5ED040C051DF4F9883C05F48
:101AB000D04020E030E0A901612F7B2D8A2D992DA7
:101AC0000E94576C87FD19C026E636E646E65FE3BE
:101AD000612F7B2D8A2D992D0E94A66D1816B4F4C6
:101AE00016E6CE52DF4F1883C25DD04066E6B62EB2
:101AF00076E6A72EEFE39E2E0EC0CE52DF4F188261
:101B0000C25DD040B12CA12C912C05C0CE52DF4F2C
:101B10001883C25DD040CE52DF4F8881C25DD04075
:101B20009B2DAA2DB92D8093FA039093FB03A093CC
:101B3000FC03B093FD0320E030E0A901682D702F75
:101B4000832D922D0E94576C87FD24C026E636E631
:101B500046E65FE3682D702F832D922D0E94A66DBF
:101B600018166CF506E6C252DF4F0883CE5DD040F2
:101B700016E6C152DF4F1883CF5DD040C052DF4F11
:101B80000883C05ED0401FE3CF51DF4F1883C15E92
:101B9000D04029C0C252DF4F1882CE5DD040C15222
:101BA000DF4F1882CF5DD040C052DF4F1882C05E39
:101BB000D040CF51DF4F1882C15ED04014C0C25216
:101BC000DF4F8882CE5DD040C152DF4F0883CF5DAA
:101BD000D040C052DF4F3882C05ED040CF51DF4F7F
:101BE0002882C15ED040C252DF4F8881CE5DD04096
:101BF000C152DF4F9881CF5DD040C052DF4FA881E6
:101C0000C05ED040CF51DF4FB881C15ED0408093DD
:101C1000F6039093F703A093F803B093F90320E041
:101C200030E0A901CE51DF4F6881C25ED040CD5176
:101C3000DF4F7881C35ED040C251DF4F8881CE5ED6
:101C4000D040C051DF4F9881C05FD0400E94576C98
:101C500087FD23C026E636E646E65FE3CE51DF4F3A
:101C60006881C25ED040CD51DF4F7881C35ED040E5
:101C7000C251DF4F8881CE5ED040C051DF4F988186
:101C8000C05FD0400E94A66D181664F446E6242E6C
:101C900056E6352E06E61FE319C0212C312C00E054
:101CA00010E014C0CE51DF4F2880C25ED040CD512D
:101CB000DF4F3880C35ED040C251DF4F0881CE5E17
:101CC000D040C051DF4F1881C05FD040C101D80162
:101CD0008093F2039093F303A093F403B093F5037E
:101CE00020E030E040EA51ECCC52DF4F688179814E
:101CF0008A819B81C45DD0400E94EF6DC253DF4F4B
:101D0000288139814A815B81CE5CD0400E945B6C26
:101D1000CE52DF4F2881C25DD0403B2D4A2D592D38
:101D20000E94F26B4B015C0120E030E048E452E499
:101D3000CC50DF4F688179818A819B81C45FD0401C
:101D40000E94EF6DC253DF4F288139814A815B8148
:101D5000CE5CD0400E945B6C9B01AC01C501B4011C
:101D60000E94F26B0E94C36CCE51DF4F6883C25E4B
:101D7000D040CD51DF4F7883C35ED040C251DF4F9A
:101D800079836883CE5ED0402AE939E949E15FEB87
:101D9000CA51DF4F688179818A819B81C65ED040BC
:101DA0000E94EF6DC252DF4F2881CE5DD040C152FC
:101DB000DF4F3881CF5DD040C052DF4F4881C05ED9
:101DC000D040CF51DF4F5881C15ED0400E94F26BAE
:101DD0004B015C0123E333E343E35FE3C701B60157
:101DE0000E94EF6D9B01AC01C501B4010E94F26B32
:101DF0000E94C36CC252DF4F6883CE5DD040C15297
:101E0000DF4F7883CF5DD040C051DF4F7983688347
:101E1000C05FD0402DEC3CEC4CE45DEBC651DF4F95
:101E2000688179818A819B81CA5ED0400E94EF6D72
:101E3000C253DF4F288139814A815B81CE5CD0401B
:101E40000E945B6C9101A8010E94F26B6B017C0106
:101E50002AE037ED43EA5CE3C150DF4F68817981C6
:101E60008A819B81CF5FD0400E94EF6DC253DF4FCC
:101E7000288139814A815B81CE5CD0400E945B6CB5
:101E80009B01AC01C701B6010E94F26B0E94C36CBA
:101E9000C052DF4F6883C05ED040CF51DF4F7883A0
:101EA000C15ED040CC50DF4F79836883C45FD0409F
:101EB0008091F0039091F1031816190624F0109206
:101EC000F1031092F003CD5FDE4F8881C350D14003
:101ED000CC5FDE4F9881C450D140C850DF4FC880DE
:101EE000D980C85FD0408C159D050CF4C6017C01DB
:101EF000C650DF4F0881CA5FD040E01AF108CE52C9
:101F0000DF4FF982E882C25DD040809106018150A6
:101F100018161CF48093060127C084E680930601FE
:101F2000CE50DF4FC880D980C25FD040D092FF032F
:101F3000C092FE0326EFCC51DF4F08811981C45EA9
:101F4000D0402003C001219F900D1124CE52DF4FBD
:101F5000C880D980C25DD0408C199D09880F991F17
:101F60009093F1038093F003CE52DF4FE880F98025
:101F7000C25DD0401E141F04B4F58091EF0381119F
:101F800034C023E333E343E75FE3609107017091DB
:101F900008018091090190910A010E94EF6D162FAE
:101FA000F72EE82ED92E2AE939E949E15FE30E94AC
:101FB000A66D18162CF01AE949E939E12FE303C0A0
:101FC0004F2D3E2D2D2D812F942FA32FB22F809397
:101FD000070190930801A0930901B0930A0181E0E1
:101FE0008093EF0302C01092EF03C653DF4F0881C6
:101FF0001981CA5CD0400E391F4F34F482E090E062
:102000009093F1038093F003C653DF4FC880D980CB
:10201000CA5CD040C452DF4FE880F980CC5DD0402C
:10202000EC14FD0434F4B601882777FD8095982FD1
:102030000BC0C452DF4F08811981CC5DD040B8017C
:10204000882777FD8095982F0E94F66C6B017C01A4
:1020500060918C0270E080E090E00E94F66C4B0191
:102060005C012AE037ED43E85FE30E94EF6D9B01DE
:10207000AC01C701B6010E94A66D1816ECF4809160
:10208000EE03811119C081E08093EE036091910409
:1020900070919204882777FD8095982F0E94F66CA6
:1020A00020E030E040E05FE30E94EF6D0E94C36CEF
:1020B0007093920460939104C653DF4FC880D98017
:1020C000CA5CD040C452DF4FE880F980CC5DD0407C
:1020D000EC14FD0434F4B601882777FD8095982F21
:1020E0000BC0C452DF4F08811981CC5DD040B801CC
:1020F000882777FD8095982F0E94F66C6B017C01F4
:1021000026E636E646E65FE3C501B4010E94EF6DC0
:102110009B01AC01C701B6010E94576C87FD10926C
:10212000EE038091F0039091F1038330910514F058
:1021300082E090E0C251DF4FC880D980CE5ED040AF
:10214000C816D90654F4CE51DF4F8881C25ED04004
:10215000CD51DF4F9881C35ED040C051DF4FE88042
:10216000F980C05FD040E816F90654F4C252DF4F40
:102170008881CE5DD040C152DF4F9881CF5DD04085
:102180001C01CC50DF4F08811981C45FD040081773
:1021900019075CF4C052DF4F8881C05ED040CF5138
:1021A000DF4F9881C15ED0401C0180904207909023
:1021B0004307A0904407B0904507C0908304D09097
:1021C0008404E0908504F0908604A7019601C5017F
:1021D000B4010E94A66D87FD09C08092830490928D
:1021E0008404A0928504B092860423C020E030E0ED
:1021F000A901C501B4010E94A66D1816D4F420E00F
:1022000030E84FEF53E4C701B6010E94EF6DA5011E
:1022100094010E94F36B20E030E040E05BE30E9419
:10222000EF6D60938304709384048093850490938E
:102230008604C0907F04D0908004E0908104F090E8
:102240008204A7019601C852DF4F688179818A8193
:102250009B81C85DD0400E94A66D87FD11C0C85209
:10226000DF4FC880D980EA80FB80C85DD040C09233
:102270007F04D0928004E0928104F092820420C016
:1022800020E030E845E953E4C701B6010E94EF6D54
:10229000C852DF4F288139814A815B81C85DD040B7
:1022A0000E94F36B20E030E046E953E40E945B6C4F
:1022B00060937F04709380048093810490938204E0
:1022C0002AE037ED43EA5CEBC550DF4F6881798146
:1022D0008A819B81CB5FD0400E94EF6D9B01AC0156
:1022E00011E0CC52DF4F688179818A819B81C45D86
:1022F000D0400E94A66D87FD10E0E0916504F0914A
:102300006604EF30F10508F006C4E75BFF4F0C945C
:10231000DB6E80917504882361F08091A802909112
:10232000A902181619062CF4909392048093910434
:1023300004C010929204109291044091DD025091D9
:10234000DE028091870490918804A0918904B09165
:102350008A0473016201C81AD90AEA0AFB0A28EE44
:1023600033E0DA010E94E16E6C157D058E059F0554
:1023700008F0DEC385E090E00E94C505D9C38092D5
:10238000830490928404A0928504B0928604C8527B
:10239000DF4FC880D980EA80FB80C85DD040C09202
:1023A0007F04D0928004E0928104F09282040E9423
:1023B000543EE0909D02F0909E020FEFE016F00672
:1023C00029F0F0927404E092730404C01092740433
:1023D000109273041092720410927104209191046F
:1023E0003091920480911B0190911C0128173907AC
:1023F000ACF5111133C020E030E0A901CA51DF4F24
:10240000688179818A819B81C65ED0400E94A66DD9
:1024100087FF24C020E030E0A901C651DF4F68816A
:1024200079818A819B81CA5ED0400E94A66D87FF18
:1024300015C08091870490918804A0918904B0917F
:102440008A04A3019201281B390B4A0B5B0BDA01AA
:10245000C9018037964CA105B10538F0EF20E09412
:1024600009F4E1C087E090E09AC180918B049091DB
:102470008C04A0918D04B0918E0473016201C81A7E
:10248000D90AEA0AFB0A01E9C01601E0D006E10414
:10249000F10408F41AC54EC380919D0290919E02EA
:1024A000019641F580919104909192048E3F91059F
:1024B00009F111111FC08091760490917704892B46
:1024C000C9F0809141078823A9F0809187049091F9
:1024D0008804A0918904B0918A0473016201C81A2A
:1024E000D90AEA0AFB0A00E1C01607E2D006E104B5
:1024F000F10420F087E090E00E94C505C0904A07F3
:10250000D0904B07E0904C07F0904D07609173041A
:1025100070917404882777FD8095982F0E94F66C3F
:102520009B01AC01C701B6010E94A66D18160CF004
:1025300001C3C701B6010E94C36C70937404609319
:102540007304809176049091770490937204809341
:102550007104F0C21123F1F08091870490918804F6
:10256000A0918904B0918A04A3019201281B390B20
:102570004A0B5B0BA5E0B0E00E94E86E6093170188
:10258000709318018093190190931A0188E090E0EC
:102590000E94C50580919D0290919E02019609F0CE
:1025A000C9C28091870490918804A0918904B09158
:1025B0008A04A3019201281B390B4A0B5B0BDA0139
:1025C000C90181339547A105B10508F4B3C28091D3
:1025D00071049091720486509F4F2091760430913F
:1025E000770482179307FCF0609173047091740470
:1025F000882777FD8095982F0E94F66C26E636E6B0
:1026000046E85FE30E94EF6D9B01AC0160914A07D1
:1026100070914B0780914C0790914D070E94A66DD9
:1026200018160CF087C286E090E0B9C080911504BE
:1026300090911604A0911704B09118040097A10579
:10264000B105A1F0409187045091880460918904FC
:1026500070918A0473016201C41AD50AE60AF70A66
:10266000C816D906EA06FB0608F05BC020911904DB
:1026700030911A042F3F0FEF300741F0809141074E
:1026800081111FC08091630481111BC08091870458
:1026900090918804A0918904B0918A04B301A201A9
:1026A000481B590B6A0B7B0B809117019091180105
:1026B000A0911901B0911A01481759076A077B07C1
:1026C00080F5121613060CF035C280914107811176
:1026D00005C080916304882309F42CC2112309F4F6
:1026E00029C2B901882777FD8095982F0E94F66C42
:1026F00020910F0130911001409111015091120170
:102700000E94EF6D9B01AC01609183047091840481
:1027100080918504909186040E94576C18160CF4E1
:1027200009C280911B0490911C04892BB1F189E0AE
:1027300090E035C08091870490918804A09189042D
:10274000B0918A04B301A201481B590B6A0B7B0BA1
:102750008091210490912204A0912304B09124043B
:10276000481759076A077B07C0F480911B049091B2
:102770001C04892B91F020E030E0A90160911D0438
:1027800070911E0480911F04909120040E94576C48
:10279000882319F0112309F4CDC18AE090E00E944A
:1027A000C505C8C180912B0490912C04A0912D04E3
:1027B000B0912E040097A105B105E9F0409187047E
:1027C000509188046091890470918A0473016201B8
:1027D000C41AD50AE60AF70AC816D906EA06FB069D
:1027E00050F08CE090E00E94C50510929204109287
:1027F0009104212C312CC0903304D0903404E0900B
:102800003504F090360420E030E0A901C701B6019C
:102810000E94576C8823D1F020910B0130910C015C
:1028200040910D0150910E01C701B6010E94EF6D5C
:102830009B01AC0160917F047091800480918104C0
:10284000909182040E94576C87FD0EC180914107D0
:10285000811105C080916304882309F46BC16091E4
:102860002F047091300461157105F9F0882777FD08
:102870008095982F0E94F66C20910F0130911001E5
:1028800040911101509112010E94EF6D9B01AC012A
:1028900060918304709184048091850490918604F2
:1028A0000E94A66D18160CF4DFC00091310410913F
:1028B00032040115110509F43DC160911C077091A6
:1028C0001D0780911E0790911F07C0907B04D09038
:1028D0007C04E0907D04F0907E046C197D098E09E3
:1028E0009F0920E13EE040E050E00E94B96EB9014E
:1028F000882777FD8095982F0E94F66C6B017C01EC
:10290000B801882777FD8095982F0E94F66C20915A
:102910000F013091100140911101509112010E945C
:10292000EF6D9B01AC01C701B6010E94576C1816F0
:102930000CF400C199C08091370490913804A091A3
:102940003904B0913A040097A105B105A1F0409176
:102950008704509188046091890470918A048301EE
:102960007201E41AF50A060B170BE816F9060A07B6
:102970001B0708F012CFC0903B04D0903C04E090BD
:102980003D04F0903E0420E030E0A901C701B6010B
:102990000E94576C8823D1F0C253DF4F28813981C0
:1029A0004A815B81CE5CD040C701B6010E94EF6DC9
:1029B0009B01AC0160917F0470918004809181043F
:1029C000909182040E94576C87FD4EC000913F0495
:1029D000109140040115110509F498C08091410738
:1029E000811105C080916304882309F48FC0609130
:1029F0001C0770911D0780911E0790911F07C090C2
:102A00007B04D0907C04E0907D04F0907E046C19EF
:102A10007D098E099F0920E13EE040E050E00E94E0
:102A2000B96EB901882777FD8095982F0E94F66CC2
:102A30006B017C01B801882777FD8095982F0E9453
:102A4000F66C20910F0130911001409111015091CD
:102A500012010E94EF6D9B01AC01C701B6010E94FB
:102A6000576C18160CF452C085E090E098CE809117
:102A7000870490918804A0918904B0918A04B301DD
:102A8000A201481B590B6A0B7B0B80914704909164
:102A90004804A0914904B0914A04481759076A07AD
:102AA0007B0708F07ACE60914B0470914C0461155D
:102AB000710509F43FC080914107811104C08091E4
:102AC00063048823B9F11123A9F1882777FD809544
:102AD000982F0E94F66C20910F01309110014091C7
:102AE0001101509112010E94EF6D9B01AC016091A8
:102AF00083047091840480918504909186040E94DF
:102B0000576C1816BCF049CE10929A041092920499
:102B1000109291040DC082E090E09093660480933F
:102B2000650480E290E09093560780935507CDC1ED
:102B3000212C312C8091910490919204820D931D4F
:102B4000909392048093910420917504222361F064
:102B500020918F0430919004821793070CF4C901DF
:102B600090939204809391040091910410919204A7
:102B700017FD2AC060911B0170911C01882777FD09
:102B80008095982F0E94F66C2091070130910801E2
:102B90004091090150910A010E94EF6D6B017C0187
:102BA000B801882777FD8095982F0E94F66CA701C1
:102BB00096010E94A66D181654F4C701B6010E9432
:102BC000C36C262F972F05C020E090E002C0202F75
:102BD000912F2093910490939204822F0E941E06BD
:102BE00080915407882309F470C18091EF028150CD
:102BF0008093EF0218160CF468C16091280670915A
:102C0000290680912A0690912B0643E00E944533C5
:102C1000CC52DF4F8883C45DD040C852DF4F9883C9
:102C2000C85DD0400E944906C653DF4F8883CA5C06
:102C3000D040F0900406C253DF4FF882CE5CD04003
:102C40000E949A2A882E0E949F3EA82E992EC090FC
:102C50008602B0908702609107017091080180910F
:102C6000090190910A0142E00E944533E82ED92ED5
:102C700000911B01C452DF4F0883CC5DD0405091BE
:102C80001C0110918F04CA51DF4F1883C65ED040DB
:102C900020919004C651DF4F2883CA5ED040F09047
:102CA00063046091420770914307809144079091BB
:102CB000450741E0C75FDE4F5883C950D1400E94AD
:102CC0004533182F092F609146077091470780916F
:102CD00048079091490743E00E9445339C01409189
:102CE000F0036091F10389E0CB5FDE4F2883C5508C
:102CF000D140CA5FDE4F3883C650D140C95FDE4F36
:102D00004883C750D140C85FDE4F6883C850D14068
:102D10000E94C369C852DF4F7881C85DD0407F935D
:102D2000CC52DF4FA881C45DD040AF931F92C653F1
:102D3000DF4FB881CA5CD040BF931F92C253DF4FB0
:102D4000E881CE5CD040EF931F928F929F92AF921A
:102D5000BF92CF92DF92EF92C75FDE4F5881C9508A
:102D6000D1405F93C452DF4FC880CC5DD040CF923A
:102D7000C651DF4FD880CA5ED040DF92CA51DF4FC4
:102D8000E880C65ED040EF921F92FF920F931F9390
:102D9000CA5FDE4F3881C650D1403F93CB5FDE4FD4
:102DA0002881C550D1402F931F9222E42F93CB51FD
:102DB000DF4FF880C55ED040FF92CC51DF4F0881D5
:102DC000C45ED0400F93CD52DF4F1881C35DD04019
:102DD0001F93CE52DF4F2881C25DD0402F933F9288
:102DE0002F92C85FDE4F6881C850D1406F93C95F92
:102DF000DE4F4881C750D1404F93CF51DF4FC8803D
:102E0000C15ED040CF92C052DF4FD880C05ED0406C
:102E1000DF92C152DF4FE880CF5DD040EF92C252C7
:102E2000DF4FF880CE5DD040FF92CD51DF4F08815B
:102E3000C35ED0400F93CE51DF4F1881C25ED040A9
:102E40001F939F938F93809192048F93809191040D
:102E50008F93809166048F93809165048F93C30153
:102E6000B20128EE33E040E050E00E94B96E7F935B
:102E70006F933F932F938CE791E09F938F931F92D3
:102E800088EC8F938E010F5F1F4F1F930F930E944B
:102E9000EA70D8010D900020E9F7AD0141505109C9
:102EA000401B510B0FB6F894DEBF0FBECDBFE091B3
:102EB0004B09F0914C090280F381E02DB8018BE4BD
:102EC00099E009958AE08093EF02C75FDE4F0FB665
:102ED000F894DEBF0FBECDBFDF91CF911F910F9150
:102EE000FF90EF90DF90CF90BF90AF909F908F902A
:102EF0007F906F905F904F903F902F9008950F9329
:102F00001F93242F26272F7034E0239FF0011124D4
:102F1000EF5AFB4F0591159125913491DC01CB01BE
:102F200054E0B695A795979587955A95D1F7802740
:102F30009127A227B327E42FE295EF70E827EF70DF
:102F400024E0E29FF0011124EF5AFB4F0591159107
:102F500025913491BC01CD01E4E096958795779554
:102F60006795EA95D1F760277127822793271F91EC
:102F70000F910895EF92FF920F931F93CF93DF93DA
:102F80008C017B01EC016FEF7FEFCB019E01201BD9
:102F9000310B2E153F0524F449910E947F17F6CF7F
:102FA0006095709580959095DF91CF911F910F91CD
:102FB000FF90EF900895CF92DF92EF92FF920F93E0
:102FC0001F93CF93DF93CDB7DEB7CC5BD1090FB69C
:102FD000F894DEBF0FBECDBF8C0148E550E060E045
:102FE00070E0CE018B599F4F0E94EC72A7968EAD78
:102FF0009FADA7978A3C934F11F080E02BC0A99614
:103000008EAD9FADA997833D9347B9F744E650E055
:1030100065E073E0CE0101960E94EC7264E670E018
:10302000CE0101960E94BA17CB56DF4FC880D980D7
:10303000EA80FB80C559D0406C157D058E059F0543
:10304000E1F684E6FE013196D80101900D928A9551
:10305000E1F781E0C454DF4F0FB6F894DEBF0FBE36
:10306000CDBFDF91CF911F910F91FF90EF90DF9037
:10307000CF9008950F931F93CF93DF93CDB7DEB713
:10308000C855D1090FB6F894DEBF0FBECDBF8C0175
:1030900048E550E060E070E0CE0101960E94EC72DD
:1030A0000115110509F18AEC93EF9A83898383ED69
:1030B00093E79C838B8364E670E0C8010E94BA1793
:1030C00069AB7AAB8BAB9CAB8091D2028823E1F0E9
:1030D0008091DC02811118C044E650E065E073E0A5
:1030E000C8010E94FC7208C01A8219821C821B82CD
:1030F00019AA1AAA1BAA1CAA48E550E060E070E0D1
:10310000CE0101960E94FC72C85ADF4F0FB6F894A8
:10311000DEBF0FBECDBFDF91CF911F910F910895FC
:10312000CF92DF92EF92FF920F931F93CF93DF9393
:10313000CDB7DEB7C65AD1090FB6F894DEBF0FBEC1
:10314000CDBFD82E8B0148E550E060E070E0CE01A5
:1031500001960E94EC72ED2CF12CF7013296EE0FE5
:10316000FF1F21E030E02C0F3D1FE20FF31F2081F5
:1031700031812C393B4611F080E042C0D7011A96CC
:10318000AA0FBB1F21E030E02C0F3D1FA20FB31F81
:103190002D913C9127343A4079F79EE4D99EB001B5
:1031A00011246B567F4F4EE450E0CE01875A9F4F5B
:1031B0000E94EC726EE470E0CE01875A9F4F0E942D
:1031C000BA17F7013D96EE0FFF1FEE0FFF1F21E02C
:1031D00030E02C0F3D1FE20FF31FC080D180E28052
:1031E000F3806C157D058E059F0531F68EE4FE019A
:1031F000E75AFF4FD80101900D928A95E1F781E0DF
:10320000CA55DF4F0FB6F894DEBF0FBECDBFDF91BA
:10321000CF911F910F91FF90EF90DF90CF90089585
:10322000DF92EF92FF920F931F93CF93DF93CDB76F
:10323000DEB7C855D1090FB6F894DEBF0FBECDBFBB
:10324000D82E7B0148E550E060E070E0CE010196A9
:103250000E94EC720D2D10E0F8013296EE0FFF1F68
:10326000E114F104E9F121E030E02C0F3D1FE20F01
:10327000F31F8CE99BE691838083F8013A96EE0F69
:10328000FF1FE20FF31F87E49AE0918380836EE4CF
:1032900070E0C7010E94BA17F8013D96EE0FFF1FBC
:1032A000EE0FFF1F21E030E02C0F3D1FE20FF31F58
:1032B00060837183828393838091D2028823A1F1FA
:1032C0008091DC02811130C03EE4D39EB001112414
:1032D0006B567F4F4EE450E0C7010E94FC721CC049
:1032E00081E090E08C0F9D1FE80FF91F1182108282
:1032F000F8013A96EE0FFF1FE80FF91F11821082B6
:10330000F8013D96EE0FFF1FEE0FFF1FE80FF91FAC
:10331000108211821282138248E550E060E070E072
:10332000CE0101960E94FC72C85ADF4F0FB6F89486
:10333000DEBF0FBECDBFDF91CF911F910F91FF90E8
:10334000EF90DF9008952EE4829FC00111248F51E9
:103350009E4FDB0120E030E0FC01E20FF31FE4911F
:10336000ED932F5F3F4F2E343105B1F70895CF9283
:10337000DF92EF92FF920F931F93CF93DF93CDB71E
:10338000DEB7C557D1090FB6F894DEBF0FBECDBF6B
:103390008C0148E550E060E070E0CE0101960E94AB
:1033A000EC728DA19EA18C3A994F11F080E02AC059
:1033B0008FA198A587399A40C9F74DE150E068E59B
:1033C00070E0CE01875A9F4F0E94EC726DE170E071
:1033D000CE01875A9F4F0E94BA176996CCACDDACDC
:1033E000EEACFFAC69976C157D058E059F05F1F677
:1033F0008DE1FE01E75AFF4FD80101900D928A95A9
:10340000E1F781E0CB58DF4F0FB6F894DEBF0FBE77
:10341000CDBFDF91CF911F910F91FF90EF90DF9083
:10342000CF9008950F931F93CF93DF93CDB7DEB75F
:10343000C855D1090FB6F894DEBF0FBECDBF8C01C1
:1034400048E550E060E070E0CE0101960E94EC7229
:1034500001151105D9F08CEA99EF9EA38DA387E998
:103460009AE098A78FA36DE170E0C8010E94BA1797
:1034700069966CAF7DAF8EAF9FAF69974DE150E01D
:1034800068E570E0C8010E94FC720AC01EA21DA27D
:1034900018A61FA269961CAE1DAE1EAE1FAE699780
:1034A00048E550E060E070E0CE0101960E94FC72B9
:1034B000C85ADF4F0FB6F894DEBF0FBECDBFDF9105
:1034C000CF911F910F910895CF92DF92EF92FF92CB
:1034D0000F931F93CF93DF93CDB7DEB7C457D109B6
:1034E0000FB6F894DEBF0FBECDBF8C0148E550E0AB
:1034F00060E070E0CE0101960E94EC7289A59AA569
:103500008A33974811F080E028C08BA59CA58A33A8
:10351000904CC9F74CE150E069E673E0CE01875A60
:103520009F4F0E94EC726CE170E0CE01875A9F4F72
:103530000E94BA17CDA4DEA4EFA4F8A86C157D05EF
:103540008E059F0501F78CE1FE01E75AFF4FD80178
:1035500001900D928A95E1F781E0CC58DF4F0FB6CC
:10356000F894DEBF0FBECDBFDF91CF911F910F91B9
:10357000FF90EF90DF90CF9008950F931F93CF931C
:10358000DF93CDB7DEB7C855D1090FB6F894DEBFCB
:103590000FBECDBF8C0148E550E060E070E0CE0189
:1035A00001960E94EC720115110509F18AE397E872
:1035B0009AA789A78AE390EC9CA78BA76CE170E09F
:1035C000C8010E94BA176DA77EA78FA798AB8091FC
:1035D000D2028823E1F08091DC02811118C04CE115
:1035E00050E069E673E0C8010E94FC7208C01AA6A8
:1035F00019A61CA61BA61DA61EA61FA618AA48E54E
:1036000050E060E070E0CE0101960E94FC72C85A62
:10361000DF4F0FB6F894DEBF0FBECDBFDF91CF9165
:103620001F910F910895CF9380E090E00E943A1887
:1036300080916302811104C080E090E00E94121A20
:10364000C0E060E070E08C2F0E941019CF5FC8309E
:10365000C1F780E090E00E94BD1ACF910C94E14246
:10366000089590939E0480939D04709399046093B1
:10367000980440939A042093930460E08DE00E94A4
:103680008D6960E08EE00E948D6910929C0410921A
:103690009B040E946F6760939404709395048093D9
:1036A00096049093970408950F931F9380919B0421
:1036B00090919C04892BD1F00E946F670091940433
:1036C000109195042091960430919704601B710B22
:1036D000820B930B009198041091990420E030E044
:1036E000061717072807390708F04AC080919B047E
:1036F00090919C04009709F056C020919A042223CF
:1037000009F440C080E090E890939C0480939B046F
:10371000215020939A0480919B0490919C042091C5
:103720009D0430919E0482239323892B09F042C08B
:1037300060E08DE00E948D6960E08EE00E948D69FE
:1037400080919304882309F44CC080919B0490914C
:103750009C0420919D0430919E0482239323892B05
:1037600009F046C060E088E00E948D690E946F67A2
:1037700060939404709395048093960490939704B7
:1037800081E03DC060E08DE00E948D6960E08EE0E8
:103790000E948D6980919304882381F160E088E024
:1037A0000E948D692BC09695879590939C04809379
:1037B0009B04B1CF8091650490916604029719F43F
:1037C00061E08DE0BBCF61E08EE00E948D69809169
:1037D0000406882309F4B4CF809119068111B0CF73
:1037E000EFCF80916504909166048230910510F4CA
:1037F00061E0B9CF049709F0B5CFFACF80E01F910F
:103800000F9108950E94541B811135C0E091650409
:10381000F09166043597EA30F10528F5E85AFF4F34
:103820000C94DB6E20E04FEF6CE271E00BC020E007
:103830004FEF6CE271E080EA90EA1BC020E04FEFAE
:1038400068E572E08AEA9AEA14C020E04FEF6CE281
:1038500071E080E09FEF0DC021E04FEF64E670E083
:1038600080E090EA06C020E04FEF6CE271E080E07B
:1038700091E00C94311B08950F931F93CF93DF9326
:10388000EDE1F1E0A0E0B0E040815181628173811F
:103890004115510561057105C1F13B96EC010981A6
:1038A0001A812B813C81041715072607370711F071
:1038B0001196EACF2BE02A9FE0012B9FD00D112417
:1038C000FE01E35EFE4F0480F581E02D3097E9F0C4
:1038D000C95DDE4F288121FF04C020914D022223C3
:1038E000A1F02BE02A9FE0012B9FD00D1124C95D90
:1038F000DE4F288122FF04C020914E02222329F0AE
:10390000DF91CF911F910F910994DF91CF911F917A
:103910000F9108955F926F927F928F929F92AF92D4
:10392000BF92CF92DF92EF92FF920F931F93CF93AC
:10393000DF933C0180914B0290914C0287309105BE
:1039400058F4FC01E55DFC4FC081D0E0FC01EC5D6A
:10395000FC4FE080F12C05C0EE24EA94F12CCFEF6F
:10396000D0E020E030E0A901609141047091420470
:1039700080914304909144040E94576C882389F0FD
:1039800021E0512C8091470490914804A091490472
:10399000B0914A04892B8A2B8B2B09F420E0922EBC
:1039A00002C0912C512CA0900B01B0900C01C09042
:1039B0000D01D0900E0120E030E040EC5FE3C60145
:1039C000B5010E94576C87FD2BC020E030E040E23B
:1039D00050E4C601B5010E94576C87FD24C023E363
:1039E00033E343E350E4C601B5010E94576C87FD01
:1039F0001DC026E636E646E650E4C601B5010E9443
:103A0000576C082F112707FD10950027110F001F75
:103A1000112786E090E09C01201B310B890108C032
:103A200001E010E005C002E010E002C003E010E099
:103A300060914D0470914E0480914F049091500418
:103A40000E94C36C862E20E030E04AEF53E4609180
:103A50000F017091100180911101909112010E944B
:103A6000EF6D20E030E041E655E40E94EF6D1F92DB
:103A70001F921F921F921F925B016C01292D352D01
:103A8000AE0160913806C3010E94FD440F900F9073
:103A90000F900F900F9081E0DF91CF911F910F91C8
:103AA000FF90EF90DF90CF90BF90AF909F908F905E
:103AB0007F906F905F900895CF92EF92FF920F9357
:103AC0001F93CF93DF93EC0160917604709177049C
:103AD00016161706CCF4882777FD8095982F0E943C
:103AE000F66C9B01AC016FE7C62E18E2E12E1BE6D7
:103AF000F12E0EE61EEC60915002CE010E9444436E
:103B000088E0888381E001C080E0DF91CF911F9140
:103B10000F91FF90EF90CF900895CF92DF92EF92A8
:103B2000FF920F931F93CF93DF93EC018091410796
:103B30008823E9F080914A028823C9F020E030E030
:103B40004AE754E46091420770914307809144072B
:103B5000909145070E94EF6D0E94C86C6B017C013B
:103B60008CE6D81A8AECE80A88E8F80A04C0CC2463
:103B7000CA94DC2C760120E030E040EA51E4609108
:103B800046077091470780914807909149070E9426
:103B9000EF6D0E94C86C870176019B01409148023D
:103BA00060913806CE010E94045981E0DF91CF91E7
:103BB0001F910F91FF90EF90DF90CF900895CF93DA
:103BC000DF93EC0120911301309114014091150114
:103BD000509116016091420770914307809144070C
:103BE000909145070E94A66D18162CF4CE01DF9126
:103BF000CF910C948D1D80E0DF91CF910895EF92CD
:103C0000FF920F93CF93DF93EC016091820270914A
:103C100083026D398FEF780781F0882777FD8095D3
:103C2000982F0E94F66C20E030E040E05DE30E94B7
:103C3000EF6D0E94C36C9B0102C02FEF3FE7EE24A3
:103C4000EA94FE2C0FEF4091480260913806CE01B5
:103C50000E94955981E0DF91CF910F91FF90EF90F5
:103C60000895AF92BF92CF92DF92EF92FF920F939F
:103C70001F93CF93DF935C0180916504909166045C
:103C800005978A30910530F4FC01E65EFC4FC08157
:103C9000D0E002C0C1E0D0E0C0904B02D0904C0216
:103CA00020E030E040EA51E460911301709114018A
:103CB00080911501909116010E94EF6D0E94C86CD1
:103CC0007B0123E8F21A20E030E040EA51E4609101
:103CD0006B0470916C0480916D0490916E040E944D
:103CE000EF6D0E94C86C8B019E014091480260916B
:103CF0003806C5010E942A5A81E0DF91CF911F91B9
:103D00000F91FF90EF90DF90CF90BF90AF9008950C
:103D1000EF92FF920F931F93CF93DF93EC0120E07C
:103D200030E04AE754E4609146077091470780917C
:103D30004807909149070E94EF6D0E94C86C8B0163
:103D40009C01EE24EA94FE2C4091480260913806D2
:103D5000CE010E94E05A81E0DF91CF911F910F9137
:103D6000FF90EF900895CF92DF92EF92FF920F9322
:103D70001F93CF93DF93EC01C0904607D090470785
:103D8000E0904807F090490720916B0430916C0453
:103D900040916D0450916E04C701B6010E94A66D5A
:103DA0001816D4F420E030E04AE754E4C701B60125
:103DB0000E94EF6D0E94C86C8B019C01EE24EA9476
:103DC000FE2C4091480260913806CE010E94E05AD4
:103DD00082E0888381E001C080E0DF91CF911F9174
:103DE0000F91FF90EF90DF90CF9008956F927F92A8
:103DF0008F92AF92CF92DF92EF920F931F93CF9358
:103E0000DF933C01809165049091660405978A30A8
:103E1000910558F4FC01E05FFC4FC080D12CFC01FF
:103E2000EA5FFC4FC081D0E005C0C0E0D0E0CC2408
:103E3000C394D12C80912F0490913004892BC9F424
:103E4000809131049091320488248394892B99F4D1
:103E500020E030E0A9016091330470913404809136
:103E60003504909136040E94576C811104C0812C56
:103E700002C0882483940E944906E82E20E030E0A6
:103E800040EA51E46091670470916804809169048C
:103E900090916A040E94EF6D0E94C36C8B011358CD
:103EA00020E030E040EA51E460916B0470916C04D2
:103EB00080916D0490916E040E94EF6D0E94C86C19
:103EC000DF93CF93AA24A3949B014091470263E020
:103ED00070E0C3010E94745C0F900F9081E0DF914D
:103EE000CF911F910F91EF90DF90CF90AF908F9077
:103EF0007F906F900895AF92CF92DF92EF92FF92F2
:103F00000F931F93CF93DF93EC0180916504909101
:103F1000660405970A9740F5809191049091920468
:103F2000009711F120918F043091900428173907E0
:103F300024F080917504811117C080914107882376
:103F4000B1F020E030E04AE754E460914A07709114
:103F50004B0780914C0790914D070E94EF6D0E9496
:103F6000C86C8B01135805C000E01DE702C00FEFBD
:103F70001FEF20E030E040EA51E460914E0770917D
:103F80004F0780915007909151070E94EF6D0E945A
:103F9000C86CA090880268017B01009148022091C2
:103FA00038064091470263E070E0CE010E946B5DED
:103FB00081E0DF91CF911F910F91FF90EF90DF9003
:103FC000CF90AF9008958F929F92AF92CF92DF9251
:103FD000EF92FF920F931F93CF93DF93EC018091A9
:103FE0000406882329F0A090190681E0A82601C0C4
:103FF000A12C8091730490917404181619063CF456
:104000008B3F910514F08AEF90E0F82E02C0FF2458
:10401000FA9420E030E04AEF53E460910F01709190
:10402000100180911101909112010E94EF6D0E9488
:10403000C86CEE24E39420918202309183022D39E2
:104040003F4F09F4E12CAA2019F000E010E002C073
:1040500003E010E020916504309166042E303105B4
:1040600019F420E030E002C022E030E0FF927F93BC
:104070006F938FE0882E912C93E0C92ED12C409124
:10408000470263E070E0CE010E94355E0F900F9012
:104090000F9081E0DF91CF911F910F91FF90EF90F2
:1040A000DF90CF90AF909F908F900895AF92BF9286
:1040B000CF92EF920F93CF93DF93EC0120910B01FE
:1040C00030910C0140910D0150910E01609133042B
:1040D0007091340480913504909136040E94EF6D04
:1040E00020E030E040EA51E40E94EF6D0E94C86C8D
:1040F0005B0129E1C22EEE24EA940FEF24E6409101
:10410000470263E070E0CE010E948F5E81E0DF91A4
:10411000CF910F91EF90CF90BF90AF9008954F92B5
:104120005F926F927F928F929F92AF92BF92CF9247
:10413000EF92FF920F931F93CF93DF93EC01409088
:104140000B0150900C0160900D0170900E012091B8
:104150001104309112044091130450911404C301CE
:10416000B2010E94EF6D20E030E040EA51E40E948D
:10417000EF6D0E94C86C4B015C0160914D04709121
:104180004E0480914F04909150040E94C86CC62E3A
:104190002091250430912604409127045091280451
:1041A000C301B2010E94EF6D20E030E040EA51E42B
:1041B0000E94EF6D0E94C86C7B01840194014091C4
:1041C000470263E070E0CE010E94D25E81E0DF91A1
:1041D000CF911F910F91FF90EF90CF90BF90AF9034
:1041E0009F908F907F906F905F904F9008958F92E7
:1041F0009F92AF92BF92CF92EF92FF920F931F9335
:10420000CF93DF93EC0160914D0470914E04809147
:104210004F04909150040E94C86CC62E60912B04EC
:1042200070912C0480912D0490912E0438EE832EF1
:1042300033E0932EA12CB12CA50194010E94B96EFC
:1042400079018A0160911504709116048091170418
:1042500090911804A50194010E94B96E89012AEF7A
:104260003FEF4091470263E070E0CE010E94D25ED2
:1042700081E0DF91CF911F910F91FF90EF90CF9050
:10428000BF90AF909F908F900895CF92DF92EF9262
:10429000FF920F93CF93DF93EC018091650490918F
:1042A000660401E08D30910509F400E00D97A9F452
:1042B0000E946F67C0908704D0908804E0908904C2
:1042C000F0908A046C197D098E099F0928EE33E06D
:1042D00040E050E00E94B96E02C020E030E0409122
:1042E000470263E070E0CE010E94115F81E0DF9140
:1042F000CF910F91FF90EF90DF90CF900895CF92E4
:10430000DF92EF92FF920F931F93CF93DF93EC0115
:1043100060914704709148048091490490914A0447
:1043200028EE33E040E050E00E94B96E69017A0166
:1043300020910B0130910C0140910D0150910E0123
:10434000609141047091420480914304909144042F
:104350000E94EF6D20E030E040EA51E40E94EF6DF2
:104360000E94C86C86019B014091470263E070E0A7
:10437000CE010E94485F81E0DF91CF911F910F91A4
:10438000FF90EF90DF90CF900895AF92BF92CF92C1
:10439000DF92EF92FF920F931F93CF93DF93CDB7EE
:1043A000DEB7C95CD1090FB6F894DEBF0FBECDBF32
:1043B0007C0181E994E09F938F931F9288EC8F9307
:1043C0008E010F5F1F4F1F930F930E94EA705C01D5
:1043D0000F900F900F900F900F900F9089E0A816FC
:1043E000B104D4F44BEE5EEF60E070E0C7010E94D0
:1043F000AA4586E0F70180836801C601801B910B06
:104400008A159B053CF4F60161916F01C7010E947A
:104410001046F3CF81E001C080E0C753DF4F0FB6F5
:10442000F894DEBF0FBECDBFDF91CF911F910F91EA
:10443000FF90EF90DF90CF90BF90AF9008958F9254
:104440009F92AF92BF92CF92DF92EF92FF920F9323
:104450001F93CF93DF93CDB7DEB728970FB6F894AD
:10446000DEBF0FBECDBF5C01C0907D05D0907E0544
:10447000E0917B05F0917C05CE16DF06A9F1CE0117
:1044800001967C0100E010E09C0142ED842E912C0D
:10449000CE16DF0629F4D0927C05C0927B0517C0AA
:1044A0000830110581F0DF01A056BB4F8C91D70178
:1044B0008D937D010F5F1F4FCF010196B4010E94C4
:1044C000916EFC01E5CFF0937C05E0937B05A8019C
:1044D0006091EC05C5010E94795F40E050E0B501B4
:1044E00089E396E00E949B5280E028960FB6F894EC
:1044F000DEBF0FBECDBFDF91CF911F910F91FF9017
:10450000EF90DF90CF90BF90AF909F908F900895E5
:104510008F929F92AF92BF92CF92DF92EF920F93C2
:10452000409165045091660421E04230510509F044
:1045300020E001E04330510509F000E0425051090C
:104540004230510550F4A0905507B0905607C12C49
:10455000D12C37E8C30ED11C03C0A12CB12C6501AE
:104560003FE03F933FEF3F933FE73F935BE0852E74
:10457000912CE12C40E060E00E940B600F900F90C6
:104580000F9081E00F91EF90DF90CF90BF90AF90B0
:104590009F908F9008952091650430916604225079
:1045A00031092230310520F40E94882281E00895EB
:1045B00080E00895EF92FF920F931F93CF93DF93C4
:1045C000CDB7DEB7C955D1090FB6F894DEBF0FBE1F
:1045D000CDBF7C016FE0CE0101960E94C345F7017B
:1045E00001811281238134814FEF61E0CE01019678
:1045F0000E941B51F70185818F8340E050E0BE018E
:104600006F5F7F4F89E396E00E949B52C75ADF4F4E
:104610000FB6F894DEBF0FBECDBFDF91CF911F91D3
:104620000F91FF90EF900895EF92FF920F931F93D9
:10463000CF93DF93CDB7DEB72E970FB6F894DEBFDA
:104640000FBECDBF9E01235F3F4F79018E010F5FEB
:104650001F4F28503109AE01475F5F4FBE01625FB7
:104660007F4F0E947A44882399F18091040681113A
:104670002FC080914F02882359F1909138068E8582
:10468000981326C00E946F676093150670931606F4
:1046900080931706909318068D819E81AF81B8850F
:1046A0008093110690931206A0931306B0931406FC
:1046B00023E333E948E853E469817A818B819C8163
:1046C0000E94F36B0E94C36C7093100660930F06F8
:1046D0002E960FB6F894DEBF0FBECDBFDF91CF91FF
:1046E0001F910F91FF90EF9008956F927F928F929C
:1046F0009F92AF92BF92CF92DF92EF92FF920F9371
:104700001F93CF93DF93CDB7DEB72E970FB6F894F4
:10471000DEBF0FBECDBF3C01CE0101969F938F93AC
:104720000A964C01DE011C965D0108976C011296F9
:104730007D018E01095F1F4F9E01275F3F4FAE0134
:10474000435F5F4FBE016B5F7F4FC3010E94CC5C34
:104750000F900F90882309F46DC09E859F3F09F448
:1047600069C0D3011596EC918E2F877001E010E09F
:1047700001C0000F8A95EAF7F0E0B3E0F595E79500
:10478000BA95E1F7EF53FA4F8081802361F09035BD
:1047900050F40E946F676093F6057093F70580935D
:1047A000F8059093F905D3011596EC91F0E0A3E09C
:1047B000F595E795AA95E1F7EF55FA4F80818023AB
:1047C000F1F00E946F676093FA057093FB05809388
:1047D000FC059093FD058091F4059091F5052E85DB
:1047E000009719F4822F90E006C0820F911D97FD6B
:1047F0000196959587959093F5058093F405D301DF
:104800001596EC91F0E063E0F595E7956A95E1F790
:10481000EF57FA4F8081802369F08E85853150F003
:104820000E946F676093FE057093FF0580930006FA
:10483000909301062E960FB6F894DEBF0FBECDBF43
:10484000DF91CF911F910F91FF90EF90DF90CF906C
:10485000BF90AF909F908F907F906F9008958F92B0
:104860009F92AF92BF92CF92DF92EF92FF920F93FF
:104870001F93CF93DF93CDB7DEB72A970FB6F89487
:10488000DEBF0FBECDBF4C01CE0107965C01FE011D
:1048900031966F0104977C018E01085F1F4F9E01C6
:1048A000275F3F4FAE01465F5F4FBE016B5F7F4F9B
:1048B000C4010E94B65D882309F44EC09985809199
:1048C0003806F4012581981347C0322F377081E0F4
:1048D00090E001C0880F3A95EAF758854091480268
:1048E00030E0F90193E0F595E7959A95E1F7EF53FC
:1048F000FA4F451718F46081682B04C0682F609543
:10490000708167236083F90103E0F595E7950A95C7
:10491000E1F7541306C0EF55FA4F4081482B40830E
:104920000AC0782F7095DF01AF55BA4F6C9167239D
:104930006C93451760F0F90113E0F595E7951A952A
:10494000E1F7EF57FA4F9081982B908305C0EF570E
:10495000FA4F8081872380832A960FB6F894DEBFB2
:104960000FBECDBFDF91CF911F910F91FF90EF90C0
:10497000DF90CF90BF90AF909F908F900895CF938E
:10498000DF9300D0CDB7DEB710927F0522E735E088
:10499000AE014F5F5F4F63EF75E00E94B95F882300
:1049A00021F089818093800502C0109280050F90CC
:1049B0000F90DF91CF910895FF920F931F93CF93A4
:1049C000DF9300D0CDB7DEB78C01FC01418152816D
:1049D000638174814430504F6105710549F583E06E
:1049E00090E09A8389834FEF5FEFBE016F5F7F4F47
:1049F000C8010E944F4623E0969587952A95E1F7D6
:104A00009093F2058093F105F0905002BE016F5F24
:104A10007F4FC8010E941C46F8120AC00E946F67AF
:104A20006093ED057093EE058093EF059093F0058C
:104A30000F900F90DF91CF911F910F91FF900895EC
:104A4000AF92BF92CF92DF92EF920F9320914F02DD
:104A5000211124C06091E1056F5F6093E1052EECA8
:104A60002F932EE62F932BE62F9328E22F9338E2F5
:104A7000A32E3BE6B32E3EE6C32E3EECD32EEE2411
:104A8000EA940FEF21E030E0409138060E949F4306
:104A90000F900F900F900F9081E001C080E00F9178
:104AA000EF90DF90CF90BF90AF9008958F92AF922C
:104AB000BF92CF92DF92EF92FF920F931F93CF930B
:104AC000DF93EC0180914F02811134C0609182022A
:104AD000709183026D398FEF780769F0882777FD31
:104AE0008095982F0E94F66C23E333E948E853E45D
:104AF0000E94F36B04C068E27BE68EE69EECE090D9
:104B00004207F09043070091440710914507209118
:104B100046073091470740914807509149078090D8
:104B2000E1055B016C0160913806CE010E940444EE
:104B300081E001C080E0DF91CF911F910F91FF9044
:104B4000EF90DF90CF90BF90AF908F900895CF926D
:104B5000DF92EF92FF920F931F93CF93DF9300D0DA
:104B600000D000D0CDB7DEB79E012F5F3F4F690167
:104B70002F5F3F4F79018E010D5F1F4F2E5F3F4F1B
:104B8000AE014B5F5F4FBE016A5F7F4F0E94705B5B
:104B9000882301F18C81882351F0809165049091E4
:104BA00066040B9721F08BE090E00E94C5058B8195
:104BB000882381F080E090E00E941E0682E090E071
:104BC000909366048093650483E390E09093560786
:104BD0008093550726960FB6F894DEBF0FBECDBF63
:104BE000DF91CF911F910F91FF90EF90DF90CF90C9
:104BF00008950F931F93CF93DF9300D000D0CDB7CC
:104C0000DEB78E010F5F1F4F9E012E5F3F4FAE013B
:104C10004D5F5F4FBE016C5F7F4F0E94DE5B88235C
:104C2000D9F09C8180913806981316C08B81882317
:104C300019F08A81882381F080E090E00E941E06AE
:104C400082E090E0909366048093650482E390E0B4
:104C500090935607809355070F900F900F900F90E9
:104C6000DF91CF911F910F910895CF93DF9300D0E3
:104C7000CDB7DEB7AE014F5F5F4FBE016E5F7F4FB6
:104C80000E94345C8823C1F09A8180913806981381
:104C900013C08981882381F080E090E00E941E0685
:104CA00082E090E0909366048093650482E390E054
:104CB00090935607809355070F900F90DF91CF91F7
:104CC0000895CF93DF93E1ECF5E0C1EAD5E0A1E8E8
:104CD000B5E0119219921D9285E0E13EF807C9F7FF
:104CE0001092F5051092F405DF91CF910895CF92BF
:104CF000DF92EF92FF920F931F93CF93DF93CDB785
:104D0000DEB72B970FB6F894DEBF0FBECDBF4F8333
:104D100058878B87EF81F8853097F9F0982F81FFBE
:104D200004C080914D028823D9F092FF04C0809185
:104D30004E028823A9F093FF04C0809103068823C4
:104D400061F0C6010995882351F040E050E0B601BA
:104D500089E396E00E949B5202C080E001C081E09E
:104D60002B960FB6F894DEBF0FBECDBFDF91CF916B
:104D70001F910F91FF90EF90DF90CF9008954F9289
:104D80005F927F928F929F92AF92BF92CF92DF926B
:104D9000EF92FF920F931F93CF93DF93CDB7DEB7C0
:104DA000C955D1090FB6F894DEBF0FBECDBF6FE075
:104DB000CE0101960E94C34580910306882341F1EC
:104DC0002AE037ED43E25DE360916B0470916C047F
:104DD00080916D0490916E040E94F36B9B01AC0175
:104DE0006091460770914707809148079091490765
:104DF0000E94A66D181664F480919F04811108C06A
:104E0000CE0101960E94B31E81E080939F0460C092
:104E100010929F045DE1A52E51E0B52E812C912CBE
:104E20006BE0762EF50180819181A281B381892B7F
:104E30008A2B8B2B09F44CC0D50118968D919C912F
:104E40001997892BF1F10E946F67F5010085118593
:104E5000980140E050E00E94B96E1695079520E059
:104E600030E0789CF001799CF00D112406171707AB
:104E70002807390708F5CF01895D9E4F2C01DC0119
:104E80008C9180FD1EC0E35EFE4FCE0101966C0149
:104E9000E080F18002811381248135814681578130
:104EA0006085718582850E947726882351F0D20122
:104EB0008C9181608C930CC0E95DFE4F80818E7F68
:104EC0008083BFEF8B1A9B0AEBE0AE0EB11CAACF1A
:104ED000C75ADF4F0FB6F894DEBF0FBECDBFDF91CC
:104EE000CF911F910F91FF90EF90DF90CF90BF90E7
:104EF000AF909F908F907F905F904F900895CF924A
:104F0000DF92EF92FF920F931F93CF93DF93CDB772
:104F1000DEB7C955D1090FB6F894DEBF0FBECDBFBD
:104F20006B017C016FE0CE0101960E94C345EDE16B
:104F3000F1E020E030E080819181A281B38100978F
:104F4000A105B10549F03B96C816D906EA06FB064D
:104F500029F02F5F3F4FEFCF80E018C08BE0829F9A
:104F6000F001839FF00D1124E35EFE4FCE01019608
:104F70006C01E080F18002811381248135814681BA
:104F800057816085718582850E947726C75ADF4FD9
:104F90000FB6F894DEBF0FBECDBFDF91CF911F914A
:104FA0000F91FF90EF90DF90CF9008952091F3053F
:104FB0002223C9F02093EC05FC0122ED30E0419161
:104FC000442389F080917D0590917E05DC01A056F7
:104FD000BB4F4C930196B9010E94916E90937E0550
:104FE00080937D05ECCF089580917D0590917E059D
:104FF0008E529F4F20917B0530917C05821B930B35
:1050000062ED70E00E94916E089589E396E00C9441
:105010007E5880917F0590918005981771F090E0FF
:10502000FC01EE58FA4F2081019669E070E00E9481
:10503000A56E80937F05822F089580E0089580916A
:10504000800590E0099620917F05821B910969E017
:1050500070E00E94916E0895CF92DF92EF92FF92DE
:10506000109203068091040681112FC08091E30500
:1050700081112BC080914902882339F10E946F670A
:105080006B017C01809148024FEF50E0481B5109B1
:105090008091E8059091E905A091EA05B091EB05B2
:1050A000C81AD90AEA0AFB0A22E330E0DA010E94B0
:1050B000E16E605E714B8F4F9F4F6C157D058E05C5
:1050C0009F0518F481E080930306FF90EF90DF9036
:1050D000CF900895109204061092E3051092E20515
:1050E00010920606109205061092E8051092E90546
:1050F0001092EA051092EB051092E4051092E50576
:105100001092E6051092E705109219068091650449
:10511000909166040E9721F485E090E00C94C5050B
:1051200008958F92AF92BF92CF92EF92FF920F931A
:105130001F930E946A28812C74E1A72E75E0B72E78
:10514000C12CE1EFEE2EE2E0FE2E01E813E02CEAA6
:1051500032E044E650E064E073E089E396E00E94C8
:10516000684AF4E0CF2EA9E7EA2EA5E0FA2E02E382
:105170002DE841E050E060E070E089E396E00E94B5
:10518000044B2091510230E040E050E061E070E0DB
:1051900089E396E00E94D24B80916C0690916D0657
:1051A000892B19F482E080936E0680916F069091AE
:1051B0007006892B19F484E1809371066CE37CE11D
:1051C00089E396E00E9413516FE777E289E396E066
:1051D0000E94175189E396E00E94ED510E946126DA
:1051E00081E01F910F91FF90EF90CF90BF90AF9013
:1051F0008F9008954F925F926F927F928F929F92BD
:10520000AF92BF92CF92DF92EF92FF920F931F93D4
:10521000CF93DF93EC018B015A010E946F676B0102
:105220007C0180910406882309F431C1809119061C
:1052300081112DC18091E8059091E905A091EA05C1
:10524000B091EB05A7019601281B390B4A0B5B0BAC
:10525000DA01C9018E3E9240A105B10518F00E9405
:105260006A2855C18091300690913106A09132068E
:10527000B0913306A7019601281B390B4A0B5B0B33
:10528000DA01C9018E3E9240A105B10580F540903A
:10529000340650903506609036067090370620E050
:1052A00030E0A901C301B2010E94A66D18165CF49A
:1052B00020E030E04AEF54E4C301B2010E94576C91
:1052C000181694F00AC020E030E04AEF54ECC30115
:1052D000B2010E94A66D87FD07C0F801408251828D
:1052E0006282738211E004C081E08093190610E0AD
:1052F00080911A0690911B06A0911C06B0911D0684
:10530000A7019601281B390B4A0B5B0BDA01C90177
:105310008E3E9240A105B10568F480911E069091E1
:105320001F069C01255C3F4F2737310518F4F50116
:10533000918380838091200690912106A09122067E
:10534000B0912306C81AD90AEA0AFB0AFEEECF1664
:10535000F2E0DF06E104F10408F0DAC0C0902806AC
:10536000D0902906E0902A06F0902B0620E030E04D
:10537000A901C701B6010E94A66D18165CF420E0D1
:1053800030E040EC5FE3C701B6010E94576C18168D
:105390005CF479C020E030E040EC5FEBC701B6017F
:1053A0000E94A66D87FD6FC040902C0650902D0680
:1053B00060902E0670902F0680900B0190900C014B
:1053C000A0900D01B0900E0120E030E040E951E4E2
:1053D000C501B4010E94EF6D9B01AC01C301B20194
:1053E0000E94576C18160CF44EC020E030E040E0EC
:1053F00051E4C501B4010E94EF6D9B01AC01C301F2
:10540000B2010E94A66D87FD3EC06091910470912B
:10541000920480902606909027066815790534F549
:10542000A0908F04B09090046A197B09882777FDBB
:105430008095982F0E94F66C9B01AC01C701B601C4
:105440000E94EF6D6B017C01B4016A197B0988270A
:1054500077FD8095982F0E94F66C9B01AC01C701E7
:10546000B6010E945B6C9B01AC0102C0A7019601D2
:10547000688179818A819B810E94F36B688379833B
:105480008A839B8345C081E08093190641C0809147
:10549000150690911606A0911706B0911806C81A25
:1054A000D90AEA0AFB0A20EDC21627E0D206E10477
:1054B000F10468F5C0901106D0901206E090130632
:1054C000F090140620E030E0A901C701B6010E9467
:1054D000A66D18165CF420E030E04AEF54E4C701F2
:1054E000B6010E94576C181694F00AC020E030E014
:1054F0004AEF54ECC701B6010E94A66D87FD07C0B4
:10550000F801C082D182E282F38211E001C010E092
:10551000812FDF91CF911F910F91FF90EF90DF903E
:10552000CF90BF90AF909F908F907F906F905F9043
:105530004F900895CF9380915A0690915B0618166C
:1055400019061CF4C09151060AC0019721E1289F59
:10555000F001299FF00D1124E75CF94FC08D809177
:105560005102C81731F0C093510286E492E00E94C4
:10557000BD1A8C2FCF910895FF920F931F93CF9355
:10558000DF93C62FF42ED22F90913806891325C0B1
:1055900080914902882321F0809148026817E8F041
:1055A00080910406F81621F08091E305F81217C0E7
:1055B0000E946F670091E8051091E9052091EA05C6
:1055C0003091EB05601B710B820B930B6E3E7240AA
:1055D0008105910520F00E946A2880E063C08091D7
:1055E000E2058C1730F0C8132DC0809104068F158A
:1055F00048F5809148028C1728F48091E305F81251
:105600000DC020C0C81729F08091490281111AC02D
:10561000F4CF0E949A2A8F1580F3F6CFF092E3051B
:10562000C093E2050E946F676093E4057093E505FF
:105630008093E6059093E705109202061092060605
:10564000109205060E946F676093E8057093E90564
:105650008093EA059093EB05809102068D2B809351
:1056600002060E946F670091E4051091E505209104
:10567000E6053091E705601B710B820B930B6131DE
:1056800077428105910508F4A8CF809102068171C7
:10569000813119F01092E305A0CF8091E30580934A
:1056A000040681E0DF91CF911F910F91FF90089543
:1056B000EF92FF920F931F93CF93DF93CDB7DEB797
:1056C00028970FB6F894DEBF0FBECDBF7C018E01C8
:1056D0000F5F1F4F9E012B5F3F4FAE01495F5F4F32
:1056E000BE01685F7F4F0E943B59882391F121E002
:1056F000F70145816F8188850E94BC2A882349F182
:1057000089819A81AB81BC818F3FFFEF9F07AF07F3
:10571000BF07F9F0BC01CD017459854397470E943A
:10572000F66C2FE632E143E85AE30E94EF6D609396
:1057300034067093350680933606909337060E94A0
:105740006F676093300670933106809332069093B2
:10575000330628960FB6F894DEBF0FBECDBFDF919B
:10576000CF911F910F91FF90EF900895CF92DF920C
:10577000EF92FF920F931F93CF93DF93CDB7DEB7D6
:1057800027970FB6F894DEBF0FBECDBF6C01CE01D8
:1057900001967C018E010B5F1F4F9E012D5F3F4FD5
:1057A000AE014A5F5F4FBE01695F7F4FC6010E9435
:1057B000C7598823C1F122E0F60145816E818F81AE
:1057C0000E94BC2A882379F190910406F601858114
:1057D000981323C06B817C816F3FFFE77F07E9F05F
:1057E000882777FD8095982F0E94F66C20E030E0A6
:1057F00040E052E40E94EF6D0E94C36C70931F065C
:1058000060931E060E946F6760931A0670931B06D2
:1058100080931C0690931D0606C08DE99FEF909320
:105820001F0680931E0627960FB6F894DEBF0FBEA4
:10583000CDBFDF91CF911F910F91FF90EF90DF903F
:10584000CF900895AF92BF92CF92DF92EF92FF92E6
:105850000F931F93CF93DF93CDB7DEB72A970FB681
:10586000F894DEBF0FBECDBF5C01CE0101966C0186
:10587000FE0133967F018E010B5F1F4F9E01295F52
:105880003F4FAE01475F5F4FBE01665F7F4FC5016F
:105890000E946B5A882309F476C028E0F5014581FF
:1058A00069858A850E94BC2A882309F46CC080918E
:1058B0006504909166048730910514F4019761F5B1
:1058C000EF81F8853197E730F105C8F4EE59FF4FC5
:1058D0000C94DB6E87E090E01DC08EE090E01AC073
:1058E00088E090E017C089E090E014C08AE090E082
:1058F00011C08DE090E00EC081E090E00BC080917F
:10590000050690910606009739F08F3F910521F02A
:1059100085E090E00E94C5056D817E8180E090E089
:105920000E94F46C2DEC3CEC4CE45DE30E94EF6DC6
:1059300060930B0670930C0680930D0690930E06F1
:105940006B817C817D57882777FD8095982F0E94F9
:10595000F66C2DEC3CEC4CE45DE30E94EF6D609343
:105960000706709308068093090690930A068F81B4
:105970009885909306068093050689819A81909375
:105980004C0280934B022A960FB6F894DEBF0FBEEE
:10599000CDBFDF91CF911F910F91FF90EF90DF90DE
:1059A000CF90BF90AF900895EF92FF920F931F9307
:1059B000CF93DF93CDB7DEB728970FB6F894DEBF4D
:1059C0000FBECDBF7C018E010B5F1F4F9E012F5F6D
:1059D0003F4FAE01495F5F4FBE01685F7F4F0E943E
:1059E000165B882309F447C020E1F70145816F81E8
:1059F00088850E94BC2A8823F1F169817A818B8194
:105A00009C810E94F46C2FE632E143E85AE30E9445
:105A1000EF6D60932C0670932D0680932E06909365
:105A20002F062D813E813093250620932406209158
:105A30004E0730914F0740915007509151070E94F7
:105A4000F26B609328067093290680932A06909340
:105A50002B06809191049091920490932706809355
:105A600026060E946F67609320067093210680933C
:105A700022069093230628960FB6F894DEBF0FBE39
:105A8000CDBFDF91CF911F910F91FF90EF900895BF
:105A900089E396E00C9419678AE08093EF0281E035
:105AA0008093540708958091DD068534E9F03CF435
:105AB000813471F08234D9F487E090E011C08F34E2
:105AC00051F0803559F0863491F48AE090E008C0B6
:105AD00088E090E005C089E090E002C08CE090E0B2
